{
	"contracts/CrowdFund.sol": {
		"CrowdFund": {
			"abi": [
				{
					"inputs": [
						{
							"internalType": "address",
							"name": "_token",
							"type": "address"
						}
					],
					"stateMutability": "nonpayable",
					"type": "constructor"
				},
				{
					"anonymous": false,
					"inputs": [
						{
							"indexed": false,
							"internalType": "uint256",
							"name": "id",
							"type": "uint256"
						}
					],
					"name": "Cancel",
					"type": "event"
				},
				{
					"anonymous": false,
					"inputs": [
						{
							"indexed": true,
							"internalType": "uint256",
							"name": "id",
							"type": "uint256"
						},
						{
							"indexed": false,
							"internalType": "address",
							"name": "creator",
							"type": "address"
						},
						{
							"indexed": false,
							"internalType": "uint256",
							"name": "amount",
							"type": "uint256"
						}
					],
					"name": "Claim",
					"type": "event"
				},
				{
					"anonymous": false,
					"inputs": [
						{
							"indexed": false,
							"internalType": "uint256",
							"name": "id",
							"type": "uint256"
						},
						{
							"indexed": true,
							"internalType": "address",
							"name": "creator",
							"type": "address"
						},
						{
							"indexed": false,
							"internalType": "uint256",
							"name": "goal",
							"type": "uint256"
						},
						{
							"indexed": false,
							"internalType": "uint256",
							"name": "start",
							"type": "uint256"
						},
						{
							"indexed": false,
							"internalType": "uint256",
							"name": "end",
							"type": "uint256"
						}
					],
					"name": "Created",
					"type": "event"
				},
				{
					"anonymous": false,
					"inputs": [
						{
							"indexed": true,
							"internalType": "address",
							"name": "previousOwner",
							"type": "address"
						},
						{
							"indexed": true,
							"internalType": "address",
							"name": "newOwner",
							"type": "address"
						}
					],
					"name": "OwnershipTransferred",
					"type": "event"
				},
				{
					"anonymous": false,
					"inputs": [
						{
							"indexed": true,
							"internalType": "uint256",
							"name": "id",
							"type": "uint256"
						},
						{
							"indexed": true,
							"internalType": "address",
							"name": "pledger",
							"type": "address"
						},
						{
							"indexed": false,
							"internalType": "uint256",
							"name": "amount",
							"type": "uint256"
						}
					],
					"name": "Pledged",
					"type": "event"
				},
				{
					"anonymous": false,
					"inputs": [
						{
							"indexed": false,
							"internalType": "uint256",
							"name": "id",
							"type": "uint256"
						},
						{
							"indexed": true,
							"internalType": "address",
							"name": "caller",
							"type": "address"
						},
						{
							"indexed": false,
							"internalType": "uint256",
							"name": "amount",
							"type": "uint256"
						}
					],
					"name": "Refund",
					"type": "event"
				},
				{
					"anonymous": false,
					"inputs": [
						{
							"indexed": true,
							"internalType": "uint256",
							"name": "id",
							"type": "uint256"
						},
						{
							"indexed": true,
							"internalType": "address",
							"name": "unpledger",
							"type": "address"
						},
						{
							"indexed": false,
							"internalType": "uint256",
							"name": "amount",
							"type": "uint256"
						}
					],
					"name": "Unpledged",
					"type": "event"
				},
				{
					"inputs": [
						{
							"internalType": "uint256",
							"name": "id",
							"type": "uint256"
						}
					],
					"name": "cancel",
					"outputs": [],
					"stateMutability": "nonpayable",
					"type": "function"
				},
				{
					"inputs": [
						{
							"internalType": "uint256",
							"name": "id",
							"type": "uint256"
						}
					],
					"name": "claimAllAndEnd",
					"outputs": [],
					"stateMutability": "nonpayable",
					"type": "function"
				},
				{
					"inputs": [
						{
							"internalType": "uint256",
							"name": "id",
							"type": "uint256"
						},
						{
							"internalType": "uint256",
							"name": "amount",
							"type": "uint256"
						}
					],
					"name": "claimPartial",
					"outputs": [],
					"stateMutability": "nonpayable",
					"type": "function"
				},
				{
					"inputs": [
						{
							"internalType": "uint256",
							"name": "_goal",
							"type": "uint256"
						},
						{
							"internalType": "uint32",
							"name": "_start",
							"type": "uint32"
						},
						{
							"internalType": "uint32",
							"name": "_end",
							"type": "uint32"
						}
					],
					"name": "createCampaign",
					"outputs": [],
					"stateMutability": "nonpayable",
					"type": "function"
				},
				{
					"inputs": [],
					"name": "getCampaigns",
					"outputs": [
						{
							"components": [
								{
									"internalType": "uint256",
									"name": "id",
									"type": "uint256"
								},
								{
									"internalType": "address",
									"name": "creator",
									"type": "address"
								},
								{
									"internalType": "uint256",
									"name": "goal",
									"type": "uint256"
								},
								{
									"internalType": "uint256",
									"name": "pledged",
									"type": "uint256"
								},
								{
									"internalType": "uint32",
									"name": "start",
									"type": "uint32"
								},
								{
									"internalType": "uint32",
									"name": "end",
									"type": "uint32"
								},
								{
									"internalType": "address[]",
									"name": "donors",
									"type": "address[]"
								},
								{
									"internalType": "bool",
									"name": "claimed",
									"type": "bool"
								},
								{
									"internalType": "bool",
									"name": "canOperate",
									"type": "bool"
								}
							],
							"internalType": "struct CrowdFund.Campaign[]",
							"name": "",
							"type": "tuple[]"
						}
					],
					"stateMutability": "view",
					"type": "function"
				},
				{
					"inputs": [],
					"name": "owner",
					"outputs": [
						{
							"internalType": "address",
							"name": "",
							"type": "address"
						}
					],
					"stateMutability": "view",
					"type": "function"
				},
				{
					"inputs": [
						{
							"internalType": "uint256",
							"name": "id",
							"type": "uint256"
						},
						{
							"internalType": "uint256",
							"name": "amount",
							"type": "uint256"
						}
					],
					"name": "pledge",
					"outputs": [],
					"stateMutability": "nonpayable",
					"type": "function"
				},
				{
					"inputs": [
						{
							"internalType": "uint256",
							"name": "id",
							"type": "uint256"
						}
					],
					"name": "refund",
					"outputs": [],
					"stateMutability": "nonpayable",
					"type": "function"
				},
				{
					"inputs": [],
					"name": "renounceOwnership",
					"outputs": [],
					"stateMutability": "nonpayable",
					"type": "function"
				},
				{
					"inputs": [
						{
							"internalType": "uint256",
							"name": "id",
							"type": "uint256"
						}
					],
					"name": "toggleCanOperate",
					"outputs": [],
					"stateMutability": "nonpayable",
					"type": "function"
				},
				{
					"inputs": [],
					"name": "token",
					"outputs": [
						{
							"internalType": "contract IERC20",
							"name": "",
							"type": "address"
						}
					],
					"stateMutability": "view",
					"type": "function"
				},
				{
					"inputs": [
						{
							"internalType": "address",
							"name": "newOwner",
							"type": "address"
						}
					],
					"name": "transferOwnership",
					"outputs": [],
					"stateMutability": "nonpayable",
					"type": "function"
				},
				{
					"inputs": [
						{
							"internalType": "uint256",
							"name": "id",
							"type": "uint256"
						},
						{
							"internalType": "uint256",
							"name": "amount",
							"type": "uint256"
						}
					],
					"name": "unpledge",
					"outputs": [],
					"stateMutability": "nonpayable",
					"type": "function"
				}
			],
			"devdoc": {
				"kind": "dev",
				"methods": {
					"owner()": {
						"details": "Returns the address of the current owner."
					},
					"renounceOwnership()": {
						"details": "Leaves the contract without owner. It will not be possible to call `onlyOwner` functions anymore. Can only be called by the current owner. NOTE: Renouncing ownership will leave the contract without an owner, thereby removing any functionality that is only available to the owner."
					},
					"transferOwnership(address)": {
						"details": "Transfers ownership of the contract to a new account (`newOwner`). Can only be called by the current owner."
					}
				},
				"version": 1
			},
			"evm": {
				"assembly": "    /* \"contracts/CrowdFund.sol\":173:6113  contract CrowdFund is Ownable {... */\n  mstore(0x40, 0xa0)\n    /* \"contracts/CrowdFund.sol\":1157:1224  constructor(address _token) {... */\n  callvalue\n  dup1\n  iszero\n  tag_1\n  jumpi\n  0x00\n  dup1\n  revert\ntag_1:\n  pop\n  mload(0x40)\n  sub(codesize, bytecodeSize)\n  dup1\n  bytecodeSize\n  dup4\n  codecopy\n  dup2\n  dup2\n  add\n  0x40\n  mstore\n  dup2\n  add\n  swap1\n  tag_2\n  swap2\n  swap1\n  tag_3\n  jump\t// in\ntag_2:\n    /* \"@openzeppelin/contracts/access/Ownable.sol\":936:968  _transferOwnership(_msgSender()) */\n  tag_7\n    /* \"@openzeppelin/contracts/access/Ownable.sol\":955:967  _msgSender() */\n  tag_8\n    /* \"@openzeppelin/contracts/access/Ownable.sol\":955:965  _msgSender */\n  shl(0x20, tag_9)\n    /* \"@openzeppelin/contracts/access/Ownable.sol\":955:967  _msgSender() */\n  0x20\n  shr\n  jump\t// in\ntag_8:\n    /* \"@openzeppelin/contracts/access/Ownable.sol\":936:954  _transferOwnership */\n  shl(0x20, tag_10)\n    /* \"@openzeppelin/contracts/access/Ownable.sol\":936:968  _transferOwnership(_msgSender()) */\n  0x20\n  shr\n  jump\t// in\ntag_7:\n    /* \"contracts/CrowdFund.sol\":1210:1216  _token */\n  dup1\n    /* \"contracts/CrowdFund.sol\":1195:1217  token = IERC20(_token) */\n  0xffffffffffffffffffffffffffffffffffffffff\n  and\n  0x80\n  dup2\n  0xffffffffffffffffffffffffffffffffffffffff\n  and\n  dup2\n  mstore\n  pop\n  pop\n    /* \"contracts/CrowdFund.sol\":1157:1224  constructor(address _token) {... */\n  pop\n    /* \"contracts/CrowdFund.sol\":173:6113  contract CrowdFund is Ownable {... */\n  jump(tag_12)\n    /* \"@openzeppelin/contracts/utils/Context.sol\":640:736  function _msgSender() internal view virtual returns (address) {... */\ntag_9:\n    /* \"@openzeppelin/contracts/utils/Context.sol\":693:700  address */\n  0x00\n    /* \"@openzeppelin/contracts/utils/Context.sol\":719:729  msg.sender */\n  caller\n    /* \"@openzeppelin/contracts/utils/Context.sol\":712:729  return msg.sender */\n  swap1\n  pop\n    /* \"@openzeppelin/contracts/utils/Context.sol\":640:736  function _msgSender() internal view virtual returns (address) {... */\n  swap1\n  jump\t// out\n    /* \"@openzeppelin/contracts/access/Ownable.sol\":2433:2620  function _transferOwnership(address newOwner) internal virtual {... */\ntag_10:\n    /* \"@openzeppelin/contracts/access/Ownable.sol\":2506:2522  address oldOwner */\n  0x00\n    /* \"@openzeppelin/contracts/access/Ownable.sol\":2525:2531  _owner */\n  dup1\n  0x00\n  swap1\n  sload\n  swap1\n  0x0100\n  exp\n  swap1\n  div\n  0xffffffffffffffffffffffffffffffffffffffff\n  and\n    /* \"@openzeppelin/contracts/access/Ownable.sol\":2506:2531  address oldOwner = _owner */\n  swap1\n  pop\n    /* \"@openzeppelin/contracts/access/Ownable.sol\":2550:2558  newOwner */\n  dup2\n    /* \"@openzeppelin/contracts/access/Ownable.sol\":2541:2547  _owner */\n  0x00\n  dup1\n    /* \"@openzeppelin/contracts/access/Ownable.sol\":2541:2558  _owner = newOwner */\n  0x0100\n  exp\n  dup2\n  sload\n  dup2\n  0xffffffffffffffffffffffffffffffffffffffff\n  mul\n  not\n  and\n  swap1\n  dup4\n  0xffffffffffffffffffffffffffffffffffffffff\n  and\n  mul\n  or\n  swap1\n  sstore\n  pop\n    /* \"@openzeppelin/contracts/access/Ownable.sol\":2604:2612  newOwner */\n  dup2\n    /* \"@openzeppelin/contracts/access/Ownable.sol\":2573:2613  OwnershipTransferred(oldOwner, newOwner) */\n  0xffffffffffffffffffffffffffffffffffffffff\n  and\n    /* \"@openzeppelin/contracts/access/Ownable.sol\":2594:2602  oldOwner */\n  dup2\n    /* \"@openzeppelin/contracts/access/Ownable.sol\":2573:2613  OwnershipTransferred(oldOwner, newOwner) */\n  0xffffffffffffffffffffffffffffffffffffffff\n  and\n  0x8be0079c531659141344cd1fd0a4f28419497f9722a3daafe3b4186f6b6457e0\n  mload(0x40)\n  mload(0x40)\n  dup1\n  swap2\n  sub\n  swap1\n  log3\n    /* \"@openzeppelin/contracts/access/Ownable.sol\":2496:2620  {... */\n  pop\n    /* \"@openzeppelin/contracts/access/Ownable.sol\":2433:2620  function _transferOwnership(address newOwner) internal virtual {... */\n  pop\n  jump\t// out\n    /* \"#utility.yul\":88:205   */\ntag_16:\n    /* \"#utility.yul\":197:198   */\n  0x00\n    /* \"#utility.yul\":194:195   */\n  dup1\n    /* \"#utility.yul\":187:199   */\n  revert\n    /* \"#utility.yul\":334:460   */\ntag_18:\n    /* \"#utility.yul\":371:378   */\n  0x00\n    /* \"#utility.yul\":411:453   */\n  0xffffffffffffffffffffffffffffffffffffffff\n    /* \"#utility.yul\":404:409   */\n  dup3\n    /* \"#utility.yul\":400:454   */\n  and\n    /* \"#utility.yul\":389:454   */\n  swap1\n  pop\n    /* \"#utility.yul\":334:460   */\n  swap2\n  swap1\n  pop\n  jump\t// out\n    /* \"#utility.yul\":466:562   */\ntag_19:\n    /* \"#utility.yul\":503:510   */\n  0x00\n    /* \"#utility.yul\":532:556   */\n  tag_28\n    /* \"#utility.yul\":550:555   */\n  dup3\n    /* \"#utility.yul\":532:556   */\n  tag_18\n  jump\t// in\ntag_28:\n    /* \"#utility.yul\":521:556   */\n  swap1\n  pop\n    /* \"#utility.yul\":466:562   */\n  swap2\n  swap1\n  pop\n  jump\t// out\n    /* \"#utility.yul\":568:690   */\ntag_20:\n    /* \"#utility.yul\":641:665   */\n  tag_30\n    /* \"#utility.yul\":659:664   */\n  dup2\n    /* \"#utility.yul\":641:665   */\n  tag_19\n  jump\t// in\ntag_30:\n    /* \"#utility.yul\":634:639   */\n  dup2\n    /* \"#utility.yul\":631:666   */\n  eq\n    /* \"#utility.yul\":621:684   */\n  tag_31\n  jumpi\n    /* \"#utility.yul\":680:681   */\n  0x00\n    /* \"#utility.yul\":677:678   */\n  dup1\n    /* \"#utility.yul\":670:682   */\n  revert\n    /* \"#utility.yul\":621:684   */\ntag_31:\n    /* \"#utility.yul\":568:690   */\n  pop\n  jump\t// out\n    /* \"#utility.yul\":696:839   */\ntag_21:\n    /* \"#utility.yul\":753:758   */\n  0x00\n    /* \"#utility.yul\":784:790   */\n  dup2\n    /* \"#utility.yul\":778:791   */\n  mload\n    /* \"#utility.yul\":769:791   */\n  swap1\n  pop\n    /* \"#utility.yul\":800:833   */\n  tag_33\n    /* \"#utility.yul\":827:832   */\n  dup2\n    /* \"#utility.yul\":800:833   */\n  tag_20\n  jump\t// in\ntag_33:\n    /* \"#utility.yul\":696:839   */\n  swap3\n  swap2\n  pop\n  pop\n  jump\t// out\n    /* \"#utility.yul\":845:1196   */\ntag_3:\n    /* \"#utility.yul\":915:921   */\n  0x00\n    /* \"#utility.yul\":964:966   */\n  0x20\n    /* \"#utility.yul\":952:961   */\n  dup3\n    /* \"#utility.yul\":943:950   */\n  dup5\n    /* \"#utility.yul\":939:962   */\n  sub\n    /* \"#utility.yul\":935:967   */\n  slt\n    /* \"#utility.yul\":932:1051   */\n  iszero\n  tag_35\n  jumpi\n    /* \"#utility.yul\":970:1049   */\n  tag_36\n  tag_16\n  jump\t// in\ntag_36:\n    /* \"#utility.yul\":932:1051   */\ntag_35:\n    /* \"#utility.yul\":1090:1091   */\n  0x00\n    /* \"#utility.yul\":1115:1179   */\n  tag_37\n    /* \"#utility.yul\":1171:1178   */\n  dup5\n    /* \"#utility.yul\":1162:1168   */\n  dup3\n    /* \"#utility.yul\":1151:1160   */\n  dup6\n    /* \"#utility.yul\":1147:1169   */\n  add\n    /* \"#utility.yul\":1115:1179   */\n  tag_21\n  jump\t// in\ntag_37:\n    /* \"#utility.yul\":1105:1179   */\n  swap2\n  pop\n    /* \"#utility.yul\":1061:1189   */\n  pop\n    /* \"#utility.yul\":845:1196   */\n  swap3\n  swap2\n  pop\n  pop\n  jump\t// out\n    /* \"contracts/CrowdFund.sol\":173:6113  contract CrowdFund is Ownable {... */\ntag_12:\n  mload(0x80)\n  codecopy(0x00, dataOffset(sub_0), dataSize(sub_0))\n  0x00\n  assignImmutable(\"0x5c48f5d4977555676efc2c019ca108a5c9064a3c6bfe4983df03a566e2405364\")\n  return(0x00, dataSize(sub_0))\nstop\n\nsub_0: assembly {\n        /* \"contracts/CrowdFund.sol\":173:6113  contract CrowdFund is Ownable {... */\n      mstore(0x40, 0x80)\n      callvalue\n      dup1\n      iszero\n      tag_1\n      jumpi\n      0x00\n      dup1\n      revert\n    tag_1:\n      pop\n      jumpi(tag_2, lt(calldatasize, 0x04))\n      shr(0xe0, calldataload(0x00))\n      dup1\n      0x8da5cb5b\n      gt\n      tag_16\n      jumpi\n      dup1\n      0xe4913224\n      gt\n      tag_17\n      jumpi\n      dup1\n      0xe4913224\n      eq\n      tag_12\n      jumpi\n      dup1\n      0xf2fde38b\n      eq\n      tag_13\n      jumpi\n      dup1\n      0xfc0c546a\n      eq\n      tag_14\n      jumpi\n      dup1\n      0xfde327be\n      eq\n      tag_15\n      jumpi\n      jump(tag_2)\n    tag_17:\n      dup1\n      0x8da5cb5b\n      eq\n      tag_9\n      jumpi\n      dup1\n      0xa6b03633\n      eq\n      tag_10\n      jumpi\n      dup1\n      0xad94a7d7\n      eq\n      tag_11\n      jumpi\n      jump(tag_2)\n    tag_16:\n      dup1\n      0x26b0739c\n      eq\n      tag_3\n      jumpi\n      dup1\n      0x278ecde1\n      eq\n      tag_4\n      jumpi\n      dup1\n      0x40e58ee5\n      eq\n      tag_5\n      jumpi\n      dup1\n      0x4854424e\n      eq\n      tag_6\n      jumpi\n      dup1\n      0x711853ab\n      eq\n      tag_7\n      jumpi\n      dup1\n      0x715018a6\n      eq\n      tag_8\n      jumpi\n    tag_2:\n      0x00\n      dup1\n      revert\n        /* \"contracts/CrowdFund.sol\":3694:4323  function claimAllAndEnd(uint256 id) external {... */\n    tag_3:\n      tag_18\n      0x04\n      dup1\n      calldatasize\n      sub\n      dup2\n      add\n      swap1\n      tag_19\n      swap2\n      swap1\n      tag_20\n      jump\t// in\n    tag_19:\n      tag_21\n      jump\t// in\n    tag_18:\n      stop\n        /* \"contracts/CrowdFund.sol\":5468:6111  function refund(uint256 id) external onlyOwner {... */\n    tag_4:\n      tag_22\n      0x04\n      dup1\n      calldatasize\n      sub\n      dup2\n      add\n      swap1\n      tag_23\n      swap2\n      swap1\n      tag_20\n      jump\t// in\n    tag_23:\n      tag_24\n      jump\t// in\n    tag_22:\n      stop\n        /* \"contracts/CrowdFund.sol\":4878:5301  function cancel(uint256 id) external {... */\n    tag_5:\n      tag_25\n      0x04\n      dup1\n      calldatasize\n      sub\n      dup2\n      add\n      swap1\n      tag_26\n      swap2\n      swap1\n      tag_20\n      jump\t// in\n    tag_26:\n      tag_27\n      jump\t// in\n    tag_25:\n      stop\n        /* \"contracts/CrowdFund.sol\":4329:4384  function claimPartial(uint id, uint amount) external {} */\n    tag_6:\n      tag_28\n      0x04\n      dup1\n      calldatasize\n      sub\n      dup2\n      add\n      swap1\n      tag_29\n      swap2\n      swap1\n      tag_30\n      jump\t// in\n    tag_29:\n      tag_31\n      jump\t// in\n    tag_28:\n      stop\n        /* \"contracts/CrowdFund.sol\":3098:3518  function unpledge(uint256 id, uint256 amount) external _isActive(id) {... */\n    tag_7:\n      tag_32\n      0x04\n      dup1\n      calldatasize\n      sub\n      dup2\n      add\n      swap1\n      tag_33\n      swap2\n      swap1\n      tag_30\n      jump\t// in\n    tag_33:\n      tag_34\n      jump\t// in\n    tag_32:\n      stop\n        /* \"@openzeppelin/contracts/access/Ownable.sol\":1831:1932  function renounceOwnership() public virtual onlyOwner {... */\n    tag_8:\n      tag_35\n      tag_36\n      jump\t// in\n    tag_35:\n      stop\n        /* \"@openzeppelin/contracts/access/Ownable.sol\":1201:1286  function owner() public view virtual returns (address) {... */\n    tag_9:\n      tag_37\n      tag_38\n      jump\t// in\n    tag_37:\n      mload(0x40)\n      tag_39\n      swap2\n      swap1\n      tag_40\n      jump\t// in\n    tag_39:\n      mload(0x40)\n      dup1\n      swap2\n      sub\n      swap1\n      return\n        /* \"contracts/CrowdFund.sol\":2438:2537  function getCampaigns() external view returns (Campaign[] memory) {... */\n    tag_10:\n      tag_41\n      tag_42\n      jump\t// in\n    tag_41:\n      mload(0x40)\n      tag_43\n      swap2\n      swap1\n      tag_44\n      jump\t// in\n    tag_43:\n      mload(0x40)\n      dup1\n      swap2\n      sub\n      swap1\n      return\n        /* \"contracts/CrowdFund.sol\":4570:4734  function toggleCanOperate(uint id) external onlyOwner {... */\n    tag_11:\n      tag_45\n      0x04\n      dup1\n      calldatasize\n      sub\n      dup2\n      add\n      swap1\n      tag_46\n      swap2\n      swap1\n      tag_20\n      jump\t// in\n    tag_46:\n      tag_47\n      jump\t// in\n    tag_45:\n      stop\n        /* \"contracts/CrowdFund.sol\":1665:2432  function createCampaign(... */\n    tag_12:\n      tag_48\n      0x04\n      dup1\n      calldatasize\n      sub\n      dup2\n      add\n      swap1\n      tag_49\n      swap2\n      swap1\n      tag_50\n      jump\t// in\n    tag_49:\n      tag_51\n      jump\t// in\n    tag_48:\n      stop\n        /* \"@openzeppelin/contracts/access/Ownable.sol\":2081:2279  function transferOwnership(address newOwner) public virtual onlyOwner {... */\n    tag_13:\n      tag_52\n      0x04\n      dup1\n      calldatasize\n      sub\n      dup2\n      add\n      swap1\n      tag_53\n      swap2\n      swap1\n      tag_54\n      jump\t// in\n    tag_53:\n      tag_55\n      jump\t// in\n    tag_52:\n      stop\n        /* \"contracts/CrowdFund.sol\":499:528  IERC20 public immutable token */\n    tag_14:\n      tag_56\n      tag_57\n      jump\t// in\n    tag_56:\n      mload(0x40)\n      tag_58\n      swap2\n      swap1\n      tag_59\n      jump\t// in\n    tag_58:\n      mload(0x40)\n      dup1\n      swap2\n      sub\n      swap1\n      return\n        /* \"contracts/CrowdFund.sol\":2543:3092  function pledge(uint256 id, uint256 amount) external _isActive(id) {... */\n    tag_15:\n      tag_60\n      0x04\n      dup1\n      calldatasize\n      sub\n      dup2\n      add\n      swap1\n      tag_61\n      swap2\n      swap1\n      tag_30\n      jump\t// in\n    tag_61:\n      tag_62\n      jump\t// in\n    tag_60:\n      stop\n        /* \"contracts/CrowdFund.sol\":3694:4323  function claimAllAndEnd(uint256 id) external {... */\n    tag_21:\n        /* \"contracts/CrowdFund.sol\":3749:3774  Campaign storage campaign */\n      0x00\n        /* \"contracts/CrowdFund.sol\":3777:3786  campaigns */\n      0x02\n        /* \"contracts/CrowdFund.sol\":3787:3789  id */\n      dup3\n        /* \"contracts/CrowdFund.sol\":3777:3790  campaigns[id] */\n      dup2\n      sload\n      dup2\n      lt\n      tag_64\n      jumpi\n      tag_65\n      tag_66\n      jump\t// in\n    tag_65:\n    tag_64:\n      swap1\n      0x00\n      mstore\n      keccak256(0x00, 0x20)\n      swap1\n      0x07\n      mul\n      add\n        /* \"contracts/CrowdFund.sol\":3749:3790  Campaign storage campaign = campaigns[id] */\n      swap1\n      pop\n        /* \"contracts/CrowdFund.sol\":3828:3838  msg.sender */\n      caller\n        /* \"contracts/CrowdFund.sol\":3808:3838  campaign.creator == msg.sender */\n      0xffffffffffffffffffffffffffffffffffffffff\n      and\n        /* \"contracts/CrowdFund.sol\":3808:3816  campaign */\n      dup2\n        /* \"contracts/CrowdFund.sol\":3808:3824  campaign.creator */\n      0x01\n      add\n      0x00\n      swap1\n      sload\n      swap1\n      0x0100\n      exp\n      swap1\n      div\n      0xffffffffffffffffffffffffffffffffffffffff\n      and\n        /* \"contracts/CrowdFund.sol\":3808:3838  campaign.creator == msg.sender */\n      0xffffffffffffffffffffffffffffffffffffffff\n      and\n      eq\n        /* \"contracts/CrowdFund.sol\":3800:3883  require(campaign.creator == msg.sender, \"You are not the creator of this campaign\") */\n      tag_68\n      jumpi\n      mload(0x40)\n      0x08c379a000000000000000000000000000000000000000000000000000000000\n      dup2\n      mstore\n      0x04\n      add\n      tag_69\n      swap1\n      tag_70\n      jump\t// in\n    tag_69:\n      mload(0x40)\n      dup1\n      swap2\n      sub\n      swap1\n      revert\n    tag_68:\n        /* \"contracts/CrowdFund.sol\":3901:3909  campaign */\n      dup1\n        /* \"contracts/CrowdFund.sol\":3901:3920  campaign.canOperate */\n      0x06\n      add\n      0x01\n      swap1\n      sload\n      swap1\n      0x0100\n      exp\n      swap1\n      div\n      0xff\n      and\n        /* \"contracts/CrowdFund.sol\":3893:3968  require(campaign.canOperate, \"This campaign's operations has been stopped\") */\n      tag_71\n      jumpi\n      mload(0x40)\n      0x08c379a000000000000000000000000000000000000000000000000000000000\n      dup2\n      mstore\n      0x04\n      add\n      tag_72\n      swap1\n      tag_73\n      jump\t// in\n    tag_72:\n      mload(0x40)\n      dup1\n      swap2\n      sub\n      swap1\n      revert\n    tag_71:\n        /* \"contracts/CrowdFund.sol\":4006:4011  false */\n      0x00\n        /* \"contracts/CrowdFund.sol\":3986:4011  campaign.claimed == false */\n      iszero\n      iszero\n        /* \"contracts/CrowdFund.sol\":3986:3994  campaign */\n      dup2\n        /* \"contracts/CrowdFund.sol\":3986:4002  campaign.claimed */\n      0x06\n      add\n      0x00\n      swap1\n      sload\n      swap1\n      0x0100\n      exp\n      swap1\n      div\n      0xff\n      and\n        /* \"contracts/CrowdFund.sol\":3986:4011  campaign.claimed == false */\n      iszero\n      iszero\n      eq\n        /* \"contracts/CrowdFund.sol\":3978:4064  require(campaign.claimed == false, \"Tokens of this campaign has been already claimed\") */\n      tag_74\n      jumpi\n      mload(0x40)\n      0x08c379a000000000000000000000000000000000000000000000000000000000\n      dup2\n      mstore\n      0x04\n      add\n      tag_75\n      swap1\n      tag_76\n      jump\t// in\n    tag_75:\n      mload(0x40)\n      dup1\n      swap2\n      sub\n      swap1\n      revert\n    tag_74:\n        /* \"contracts/CrowdFund.sol\":4075:4084  bool sent */\n      0x00\n        /* \"contracts/CrowdFund.sol\":4087:4092  token */\n      immutable(\"0x5c48f5d4977555676efc2c019ca108a5c9064a3c6bfe4983df03a566e2405364\")\n        /* \"contracts/CrowdFund.sol\":4087:4101  token.transfer */\n      0xffffffffffffffffffffffffffffffffffffffff\n      and\n      0xa9059cbb\n        /* \"contracts/CrowdFund.sol\":4102:4112  msg.sender */\n      caller\n        /* \"contracts/CrowdFund.sol\":4114:4122  campaign */\n      dup5\n        /* \"contracts/CrowdFund.sol\":4114:4130  campaign.pledged */\n      0x03\n      add\n      sload\n        /* \"contracts/CrowdFund.sol\":4087:4131  token.transfer(msg.sender, campaign.pledged) */\n      mload(0x40)\n      dup4\n      0xffffffff\n      and\n      0xe0\n      shl\n      dup2\n      mstore\n      0x04\n      add\n      tag_77\n      swap3\n      swap2\n      swap1\n      tag_78\n      jump\t// in\n    tag_77:\n      0x20\n      mload(0x40)\n      dup1\n      dup4\n      sub\n      dup2\n      0x00\n      dup8\n      gas\n      call\n      iszero\n      dup1\n      iszero\n      tag_80\n      jumpi\n      returndatasize\n      0x00\n      dup1\n      returndatacopy\n      revert(0x00, returndatasize)\n    tag_80:\n      pop\n      pop\n      pop\n      pop\n      mload(0x40)\n      returndatasize\n      not(0x1f)\n      0x1f\n      dup3\n      add\n      and\n      dup3\n      add\n      dup1\n      0x40\n      mstore\n      pop\n      dup2\n      add\n      swap1\n      tag_81\n      swap2\n      swap1\n      tag_82\n      jump\t// in\n    tag_81:\n        /* \"contracts/CrowdFund.sol\":4075:4131  bool sent = token.transfer(msg.sender, campaign.pledged) */\n      swap1\n      pop\n        /* \"contracts/CrowdFund.sol\":4149:4153  sent */\n      dup1\n        /* \"contracts/CrowdFund.sol\":4141:4192  require(sent, \"There was a problem sending tokens\") */\n      tag_83\n      jumpi\n      mload(0x40)\n      0x08c379a000000000000000000000000000000000000000000000000000000000\n      dup2\n      mstore\n      0x04\n      add\n      tag_84\n      swap1\n      tag_85\n      jump\t// in\n    tag_84:\n      mload(0x40)\n      dup1\n      swap2\n      sub\n      swap1\n      revert\n    tag_83:\n        /* \"contracts/CrowdFund.sol\":4224:4229  false */\n      0x00\n        /* \"contracts/CrowdFund.sol\":4202:4210  campaign */\n      dup3\n        /* \"contracts/CrowdFund.sol\":4202:4221  campaign.canOperate */\n      0x06\n      add\n      0x01\n        /* \"contracts/CrowdFund.sol\":4202:4229  campaign.canOperate = false */\n      0x0100\n      exp\n      dup2\n      sload\n      dup2\n      0xff\n      mul\n      not\n      and\n      swap1\n      dup4\n      iszero\n      iszero\n      mul\n      or\n      swap1\n      sstore\n      pop\n        /* \"contracts/CrowdFund.sol\":4258:4262  true */\n      0x01\n        /* \"contracts/CrowdFund.sol\":4239:4247  campaign */\n      dup3\n        /* \"contracts/CrowdFund.sol\":4239:4255  campaign.claimed */\n      0x06\n      add\n      0x00\n        /* \"contracts/CrowdFund.sol\":4239:4262  campaign.claimed = true */\n      0x0100\n      exp\n      dup2\n      sload\n      dup2\n      0xff\n      mul\n      not\n      and\n      swap1\n      dup4\n      iszero\n      iszero\n      mul\n      or\n      swap1\n      sstore\n      pop\n        /* \"contracts/CrowdFund.sol\":4283:4285  id */\n      dup3\n        /* \"contracts/CrowdFund.sol\":4277:4316  Claim(id, msg.sender, campaign.pledged) */\n      0x3ed1528b0fdc7c5207c1bf935e34a667e13656b9ed165260c522be0bc544f303\n        /* \"contracts/CrowdFund.sol\":4287:4297  msg.sender */\n      caller\n        /* \"contracts/CrowdFund.sol\":4299:4307  campaign */\n      dup5\n        /* \"contracts/CrowdFund.sol\":4299:4315  campaign.pledged */\n      0x03\n      add\n      sload\n        /* \"contracts/CrowdFund.sol\":4277:4316  Claim(id, msg.sender, campaign.pledged) */\n      mload(0x40)\n      tag_86\n      swap3\n      swap2\n      swap1\n      tag_78\n      jump\t// in\n    tag_86:\n      mload(0x40)\n      dup1\n      swap2\n      sub\n      swap1\n      log2\n        /* \"contracts/CrowdFund.sol\":3739:4323  {... */\n      pop\n      pop\n        /* \"contracts/CrowdFund.sol\":3694:4323  function claimAllAndEnd(uint256 id) external {... */\n      pop\n      jump\t// out\n        /* \"contracts/CrowdFund.sol\":5468:6111  function refund(uint256 id) external onlyOwner {... */\n    tag_24:\n        /* \"@openzeppelin/contracts/access/Ownable.sol\":1094:1107  _checkOwner() */\n      tag_88\n        /* \"@openzeppelin/contracts/access/Ownable.sol\":1094:1105  _checkOwner */\n      tag_89\n        /* \"@openzeppelin/contracts/access/Ownable.sol\":1094:1107  _checkOwner() */\n      jump\t// in\n    tag_88:\n        /* \"contracts/CrowdFund.sol\":5525:5549  Campaign memory campaign */\n      0x00\n        /* \"contracts/CrowdFund.sol\":5552:5561  campaigns */\n      0x02\n        /* \"contracts/CrowdFund.sol\":5562:5564  id */\n      dup3\n        /* \"contracts/CrowdFund.sol\":5552:5565  campaigns[id] */\n      dup2\n      sload\n      dup2\n      lt\n      tag_91\n      jumpi\n      tag_92\n      tag_66\n      jump\t// in\n    tag_92:\n    tag_91:\n      swap1\n      0x00\n      mstore\n      keccak256(0x00, 0x20)\n      swap1\n      0x07\n      mul\n      add\n        /* \"contracts/CrowdFund.sol\":5525:5565  Campaign memory campaign = campaigns[id] */\n      mload(0x40)\n      dup1\n      0x0120\n      add\n      0x40\n      mstore\n      swap1\n      dup2\n      0x00\n      dup3\n      add\n      sload\n      dup2\n      mstore\n      0x20\n      add\n      0x01\n      dup3\n      add\n      0x00\n      swap1\n      sload\n      swap1\n      0x0100\n      exp\n      swap1\n      div\n      0xffffffffffffffffffffffffffffffffffffffff\n      and\n      0xffffffffffffffffffffffffffffffffffffffff\n      and\n      0xffffffffffffffffffffffffffffffffffffffff\n      and\n      dup2\n      mstore\n      0x20\n      add\n      0x02\n      dup3\n      add\n      sload\n      dup2\n      mstore\n      0x20\n      add\n      0x03\n      dup3\n      add\n      sload\n      dup2\n      mstore\n      0x20\n      add\n      0x04\n      dup3\n      add\n      0x00\n      swap1\n      sload\n      swap1\n      0x0100\n      exp\n      swap1\n      div\n      0xffffffff\n      and\n      0xffffffff\n      and\n      0xffffffff\n      and\n      dup2\n      mstore\n      0x20\n      add\n      0x04\n      dup3\n      add\n      0x04\n      swap1\n      sload\n      swap1\n      0x0100\n      exp\n      swap1\n      div\n      0xffffffff\n      and\n      0xffffffff\n      and\n      0xffffffff\n      and\n      dup2\n      mstore\n      0x20\n      add\n      0x05\n      dup3\n      add\n      dup1\n      sload\n      dup1\n      0x20\n      mul\n      0x20\n      add\n      mload(0x40)\n      swap1\n      dup2\n      add\n      0x40\n      mstore\n      dup1\n      swap3\n      swap2\n      swap1\n      dup2\n      dup2\n      mstore\n      0x20\n      add\n      dup3\n      dup1\n      sload\n      dup1\n      iszero\n      tag_94\n      jumpi\n      0x20\n      mul\n      dup3\n      add\n      swap2\n      swap1\n      0x00\n      mstore\n      keccak256(0x00, 0x20)\n      swap1\n    tag_95:\n      dup2\n      0x00\n      swap1\n      sload\n      swap1\n      0x0100\n      exp\n      swap1\n      div\n      0xffffffffffffffffffffffffffffffffffffffff\n      and\n      0xffffffffffffffffffffffffffffffffffffffff\n      and\n      dup2\n      mstore\n      0x20\n      add\n      swap1\n      0x01\n      add\n      swap1\n      dup1\n      dup4\n      gt\n      tag_95\n      jumpi\n    tag_94:\n      pop\n      pop\n      pop\n      pop\n      pop\n      dup2\n      mstore\n      0x20\n      add\n      0x06\n      dup3\n      add\n      0x00\n      swap1\n      sload\n      swap1\n      0x0100\n      exp\n      swap1\n      div\n      0xff\n      and\n      iszero\n      iszero\n      iszero\n      iszero\n      dup2\n      mstore\n      0x20\n      add\n      0x06\n      dup3\n      add\n      0x01\n      swap1\n      sload\n      swap1\n      0x0100\n      exp\n      swap1\n      div\n      0xff\n      and\n      iszero\n      iszero\n      iszero\n      iszero\n      dup2\n      mstore\n      pop\n      pop\n      swap1\n      pop\n        /* \"contracts/CrowdFund.sol\":5603:5608  false */\n      0x00\n        /* \"contracts/CrowdFund.sol\":5583:5608  campaign.claimed == false */\n      iszero\n      iszero\n        /* \"contracts/CrowdFund.sol\":5583:5591  campaign */\n      dup2\n        /* \"contracts/CrowdFund.sol\":5583:5599  campaign.claimed */\n      0xe0\n      add\n      mload\n        /* \"contracts/CrowdFund.sol\":5583:5608  campaign.claimed == false */\n      iszero\n      iszero\n      eq\n        /* \"contracts/CrowdFund.sol\":5575:5662  require(campaign.claimed == false, \"Tokens for this campaign has been already claimed\") */\n      tag_96\n      jumpi\n      mload(0x40)\n      0x08c379a000000000000000000000000000000000000000000000000000000000\n      dup2\n      mstore\n      0x04\n      add\n      tag_97\n      swap1\n      tag_98\n      jump\t// in\n    tag_97:\n      mload(0x40)\n      dup1\n      swap2\n      sub\n      swap1\n      revert\n    tag_96:\n        /* \"contracts/CrowdFund.sol\":5676:5682  uint i */\n      0x00\n        /* \"contracts/CrowdFund.sol\":5672:6105  for(uint i = 0; i < campaign.donors.length; i++) {... */\n    tag_99:\n        /* \"contracts/CrowdFund.sol\":5692:5700  campaign */\n      dup2\n        /* \"contracts/CrowdFund.sol\":5692:5707  campaign.donors */\n      0xc0\n      add\n      mload\n        /* \"contracts/CrowdFund.sol\":5692:5714  campaign.donors.length */\n      mload\n        /* \"contracts/CrowdFund.sol\":5688:5689  i */\n      dup2\n        /* \"contracts/CrowdFund.sol\":5688:5714  i < campaign.donors.length */\n      lt\n        /* \"contracts/CrowdFund.sol\":5672:6105  for(uint i = 0; i < campaign.donors.length; i++) {... */\n      iszero\n      tag_100\n      jumpi\n        /* \"contracts/CrowdFund.sol\":5735:5758  address transferAddress */\n      0x00\n        /* \"contracts/CrowdFund.sol\":5761:5769  campaign */\n      dup3\n        /* \"contracts/CrowdFund.sol\":5761:5776  campaign.donors */\n      0xc0\n      add\n      mload\n        /* \"contracts/CrowdFund.sol\":5777:5778  i */\n      dup3\n        /* \"contracts/CrowdFund.sol\":5761:5779  campaign.donors[i] */\n      dup2\n      mload\n      dup2\n      lt\n      tag_102\n      jumpi\n      tag_103\n      tag_66\n      jump\t// in\n    tag_103:\n    tag_102:\n      0x20\n      mul\n      0x20\n      add\n      add\n      mload\n        /* \"contracts/CrowdFund.sol\":5735:5779  address transferAddress = campaign.donors[i] */\n      swap1\n      pop\n        /* \"contracts/CrowdFund.sol\":5793:5812  uint addressBalance */\n      0x00\n        /* \"contracts/CrowdFund.sol\":5815:5828  pledgedAmount */\n      0x03\n        /* \"contracts/CrowdFund.sol\":5815:5832  pledgedAmount[id] */\n      0x00\n        /* \"contracts/CrowdFund.sol\":5829:5831  id */\n      dup7\n        /* \"contracts/CrowdFund.sol\":5815:5832  pledgedAmount[id] */\n      dup2\n      mstore\n      0x20\n      add\n      swap1\n      dup2\n      mstore\n      0x20\n      add\n      0x00\n      keccak256\n        /* \"contracts/CrowdFund.sol\":5815:5849  pledgedAmount[id][transferAddress] */\n      0x00\n        /* \"contracts/CrowdFund.sol\":5833:5848  transferAddress */\n      dup4\n        /* \"contracts/CrowdFund.sol\":5815:5849  pledgedAmount[id][transferAddress] */\n      0xffffffffffffffffffffffffffffffffffffffff\n      and\n      0xffffffffffffffffffffffffffffffffffffffff\n      and\n      dup2\n      mstore\n      0x20\n      add\n      swap1\n      dup2\n      mstore\n      0x20\n      add\n      0x00\n      keccak256\n      sload\n        /* \"contracts/CrowdFund.sol\":5793:5849  uint addressBalance = pledgedAmount[id][transferAddress] */\n      swap1\n      pop\n        /* \"contracts/CrowdFund.sol\":5863:5868  token */\n      immutable(\"0x5c48f5d4977555676efc2c019ca108a5c9064a3c6bfe4983df03a566e2405364\")\n        /* \"contracts/CrowdFund.sol\":5863:5877  token.transfer */\n      0xffffffffffffffffffffffffffffffffffffffff\n      and\n      0xa9059cbb\n        /* \"contracts/CrowdFund.sol\":5878:5893  transferAddress */\n      dup4\n        /* \"contracts/CrowdFund.sol\":5895:5909  addressBalance */\n      dup4\n        /* \"contracts/CrowdFund.sol\":5863:5910  token.transfer(transferAddress, addressBalance) */\n      mload(0x40)\n      dup4\n      0xffffffff\n      and\n      0xe0\n      shl\n      dup2\n      mstore\n      0x04\n      add\n      tag_104\n      swap3\n      swap2\n      swap1\n      tag_78\n      jump\t// in\n    tag_104:\n      0x20\n      mload(0x40)\n      dup1\n      dup4\n      sub\n      dup2\n      0x00\n      dup8\n      gas\n      call\n      iszero\n      dup1\n      iszero\n      tag_106\n      jumpi\n      returndatasize\n      0x00\n      dup1\n      returndatacopy\n      revert(0x00, returndatasize)\n    tag_106:\n      pop\n      pop\n      pop\n      pop\n      mload(0x40)\n      returndatasize\n      not(0x1f)\n      0x1f\n      dup3\n      add\n      and\n      dup3\n      add\n      dup1\n      0x40\n      mstore\n      pop\n      dup2\n      add\n      swap1\n      tag_107\n      swap2\n      swap1\n      tag_82\n      jump\t// in\n    tag_107:\n      pop\n        /* \"contracts/CrowdFund.sol\":5949:5963  addressBalance */\n      dup1\n        /* \"contracts/CrowdFund.sol\":5924:5933  campaigns */\n      0x02\n        /* \"contracts/CrowdFund.sol\":5934:5936  id */\n      dup7\n        /* \"contracts/CrowdFund.sol\":5924:5937  campaigns[id] */\n      dup2\n      sload\n      dup2\n      lt\n      tag_108\n      jumpi\n      tag_109\n      tag_66\n      jump\t// in\n    tag_109:\n    tag_108:\n      swap1\n      0x00\n      mstore\n      keccak256(0x00, 0x20)\n      swap1\n      0x07\n      mul\n      add\n        /* \"contracts/CrowdFund.sol\":5924:5945  campaigns[id].pledged */\n      0x03\n      add\n      0x00\n        /* \"contracts/CrowdFund.sol\":5924:5963  campaigns[id].pledged -= addressBalance */\n      dup3\n      dup3\n      sload\n      tag_111\n      swap2\n      swap1\n      tag_112\n      jump\t// in\n    tag_111:\n      swap3\n      pop\n      pop\n      dup2\n      swap1\n      sstore\n      pop\n        /* \"contracts/CrowdFund.sol\":6015:6029  addressBalance */\n      dup1\n        /* \"contracts/CrowdFund.sol\":5977:5990  pledgedAmount */\n      0x03\n        /* \"contracts/CrowdFund.sol\":5977:5994  pledgedAmount[id] */\n      0x00\n        /* \"contracts/CrowdFund.sol\":5991:5993  id */\n      dup8\n        /* \"contracts/CrowdFund.sol\":5977:5994  pledgedAmount[id] */\n      dup2\n      mstore\n      0x20\n      add\n      swap1\n      dup2\n      mstore\n      0x20\n      add\n      0x00\n      keccak256\n        /* \"contracts/CrowdFund.sol\":5977:6011  pledgedAmount[id][transferAddress] */\n      0x00\n        /* \"contracts/CrowdFund.sol\":5995:6010  transferAddress */\n      dup5\n        /* \"contracts/CrowdFund.sol\":5977:6011  pledgedAmount[id][transferAddress] */\n      0xffffffffffffffffffffffffffffffffffffffff\n      and\n      0xffffffffffffffffffffffffffffffffffffffff\n      and\n      dup2\n      mstore\n      0x20\n      add\n      swap1\n      dup2\n      mstore\n      0x20\n      add\n      0x00\n      keccak256\n      0x00\n        /* \"contracts/CrowdFund.sol\":5977:6029  pledgedAmount[id][transferAddress] -= addressBalance */\n      dup3\n      dup3\n      sload\n      tag_113\n      swap2\n      swap1\n      tag_112\n      jump\t// in\n    tag_113:\n      swap3\n      pop\n      pop\n      dup2\n      swap1\n      sstore\n      pop\n        /* \"contracts/CrowdFund.sol\":6062:6077  transferAddress */\n      dup2\n        /* \"contracts/CrowdFund.sol\":6048:6094  Unpledged(id, transferAddress, addressBalance) */\n      0xffffffffffffffffffffffffffffffffffffffff\n      and\n        /* \"contracts/CrowdFund.sol\":6058:6060  id */\n      dup6\n        /* \"contracts/CrowdFund.sol\":6048:6094  Unpledged(id, transferAddress, addressBalance) */\n      0xfcd29b1632c6748a9a4bb9b4cd5c6486c3c84a8550dce2368f83fef3969d9685\n        /* \"contracts/CrowdFund.sol\":6079:6093  addressBalance */\n      dup4\n        /* \"contracts/CrowdFund.sol\":6048:6094  Unpledged(id, transferAddress, addressBalance) */\n      mload(0x40)\n      tag_114\n      swap2\n      swap1\n      tag_115\n      jump\t// in\n    tag_114:\n      mload(0x40)\n      dup1\n      swap2\n      sub\n      swap1\n      log3\n        /* \"contracts/CrowdFund.sol\":5721:6105  {... */\n      pop\n      pop\n        /* \"contracts/CrowdFund.sol\":5716:5719  i++ */\n      dup1\n      dup1\n      tag_116\n      swap1\n      tag_117\n      jump\t// in\n    tag_116:\n      swap2\n      pop\n      pop\n        /* \"contracts/CrowdFund.sol\":5672:6105  for(uint i = 0; i < campaign.donors.length; i++) {... */\n      jump(tag_99)\n    tag_100:\n      pop\n        /* \"contracts/CrowdFund.sol\":5515:6111  {... */\n      pop\n        /* \"contracts/CrowdFund.sol\":5468:6111  function refund(uint256 id) external onlyOwner {... */\n      pop\n      jump\t// out\n        /* \"contracts/CrowdFund.sol\":4878:5301  function cancel(uint256 id) external {... */\n    tag_27:\n        /* \"contracts/CrowdFund.sol\":4925:4949  Campaign memory campaign */\n      0x00\n        /* \"contracts/CrowdFund.sol\":4952:4961  campaigns */\n      0x02\n        /* \"contracts/CrowdFund.sol\":4962:4964  id */\n      dup3\n        /* \"contracts/CrowdFund.sol\":4952:4965  campaigns[id] */\n      dup2\n      sload\n      dup2\n      lt\n      tag_119\n      jumpi\n      tag_120\n      tag_66\n      jump\t// in\n    tag_120:\n    tag_119:\n      swap1\n      0x00\n      mstore\n      keccak256(0x00, 0x20)\n      swap1\n      0x07\n      mul\n      add\n        /* \"contracts/CrowdFund.sol\":4925:4965  Campaign memory campaign = campaigns[id] */\n      mload(0x40)\n      dup1\n      0x0120\n      add\n      0x40\n      mstore\n      swap1\n      dup2\n      0x00\n      dup3\n      add\n      sload\n      dup2\n      mstore\n      0x20\n      add\n      0x01\n      dup3\n      add\n      0x00\n      swap1\n      sload\n      swap1\n      0x0100\n      exp\n      swap1\n      div\n      0xffffffffffffffffffffffffffffffffffffffff\n      and\n      0xffffffffffffffffffffffffffffffffffffffff\n      and\n      0xffffffffffffffffffffffffffffffffffffffff\n      and\n      dup2\n      mstore\n      0x20\n      add\n      0x02\n      dup3\n      add\n      sload\n      dup2\n      mstore\n      0x20\n      add\n      0x03\n      dup3\n      add\n      sload\n      dup2\n      mstore\n      0x20\n      add\n      0x04\n      dup3\n      add\n      0x00\n      swap1\n      sload\n      swap1\n      0x0100\n      exp\n      swap1\n      div\n      0xffffffff\n      and\n      0xffffffff\n      and\n      0xffffffff\n      and\n      dup2\n      mstore\n      0x20\n      add\n      0x04\n      dup3\n      add\n      0x04\n      swap1\n      sload\n      swap1\n      0x0100\n      exp\n      swap1\n      div\n      0xffffffff\n      and\n      0xffffffff\n      and\n      0xffffffff\n      and\n      dup2\n      mstore\n      0x20\n      add\n      0x05\n      dup3\n      add\n      dup1\n      sload\n      dup1\n      0x20\n      mul\n      0x20\n      add\n      mload(0x40)\n      swap1\n      dup2\n      add\n      0x40\n      mstore\n      dup1\n      swap3\n      swap2\n      swap1\n      dup2\n      dup2\n      mstore\n      0x20\n      add\n      dup3\n      dup1\n      sload\n      dup1\n      iszero\n      tag_122\n      jumpi\n      0x20\n      mul\n      dup3\n      add\n      swap2\n      swap1\n      0x00\n      mstore\n      keccak256(0x00, 0x20)\n      swap1\n    tag_123:\n      dup2\n      0x00\n      swap1\n      sload\n      swap1\n      0x0100\n      exp\n      swap1\n      div\n      0xffffffffffffffffffffffffffffffffffffffff\n      and\n      0xffffffffffffffffffffffffffffffffffffffff\n      and\n      dup2\n      mstore\n      0x20\n      add\n      swap1\n      0x01\n      add\n      swap1\n      dup1\n      dup4\n      gt\n      tag_123\n      jumpi\n    tag_122:\n      pop\n      pop\n      pop\n      pop\n      pop\n      dup2\n      mstore\n      0x20\n      add\n      0x06\n      dup3\n      add\n      0x00\n      swap1\n      sload\n      swap1\n      0x0100\n      exp\n      swap1\n      div\n      0xff\n      and\n      iszero\n      iszero\n      iszero\n      iszero\n      dup2\n      mstore\n      0x20\n      add\n      0x06\n      dup3\n      add\n      0x01\n      swap1\n      sload\n      swap1\n      0x0100\n      exp\n      swap1\n      div\n      0xff\n      and\n      iszero\n      iszero\n      iszero\n      iszero\n      dup2\n      mstore\n      pop\n      pop\n      swap1\n      pop\n        /* \"contracts/CrowdFund.sol\":4998:5008  msg.sender */\n      caller\n        /* \"contracts/CrowdFund.sol\":4978:5008  campaign.creator != msg.sender */\n      0xffffffffffffffffffffffffffffffffffffffff\n      and\n        /* \"contracts/CrowdFund.sol\":4978:4986  campaign */\n      dup2\n        /* \"contracts/CrowdFund.sol\":4978:4994  campaign.creator */\n      0x20\n      add\n      mload\n        /* \"contracts/CrowdFund.sol\":4978:5008  campaign.creator != msg.sender */\n      0xffffffffffffffffffffffffffffffffffffffff\n      and\n      eq\n      iszero\n        /* \"contracts/CrowdFund.sol\":4978:5033  campaign.creator != msg.sender && owner() != msg.sender */\n      dup1\n      iszero\n      tag_124\n      jumpi\n      pop\n        /* \"contracts/CrowdFund.sol\":5023:5033  msg.sender */\n      caller\n        /* \"contracts/CrowdFund.sol\":5012:5033  owner() != msg.sender */\n      0xffffffffffffffffffffffffffffffffffffffff\n      and\n        /* \"contracts/CrowdFund.sol\":5012:5019  owner() */\n      tag_125\n        /* \"contracts/CrowdFund.sol\":5012:5017  owner */\n      tag_38\n        /* \"contracts/CrowdFund.sol\":5012:5019  owner() */\n      jump\t// in\n    tag_125:\n        /* \"contracts/CrowdFund.sol\":5012:5033  owner() != msg.sender */\n      0xffffffffffffffffffffffffffffffffffffffff\n      and\n      eq\n      iszero\n        /* \"contracts/CrowdFund.sol\":4978:5033  campaign.creator != msg.sender && owner() != msg.sender */\n    tag_124:\n        /* \"contracts/CrowdFund.sol\":4975:5123  if(campaign.creator != msg.sender && owner() != msg.sender ) {... */\n      iszero\n      tag_126\n      jumpi\n        /* \"contracts/CrowdFund.sol\":5050:5112  revert(\"You don't have the authority to cancel this campaign\") */\n      mload(0x40)\n      0x08c379a000000000000000000000000000000000000000000000000000000000\n      dup2\n      mstore\n      0x04\n      add\n      tag_127\n      swap1\n      tag_128\n      jump\t// in\n    tag_127:\n      mload(0x40)\n      dup1\n      swap2\n      sub\n      swap1\n      revert\n        /* \"contracts/CrowdFund.sol\":4975:5123  if(campaign.creator != msg.sender && owner() != msg.sender ) {... */\n    tag_126:\n        /* \"contracts/CrowdFund.sol\":5140:5148  campaign */\n      dup1\n        /* \"contracts/CrowdFund.sol\":5140:5156  campaign.claimed */\n      0xe0\n      add\n      mload\n        /* \"contracts/CrowdFund.sol\":5140:5181  campaign.claimed || campaign.pledged <= 0 */\n      dup1\n      tag_129\n      jumpi\n      pop\n        /* \"contracts/CrowdFund.sol\":5180:5181  0 */\n      0x00\n        /* \"contracts/CrowdFund.sol\":5160:5168  campaign */\n      dup2\n        /* \"contracts/CrowdFund.sol\":5160:5176  campaign.pledged */\n      0x60\n      add\n      mload\n        /* \"contracts/CrowdFund.sol\":5160:5181  campaign.pledged <= 0 */\n      gt\n      iszero\n        /* \"contracts/CrowdFund.sol\":5140:5181  campaign.claimed || campaign.pledged <= 0 */\n    tag_129:\n        /* \"contracts/CrowdFund.sol\":5132:5239  require(campaign.claimed || campaign.pledged <= 0, \"There are still some tokens pledged for this campaign\") */\n      tag_130\n      jumpi\n      mload(0x40)\n      0x08c379a000000000000000000000000000000000000000000000000000000000\n      dup2\n      mstore\n      0x04\n      add\n      tag_131\n      swap1\n      tag_132\n      jump\t// in\n    tag_131:\n      mload(0x40)\n      dup1\n      swap2\n      sub\n      swap1\n      revert\n    tag_130:\n        /* \"contracts/CrowdFund.sol\":5256:5265  campaigns */\n      0x02\n        /* \"contracts/CrowdFund.sol\":5266:5268  id */\n      dup3\n        /* \"contracts/CrowdFund.sol\":5256:5269  campaigns[id] */\n      dup2\n      sload\n      dup2\n      lt\n      tag_133\n      jumpi\n      tag_134\n      tag_66\n      jump\t// in\n    tag_134:\n    tag_133:\n      swap1\n      0x00\n      mstore\n      keccak256(0x00, 0x20)\n      swap1\n      0x07\n      mul\n      add\n      0x00\n        /* \"contracts/CrowdFund.sol\":5249:5269  delete campaigns[id] */\n      dup1\n      dup3\n      add\n      0x00\n      swap1\n      sstore\n      0x01\n      dup3\n      add\n      exp(0x0100, 0x00)\n      dup2\n      sload\n      swap1\n      0xffffffffffffffffffffffffffffffffffffffff\n      mul\n      not\n      and\n      swap1\n      sstore\n      0x02\n      dup3\n      add\n      0x00\n      swap1\n      sstore\n      0x03\n      dup3\n      add\n      0x00\n      swap1\n      sstore\n      0x04\n      dup3\n      add\n      exp(0x0100, 0x00)\n      dup2\n      sload\n      swap1\n      0xffffffff\n      mul\n      not\n      and\n      swap1\n      sstore\n      0x04\n      dup3\n      add\n      exp(0x0100, 0x04)\n      dup2\n      sload\n      swap1\n      0xffffffff\n      mul\n      not\n      and\n      swap1\n      sstore\n      0x05\n      dup3\n      add\n      0x00\n      tag_136\n      swap2\n      swap1\n      tag_137\n      jump\t// in\n    tag_136:\n      0x06\n      dup3\n      add\n      exp(0x0100, 0x00)\n      dup2\n      sload\n      swap1\n      0xff\n      mul\n      not\n      and\n      swap1\n      sstore\n      0x06\n      dup3\n      add\n      exp(0x0100, 0x01)\n      dup2\n      sload\n      swap1\n      0xff\n      mul\n      not\n      and\n      swap1\n      sstore\n      pop\n      pop\n        /* \"contracts/CrowdFund.sol\":5284:5294  Cancel(id) */\n      0x8bf30e7ff26833413be5f69e1d373744864d600b664204b4a2f9844a8eedb9ed\n        /* \"contracts/CrowdFund.sol\":5291:5293  id */\n      dup3\n        /* \"contracts/CrowdFund.sol\":5284:5294  Cancel(id) */\n      mload(0x40)\n      tag_138\n      swap2\n      swap1\n      tag_115\n      jump\t// in\n    tag_138:\n      mload(0x40)\n      dup1\n      swap2\n      sub\n      swap1\n      log1\n        /* \"contracts/CrowdFund.sol\":4915:5301  {... */\n      pop\n        /* \"contracts/CrowdFund.sol\":4878:5301  function cancel(uint256 id) external {... */\n      pop\n      jump\t// out\n        /* \"contracts/CrowdFund.sol\":4329:4384  function claimPartial(uint id, uint amount) external {} */\n    tag_31:\n      pop\n      pop\n      jump\t// out\n        /* \"contracts/CrowdFund.sol\":3098:3518  function unpledge(uint256 id, uint256 amount) external _isActive(id) {... */\n    tag_34:\n        /* \"contracts/CrowdFund.sol\":3163:3165  id */\n      dup2\n        /* \"contracts/CrowdFund.sol\":1269:1294  Campaign storage campaign */\n      0x00\n        /* \"contracts/CrowdFund.sol\":1297:1306  campaigns */\n      0x02\n        /* \"contracts/CrowdFund.sol\":1307:1310  _id */\n      dup3\n        /* \"contracts/CrowdFund.sol\":1297:1311  campaigns[_id] */\n      dup2\n      sload\n      dup2\n      lt\n      tag_141\n      jumpi\n      tag_142\n      tag_66\n      jump\t// in\n    tag_142:\n    tag_141:\n      swap1\n      0x00\n      mstore\n      keccak256(0x00, 0x20)\n      swap1\n      0x07\n      mul\n      add\n        /* \"contracts/CrowdFund.sol\":1269:1311  Campaign storage campaign = campaigns[_id] */\n      swap1\n      pop\n        /* \"contracts/CrowdFund.sol\":1347:1362  block.timestamp */\n      timestamp\n        /* \"contracts/CrowdFund.sol\":1329:1337  campaign */\n      dup2\n        /* \"contracts/CrowdFund.sol\":1329:1343  campaign.start */\n      0x04\n      add\n      0x00\n      swap1\n      sload\n      swap1\n      0x0100\n      exp\n      swap1\n      div\n      0xffffffff\n      and\n        /* \"contracts/CrowdFund.sol\":1329:1362  campaign.start <= block.timestamp */\n      0xffffffff\n      and\n      gt\n      iszero\n        /* \"contracts/CrowdFund.sol\":1321:1392  require(campaign.start <= block.timestamp, \"Campaign not started yet!\") */\n      tag_144\n      jumpi\n      mload(0x40)\n      0x08c379a000000000000000000000000000000000000000000000000000000000\n      dup2\n      mstore\n      0x04\n      add\n      tag_145\n      swap1\n      tag_146\n      jump\t// in\n    tag_145:\n      mload(0x40)\n      dup1\n      swap2\n      sub\n      swap1\n      revert\n    tag_144:\n        /* \"contracts/CrowdFund.sol\":1426:1441  block.timestamp */\n      timestamp\n        /* \"contracts/CrowdFund.sol\":1410:1418  campaign */\n      dup2\n        /* \"contracts/CrowdFund.sol\":1410:1422  campaign.end */\n      0x04\n      add\n      0x04\n      swap1\n      sload\n      swap1\n      0x0100\n      exp\n      swap1\n      div\n      0xffffffff\n      and\n        /* \"contracts/CrowdFund.sol\":1410:1441  campaign.end >= block.timestamp */\n      0xffffffff\n      and\n      lt\n      iszero\n        /* \"contracts/CrowdFund.sol\":1402:1464  require(campaign.end >= block.timestamp, \"Campaign has ended\") */\n      tag_147\n      jumpi\n      mload(0x40)\n      0x08c379a000000000000000000000000000000000000000000000000000000000\n      dup2\n      mstore\n      0x04\n      add\n      tag_148\n      swap1\n      tag_149\n      jump\t// in\n    tag_148:\n      mload(0x40)\n      dup1\n      swap2\n      sub\n      swap1\n      revert\n    tag_147:\n        /* \"contracts/CrowdFund.sol\":1501:1509  campaign */\n      dup1\n        /* \"contracts/CrowdFund.sol\":1501:1514  campaign.goal */\n      0x02\n      add\n      sload\n        /* \"contracts/CrowdFund.sol\":1482:1490  campaign */\n      dup2\n        /* \"contracts/CrowdFund.sol\":1482:1498  campaign.pledged */\n      0x03\n      add\n      sload\n        /* \"contracts/CrowdFund.sol\":1482:1514  campaign.pledged < campaign.goal */\n      lt\n        /* \"contracts/CrowdFund.sol\":1474:1556  require(campaign.pledged < campaign.goal, \"Campaign has already reached the goal\") */\n      tag_150\n      jumpi\n      mload(0x40)\n      0x08c379a000000000000000000000000000000000000000000000000000000000\n      dup2\n      mstore\n      0x04\n      add\n      tag_151\n      swap1\n      tag_152\n      jump\t// in\n    tag_151:\n      mload(0x40)\n      dup1\n      swap2\n      sub\n      swap1\n      revert\n    tag_150:\n        /* \"contracts/CrowdFund.sol\":1597:1601  true */\n      0x01\n        /* \"contracts/CrowdFund.sol\":1574:1601  campaign.canOperate == true */\n      iszero\n      iszero\n        /* \"contracts/CrowdFund.sol\":1574:1582  campaign */\n      dup2\n        /* \"contracts/CrowdFund.sol\":1574:1593  campaign.canOperate */\n      0x06\n      add\n      0x01\n      swap1\n      sload\n      swap1\n      0x0100\n      exp\n      swap1\n      div\n      0xff\n      and\n        /* \"contracts/CrowdFund.sol\":1574:1601  campaign.canOperate == true */\n      iszero\n      iszero\n      eq\n        /* \"contracts/CrowdFund.sol\":1566:1641  require(campaign.canOperate == true, \"Campaign operations are deactivated\") */\n      tag_153\n      jumpi\n      mload(0x40)\n      0x08c379a000000000000000000000000000000000000000000000000000000000\n      dup2\n      mstore\n      0x04\n      add\n      tag_154\n      swap1\n      tag_155\n      jump\t// in\n    tag_154:\n      mload(0x40)\n      dup1\n      swap2\n      sub\n      swap1\n      revert\n    tag_153:\n        /* \"contracts/CrowdFund.sol\":3218:3224  amount */\n      dup3\n        /* \"contracts/CrowdFund.sol\":3185:3198  pledgedAmount */\n      0x03\n        /* \"contracts/CrowdFund.sol\":3185:3202  pledgedAmount[id] */\n      0x00\n        /* \"contracts/CrowdFund.sol\":3199:3201  id */\n      dup7\n        /* \"contracts/CrowdFund.sol\":3185:3202  pledgedAmount[id] */\n      dup2\n      mstore\n      0x20\n      add\n      swap1\n      dup2\n      mstore\n      0x20\n      add\n      0x00\n      keccak256\n        /* \"contracts/CrowdFund.sol\":3185:3214  pledgedAmount[id][msg.sender] */\n      0x00\n        /* \"contracts/CrowdFund.sol\":3203:3213  msg.sender */\n      caller\n        /* \"contracts/CrowdFund.sol\":3185:3214  pledgedAmount[id][msg.sender] */\n      0xffffffffffffffffffffffffffffffffffffffff\n      and\n      0xffffffffffffffffffffffffffffffffffffffff\n      and\n      dup2\n      mstore\n      0x20\n      add\n      swap1\n      dup2\n      mstore\n      0x20\n      add\n      0x00\n      keccak256\n      sload\n        /* \"contracts/CrowdFund.sol\":3185:3224  pledgedAmount[id][msg.sender] >= amount */\n      lt\n      iszero\n        /* \"contracts/CrowdFund.sol\":3177:3247  require(pledgedAmount[id][msg.sender] >= amount, \"Insufficient Funds\") */\n      tag_157\n      jumpi\n      mload(0x40)\n      0x08c379a000000000000000000000000000000000000000000000000000000000\n      dup2\n      mstore\n      0x04\n      add\n      tag_158\n      swap1\n      tag_159\n      jump\t// in\n    tag_158:\n      mload(0x40)\n      dup1\n      swap2\n      sub\n      swap1\n      revert\n    tag_157:\n        /* \"contracts/CrowdFund.sol\":3266:3275  bool sent */\n      0x00\n        /* \"contracts/CrowdFund.sol\":3278:3283  token */\n      immutable(\"0x5c48f5d4977555676efc2c019ca108a5c9064a3c6bfe4983df03a566e2405364\")\n        /* \"contracts/CrowdFund.sol\":3278:3292  token.transfer */\n      0xffffffffffffffffffffffffffffffffffffffff\n      and\n      0xa9059cbb\n        /* \"contracts/CrowdFund.sol\":3293:3303  msg.sender */\n      caller\n        /* \"contracts/CrowdFund.sol\":3305:3311  amount */\n      dup7\n        /* \"contracts/CrowdFund.sol\":3278:3312  token.transfer(msg.sender, amount) */\n      mload(0x40)\n      dup4\n      0xffffffff\n      and\n      0xe0\n      shl\n      dup2\n      mstore\n      0x04\n      add\n      tag_160\n      swap3\n      swap2\n      swap1\n      tag_78\n      jump\t// in\n    tag_160:\n      0x20\n      mload(0x40)\n      dup1\n      dup4\n      sub\n      dup2\n      0x00\n      dup8\n      gas\n      call\n      iszero\n      dup1\n      iszero\n      tag_162\n      jumpi\n      returndatasize\n      0x00\n      dup1\n      returndatacopy\n      revert(0x00, returndatasize)\n    tag_162:\n      pop\n      pop\n      pop\n      pop\n      mload(0x40)\n      returndatasize\n      not(0x1f)\n      0x1f\n      dup3\n      add\n      and\n      dup3\n      add\n      dup1\n      0x40\n      mstore\n      pop\n      dup2\n      add\n      swap1\n      tag_163\n      swap2\n      swap1\n      tag_82\n      jump\t// in\n    tag_163:\n        /* \"contracts/CrowdFund.sol\":3266:3312  bool sent = token.transfer(msg.sender, amount) */\n      swap1\n      pop\n        /* \"contracts/CrowdFund.sol\":3330:3334  sent */\n      dup1\n        /* \"contracts/CrowdFund.sol\":3322:3373  require(sent, \"There was a problem sending tokens\") */\n      tag_164\n      jumpi\n      mload(0x40)\n      0x08c379a000000000000000000000000000000000000000000000000000000000\n      dup2\n      mstore\n      0x04\n      add\n      tag_165\n      swap1\n      tag_85\n      jump\t// in\n    tag_165:\n      mload(0x40)\n      dup1\n      swap2\n      sub\n      swap1\n      revert\n    tag_164:\n        /* \"contracts/CrowdFund.sol\":3408:3414  amount */\n      dup4\n        /* \"contracts/CrowdFund.sol\":3383:3392  campaigns */\n      0x02\n        /* \"contracts/CrowdFund.sol\":3393:3395  id */\n      dup7\n        /* \"contracts/CrowdFund.sol\":3383:3396  campaigns[id] */\n      dup2\n      sload\n      dup2\n      lt\n      tag_166\n      jumpi\n      tag_167\n      tag_66\n      jump\t// in\n    tag_167:\n    tag_166:\n      swap1\n      0x00\n      mstore\n      keccak256(0x00, 0x20)\n      swap1\n      0x07\n      mul\n      add\n        /* \"contracts/CrowdFund.sol\":3383:3404  campaigns[id].pledged */\n      0x03\n      add\n      0x00\n        /* \"contracts/CrowdFund.sol\":3383:3414  campaigns[id].pledged -= amount */\n      dup3\n      dup3\n      sload\n      tag_169\n      swap2\n      swap1\n      tag_112\n      jump\t// in\n    tag_169:\n      swap3\n      pop\n      pop\n      dup2\n      swap1\n      sstore\n      pop\n        /* \"contracts/CrowdFund.sol\":3457:3463  amount */\n      dup4\n        /* \"contracts/CrowdFund.sol\":3424:3437  pledgedAmount */\n      0x03\n        /* \"contracts/CrowdFund.sol\":3424:3441  pledgedAmount[id] */\n      0x00\n        /* \"contracts/CrowdFund.sol\":3438:3440  id */\n      dup8\n        /* \"contracts/CrowdFund.sol\":3424:3441  pledgedAmount[id] */\n      dup2\n      mstore\n      0x20\n      add\n      swap1\n      dup2\n      mstore\n      0x20\n      add\n      0x00\n      keccak256\n        /* \"contracts/CrowdFund.sol\":3424:3453  pledgedAmount[id][msg.sender] */\n      0x00\n        /* \"contracts/CrowdFund.sol\":3442:3452  msg.sender */\n      caller\n        /* \"contracts/CrowdFund.sol\":3424:3453  pledgedAmount[id][msg.sender] */\n      0xffffffffffffffffffffffffffffffffffffffff\n      and\n      0xffffffffffffffffffffffffffffffffffffffff\n      and\n      dup2\n      mstore\n      0x20\n      add\n      swap1\n      dup2\n      mstore\n      0x20\n      add\n      0x00\n      keccak256\n      0x00\n        /* \"contracts/CrowdFund.sol\":3424:3463  pledgedAmount[id][msg.sender] -= amount */\n      dup3\n      dup3\n      sload\n      tag_170\n      swap2\n      swap1\n      tag_112\n      jump\t// in\n    tag_170:\n      swap3\n      pop\n      pop\n      dup2\n      swap1\n      sstore\n      pop\n        /* \"contracts/CrowdFund.sol\":3492:3502  msg.sender */\n      caller\n        /* \"contracts/CrowdFund.sol\":3478:3511  Unpledged(id, msg.sender, amount) */\n      0xffffffffffffffffffffffffffffffffffffffff\n      and\n        /* \"contracts/CrowdFund.sol\":3488:3490  id */\n      dup6\n        /* \"contracts/CrowdFund.sol\":3478:3511  Unpledged(id, msg.sender, amount) */\n      0xfcd29b1632c6748a9a4bb9b4cd5c6486c3c84a8550dce2368f83fef3969d9685\n        /* \"contracts/CrowdFund.sol\":3504:3510  amount */\n      dup7\n        /* \"contracts/CrowdFund.sol\":3478:3511  Unpledged(id, msg.sender, amount) */\n      mload(0x40)\n      tag_171\n      swap2\n      swap1\n      tag_115\n      jump\t// in\n    tag_171:\n      mload(0x40)\n      dup1\n      swap2\n      sub\n      swap1\n      log3\n        /* \"contracts/CrowdFund.sol\":3167:3518  {... */\n      pop\n        /* \"contracts/CrowdFund.sol\":1259:1659  {... */\n      pop\n        /* \"contracts/CrowdFund.sol\":3098:3518  function unpledge(uint256 id, uint256 amount) external _isActive(id) {... */\n      pop\n      pop\n      pop\n      jump\t// out\n        /* \"@openzeppelin/contracts/access/Ownable.sol\":1831:1932  function renounceOwnership() public virtual onlyOwner {... */\n    tag_36:\n        /* \"@openzeppelin/contracts/access/Ownable.sol\":1094:1107  _checkOwner() */\n      tag_173\n        /* \"@openzeppelin/contracts/access/Ownable.sol\":1094:1105  _checkOwner */\n      tag_89\n        /* \"@openzeppelin/contracts/access/Ownable.sol\":1094:1107  _checkOwner() */\n      jump\t// in\n    tag_173:\n        /* \"@openzeppelin/contracts/access/Ownable.sol\":1895:1925  _transferOwnership(address(0)) */\n      tag_175\n        /* \"@openzeppelin/contracts/access/Ownable.sol\":1922:1923  0 */\n      0x00\n        /* \"@openzeppelin/contracts/access/Ownable.sol\":1895:1913  _transferOwnership */\n      tag_176\n        /* \"@openzeppelin/contracts/access/Ownable.sol\":1895:1925  _transferOwnership(address(0)) */\n      jump\t// in\n    tag_175:\n        /* \"@openzeppelin/contracts/access/Ownable.sol\":1831:1932  function renounceOwnership() public virtual onlyOwner {... */\n      jump\t// out\n        /* \"@openzeppelin/contracts/access/Ownable.sol\":1201:1286  function owner() public view virtual returns (address) {... */\n    tag_38:\n        /* \"@openzeppelin/contracts/access/Ownable.sol\":1247:1254  address */\n      0x00\n        /* \"@openzeppelin/contracts/access/Ownable.sol\":1273:1279  _owner */\n      dup1\n      0x00\n      swap1\n      sload\n      swap1\n      0x0100\n      exp\n      swap1\n      div\n      0xffffffffffffffffffffffffffffffffffffffff\n      and\n        /* \"@openzeppelin/contracts/access/Ownable.sol\":1266:1279  return _owner */\n      swap1\n      pop\n        /* \"@openzeppelin/contracts/access/Ownable.sol\":1201:1286  function owner() public view virtual returns (address) {... */\n      swap1\n      jump\t// out\n        /* \"contracts/CrowdFund.sol\":2438:2537  function getCampaigns() external view returns (Campaign[] memory) {... */\n    tag_42:\n        /* \"contracts/CrowdFund.sol\":2485:2502  Campaign[] memory */\n      0x60\n        /* \"contracts/CrowdFund.sol\":2521:2530  campaigns */\n      0x02\n        /* \"contracts/CrowdFund.sol\":2514:2530  return campaigns */\n      dup1\n      sload\n      dup1\n      0x20\n      mul\n      0x20\n      add\n      mload(0x40)\n      swap1\n      dup2\n      add\n      0x40\n      mstore\n      dup1\n      swap3\n      swap2\n      swap1\n      dup2\n      dup2\n      mstore\n      0x20\n      add\n      0x00\n      swap1\n    tag_179:\n      dup3\n      dup3\n      lt\n      iszero\n      tag_180\n      jumpi\n      dup4\n      dup3\n      swap1\n      0x00\n      mstore\n      keccak256(0x00, 0x20)\n      swap1\n      0x07\n      mul\n      add\n      mload(0x40)\n      dup1\n      0x0120\n      add\n      0x40\n      mstore\n      swap1\n      dup2\n      0x00\n      dup3\n      add\n      sload\n      dup2\n      mstore\n      0x20\n      add\n      0x01\n      dup3\n      add\n      0x00\n      swap1\n      sload\n      swap1\n      0x0100\n      exp\n      swap1\n      div\n      0xffffffffffffffffffffffffffffffffffffffff\n      and\n      0xffffffffffffffffffffffffffffffffffffffff\n      and\n      0xffffffffffffffffffffffffffffffffffffffff\n      and\n      dup2\n      mstore\n      0x20\n      add\n      0x02\n      dup3\n      add\n      sload\n      dup2\n      mstore\n      0x20\n      add\n      0x03\n      dup3\n      add\n      sload\n      dup2\n      mstore\n      0x20\n      add\n      0x04\n      dup3\n      add\n      0x00\n      swap1\n      sload\n      swap1\n      0x0100\n      exp\n      swap1\n      div\n      0xffffffff\n      and\n      0xffffffff\n      and\n      0xffffffff\n      and\n      dup2\n      mstore\n      0x20\n      add\n      0x04\n      dup3\n      add\n      0x04\n      swap1\n      sload\n      swap1\n      0x0100\n      exp\n      swap1\n      div\n      0xffffffff\n      and\n      0xffffffff\n      and\n      0xffffffff\n      and\n      dup2\n      mstore\n      0x20\n      add\n      0x05\n      dup3\n      add\n      dup1\n      sload\n      dup1\n      0x20\n      mul\n      0x20\n      add\n      mload(0x40)\n      swap1\n      dup2\n      add\n      0x40\n      mstore\n      dup1\n      swap3\n      swap2\n      swap1\n      dup2\n      dup2\n      mstore\n      0x20\n      add\n      dup3\n      dup1\n      sload\n      dup1\n      iszero\n      tag_182\n      jumpi\n      0x20\n      mul\n      dup3\n      add\n      swap2\n      swap1\n      0x00\n      mstore\n      keccak256(0x00, 0x20)\n      swap1\n    tag_183:\n      dup2\n      0x00\n      swap1\n      sload\n      swap1\n      0x0100\n      exp\n      swap1\n      div\n      0xffffffffffffffffffffffffffffffffffffffff\n      and\n      0xffffffffffffffffffffffffffffffffffffffff\n      and\n      dup2\n      mstore\n      0x20\n      add\n      swap1\n      0x01\n      add\n      swap1\n      dup1\n      dup4\n      gt\n      tag_183\n      jumpi\n    tag_182:\n      pop\n      pop\n      pop\n      pop\n      pop\n      dup2\n      mstore\n      0x20\n      add\n      0x06\n      dup3\n      add\n      0x00\n      swap1\n      sload\n      swap1\n      0x0100\n      exp\n      swap1\n      div\n      0xff\n      and\n      iszero\n      iszero\n      iszero\n      iszero\n      dup2\n      mstore\n      0x20\n      add\n      0x06\n      dup3\n      add\n      0x01\n      swap1\n      sload\n      swap1\n      0x0100\n      exp\n      swap1\n      div\n      0xff\n      and\n      iszero\n      iszero\n      iszero\n      iszero\n      dup2\n      mstore\n      pop\n      pop\n      dup2\n      mstore\n      0x20\n      add\n      swap1\n      0x01\n      add\n      swap1\n      jump(tag_179)\n    tag_180:\n      pop\n      pop\n      pop\n      pop\n      swap1\n      pop\n        /* \"contracts/CrowdFund.sol\":2438:2537  function getCampaigns() external view returns (Campaign[] memory) {... */\n      swap1\n      jump\t// out\n        /* \"contracts/CrowdFund.sol\":4570:4734  function toggleCanOperate(uint id) external onlyOwner {... */\n    tag_47:\n        /* \"@openzeppelin/contracts/access/Ownable.sol\":1094:1107  _checkOwner() */\n      tag_185\n        /* \"@openzeppelin/contracts/access/Ownable.sol\":1094:1105  _checkOwner */\n      tag_89\n        /* \"@openzeppelin/contracts/access/Ownable.sol\":1094:1107  _checkOwner() */\n      jump\t// in\n    tag_185:\n        /* \"contracts/CrowdFund.sol\":4634:4659  Campaign storage campaign */\n      0x00\n        /* \"contracts/CrowdFund.sol\":4662:4671  campaigns */\n      0x02\n        /* \"contracts/CrowdFund.sol\":4672:4674  id */\n      dup3\n        /* \"contracts/CrowdFund.sol\":4662:4675  campaigns[id] */\n      dup2\n      sload\n      dup2\n      lt\n      tag_187\n      jumpi\n      tag_188\n      tag_66\n      jump\t// in\n    tag_188:\n    tag_187:\n      swap1\n      0x00\n      mstore\n      keccak256(0x00, 0x20)\n      swap1\n      0x07\n      mul\n      add\n        /* \"contracts/CrowdFund.sol\":4634:4675  Campaign storage campaign = campaigns[id] */\n      swap1\n      pop\n        /* \"contracts/CrowdFund.sol\":4708:4716  campaign */\n      dup1\n        /* \"contracts/CrowdFund.sol\":4708:4727  campaign.canOperate */\n      0x06\n      add\n      0x01\n      swap1\n      sload\n      swap1\n      0x0100\n      exp\n      swap1\n      div\n      0xff\n      and\n        /* \"contracts/CrowdFund.sol\":4707:4727  !campaign.canOperate */\n      iszero\n        /* \"contracts/CrowdFund.sol\":4685:4693  campaign */\n      dup2\n        /* \"contracts/CrowdFund.sol\":4685:4704  campaign.canOperate */\n      0x06\n      add\n      0x01\n        /* \"contracts/CrowdFund.sol\":4685:4727  campaign.canOperate = !campaign.canOperate */\n      0x0100\n      exp\n      dup2\n      sload\n      dup2\n      0xff\n      mul\n      not\n      and\n      swap1\n      dup4\n      iszero\n      iszero\n      mul\n      or\n      swap1\n      sstore\n      pop\n        /* \"contracts/CrowdFund.sol\":4624:4734  {... */\n      pop\n        /* \"contracts/CrowdFund.sol\":4570:4734  function toggleCanOperate(uint id) external onlyOwner {... */\n      pop\n      jump\t// out\n        /* \"contracts/CrowdFund.sol\":1665:2432  function createCampaign(... */\n    tag_51:\n        /* \"contracts/CrowdFund.sol\":1798:1813  block.timestamp */\n      timestamp\n        /* \"contracts/CrowdFund.sol\":1789:1795  _start */\n      dup3\n        /* \"contracts/CrowdFund.sol\":1789:1813  _start > block.timestamp */\n      0xffffffff\n      and\n      gt\n        /* \"contracts/CrowdFund.sol\":1781:1839  require(_start > block.timestamp, \"Invalid date to start\") */\n      tag_191\n      jumpi\n      mload(0x40)\n      0x08c379a000000000000000000000000000000000000000000000000000000000\n      dup2\n      mstore\n      0x04\n      add\n      tag_192\n      swap1\n      tag_193\n      jump\t// in\n    tag_192:\n      mload(0x40)\n      dup1\n      swap2\n      sub\n      swap1\n      revert\n    tag_191:\n        /* \"contracts/CrowdFund.sol\":1864:1870  _start */\n      dup2\n        /* \"contracts/CrowdFund.sol\":1857:1870  _end > _start */\n      0xffffffff\n      and\n        /* \"contracts/CrowdFund.sol\":1857:1861  _end */\n      dup2\n        /* \"contracts/CrowdFund.sol\":1857:1870  _end > _start */\n      0xffffffff\n      and\n      gt\n        /* \"contracts/CrowdFund.sol\":1849:1922  require(_end > _start, \"Campaing end date must be later than start date\") */\n      tag_194\n      jumpi\n      mload(0x40)\n      0x08c379a000000000000000000000000000000000000000000000000000000000\n      dup2\n      mstore\n      0x04\n      add\n      tag_195\n      swap1\n      tag_196\n      jump\t// in\n    tag_195:\n      mload(0x40)\n      dup1\n      swap2\n      sub\n      swap1\n      revert\n    tag_194:\n        /* \"contracts/CrowdFund.sol\":1957:1964  90 days */\n      0x76a700\n        /* \"contracts/CrowdFund.sol\":1948:1954  _start */\n      dup3\n        /* \"contracts/CrowdFund.sol\":1948:1964  _start + 90 days */\n      tag_197\n      swap2\n      swap1\n      tag_198\n      jump\t// in\n    tag_197:\n        /* \"contracts/CrowdFund.sol\":1940:1964  _end <= _start + 90 days */\n      0xffffffff\n      and\n        /* \"contracts/CrowdFund.sol\":1940:1944  _end */\n      dup2\n        /* \"contracts/CrowdFund.sol\":1940:1964  _end <= _start + 90 days */\n      0xffffffff\n      and\n      gt\n      iszero\n        /* \"contracts/CrowdFund.sol\":1932:2010  require(_end <= _start + 90 days, \"Campaigns must not last more than 90 days\") */\n      tag_199\n      jumpi\n      mload(0x40)\n      0x08c379a000000000000000000000000000000000000000000000000000000000\n      dup2\n      mstore\n      0x04\n      add\n      tag_200\n      swap1\n      tag_201\n      jump\t// in\n    tag_200:\n      mload(0x40)\n      dup1\n      swap2\n      sub\n      swap1\n      revert\n    tag_199:\n        /* \"contracts/CrowdFund.sol\":2021:2045  address[] memory _donors */\n      0x60\n        /* \"contracts/CrowdFund.sol\":2056:2065  campaigns */\n      0x02\n        /* \"contracts/CrowdFund.sol\":2071:2337  Campaign({... */\n      mload(0x40)\n      dup1\n      0x0120\n      add\n      0x40\n      mstore\n      dup1\n        /* \"contracts/CrowdFund.sol\":2098:2107  idCounter */\n      sload(0x01)\n        /* \"contracts/CrowdFund.sol\":2071:2337  Campaign({... */\n      dup2\n      mstore\n      0x20\n      add\n        /* \"contracts/CrowdFund.sol\":2130:2140  msg.sender */\n      caller\n        /* \"contracts/CrowdFund.sol\":2071:2337  Campaign({... */\n      0xffffffffffffffffffffffffffffffffffffffff\n      and\n      dup2\n      mstore\n      0x20\n      add\n        /* \"contracts/CrowdFund.sol\":2160:2165  _goal */\n      dup7\n        /* \"contracts/CrowdFund.sol\":2071:2337  Campaign({... */\n      dup2\n      mstore\n      0x20\n      add\n        /* \"contracts/CrowdFund.sol\":2188:2189  0 */\n      0x00\n        /* \"contracts/CrowdFund.sol\":2071:2337  Campaign({... */\n      dup2\n      mstore\n      0x20\n      add\n        /* \"contracts/CrowdFund.sol\":2210:2216  _start */\n      dup6\n        /* \"contracts/CrowdFund.sol\":2071:2337  Campaign({... */\n      0xffffffff\n      and\n      dup2\n      mstore\n      0x20\n      add\n        /* \"contracts/CrowdFund.sol\":2235:2239  _end */\n      dup5\n        /* \"contracts/CrowdFund.sol\":2071:2337  Campaign({... */\n      0xffffffff\n      and\n      dup2\n      mstore\n      0x20\n      add\n        /* \"contracts/CrowdFund.sol\":2261:2268  _donors */\n      dup4\n        /* \"contracts/CrowdFund.sol\":2071:2337  Campaign({... */\n      dup2\n      mstore\n      0x20\n      add\n        /* \"contracts/CrowdFund.sol\":2291:2296  false */\n      0x00\n        /* \"contracts/CrowdFund.sol\":2071:2337  Campaign({... */\n      iszero\n      iszero\n      dup2\n      mstore\n      0x20\n      add\n        /* \"contracts/CrowdFund.sol\":2322:2326  true */\n      0x01\n        /* \"contracts/CrowdFund.sol\":2071:2337  Campaign({... */\n      iszero\n      iszero\n      dup2\n      mstore\n      pop\n        /* \"contracts/CrowdFund.sol\":2056:2338  campaigns.push(Campaign({... */\n      swap1\n      dup1\n      0x01\n      dup2\n      sload\n      add\n      dup1\n      dup3\n      sstore\n      dup1\n      swap2\n      pop\n      pop\n      0x01\n      swap1\n      sub\n      swap1\n      0x00\n      mstore\n      keccak256(0x00, 0x20)\n      swap1\n      0x07\n      mul\n      add\n      0x00\n      swap1\n      swap2\n      swap1\n      swap2\n      swap1\n      swap2\n      pop\n      0x00\n      dup3\n      add\n      mload\n      dup2\n      0x00\n      add\n      sstore\n      0x20\n      dup3\n      add\n      mload\n      dup2\n      0x01\n      add\n      exp(0x0100, 0x00)\n      dup2\n      sload\n      dup2\n      0xffffffffffffffffffffffffffffffffffffffff\n      mul\n      not\n      and\n      swap1\n      dup4\n      0xffffffffffffffffffffffffffffffffffffffff\n      and\n      mul\n      or\n      swap1\n      sstore\n      pop\n      0x40\n      dup3\n      add\n      mload\n      dup2\n      0x02\n      add\n      sstore\n      0x60\n      dup3\n      add\n      mload\n      dup2\n      0x03\n      add\n      sstore\n      0x80\n      dup3\n      add\n      mload\n      dup2\n      0x04\n      add\n      exp(0x0100, 0x00)\n      dup2\n      sload\n      dup2\n      0xffffffff\n      mul\n      not\n      and\n      swap1\n      dup4\n      0xffffffff\n      and\n      mul\n      or\n      swap1\n      sstore\n      pop\n      0xa0\n      dup3\n      add\n      mload\n      dup2\n      0x04\n      add\n      exp(0x0100, 0x04)\n      dup2\n      sload\n      dup2\n      0xffffffff\n      mul\n      not\n      and\n      swap1\n      dup4\n      0xffffffff\n      and\n      mul\n      or\n      swap1\n      sstore\n      pop\n      0xc0\n      dup3\n      add\n      mload\n      dup2\n      0x05\n      add\n      swap1\n      dup1\n      mload\n      swap1\n      0x20\n      add\n      swap1\n      tag_203\n      swap3\n      swap2\n      swap1\n      tag_204\n      jump\t// in\n    tag_203:\n      pop\n      0xe0\n      dup3\n      add\n      mload\n      dup2\n      0x06\n      add\n      exp(0x0100, 0x00)\n      dup2\n      sload\n      dup2\n      0xff\n      mul\n      not\n      and\n      swap1\n      dup4\n      iszero\n      iszero\n      mul\n      or\n      swap1\n      sstore\n      pop\n      0x0100\n      dup3\n      add\n      mload\n      dup2\n      0x06\n      add\n      exp(0x0100, 0x01)\n      dup2\n      sload\n      dup2\n      0xff\n      mul\n      not\n      and\n      swap1\n      dup4\n      iszero\n      iszero\n      mul\n      or\n      swap1\n      sstore\n      pop\n      pop\n      pop\n        /* \"contracts/CrowdFund.sol\":2348:2357  idCounter */\n      0x01\n      0x00\n        /* \"contracts/CrowdFund.sol\":2348:2359  idCounter++ */\n      dup2\n      sload\n      dup1\n      swap3\n      swap2\n      swap1\n      tag_205\n      swap1\n      tag_117\n      jump\t// in\n    tag_205:\n      swap2\n      swap1\n      pop\n      sstore\n      pop\n        /* \"contracts/CrowdFund.sol\":2393:2403  msg.sender */\n      caller\n        /* \"contracts/CrowdFund.sol\":2374:2425  Created(idCounter, msg.sender, _goal, _start, _end) */\n      0xffffffffffffffffffffffffffffffffffffffff\n      and\n      0x0f048c66111c8055b679ac16ac1f45c209334c7eb9bae25a2230d8299827a1fe\n        /* \"contracts/CrowdFund.sol\":2382:2391  idCounter */\n      sload(0x01)\n        /* \"contracts/CrowdFund.sol\":2405:2410  _goal */\n      dup7\n        /* \"contracts/CrowdFund.sol\":2412:2418  _start */\n      dup7\n        /* \"contracts/CrowdFund.sol\":2420:2424  _end */\n      dup7\n        /* \"contracts/CrowdFund.sol\":2374:2425  Created(idCounter, msg.sender, _goal, _start, _end) */\n      mload(0x40)\n      tag_206\n      swap5\n      swap4\n      swap3\n      swap2\n      swap1\n      tag_207\n      jump\t// in\n    tag_206:\n      mload(0x40)\n      dup1\n      swap2\n      sub\n      swap1\n      log2\n        /* \"contracts/CrowdFund.sol\":1771:2432  {... */\n      pop\n        /* \"contracts/CrowdFund.sol\":1665:2432  function createCampaign(... */\n      pop\n      pop\n      pop\n      jump\t// out\n        /* \"@openzeppelin/contracts/access/Ownable.sol\":2081:2279  function transferOwnership(address newOwner) public virtual onlyOwner {... */\n    tag_55:\n        /* \"@openzeppelin/contracts/access/Ownable.sol\":1094:1107  _checkOwner() */\n      tag_209\n        /* \"@openzeppelin/contracts/access/Ownable.sol\":1094:1105  _checkOwner */\n      tag_89\n        /* \"@openzeppelin/contracts/access/Ownable.sol\":1094:1107  _checkOwner() */\n      jump\t// in\n    tag_209:\n        /* \"@openzeppelin/contracts/access/Ownable.sol\":2189:2190  0 */\n      0x00\n        /* \"@openzeppelin/contracts/access/Ownable.sol\":2169:2191  newOwner != address(0) */\n      0xffffffffffffffffffffffffffffffffffffffff\n      and\n        /* \"@openzeppelin/contracts/access/Ownable.sol\":2169:2177  newOwner */\n      dup2\n        /* \"@openzeppelin/contracts/access/Ownable.sol\":2169:2191  newOwner != address(0) */\n      0xffffffffffffffffffffffffffffffffffffffff\n      and\n      sub\n        /* \"@openzeppelin/contracts/access/Ownable.sol\":2161:2234  require(newOwner != address(0), \"Ownable: new owner is the zero address\") */\n      tag_211\n      jumpi\n      mload(0x40)\n      0x08c379a000000000000000000000000000000000000000000000000000000000\n      dup2\n      mstore\n      0x04\n      add\n      tag_212\n      swap1\n      tag_213\n      jump\t// in\n    tag_212:\n      mload(0x40)\n      dup1\n      swap2\n      sub\n      swap1\n      revert\n    tag_211:\n        /* \"@openzeppelin/contracts/access/Ownable.sol\":2244:2272  _transferOwnership(newOwner) */\n      tag_214\n        /* \"@openzeppelin/contracts/access/Ownable.sol\":2263:2271  newOwner */\n      dup2\n        /* \"@openzeppelin/contracts/access/Ownable.sol\":2244:2262  _transferOwnership */\n      tag_176\n        /* \"@openzeppelin/contracts/access/Ownable.sol\":2244:2272  _transferOwnership(newOwner) */\n      jump\t// in\n    tag_214:\n        /* \"@openzeppelin/contracts/access/Ownable.sol\":2081:2279  function transferOwnership(address newOwner) public virtual onlyOwner {... */\n      pop\n      jump\t// out\n        /* \"contracts/CrowdFund.sol\":499:528  IERC20 public immutable token */\n    tag_57:\n      immutable(\"0x5c48f5d4977555676efc2c019ca108a5c9064a3c6bfe4983df03a566e2405364\")\n      dup2\n      jump\t// out\n        /* \"contracts/CrowdFund.sol\":2543:3092  function pledge(uint256 id, uint256 amount) external _isActive(id) {... */\n    tag_62:\n        /* \"contracts/CrowdFund.sol\":2606:2608  id */\n      dup2\n        /* \"contracts/CrowdFund.sol\":1269:1294  Campaign storage campaign */\n      0x00\n        /* \"contracts/CrowdFund.sol\":1297:1306  campaigns */\n      0x02\n        /* \"contracts/CrowdFund.sol\":1307:1310  _id */\n      dup3\n        /* \"contracts/CrowdFund.sol\":1297:1311  campaigns[_id] */\n      dup2\n      sload\n      dup2\n      lt\n      tag_216\n      jumpi\n      tag_217\n      tag_66\n      jump\t// in\n    tag_217:\n    tag_216:\n      swap1\n      0x00\n      mstore\n      keccak256(0x00, 0x20)\n      swap1\n      0x07\n      mul\n      add\n        /* \"contracts/CrowdFund.sol\":1269:1311  Campaign storage campaign = campaigns[_id] */\n      swap1\n      pop\n        /* \"contracts/CrowdFund.sol\":1347:1362  block.timestamp */\n      timestamp\n        /* \"contracts/CrowdFund.sol\":1329:1337  campaign */\n      dup2\n        /* \"contracts/CrowdFund.sol\":1329:1343  campaign.start */\n      0x04\n      add\n      0x00\n      swap1\n      sload\n      swap1\n      0x0100\n      exp\n      swap1\n      div\n      0xffffffff\n      and\n        /* \"contracts/CrowdFund.sol\":1329:1362  campaign.start <= block.timestamp */\n      0xffffffff\n      and\n      gt\n      iszero\n        /* \"contracts/CrowdFund.sol\":1321:1392  require(campaign.start <= block.timestamp, \"Campaign not started yet!\") */\n      tag_219\n      jumpi\n      mload(0x40)\n      0x08c379a000000000000000000000000000000000000000000000000000000000\n      dup2\n      mstore\n      0x04\n      add\n      tag_220\n      swap1\n      tag_146\n      jump\t// in\n    tag_220:\n      mload(0x40)\n      dup1\n      swap2\n      sub\n      swap1\n      revert\n    tag_219:\n        /* \"contracts/CrowdFund.sol\":1426:1441  block.timestamp */\n      timestamp\n        /* \"contracts/CrowdFund.sol\":1410:1418  campaign */\n      dup2\n        /* \"contracts/CrowdFund.sol\":1410:1422  campaign.end */\n      0x04\n      add\n      0x04\n      swap1\n      sload\n      swap1\n      0x0100\n      exp\n      swap1\n      div\n      0xffffffff\n      and\n        /* \"contracts/CrowdFund.sol\":1410:1441  campaign.end >= block.timestamp */\n      0xffffffff\n      and\n      lt\n      iszero\n        /* \"contracts/CrowdFund.sol\":1402:1464  require(campaign.end >= block.timestamp, \"Campaign has ended\") */\n      tag_221\n      jumpi\n      mload(0x40)\n      0x08c379a000000000000000000000000000000000000000000000000000000000\n      dup2\n      mstore\n      0x04\n      add\n      tag_222\n      swap1\n      tag_149\n      jump\t// in\n    tag_222:\n      mload(0x40)\n      dup1\n      swap2\n      sub\n      swap1\n      revert\n    tag_221:\n        /* \"contracts/CrowdFund.sol\":1501:1509  campaign */\n      dup1\n        /* \"contracts/CrowdFund.sol\":1501:1514  campaign.goal */\n      0x02\n      add\n      sload\n        /* \"contracts/CrowdFund.sol\":1482:1490  campaign */\n      dup2\n        /* \"contracts/CrowdFund.sol\":1482:1498  campaign.pledged */\n      0x03\n      add\n      sload\n        /* \"contracts/CrowdFund.sol\":1482:1514  campaign.pledged < campaign.goal */\n      lt\n        /* \"contracts/CrowdFund.sol\":1474:1556  require(campaign.pledged < campaign.goal, \"Campaign has already reached the goal\") */\n      tag_223\n      jumpi\n      mload(0x40)\n      0x08c379a000000000000000000000000000000000000000000000000000000000\n      dup2\n      mstore\n      0x04\n      add\n      tag_224\n      swap1\n      tag_152\n      jump\t// in\n    tag_224:\n      mload(0x40)\n      dup1\n      swap2\n      sub\n      swap1\n      revert\n    tag_223:\n        /* \"contracts/CrowdFund.sol\":1597:1601  true */\n      0x01\n        /* \"contracts/CrowdFund.sol\":1574:1601  campaign.canOperate == true */\n      iszero\n      iszero\n        /* \"contracts/CrowdFund.sol\":1574:1582  campaign */\n      dup2\n        /* \"contracts/CrowdFund.sol\":1574:1593  campaign.canOperate */\n      0x06\n      add\n      0x01\n      swap1\n      sload\n      swap1\n      0x0100\n      exp\n      swap1\n      div\n      0xff\n      and\n        /* \"contracts/CrowdFund.sol\":1574:1601  campaign.canOperate == true */\n      iszero\n      iszero\n      eq\n        /* \"contracts/CrowdFund.sol\":1566:1641  require(campaign.canOperate == true, \"Campaign operations are deactivated\") */\n      tag_225\n      jumpi\n      mload(0x40)\n      0x08c379a000000000000000000000000000000000000000000000000000000000\n      dup2\n      mstore\n      0x04\n      add\n      tag_226\n      swap1\n      tag_155\n      jump\t// in\n    tag_226:\n      mload(0x40)\n      dup1\n      swap2\n      sub\n      swap1\n      revert\n    tag_225:\n        /* \"contracts/CrowdFund.sol\":2620:2645  Campaign storage campaign */\n      0x00\n        /* \"contracts/CrowdFund.sol\":2648:2657  campaigns */\n      0x02\n        /* \"contracts/CrowdFund.sol\":2658:2660  id */\n      dup6\n        /* \"contracts/CrowdFund.sol\":2648:2661  campaigns[id] */\n      dup2\n      sload\n      dup2\n      lt\n      tag_228\n      jumpi\n      tag_229\n      tag_66\n      jump\t// in\n    tag_229:\n    tag_228:\n      swap1\n      0x00\n      mstore\n      keccak256(0x00, 0x20)\n      swap1\n      0x07\n      mul\n      add\n        /* \"contracts/CrowdFund.sol\":2620:2661  Campaign storage campaign = campaigns[id] */\n      swap1\n      pop\n        /* \"contracts/CrowdFund.sol\":2672:2681  bool sent */\n      0x00\n        /* \"contracts/CrowdFund.sol\":2684:2689  token */\n      immutable(\"0x5c48f5d4977555676efc2c019ca108a5c9064a3c6bfe4983df03a566e2405364\")\n        /* \"contracts/CrowdFund.sol\":2684:2702  token.transferFrom */\n      0xffffffffffffffffffffffffffffffffffffffff\n      and\n      0x23b872dd\n        /* \"contracts/CrowdFund.sol\":2703:2713  msg.sender */\n      caller\n        /* \"contracts/CrowdFund.sol\":2723:2727  this */\n      address\n        /* \"contracts/CrowdFund.sol\":2730:2736  amount */\n      dup9\n        /* \"contracts/CrowdFund.sol\":2684:2737  token.transferFrom(msg.sender, address(this), amount) */\n      mload(0x40)\n      dup5\n      0xffffffff\n      and\n      0xe0\n      shl\n      dup2\n      mstore\n      0x04\n      add\n      tag_231\n      swap4\n      swap3\n      swap2\n      swap1\n      tag_232\n      jump\t// in\n    tag_231:\n      0x20\n      mload(0x40)\n      dup1\n      dup4\n      sub\n      dup2\n      0x00\n      dup8\n      gas\n      call\n      iszero\n      dup1\n      iszero\n      tag_234\n      jumpi\n      returndatasize\n      0x00\n      dup1\n      returndatacopy\n      revert(0x00, returndatasize)\n    tag_234:\n      pop\n      pop\n      pop\n      pop\n      mload(0x40)\n      returndatasize\n      not(0x1f)\n      0x1f\n      dup3\n      add\n      and\n      dup3\n      add\n      dup1\n      0x40\n      mstore\n      pop\n      dup2\n      add\n      swap1\n      tag_235\n      swap2\n      swap1\n      tag_82\n      jump\t// in\n    tag_235:\n        /* \"contracts/CrowdFund.sol\":2672:2737  bool sent = token.transferFrom(msg.sender, address(this), amount) */\n      swap1\n      pop\n        /* \"contracts/CrowdFund.sol\":2755:2759  sent */\n      dup1\n        /* \"contracts/CrowdFund.sol\":2747:2798  require(sent, \"There was a problem sending tokens\") */\n      tag_236\n      jumpi\n      mload(0x40)\n      0x08c379a000000000000000000000000000000000000000000000000000000000\n      dup2\n      mstore\n      0x04\n      add\n      tag_237\n      swap1\n      tag_85\n      jump\t// in\n    tag_237:\n      mload(0x40)\n      dup1\n      swap2\n      sub\n      swap1\n      revert\n    tag_236:\n        /* \"contracts/CrowdFund.sol\":2895:2896  0 */\n      0x00\n        /* \"contracts/CrowdFund.sol\":2862:2875  pledgedAmount */\n      0x03\n        /* \"contracts/CrowdFund.sol\":2862:2879  pledgedAmount[id] */\n      0x00\n        /* \"contracts/CrowdFund.sol\":2876:2878  id */\n      dup9\n        /* \"contracts/CrowdFund.sol\":2862:2879  pledgedAmount[id] */\n      dup2\n      mstore\n      0x20\n      add\n      swap1\n      dup2\n      mstore\n      0x20\n      add\n      0x00\n      keccak256\n        /* \"contracts/CrowdFund.sol\":2862:2891  pledgedAmount[id][msg.sender] */\n      0x00\n        /* \"contracts/CrowdFund.sol\":2880:2890  msg.sender */\n      caller\n        /* \"contracts/CrowdFund.sol\":2862:2891  pledgedAmount[id][msg.sender] */\n      0xffffffffffffffffffffffffffffffffffffffff\n      and\n      0xffffffffffffffffffffffffffffffffffffffff\n      and\n      dup2\n      mstore\n      0x20\n      add\n      swap1\n      dup2\n      mstore\n      0x20\n      add\n      0x00\n      keccak256\n      sload\n        /* \"contracts/CrowdFund.sol\":2862:2896  pledgedAmount[id][msg.sender] == 0 */\n      sub\n        /* \"contracts/CrowdFund.sol\":2859:2955  if(pledgedAmount[id][msg.sender] == 0) {... */\n      tag_238\n      jumpi\n        /* \"contracts/CrowdFund.sol\":2912:2920  campaign */\n      dup2\n        /* \"contracts/CrowdFund.sol\":2912:2927  campaign.donors */\n      0x05\n      add\n        /* \"contracts/CrowdFund.sol\":2933:2943  msg.sender */\n      caller\n        /* \"contracts/CrowdFund.sol\":2912:2944  campaign.donors.push(msg.sender) */\n      swap1\n      dup1\n      0x01\n      dup2\n      sload\n      add\n      dup1\n      dup3\n      sstore\n      dup1\n      swap2\n      pop\n      pop\n      0x01\n      swap1\n      sub\n      swap1\n      0x00\n      mstore\n      keccak256(0x00, 0x20)\n      add\n      0x00\n      swap1\n      swap2\n      swap1\n      swap2\n      swap1\n      swap2\n      0x0100\n      exp\n      dup2\n      sload\n      dup2\n      0xffffffffffffffffffffffffffffffffffffffff\n      mul\n      not\n      and\n      swap1\n      dup4\n      0xffffffffffffffffffffffffffffffffffffffff\n      and\n      mul\n      or\n      swap1\n      sstore\n      pop\n        /* \"contracts/CrowdFund.sol\":2859:2955  if(pledgedAmount[id][msg.sender] == 0) {... */\n    tag_238:\n        /* \"contracts/CrowdFund.sol\":2984:2990  amount */\n      dup5\n        /* \"contracts/CrowdFund.sol\":2964:2972  campaign */\n      dup3\n        /* \"contracts/CrowdFund.sol\":2964:2980  campaign.pledged */\n      0x03\n      add\n      0x00\n        /* \"contracts/CrowdFund.sol\":2964:2990  campaign.pledged += amount */\n      dup3\n      dup3\n      sload\n      tag_240\n      swap2\n      swap1\n      tag_241\n      jump\t// in\n    tag_240:\n      swap3\n      pop\n      pop\n      dup2\n      swap1\n      sstore\n      pop\n        /* \"contracts/CrowdFund.sol\":3033:3039  amount */\n      dup5\n        /* \"contracts/CrowdFund.sol\":3000:3013  pledgedAmount */\n      0x03\n        /* \"contracts/CrowdFund.sol\":3000:3017  pledgedAmount[id] */\n      0x00\n        /* \"contracts/CrowdFund.sol\":3014:3016  id */\n      dup9\n        /* \"contracts/CrowdFund.sol\":3000:3017  pledgedAmount[id] */\n      dup2\n      mstore\n      0x20\n      add\n      swap1\n      dup2\n      mstore\n      0x20\n      add\n      0x00\n      keccak256\n        /* \"contracts/CrowdFund.sol\":3000:3029  pledgedAmount[id][msg.sender] */\n      0x00\n        /* \"contracts/CrowdFund.sol\":3018:3028  msg.sender */\n      caller\n        /* \"contracts/CrowdFund.sol\":3000:3029  pledgedAmount[id][msg.sender] */\n      0xffffffffffffffffffffffffffffffffffffffff\n      and\n      0xffffffffffffffffffffffffffffffffffffffff\n      and\n      dup2\n      mstore\n      0x20\n      add\n      swap1\n      dup2\n      mstore\n      0x20\n      add\n      0x00\n      keccak256\n      0x00\n        /* \"contracts/CrowdFund.sol\":3000:3039  pledgedAmount[id][msg.sender] += amount */\n      dup3\n      dup3\n      sload\n      tag_242\n      swap2\n      swap1\n      tag_241\n      jump\t// in\n    tag_242:\n      swap3\n      pop\n      pop\n      dup2\n      swap1\n      sstore\n      pop\n        /* \"contracts/CrowdFund.sol\":3066:3076  msg.sender */\n      caller\n        /* \"contracts/CrowdFund.sol\":3054:3085  Pledged(id, msg.sender, amount) */\n      0xffffffffffffffffffffffffffffffffffffffff\n      and\n        /* \"contracts/CrowdFund.sol\":3062:3064  id */\n      dup7\n        /* \"contracts/CrowdFund.sol\":3054:3085  Pledged(id, msg.sender, amount) */\n      0x2757ac6a40883f4491cc56930ae964df9034e343e660d5179eb01e198336756b\n        /* \"contracts/CrowdFund.sol\":3078:3084  amount */\n      dup8\n        /* \"contracts/CrowdFund.sol\":3054:3085  Pledged(id, msg.sender, amount) */\n      mload(0x40)\n      tag_243\n      swap2\n      swap1\n      tag_115\n      jump\t// in\n    tag_243:\n      mload(0x40)\n      dup1\n      swap2\n      sub\n      swap1\n      log3\n        /* \"contracts/CrowdFund.sol\":2610:3092  {... */\n      pop\n      pop\n        /* \"contracts/CrowdFund.sol\":1259:1659  {... */\n      pop\n        /* \"contracts/CrowdFund.sol\":2543:3092  function pledge(uint256 id, uint256 amount) external _isActive(id) {... */\n      pop\n      pop\n      pop\n      jump\t// out\n        /* \"@openzeppelin/contracts/access/Ownable.sol\":1359:1489  function _checkOwner() internal view virtual {... */\n    tag_89:\n        /* \"@openzeppelin/contracts/access/Ownable.sol\":1433:1445  _msgSender() */\n      tag_245\n        /* \"@openzeppelin/contracts/access/Ownable.sol\":1433:1443  _msgSender */\n      tag_246\n        /* \"@openzeppelin/contracts/access/Ownable.sol\":1433:1445  _msgSender() */\n      jump\t// in\n    tag_245:\n        /* \"@openzeppelin/contracts/access/Ownable.sol\":1422:1445  owner() == _msgSender() */\n      0xffffffffffffffffffffffffffffffffffffffff\n      and\n        /* \"@openzeppelin/contracts/access/Ownable.sol\":1422:1429  owner() */\n      tag_247\n        /* \"@openzeppelin/contracts/access/Ownable.sol\":1422:1427  owner */\n      tag_38\n        /* \"@openzeppelin/contracts/access/Ownable.sol\":1422:1429  owner() */\n      jump\t// in\n    tag_247:\n        /* \"@openzeppelin/contracts/access/Ownable.sol\":1422:1445  owner() == _msgSender() */\n      0xffffffffffffffffffffffffffffffffffffffff\n      and\n      eq\n        /* \"@openzeppelin/contracts/access/Ownable.sol\":1414:1482  require(owner() == _msgSender(), \"Ownable: caller is not the owner\") */\n      tag_248\n      jumpi\n      mload(0x40)\n      0x08c379a000000000000000000000000000000000000000000000000000000000\n      dup2\n      mstore\n      0x04\n      add\n      tag_249\n      swap1\n      tag_250\n      jump\t// in\n    tag_249:\n      mload(0x40)\n      dup1\n      swap2\n      sub\n      swap1\n      revert\n    tag_248:\n        /* \"@openzeppelin/contracts/access/Ownable.sol\":1359:1489  function _checkOwner() internal view virtual {... */\n      jump\t// out\n        /* \"@openzeppelin/contracts/access/Ownable.sol\":2433:2620  function _transferOwnership(address newOwner) internal virtual {... */\n    tag_176:\n        /* \"@openzeppelin/contracts/access/Ownable.sol\":2506:2522  address oldOwner */\n      0x00\n        /* \"@openzeppelin/contracts/access/Ownable.sol\":2525:2531  _owner */\n      dup1\n      0x00\n      swap1\n      sload\n      swap1\n      0x0100\n      exp\n      swap1\n      div\n      0xffffffffffffffffffffffffffffffffffffffff\n      and\n        /* \"@openzeppelin/contracts/access/Ownable.sol\":2506:2531  address oldOwner = _owner */\n      swap1\n      pop\n        /* \"@openzeppelin/contracts/access/Ownable.sol\":2550:2558  newOwner */\n      dup2\n        /* \"@openzeppelin/contracts/access/Ownable.sol\":2541:2547  _owner */\n      0x00\n      dup1\n        /* \"@openzeppelin/contracts/access/Ownable.sol\":2541:2558  _owner = newOwner */\n      0x0100\n      exp\n      dup2\n      sload\n      dup2\n      0xffffffffffffffffffffffffffffffffffffffff\n      mul\n      not\n      and\n      swap1\n      dup4\n      0xffffffffffffffffffffffffffffffffffffffff\n      and\n      mul\n      or\n      swap1\n      sstore\n      pop\n        /* \"@openzeppelin/contracts/access/Ownable.sol\":2604:2612  newOwner */\n      dup2\n        /* \"@openzeppelin/contracts/access/Ownable.sol\":2573:2613  OwnershipTransferred(oldOwner, newOwner) */\n      0xffffffffffffffffffffffffffffffffffffffff\n      and\n        /* \"@openzeppelin/contracts/access/Ownable.sol\":2594:2602  oldOwner */\n      dup2\n        /* \"@openzeppelin/contracts/access/Ownable.sol\":2573:2613  OwnershipTransferred(oldOwner, newOwner) */\n      0xffffffffffffffffffffffffffffffffffffffff\n      and\n      0x8be0079c531659141344cd1fd0a4f28419497f9722a3daafe3b4186f6b6457e0\n      mload(0x40)\n      mload(0x40)\n      dup1\n      swap2\n      sub\n      swap1\n      log3\n        /* \"@openzeppelin/contracts/access/Ownable.sol\":2496:2620  {... */\n      pop\n        /* \"@openzeppelin/contracts/access/Ownable.sol\":2433:2620  function _transferOwnership(address newOwner) internal virtual {... */\n      pop\n      jump\t// out\n        /* \"@openzeppelin/contracts/utils/Context.sol\":640:736  function _msgSender() internal view virtual returns (address) {... */\n    tag_246:\n        /* \"@openzeppelin/contracts/utils/Context.sol\":693:700  address */\n      0x00\n        /* \"@openzeppelin/contracts/utils/Context.sol\":719:729  msg.sender */\n      caller\n        /* \"@openzeppelin/contracts/utils/Context.sol\":712:729  return msg.sender */\n      swap1\n      pop\n        /* \"@openzeppelin/contracts/utils/Context.sol\":640:736  function _msgSender() internal view virtual returns (address) {... */\n      swap1\n      jump\t// out\n    tag_137:\n      pop\n      dup1\n      sload\n      0x00\n      dup3\n      sstore\n      swap1\n      0x00\n      mstore\n      keccak256(0x00, 0x20)\n      swap1\n      dup2\n      add\n      swap1\n      tag_254\n      swap2\n      swap1\n      tag_255\n      jump\t// in\n    tag_254:\n      pop\n      jump\t// out\n    tag_204:\n      dup3\n      dup1\n      sload\n      dup3\n      dup3\n      sstore\n      swap1\n      0x00\n      mstore\n      keccak256(0x00, 0x20)\n      swap1\n      dup2\n      add\n      swap3\n      dup3\n      iszero\n      tag_256\n      jumpi\n      swap2\n      0x20\n      mul\n      dup3\n      add\n    tag_257:\n      dup3\n      dup2\n      gt\n      iszero\n      tag_258\n      jumpi\n      dup3\n      mload\n      dup3\n      exp(0x0100, 0x00)\n      dup2\n      sload\n      dup2\n      0xffffffffffffffffffffffffffffffffffffffff\n      mul\n      not\n      and\n      swap1\n      dup4\n      0xffffffffffffffffffffffffffffffffffffffff\n      and\n      mul\n      or\n      swap1\n      sstore\n      pop\n      swap2\n      0x20\n      add\n      swap2\n      swap1\n      0x01\n      add\n      swap1\n      jump(tag_257)\n    tag_258:\n    tag_256:\n      pop\n      swap1\n      pop\n      tag_259\n      swap2\n      swap1\n      tag_255\n      jump\t// in\n    tag_259:\n      pop\n      swap1\n      jump\t// out\n    tag_255:\n    tag_260:\n      dup1\n      dup3\n      gt\n      iszero\n      tag_261\n      jumpi\n      0x00\n      dup2\n      0x00\n      swap1\n      sstore\n      pop\n      0x01\n      add\n      jump(tag_260)\n    tag_261:\n      pop\n      swap1\n      jump\t// out\n        /* \"#utility.yul\":88:205   */\n    tag_263:\n        /* \"#utility.yul\":197:198   */\n      0x00\n        /* \"#utility.yul\":194:195   */\n      dup1\n        /* \"#utility.yul\":187:199   */\n      revert\n        /* \"#utility.yul\":334:411   */\n    tag_265:\n        /* \"#utility.yul\":371:378   */\n      0x00\n        /* \"#utility.yul\":400:405   */\n      dup2\n        /* \"#utility.yul\":389:405   */\n      swap1\n      pop\n        /* \"#utility.yul\":334:411   */\n      swap2\n      swap1\n      pop\n      jump\t// out\n        /* \"#utility.yul\":417:539   */\n    tag_266:\n        /* \"#utility.yul\":490:514   */\n      tag_346\n        /* \"#utility.yul\":508:513   */\n      dup2\n        /* \"#utility.yul\":490:514   */\n      tag_265\n      jump\t// in\n    tag_346:\n        /* \"#utility.yul\":483:488   */\n      dup2\n        /* \"#utility.yul\":480:515   */\n      eq\n        /* \"#utility.yul\":470:533   */\n      tag_347\n      jumpi\n        /* \"#utility.yul\":529:530   */\n      0x00\n        /* \"#utility.yul\":526:527   */\n      dup1\n        /* \"#utility.yul\":519:531   */\n      revert\n        /* \"#utility.yul\":470:533   */\n    tag_347:\n        /* \"#utility.yul\":417:539   */\n      pop\n      jump\t// out\n        /* \"#utility.yul\":545:684   */\n    tag_267:\n        /* \"#utility.yul\":591:596   */\n      0x00\n        /* \"#utility.yul\":629:635   */\n      dup2\n        /* \"#utility.yul\":616:636   */\n      calldataload\n        /* \"#utility.yul\":607:636   */\n      swap1\n      pop\n        /* \"#utility.yul\":645:678   */\n      tag_349\n        /* \"#utility.yul\":672:677   */\n      dup2\n        /* \"#utility.yul\":645:678   */\n      tag_266\n      jump\t// in\n    tag_349:\n        /* \"#utility.yul\":545:684   */\n      swap3\n      swap2\n      pop\n      pop\n      jump\t// out\n        /* \"#utility.yul\":690:1019   */\n    tag_20:\n        /* \"#utility.yul\":749:755   */\n      0x00\n        /* \"#utility.yul\":798:800   */\n      0x20\n        /* \"#utility.yul\":786:795   */\n      dup3\n        /* \"#utility.yul\":777:784   */\n      dup5\n        /* \"#utility.yul\":773:796   */\n      sub\n        /* \"#utility.yul\":769:801   */\n      slt\n        /* \"#utility.yul\":766:885   */\n      iszero\n      tag_351\n      jumpi\n        /* \"#utility.yul\":804:883   */\n      tag_352\n      tag_263\n      jump\t// in\n    tag_352:\n        /* \"#utility.yul\":766:885   */\n    tag_351:\n        /* \"#utility.yul\":924:925   */\n      0x00\n        /* \"#utility.yul\":949:1002   */\n      tag_353\n        /* \"#utility.yul\":994:1001   */\n      dup5\n        /* \"#utility.yul\":985:991   */\n      dup3\n        /* \"#utility.yul\":974:983   */\n      dup6\n        /* \"#utility.yul\":970:992   */\n      add\n        /* \"#utility.yul\":949:1002   */\n      tag_267\n      jump\t// in\n    tag_353:\n        /* \"#utility.yul\":939:1002   */\n      swap2\n      pop\n        /* \"#utility.yul\":895:1012   */\n      pop\n        /* \"#utility.yul\":690:1019   */\n      swap3\n      swap2\n      pop\n      pop\n      jump\t// out\n        /* \"#utility.yul\":1025:1499   */\n    tag_30:\n        /* \"#utility.yul\":1093:1099   */\n      0x00\n        /* \"#utility.yul\":1101:1107   */\n      dup1\n        /* \"#utility.yul\":1150:1152   */\n      0x40\n        /* \"#utility.yul\":1138:1147   */\n      dup4\n        /* \"#utility.yul\":1129:1136   */\n      dup6\n        /* \"#utility.yul\":1125:1148   */\n      sub\n        /* \"#utility.yul\":1121:1153   */\n      slt\n        /* \"#utility.yul\":1118:1237   */\n      iszero\n      tag_355\n      jumpi\n        /* \"#utility.yul\":1156:1235   */\n      tag_356\n      tag_263\n      jump\t// in\n    tag_356:\n        /* \"#utility.yul\":1118:1237   */\n    tag_355:\n        /* \"#utility.yul\":1276:1277   */\n      0x00\n        /* \"#utility.yul\":1301:1354   */\n      tag_357\n        /* \"#utility.yul\":1346:1353   */\n      dup6\n        /* \"#utility.yul\":1337:1343   */\n      dup3\n        /* \"#utility.yul\":1326:1335   */\n      dup7\n        /* \"#utility.yul\":1322:1344   */\n      add\n        /* \"#utility.yul\":1301:1354   */\n      tag_267\n      jump\t// in\n    tag_357:\n        /* \"#utility.yul\":1291:1354   */\n      swap3\n      pop\n        /* \"#utility.yul\":1247:1364   */\n      pop\n        /* \"#utility.yul\":1403:1405   */\n      0x20\n        /* \"#utility.yul\":1429:1482   */\n      tag_358\n        /* \"#utility.yul\":1474:1481   */\n      dup6\n        /* \"#utility.yul\":1465:1471   */\n      dup3\n        /* \"#utility.yul\":1454:1463   */\n      dup7\n        /* \"#utility.yul\":1450:1472   */\n      add\n        /* \"#utility.yul\":1429:1482   */\n      tag_267\n      jump\t// in\n    tag_358:\n        /* \"#utility.yul\":1419:1482   */\n      swap2\n      pop\n        /* \"#utility.yul\":1374:1492   */\n      pop\n        /* \"#utility.yul\":1025:1499   */\n      swap3\n      pop\n      swap3\n      swap1\n      pop\n      jump\t// out\n        /* \"#utility.yul\":1505:1631   */\n    tag_268:\n        /* \"#utility.yul\":1542:1549   */\n      0x00\n        /* \"#utility.yul\":1582:1624   */\n      0xffffffffffffffffffffffffffffffffffffffff\n        /* \"#utility.yul\":1575:1580   */\n      dup3\n        /* \"#utility.yul\":1571:1625   */\n      and\n        /* \"#utility.yul\":1560:1625   */\n      swap1\n      pop\n        /* \"#utility.yul\":1505:1631   */\n      swap2\n      swap1\n      pop\n      jump\t// out\n        /* \"#utility.yul\":1637:1733   */\n    tag_269:\n        /* \"#utility.yul\":1674:1681   */\n      0x00\n        /* \"#utility.yul\":1703:1727   */\n      tag_361\n        /* \"#utility.yul\":1721:1726   */\n      dup3\n        /* \"#utility.yul\":1703:1727   */\n      tag_268\n      jump\t// in\n    tag_361:\n        /* \"#utility.yul\":1692:1727   */\n      swap1\n      pop\n        /* \"#utility.yul\":1637:1733   */\n      swap2\n      swap1\n      pop\n      jump\t// out\n        /* \"#utility.yul\":1739:1857   */\n    tag_270:\n        /* \"#utility.yul\":1826:1850   */\n      tag_363\n        /* \"#utility.yul\":1844:1849   */\n      dup2\n        /* \"#utility.yul\":1826:1850   */\n      tag_269\n      jump\t// in\n    tag_363:\n        /* \"#utility.yul\":1821:1824   */\n      dup3\n        /* \"#utility.yul\":1814:1851   */\n      mstore\n        /* \"#utility.yul\":1739:1857   */\n      pop\n      pop\n      jump\t// out\n        /* \"#utility.yul\":1863:2085   */\n    tag_40:\n        /* \"#utility.yul\":1956:1960   */\n      0x00\n        /* \"#utility.yul\":1994:1996   */\n      0x20\n        /* \"#utility.yul\":1983:1992   */\n      dup3\n        /* \"#utility.yul\":1979:1997   */\n      add\n        /* \"#utility.yul\":1971:1997   */\n      swap1\n      pop\n        /* \"#utility.yul\":2007:2078   */\n      tag_365\n        /* \"#utility.yul\":2075:2076   */\n      0x00\n        /* \"#utility.yul\":2064:2073   */\n      dup4\n        /* \"#utility.yul\":2060:2077   */\n      add\n        /* \"#utility.yul\":2051:2057   */\n      dup5\n        /* \"#utility.yul\":2007:2078   */\n      tag_270\n      jump\t// in\n    tag_365:\n        /* \"#utility.yul\":1863:2085   */\n      swap3\n      swap2\n      pop\n      pop\n      jump\t// out\n        /* \"#utility.yul\":2091:2230   */\n    tag_271:\n        /* \"#utility.yul\":2183:2189   */\n      0x00\n        /* \"#utility.yul\":2217:2222   */\n      dup2\n        /* \"#utility.yul\":2211:2223   */\n      mload\n        /* \"#utility.yul\":2201:2223   */\n      swap1\n      pop\n        /* \"#utility.yul\":2091:2230   */\n      swap2\n      swap1\n      pop\n      jump\t// out\n        /* \"#utility.yul\":2236:2445   */\n    tag_272:\n        /* \"#utility.yul\":2360:2371   */\n      0x00\n        /* \"#utility.yul\":2394:2400   */\n      dup3\n        /* \"#utility.yul\":2389:2392   */\n      dup3\n        /* \"#utility.yul\":2382:2401   */\n      mstore\n        /* \"#utility.yul\":2434:2438   */\n      0x20\n        /* \"#utility.yul\":2429:2432   */\n      dup3\n        /* \"#utility.yul\":2425:2439   */\n      add\n        /* \"#utility.yul\":2410:2439   */\n      swap1\n      pop\n        /* \"#utility.yul\":2236:2445   */\n      swap3\n      swap2\n      pop\n      pop\n      jump\t// out\n        /* \"#utility.yul\":2451:2608   */\n    tag_273:\n        /* \"#utility.yul\":2543:2547   */\n      0x00\n        /* \"#utility.yul\":2566:2569   */\n      dup2\n        /* \"#utility.yul\":2558:2569   */\n      swap1\n      pop\n        /* \"#utility.yul\":2596:2600   */\n      0x20\n        /* \"#utility.yul\":2591:2594   */\n      dup3\n        /* \"#utility.yul\":2587:2601   */\n      add\n        /* \"#utility.yul\":2579:2601   */\n      swap1\n      pop\n        /* \"#utility.yul\":2451:2608   */\n      swap2\n      swap1\n      pop\n      jump\t// out\n        /* \"#utility.yul\":2614:2722   */\n    tag_274:\n        /* \"#utility.yul\":2691:2715   */\n      tag_370\n        /* \"#utility.yul\":2709:2714   */\n      dup2\n        /* \"#utility.yul\":2691:2715   */\n      tag_265\n      jump\t// in\n    tag_370:\n        /* \"#utility.yul\":2686:2689   */\n      dup3\n        /* \"#utility.yul\":2679:2716   */\n      mstore\n        /* \"#utility.yul\":2614:2722   */\n      pop\n      pop\n      jump\t// out\n        /* \"#utility.yul\":2728:2836   */\n    tag_275:\n        /* \"#utility.yul\":2805:2829   */\n      tag_372\n        /* \"#utility.yul\":2823:2828   */\n      dup2\n        /* \"#utility.yul\":2805:2829   */\n      tag_269\n      jump\t// in\n    tag_372:\n        /* \"#utility.yul\":2800:2803   */\n      dup3\n        /* \"#utility.yul\":2793:2830   */\n      mstore\n        /* \"#utility.yul\":2728:2836   */\n      pop\n      pop\n      jump\t// out\n        /* \"#utility.yul\":2842:2935   */\n    tag_276:\n        /* \"#utility.yul\":2878:2885   */\n      0x00\n        /* \"#utility.yul\":2918:2928   */\n      0xffffffff\n        /* \"#utility.yul\":2911:2916   */\n      dup3\n        /* \"#utility.yul\":2907:2929   */\n      and\n        /* \"#utility.yul\":2896:2929   */\n      swap1\n      pop\n        /* \"#utility.yul\":2842:2935   */\n      swap2\n      swap1\n      pop\n      jump\t// out\n        /* \"#utility.yul\":2941:3046   */\n    tag_277:\n        /* \"#utility.yul\":3016:3039   */\n      tag_375\n        /* \"#utility.yul\":3033:3038   */\n      dup2\n        /* \"#utility.yul\":3016:3039   */\n      tag_276\n      jump\t// in\n    tag_375:\n        /* \"#utility.yul\":3011:3014   */\n      dup3\n        /* \"#utility.yul\":3004:3040   */\n      mstore\n        /* \"#utility.yul\":2941:3046   */\n      pop\n      pop\n      jump\t// out\n        /* \"#utility.yul\":3052:3166   */\n    tag_278:\n        /* \"#utility.yul\":3119:3125   */\n      0x00\n        /* \"#utility.yul\":3153:3158   */\n      dup2\n        /* \"#utility.yul\":3147:3159   */\n      mload\n        /* \"#utility.yul\":3137:3159   */\n      swap1\n      pop\n        /* \"#utility.yul\":3052:3166   */\n      swap2\n      swap1\n      pop\n      jump\t// out\n        /* \"#utility.yul\":3172:3346   */\n    tag_279:\n        /* \"#utility.yul\":3261:3272   */\n      0x00\n        /* \"#utility.yul\":3295:3301   */\n      dup3\n        /* \"#utility.yul\":3290:3293   */\n      dup3\n        /* \"#utility.yul\":3283:3302   */\n      mstore\n        /* \"#utility.yul\":3335:3339   */\n      0x20\n        /* \"#utility.yul\":3330:3333   */\n      dup3\n        /* \"#utility.yul\":3326:3340   */\n      add\n        /* \"#utility.yul\":3311:3340   */\n      swap1\n      pop\n        /* \"#utility.yul\":3172:3346   */\n      swap3\n      swap2\n      pop\n      pop\n      jump\t// out\n        /* \"#utility.yul\":3352:3484   */\n    tag_280:\n        /* \"#utility.yul\":3419:3423   */\n      0x00\n        /* \"#utility.yul\":3442:3445   */\n      dup2\n        /* \"#utility.yul\":3434:3445   */\n      swap1\n      pop\n        /* \"#utility.yul\":3472:3476   */\n      0x20\n        /* \"#utility.yul\":3467:3470   */\n      dup3\n        /* \"#utility.yul\":3463:3477   */\n      add\n        /* \"#utility.yul\":3455:3477   */\n      swap1\n      pop\n        /* \"#utility.yul\":3352:3484   */\n      swap2\n      swap1\n      pop\n      jump\t// out\n        /* \"#utility.yul\":3490:3669   */\n    tag_281:\n        /* \"#utility.yul\":3559:3569   */\n      0x00\n        /* \"#utility.yul\":3580:3626   */\n      tag_380\n        /* \"#utility.yul\":3622:3625   */\n      dup4\n        /* \"#utility.yul\":3614:3620   */\n      dup4\n        /* \"#utility.yul\":3580:3626   */\n      tag_275\n      jump\t// in\n    tag_380:\n        /* \"#utility.yul\":3658:3662   */\n      0x20\n        /* \"#utility.yul\":3653:3656   */\n      dup4\n        /* \"#utility.yul\":3649:3663   */\n      add\n        /* \"#utility.yul\":3635:3663   */\n      swap1\n      pop\n        /* \"#utility.yul\":3490:3669   */\n      swap3\n      swap2\n      pop\n      pop\n      jump\t// out\n        /* \"#utility.yul\":3675:3788   */\n    tag_282:\n        /* \"#utility.yul\":3745:3749   */\n      0x00\n        /* \"#utility.yul\":3777:3781   */\n      0x20\n        /* \"#utility.yul\":3772:3775   */\n      dup3\n        /* \"#utility.yul\":3768:3782   */\n      add\n        /* \"#utility.yul\":3760:3782   */\n      swap1\n      pop\n        /* \"#utility.yul\":3675:3788   */\n      swap2\n      swap1\n      pop\n      jump\t// out\n        /* \"#utility.yul\":3824:4536   */\n    tag_283:\n        /* \"#utility.yul\":3933:3936   */\n      0x00\n        /* \"#utility.yul\":3962:4016   */\n      tag_383\n        /* \"#utility.yul\":4010:4015   */\n      dup3\n        /* \"#utility.yul\":3962:4016   */\n      tag_278\n      jump\t// in\n    tag_383:\n        /* \"#utility.yul\":4032:4108   */\n      tag_384\n        /* \"#utility.yul\":4101:4107   */\n      dup2\n        /* \"#utility.yul\":4096:4099   */\n      dup6\n        /* \"#utility.yul\":4032:4108   */\n      tag_279\n      jump\t// in\n    tag_384:\n        /* \"#utility.yul\":4025:4108   */\n      swap4\n      pop\n        /* \"#utility.yul\":4132:4188   */\n      tag_385\n        /* \"#utility.yul\":4182:4187   */\n      dup4\n        /* \"#utility.yul\":4132:4188   */\n      tag_280\n      jump\t// in\n    tag_385:\n        /* \"#utility.yul\":4211:4218   */\n      dup1\n        /* \"#utility.yul\":4242:4243   */\n      0x00\n        /* \"#utility.yul\":4227:4511   */\n    tag_386:\n        /* \"#utility.yul\":4252:4258   */\n      dup4\n        /* \"#utility.yul\":4249:4250   */\n      dup2\n        /* \"#utility.yul\":4246:4259   */\n      lt\n        /* \"#utility.yul\":4227:4511   */\n      iszero\n      tag_388\n      jumpi\n        /* \"#utility.yul\":4328:4334   */\n      dup2\n        /* \"#utility.yul\":4322:4335   */\n      mload\n        /* \"#utility.yul\":4355:4418   */\n      tag_389\n        /* \"#utility.yul\":4414:4417   */\n      dup9\n        /* \"#utility.yul\":4399:4412   */\n      dup3\n        /* \"#utility.yul\":4355:4418   */\n      tag_281\n      jump\t// in\n    tag_389:\n        /* \"#utility.yul\":4348:4418   */\n      swap8\n      pop\n        /* \"#utility.yul\":4441:4501   */\n      tag_390\n        /* \"#utility.yul\":4494:4500   */\n      dup4\n        /* \"#utility.yul\":4441:4501   */\n      tag_282\n      jump\t// in\n    tag_390:\n        /* \"#utility.yul\":4431:4501   */\n      swap3\n      pop\n        /* \"#utility.yul\":4287:4511   */\n      pop\n        /* \"#utility.yul\":4274:4275   */\n      0x01\n        /* \"#utility.yul\":4271:4272   */\n      dup2\n        /* \"#utility.yul\":4267:4276   */\n      add\n        /* \"#utility.yul\":4262:4276   */\n      swap1\n      pop\n        /* \"#utility.yul\":4227:4511   */\n      jump(tag_386)\n    tag_388:\n        /* \"#utility.yul\":4231:4245   */\n      pop\n        /* \"#utility.yul\":4527:4530   */\n      dup6\n        /* \"#utility.yul\":4520:4530   */\n      swap4\n      pop\n        /* \"#utility.yul\":3938:4536   */\n      pop\n      pop\n      pop\n        /* \"#utility.yul\":3824:4536   */\n      swap3\n      swap2\n      pop\n      pop\n      jump\t// out\n        /* \"#utility.yul\":4542:4632   */\n    tag_284:\n        /* \"#utility.yul\":4576:4583   */\n      0x00\n        /* \"#utility.yul\":4619:4624   */\n      dup2\n        /* \"#utility.yul\":4612:4625   */\n      iszero\n        /* \"#utility.yul\":4605:4626   */\n      iszero\n        /* \"#utility.yul\":4594:4626   */\n      swap1\n      pop\n        /* \"#utility.yul\":4542:4632   */\n      swap2\n      swap1\n      pop\n      jump\t// out\n        /* \"#utility.yul\":4638:4737   */\n    tag_285:\n        /* \"#utility.yul\":4709:4730   */\n      tag_393\n        /* \"#utility.yul\":4724:4729   */\n      dup2\n        /* \"#utility.yul\":4709:4730   */\n      tag_284\n      jump\t// in\n    tag_393:\n        /* \"#utility.yul\":4704:4707   */\n      dup3\n        /* \"#utility.yul\":4697:4731   */\n      mstore\n        /* \"#utility.yul\":4638:4737   */\n      pop\n      pop\n      jump\t// out\n        /* \"#utility.yul\":4805:6654   */\n    tag_286:\n        /* \"#utility.yul\":4914:4917   */\n      0x00\n        /* \"#utility.yul\":4950:4956   */\n      0x0120\n        /* \"#utility.yul\":4945:4948   */\n      dup4\n        /* \"#utility.yul\":4941:4957   */\n      add\n        /* \"#utility.yul\":5037:5041   */\n      0x00\n        /* \"#utility.yul\":5030:5035   */\n      dup4\n        /* \"#utility.yul\":5026:5042   */\n      add\n        /* \"#utility.yul\":5020:5043   */\n      mload\n        /* \"#utility.yul\":5056:5119   */\n      tag_395\n        /* \"#utility.yul\":5113:5117   */\n      0x00\n        /* \"#utility.yul\":5108:5111   */\n      dup7\n        /* \"#utility.yul\":5104:5118   */\n      add\n        /* \"#utility.yul\":5090:5102   */\n      dup3\n        /* \"#utility.yul\":5056:5119   */\n      tag_274\n      jump\t// in\n    tag_395:\n        /* \"#utility.yul\":4967:5129   */\n      pop\n        /* \"#utility.yul\":5214:5218   */\n      0x20\n        /* \"#utility.yul\":5207:5212   */\n      dup4\n        /* \"#utility.yul\":5203:5219   */\n      add\n        /* \"#utility.yul\":5197:5220   */\n      mload\n        /* \"#utility.yul\":5233:5296   */\n      tag_396\n        /* \"#utility.yul\":5290:5294   */\n      0x20\n        /* \"#utility.yul\":5285:5288   */\n      dup7\n        /* \"#utility.yul\":5281:5295   */\n      add\n        /* \"#utility.yul\":5267:5279   */\n      dup3\n        /* \"#utility.yul\":5233:5296   */\n      tag_275\n      jump\t// in\n    tag_396:\n        /* \"#utility.yul\":5139:5306   */\n      pop\n        /* \"#utility.yul\":5388:5392   */\n      0x40\n        /* \"#utility.yul\":5381:5386   */\n      dup4\n        /* \"#utility.yul\":5377:5393   */\n      add\n        /* \"#utility.yul\":5371:5394   */\n      mload\n        /* \"#utility.yul\":5407:5470   */\n      tag_397\n        /* \"#utility.yul\":5464:5468   */\n      0x40\n        /* \"#utility.yul\":5459:5462   */\n      dup7\n        /* \"#utility.yul\":5455:5469   */\n      add\n        /* \"#utility.yul\":5441:5453   */\n      dup3\n        /* \"#utility.yul\":5407:5470   */\n      tag_274\n      jump\t// in\n    tag_397:\n        /* \"#utility.yul\":5316:5480   */\n      pop\n        /* \"#utility.yul\":5565:5569   */\n      0x60\n        /* \"#utility.yul\":5558:5563   */\n      dup4\n        /* \"#utility.yul\":5554:5570   */\n      add\n        /* \"#utility.yul\":5548:5571   */\n      mload\n        /* \"#utility.yul\":5584:5647   */\n      tag_398\n        /* \"#utility.yul\":5641:5645   */\n      0x60\n        /* \"#utility.yul\":5636:5639   */\n      dup7\n        /* \"#utility.yul\":5632:5646   */\n      add\n        /* \"#utility.yul\":5618:5630   */\n      dup3\n        /* \"#utility.yul\":5584:5647   */\n      tag_274\n      jump\t// in\n    tag_398:\n        /* \"#utility.yul\":5490:5657   */\n      pop\n        /* \"#utility.yul\":5740:5744   */\n      0x80\n        /* \"#utility.yul\":5733:5738   */\n      dup4\n        /* \"#utility.yul\":5729:5745   */\n      add\n        /* \"#utility.yul\":5723:5746   */\n      mload\n        /* \"#utility.yul\":5759:5820   */\n      tag_399\n        /* \"#utility.yul\":5814:5818   */\n      0x80\n        /* \"#utility.yul\":5809:5812   */\n      dup7\n        /* \"#utility.yul\":5805:5819   */\n      add\n        /* \"#utility.yul\":5791:5803   */\n      dup3\n        /* \"#utility.yul\":5759:5820   */\n      tag_277\n      jump\t// in\n    tag_399:\n        /* \"#utility.yul\":5667:5830   */\n      pop\n        /* \"#utility.yul\":5911:5915   */\n      0xa0\n        /* \"#utility.yul\":5904:5909   */\n      dup4\n        /* \"#utility.yul\":5900:5916   */\n      add\n        /* \"#utility.yul\":5894:5917   */\n      mload\n        /* \"#utility.yul\":5930:5991   */\n      tag_400\n        /* \"#utility.yul\":5985:5989   */\n      0xa0\n        /* \"#utility.yul\":5980:5983   */\n      dup7\n        /* \"#utility.yul\":5976:5990   */\n      add\n        /* \"#utility.yul\":5962:5974   */\n      dup3\n        /* \"#utility.yul\":5930:5991   */\n      tag_277\n      jump\t// in\n    tag_400:\n        /* \"#utility.yul\":5840:6001   */\n      pop\n        /* \"#utility.yul\":6085:6089   */\n      0xc0\n        /* \"#utility.yul\":6078:6083   */\n      dup4\n        /* \"#utility.yul\":6074:6090   */\n      add\n        /* \"#utility.yul\":6068:6091   */\n      mload\n        /* \"#utility.yul\":6138:6141   */\n      dup5\n        /* \"#utility.yul\":6132:6136   */\n      dup3\n        /* \"#utility.yul\":6128:6142   */\n      sub\n        /* \"#utility.yul\":6121:6125   */\n      0xc0\n        /* \"#utility.yul\":6116:6119   */\n      dup7\n        /* \"#utility.yul\":6112:6126   */\n      add\n        /* \"#utility.yul\":6105:6143   */\n      mstore\n        /* \"#utility.yul\":6164:6267   */\n      tag_401\n        /* \"#utility.yul\":6262:6266   */\n      dup3\n        /* \"#utility.yul\":6248:6260   */\n      dup3\n        /* \"#utility.yul\":6164:6267   */\n      tag_283\n      jump\t// in\n    tag_401:\n        /* \"#utility.yul\":6156:6267   */\n      swap2\n      pop\n        /* \"#utility.yul\":6011:6278   */\n      pop\n        /* \"#utility.yul\":6363:6367   */\n      0xe0\n        /* \"#utility.yul\":6356:6361   */\n      dup4\n        /* \"#utility.yul\":6352:6368   */\n      add\n        /* \"#utility.yul\":6346:6369   */\n      mload\n        /* \"#utility.yul\":6382:6439   */\n      tag_402\n        /* \"#utility.yul\":6433:6437   */\n      0xe0\n        /* \"#utility.yul\":6428:6431   */\n      dup7\n        /* \"#utility.yul\":6424:6438   */\n      add\n        /* \"#utility.yul\":6410:6422   */\n      dup3\n        /* \"#utility.yul\":6382:6439   */\n      tag_285\n      jump\t// in\n    tag_402:\n        /* \"#utility.yul\":6288:6449   */\n      pop\n        /* \"#utility.yul\":6537:6543   */\n      0x0100\n        /* \"#utility.yul\":6530:6535   */\n      dup4\n        /* \"#utility.yul\":6526:6544   */\n      add\n        /* \"#utility.yul\":6520:6545   */\n      mload\n        /* \"#utility.yul\":6558:6617   */\n      tag_403\n        /* \"#utility.yul\":6609:6615   */\n      0x0100\n        /* \"#utility.yul\":6604:6607   */\n      dup7\n        /* \"#utility.yul\":6600:6616   */\n      add\n        /* \"#utility.yul\":6586:6598   */\n      dup3\n        /* \"#utility.yul\":6558:6617   */\n      tag_285\n      jump\t// in\n    tag_403:\n        /* \"#utility.yul\":6459:6627   */\n      pop\n        /* \"#utility.yul\":6644:6648   */\n      dup1\n        /* \"#utility.yul\":6637:6648   */\n      swap2\n      pop\n        /* \"#utility.yul\":4919:6654   */\n      pop\n        /* \"#utility.yul\":4805:6654   */\n      swap3\n      swap2\n      pop\n      pop\n      jump\t// out\n        /* \"#utility.yul\":6660:6916   */\n    tag_287:\n        /* \"#utility.yul\":6779:6789   */\n      0x00\n        /* \"#utility.yul\":6814:6910   */\n      tag_405\n        /* \"#utility.yul\":6906:6909   */\n      dup4\n        /* \"#utility.yul\":6898:6904   */\n      dup4\n        /* \"#utility.yul\":6814:6910   */\n      tag_286\n      jump\t// in\n    tag_405:\n        /* \"#utility.yul\":6800:6910   */\n      swap1\n      pop\n        /* \"#utility.yul\":6660:6916   */\n      swap3\n      swap2\n      pop\n      pop\n      jump\t// out\n        /* \"#utility.yul\":6922:7060   */\n    tag_288:\n        /* \"#utility.yul\":7017:7021   */\n      0x00\n        /* \"#utility.yul\":7049:7053   */\n      0x20\n        /* \"#utility.yul\":7044:7047   */\n      dup3\n        /* \"#utility.yul\":7040:7054   */\n      add\n        /* \"#utility.yul\":7032:7054   */\n      swap1\n      pop\n        /* \"#utility.yul\":6922:7060   */\n      swap2\n      swap1\n      pop\n      jump\t// out\n        /* \"#utility.yul\":7132:8243   */\n    tag_289:\n        /* \"#utility.yul\":7301:7304   */\n      0x00\n        /* \"#utility.yul\":7330:7409   */\n      tag_408\n        /* \"#utility.yul\":7403:7408   */\n      dup3\n        /* \"#utility.yul\":7330:7409   */\n      tag_271\n      jump\t// in\n    tag_408:\n        /* \"#utility.yul\":7425:7536   */\n      tag_409\n        /* \"#utility.yul\":7529:7535   */\n      dup2\n        /* \"#utility.yul\":7524:7527   */\n      dup6\n        /* \"#utility.yul\":7425:7536   */\n      tag_272\n      jump\t// in\n    tag_409:\n        /* \"#utility.yul\":7418:7536   */\n      swap4\n      pop\n        /* \"#utility.yul\":7562:7565   */\n      dup4\n        /* \"#utility.yul\":7607:7611   */\n      0x20\n        /* \"#utility.yul\":7599:7605   */\n      dup3\n        /* \"#utility.yul\":7595:7612   */\n      mul\n        /* \"#utility.yul\":7590:7593   */\n      dup6\n        /* \"#utility.yul\":7586:7613   */\n      add\n        /* \"#utility.yul\":7637:7718   */\n      tag_410\n        /* \"#utility.yul\":7712:7717   */\n      dup6\n        /* \"#utility.yul\":7637:7718   */\n      tag_273\n      jump\t// in\n    tag_410:\n        /* \"#utility.yul\":7741:7748   */\n      dup1\n        /* \"#utility.yul\":7772:7773   */\n      0x00\n        /* \"#utility.yul\":7757:8198   */\n    tag_411:\n        /* \"#utility.yul\":7782:7788   */\n      dup6\n        /* \"#utility.yul\":7779:7780   */\n      dup2\n        /* \"#utility.yul\":7776:7789   */\n      lt\n        /* \"#utility.yul\":7757:8198   */\n      iszero\n      tag_413\n      jumpi\n        /* \"#utility.yul\":7853:7862   */\n      dup5\n        /* \"#utility.yul\":7847:7851   */\n      dup5\n        /* \"#utility.yul\":7843:7863   */\n      sub\n        /* \"#utility.yul\":7838:7841   */\n      dup10\n        /* \"#utility.yul\":7831:7864   */\n      mstore\n        /* \"#utility.yul\":7904:7910   */\n      dup2\n        /* \"#utility.yul\":7898:7911   */\n      mload\n        /* \"#utility.yul\":7932:8046   */\n      tag_414\n        /* \"#utility.yul\":8041:8045   */\n      dup6\n        /* \"#utility.yul\":8026:8039   */\n      dup3\n        /* \"#utility.yul\":7932:8046   */\n      tag_287\n      jump\t// in\n    tag_414:\n        /* \"#utility.yul\":7924:8046   */\n      swap5\n      pop\n        /* \"#utility.yul\":8069:8154   */\n      tag_415\n        /* \"#utility.yul\":8147:8153   */\n      dup4\n        /* \"#utility.yul\":8069:8154   */\n      tag_288\n      jump\t// in\n    tag_415:\n        /* \"#utility.yul\":8059:8154   */\n      swap3\n      pop\n        /* \"#utility.yul\":8183:8187   */\n      0x20\n        /* \"#utility.yul\":8178:8181   */\n      dup11\n        /* \"#utility.yul\":8174:8188   */\n      add\n        /* \"#utility.yul\":8167:8188   */\n      swap10\n      pop\n        /* \"#utility.yul\":7817:8198   */\n      pop\n        /* \"#utility.yul\":7804:7805   */\n      0x01\n        /* \"#utility.yul\":7801:7802   */\n      dup2\n        /* \"#utility.yul\":7797:7806   */\n      add\n        /* \"#utility.yul\":7792:7806   */\n      swap1\n      pop\n        /* \"#utility.yul\":7757:8198   */\n      jump(tag_411)\n    tag_413:\n        /* \"#utility.yul\":7761:7775   */\n      pop\n        /* \"#utility.yul\":8214:8218   */\n      dup3\n        /* \"#utility.yul\":8207:8218   */\n      swap8\n      pop\n        /* \"#utility.yul\":8234:8237   */\n      dup8\n        /* \"#utility.yul\":8227:8237   */\n      swap6\n      pop\n        /* \"#utility.yul\":7306:8243   */\n      pop\n      pop\n      pop\n      pop\n      pop\n        /* \"#utility.yul\":7132:8243   */\n      swap3\n      swap2\n      pop\n      pop\n      jump\t// out\n        /* \"#utility.yul\":8249:8722   */\n    tag_44:\n        /* \"#utility.yul\":8442:8446   */\n      0x00\n        /* \"#utility.yul\":8480:8482   */\n      0x20\n        /* \"#utility.yul\":8469:8478   */\n      dup3\n        /* \"#utility.yul\":8465:8483   */\n      add\n        /* \"#utility.yul\":8457:8483   */\n      swap1\n      pop\n        /* \"#utility.yul\":8529:8538   */\n      dup2\n        /* \"#utility.yul\":8523:8527   */\n      dup2\n        /* \"#utility.yul\":8519:8539   */\n      sub\n        /* \"#utility.yul\":8515:8516   */\n      0x00\n        /* \"#utility.yul\":8504:8513   */\n      dup4\n        /* \"#utility.yul\":8500:8517   */\n      add\n        /* \"#utility.yul\":8493:8540   */\n      mstore\n        /* \"#utility.yul\":8557:8715   */\n      tag_417\n        /* \"#utility.yul\":8710:8714   */\n      dup2\n        /* \"#utility.yul\":8701:8707   */\n      dup5\n        /* \"#utility.yul\":8557:8715   */\n      tag_289\n      jump\t// in\n    tag_417:\n        /* \"#utility.yul\":8549:8715   */\n      swap1\n      pop\n        /* \"#utility.yul\":8249:8722   */\n      swap3\n      swap2\n      pop\n      pop\n      jump\t// out\n        /* \"#utility.yul\":8728:8848   */\n    tag_290:\n        /* \"#utility.yul\":8800:8823   */\n      tag_419\n        /* \"#utility.yul\":8817:8822   */\n      dup2\n        /* \"#utility.yul\":8800:8823   */\n      tag_276\n      jump\t// in\n    tag_419:\n        /* \"#utility.yul\":8793:8798   */\n      dup2\n        /* \"#utility.yul\":8790:8824   */\n      eq\n        /* \"#utility.yul\":8780:8842   */\n      tag_420\n      jumpi\n        /* \"#utility.yul\":8838:8839   */\n      0x00\n        /* \"#utility.yul\":8835:8836   */\n      dup1\n        /* \"#utility.yul\":8828:8840   */\n      revert\n        /* \"#utility.yul\":8780:8842   */\n    tag_420:\n        /* \"#utility.yul\":8728:8848   */\n      pop\n      jump\t// out\n        /* \"#utility.yul\":8854:8991   */\n    tag_291:\n        /* \"#utility.yul\":8899:8904   */\n      0x00\n        /* \"#utility.yul\":8937:8943   */\n      dup2\n        /* \"#utility.yul\":8924:8944   */\n      calldataload\n        /* \"#utility.yul\":8915:8944   */\n      swap1\n      pop\n        /* \"#utility.yul\":8953:8985   */\n      tag_422\n        /* \"#utility.yul\":8979:8984   */\n      dup2\n        /* \"#utility.yul\":8953:8985   */\n      tag_290\n      jump\t// in\n    tag_422:\n        /* \"#utility.yul\":8854:8991   */\n      swap3\n      swap2\n      pop\n      pop\n      jump\t// out\n        /* \"#utility.yul\":8997:9612   */\n    tag_50:\n        /* \"#utility.yul\":9072:9078   */\n      0x00\n        /* \"#utility.yul\":9080:9086   */\n      dup1\n        /* \"#utility.yul\":9088:9094   */\n      0x00\n        /* \"#utility.yul\":9137:9139   */\n      0x60\n        /* \"#utility.yul\":9125:9134   */\n      dup5\n        /* \"#utility.yul\":9116:9123   */\n      dup7\n        /* \"#utility.yul\":9112:9135   */\n      sub\n        /* \"#utility.yul\":9108:9140   */\n      slt\n        /* \"#utility.yul\":9105:9224   */\n      iszero\n      tag_424\n      jumpi\n        /* \"#utility.yul\":9143:9222   */\n      tag_425\n      tag_263\n      jump\t// in\n    tag_425:\n        /* \"#utility.yul\":9105:9224   */\n    tag_424:\n        /* \"#utility.yul\":9263:9264   */\n      0x00\n        /* \"#utility.yul\":9288:9341   */\n      tag_426\n        /* \"#utility.yul\":9333:9340   */\n      dup7\n        /* \"#utility.yul\":9324:9330   */\n      dup3\n        /* \"#utility.yul\":9313:9322   */\n      dup8\n        /* \"#utility.yul\":9309:9331   */\n      add\n        /* \"#utility.yul\":9288:9341   */\n      tag_267\n      jump\t// in\n    tag_426:\n        /* \"#utility.yul\":9278:9341   */\n      swap4\n      pop\n        /* \"#utility.yul\":9234:9351   */\n      pop\n        /* \"#utility.yul\":9390:9392   */\n      0x20\n        /* \"#utility.yul\":9416:9468   */\n      tag_427\n        /* \"#utility.yul\":9460:9467   */\n      dup7\n        /* \"#utility.yul\":9451:9457   */\n      dup3\n        /* \"#utility.yul\":9440:9449   */\n      dup8\n        /* \"#utility.yul\":9436:9458   */\n      add\n        /* \"#utility.yul\":9416:9468   */\n      tag_291\n      jump\t// in\n    tag_427:\n        /* \"#utility.yul\":9406:9468   */\n      swap3\n      pop\n        /* \"#utility.yul\":9361:9478   */\n      pop\n        /* \"#utility.yul\":9517:9519   */\n      0x40\n        /* \"#utility.yul\":9543:9595   */\n      tag_428\n        /* \"#utility.yul\":9587:9594   */\n      dup7\n        /* \"#utility.yul\":9578:9584   */\n      dup3\n        /* \"#utility.yul\":9567:9576   */\n      dup8\n        /* \"#utility.yul\":9563:9585   */\n      add\n        /* \"#utility.yul\":9543:9595   */\n      tag_291\n      jump\t// in\n    tag_428:\n        /* \"#utility.yul\":9533:9595   */\n      swap2\n      pop\n        /* \"#utility.yul\":9488:9605   */\n      pop\n        /* \"#utility.yul\":8997:9612   */\n      swap3\n      pop\n      swap3\n      pop\n      swap3\n      jump\t// out\n        /* \"#utility.yul\":9618:9740   */\n    tag_292:\n        /* \"#utility.yul\":9691:9715   */\n      tag_430\n        /* \"#utility.yul\":9709:9714   */\n      dup2\n        /* \"#utility.yul\":9691:9715   */\n      tag_269\n      jump\t// in\n    tag_430:\n        /* \"#utility.yul\":9684:9689   */\n      dup2\n        /* \"#utility.yul\":9681:9716   */\n      eq\n        /* \"#utility.yul\":9671:9734   */\n      tag_431\n      jumpi\n        /* \"#utility.yul\":9730:9731   */\n      0x00\n        /* \"#utility.yul\":9727:9728   */\n      dup1\n        /* \"#utility.yul\":9720:9732   */\n      revert\n        /* \"#utility.yul\":9671:9734   */\n    tag_431:\n        /* \"#utility.yul\":9618:9740   */\n      pop\n      jump\t// out\n        /* \"#utility.yul\":9746:9885   */\n    tag_293:\n        /* \"#utility.yul\":9792:9797   */\n      0x00\n        /* \"#utility.yul\":9830:9836   */\n      dup2\n        /* \"#utility.yul\":9817:9837   */\n      calldataload\n        /* \"#utility.yul\":9808:9837   */\n      swap1\n      pop\n        /* \"#utility.yul\":9846:9879   */\n      tag_433\n        /* \"#utility.yul\":9873:9878   */\n      dup2\n        /* \"#utility.yul\":9846:9879   */\n      tag_292\n      jump\t// in\n    tag_433:\n        /* \"#utility.yul\":9746:9885   */\n      swap3\n      swap2\n      pop\n      pop\n      jump\t// out\n        /* \"#utility.yul\":9891:10220   */\n    tag_54:\n        /* \"#utility.yul\":9950:9956   */\n      0x00\n        /* \"#utility.yul\":9999:10001   */\n      0x20\n        /* \"#utility.yul\":9987:9996   */\n      dup3\n        /* \"#utility.yul\":9978:9985   */\n      dup5\n        /* \"#utility.yul\":9974:9997   */\n      sub\n        /* \"#utility.yul\":9970:10002   */\n      slt\n        /* \"#utility.yul\":9967:10086   */\n      iszero\n      tag_435\n      jumpi\n        /* \"#utility.yul\":10005:10084   */\n      tag_436\n      tag_263\n      jump\t// in\n    tag_436:\n        /* \"#utility.yul\":9967:10086   */\n    tag_435:\n        /* \"#utility.yul\":10125:10126   */\n      0x00\n        /* \"#utility.yul\":10150:10203   */\n      tag_437\n        /* \"#utility.yul\":10195:10202   */\n      dup5\n        /* \"#utility.yul\":10186:10192   */\n      dup3\n        /* \"#utility.yul\":10175:10184   */\n      dup6\n        /* \"#utility.yul\":10171:10193   */\n      add\n        /* \"#utility.yul\":10150:10203   */\n      tag_293\n      jump\t// in\n    tag_437:\n        /* \"#utility.yul\":10140:10203   */\n      swap2\n      pop\n        /* \"#utility.yul\":10096:10213   */\n      pop\n        /* \"#utility.yul\":9891:10220   */\n      swap3\n      swap2\n      pop\n      pop\n      jump\t// out\n        /* \"#utility.yul\":10226:10286   */\n    tag_294:\n        /* \"#utility.yul\":10254:10257   */\n      0x00\n        /* \"#utility.yul\":10275:10280   */\n      dup2\n        /* \"#utility.yul\":10268:10280   */\n      swap1\n      pop\n        /* \"#utility.yul\":10226:10286   */\n      swap2\n      swap1\n      pop\n      jump\t// out\n        /* \"#utility.yul\":10292:10434   */\n    tag_295:\n        /* \"#utility.yul\":10342:10351   */\n      0x00\n        /* \"#utility.yul\":10375:10428   */\n      tag_440\n        /* \"#utility.yul\":10393:10427   */\n      tag_441\n        /* \"#utility.yul\":10402:10426   */\n      tag_442\n        /* \"#utility.yul\":10420:10425   */\n      dup5\n        /* \"#utility.yul\":10402:10426   */\n      tag_268\n      jump\t// in\n    tag_442:\n        /* \"#utility.yul\":10393:10427   */\n      tag_294\n      jump\t// in\n    tag_441:\n        /* \"#utility.yul\":10375:10428   */\n      tag_268\n      jump\t// in\n    tag_440:\n        /* \"#utility.yul\":10362:10428   */\n      swap1\n      pop\n        /* \"#utility.yul\":10292:10434   */\n      swap2\n      swap1\n      pop\n      jump\t// out\n        /* \"#utility.yul\":10440:10566   */\n    tag_296:\n        /* \"#utility.yul\":10490:10499   */\n      0x00\n        /* \"#utility.yul\":10523:10560   */\n      tag_444\n        /* \"#utility.yul\":10554:10559   */\n      dup3\n        /* \"#utility.yul\":10523:10560   */\n      tag_295\n      jump\t// in\n    tag_444:\n        /* \"#utility.yul\":10510:10560   */\n      swap1\n      pop\n        /* \"#utility.yul\":10440:10566   */\n      swap2\n      swap1\n      pop\n      jump\t// out\n        /* \"#utility.yul\":10572:10712   */\n    tag_297:\n        /* \"#utility.yul\":10636:10645   */\n      0x00\n        /* \"#utility.yul\":10669:10706   */\n      tag_446\n        /* \"#utility.yul\":10700:10705   */\n      dup3\n        /* \"#utility.yul\":10669:10706   */\n      tag_296\n      jump\t// in\n    tag_446:\n        /* \"#utility.yul\":10656:10706   */\n      swap1\n      pop\n        /* \"#utility.yul\":10572:10712   */\n      swap2\n      swap1\n      pop\n      jump\t// out\n        /* \"#utility.yul\":10718:10877   */\n    tag_298:\n        /* \"#utility.yul\":10819:10870   */\n      tag_448\n        /* \"#utility.yul\":10864:10869   */\n      dup2\n        /* \"#utility.yul\":10819:10870   */\n      tag_297\n      jump\t// in\n    tag_448:\n        /* \"#utility.yul\":10814:10817   */\n      dup3\n        /* \"#utility.yul\":10807:10871   */\n      mstore\n        /* \"#utility.yul\":10718:10877   */\n      pop\n      pop\n      jump\t// out\n        /* \"#utility.yul\":10883:11133   */\n    tag_59:\n        /* \"#utility.yul\":10990:10994   */\n      0x00\n        /* \"#utility.yul\":11028:11030   */\n      0x20\n        /* \"#utility.yul\":11017:11026   */\n      dup3\n        /* \"#utility.yul\":11013:11031   */\n      add\n        /* \"#utility.yul\":11005:11031   */\n      swap1\n      pop\n        /* \"#utility.yul\":11041:11126   */\n      tag_450\n        /* \"#utility.yul\":11123:11124   */\n      0x00\n        /* \"#utility.yul\":11112:11121   */\n      dup4\n        /* \"#utility.yul\":11108:11125   */\n      add\n        /* \"#utility.yul\":11099:11105   */\n      dup5\n        /* \"#utility.yul\":11041:11126   */\n      tag_298\n      jump\t// in\n    tag_450:\n        /* \"#utility.yul\":10883:11133   */\n      swap3\n      swap2\n      pop\n      pop\n      jump\t// out\n        /* \"#utility.yul\":11139:11319   */\n    tag_66:\n        /* \"#utility.yul\":11187:11264   */\n      0x4e487b7100000000000000000000000000000000000000000000000000000000\n        /* \"#utility.yul\":11184:11185   */\n      0x00\n        /* \"#utility.yul\":11177:11265   */\n      mstore\n        /* \"#utility.yul\":11284:11288   */\n      0x32\n        /* \"#utility.yul\":11281:11282   */\n      0x04\n        /* \"#utility.yul\":11274:11289   */\n      mstore\n        /* \"#utility.yul\":11308:11312   */\n      0x24\n        /* \"#utility.yul\":11305:11306   */\n      0x00\n        /* \"#utility.yul\":11298:11313   */\n      revert\n        /* \"#utility.yul\":11325:11494   */\n    tag_299:\n        /* \"#utility.yul\":11409:11420   */\n      0x00\n        /* \"#utility.yul\":11443:11449   */\n      dup3\n        /* \"#utility.yul\":11438:11441   */\n      dup3\n        /* \"#utility.yul\":11431:11450   */\n      mstore\n        /* \"#utility.yul\":11483:11487   */\n      0x20\n        /* \"#utility.yul\":11478:11481   */\n      dup3\n        /* \"#utility.yul\":11474:11488   */\n      add\n        /* \"#utility.yul\":11459:11488   */\n      swap1\n      pop\n        /* \"#utility.yul\":11325:11494   */\n      swap3\n      swap2\n      pop\n      pop\n      jump\t// out\n        /* \"#utility.yul\":11500:11727   */\n    tag_300:\n        /* \"#utility.yul\":11640:11674   */\n      0x596f7520617265206e6f74207468652063726561746f72206f66207468697320\n        /* \"#utility.yul\":11636:11637   */\n      0x00\n        /* \"#utility.yul\":11628:11634   */\n      dup3\n        /* \"#utility.yul\":11624:11638   */\n      add\n        /* \"#utility.yul\":11617:11675   */\n      mstore\n        /* \"#utility.yul\":11709:11719   */\n      0x63616d706169676e000000000000000000000000000000000000000000000000\n        /* \"#utility.yul\":11704:11706   */\n      0x20\n        /* \"#utility.yul\":11696:11702   */\n      dup3\n        /* \"#utility.yul\":11692:11707   */\n      add\n        /* \"#utility.yul\":11685:11720   */\n      mstore\n        /* \"#utility.yul\":11500:11727   */\n      pop\n      jump\t// out\n        /* \"#utility.yul\":11733:12099   */\n    tag_301:\n        /* \"#utility.yul\":11875:11878   */\n      0x00\n        /* \"#utility.yul\":11896:11963   */\n      tag_455\n        /* \"#utility.yul\":11960:11962   */\n      0x28\n        /* \"#utility.yul\":11955:11958   */\n      dup4\n        /* \"#utility.yul\":11896:11963   */\n      tag_299\n      jump\t// in\n    tag_455:\n        /* \"#utility.yul\":11889:11963   */\n      swap2\n      pop\n        /* \"#utility.yul\":11972:12065   */\n      tag_456\n        /* \"#utility.yul\":12061:12064   */\n      dup3\n        /* \"#utility.yul\":11972:12065   */\n      tag_300\n      jump\t// in\n    tag_456:\n        /* \"#utility.yul\":12090:12092   */\n      0x40\n        /* \"#utility.yul\":12085:12088   */\n      dup3\n        /* \"#utility.yul\":12081:12093   */\n      add\n        /* \"#utility.yul\":12074:12093   */\n      swap1\n      pop\n        /* \"#utility.yul\":11733:12099   */\n      swap2\n      swap1\n      pop\n      jump\t// out\n        /* \"#utility.yul\":12105:12524   */\n    tag_70:\n        /* \"#utility.yul\":12271:12275   */\n      0x00\n        /* \"#utility.yul\":12309:12311   */\n      0x20\n        /* \"#utility.yul\":12298:12307   */\n      dup3\n        /* \"#utility.yul\":12294:12312   */\n      add\n        /* \"#utility.yul\":12286:12312   */\n      swap1\n      pop\n        /* \"#utility.yul\":12358:12367   */\n      dup2\n        /* \"#utility.yul\":12352:12356   */\n      dup2\n        /* \"#utility.yul\":12348:12368   */\n      sub\n        /* \"#utility.yul\":12344:12345   */\n      0x00\n        /* \"#utility.yul\":12333:12342   */\n      dup4\n        /* \"#utility.yul\":12329:12346   */\n      add\n        /* \"#utility.yul\":12322:12369   */\n      mstore\n        /* \"#utility.yul\":12386:12517   */\n      tag_458\n        /* \"#utility.yul\":12512:12516   */\n      dup2\n        /* \"#utility.yul\":12386:12517   */\n      tag_301\n      jump\t// in\n    tag_458:\n        /* \"#utility.yul\":12378:12517   */\n      swap1\n      pop\n        /* \"#utility.yul\":12105:12524   */\n      swap2\n      swap1\n      pop\n      jump\t// out\n        /* \"#utility.yul\":12530:12760   */\n    tag_302:\n        /* \"#utility.yul\":12670:12704   */\n      0x546869732063616d706169676e2773206f7065726174696f6e73206861732062\n        /* \"#utility.yul\":12666:12667   */\n      0x00\n        /* \"#utility.yul\":12658:12664   */\n      dup3\n        /* \"#utility.yul\":12654:12668   */\n      add\n        /* \"#utility.yul\":12647:12705   */\n      mstore\n        /* \"#utility.yul\":12739:12752   */\n      0x65656e2073746f70706564000000000000000000000000000000000000000000\n        /* \"#utility.yul\":12734:12736   */\n      0x20\n        /* \"#utility.yul\":12726:12732   */\n      dup3\n        /* \"#utility.yul\":12722:12737   */\n      add\n        /* \"#utility.yul\":12715:12753   */\n      mstore\n        /* \"#utility.yul\":12530:12760   */\n      pop\n      jump\t// out\n        /* \"#utility.yul\":12766:13132   */\n    tag_303:\n        /* \"#utility.yul\":12908:12911   */\n      0x00\n        /* \"#utility.yul\":12929:12996   */\n      tag_461\n        /* \"#utility.yul\":12993:12995   */\n      0x2b\n        /* \"#utility.yul\":12988:12991   */\n      dup4\n        /* \"#utility.yul\":12929:12996   */\n      tag_299\n      jump\t// in\n    tag_461:\n        /* \"#utility.yul\":12922:12996   */\n      swap2\n      pop\n        /* \"#utility.yul\":13005:13098   */\n      tag_462\n        /* \"#utility.yul\":13094:13097   */\n      dup3\n        /* \"#utility.yul\":13005:13098   */\n      tag_302\n      jump\t// in\n    tag_462:\n        /* \"#utility.yul\":13123:13125   */\n      0x40\n        /* \"#utility.yul\":13118:13121   */\n      dup3\n        /* \"#utility.yul\":13114:13126   */\n      add\n        /* \"#utility.yul\":13107:13126   */\n      swap1\n      pop\n        /* \"#utility.yul\":12766:13132   */\n      swap2\n      swap1\n      pop\n      jump\t// out\n        /* \"#utility.yul\":13138:13557   */\n    tag_73:\n        /* \"#utility.yul\":13304:13308   */\n      0x00\n        /* \"#utility.yul\":13342:13344   */\n      0x20\n        /* \"#utility.yul\":13331:13340   */\n      dup3\n        /* \"#utility.yul\":13327:13345   */\n      add\n        /* \"#utility.yul\":13319:13345   */\n      swap1\n      pop\n        /* \"#utility.yul\":13391:13400   */\n      dup2\n        /* \"#utility.yul\":13385:13389   */\n      dup2\n        /* \"#utility.yul\":13381:13401   */\n      sub\n        /* \"#utility.yul\":13377:13378   */\n      0x00\n        /* \"#utility.yul\":13366:13375   */\n      dup4\n        /* \"#utility.yul\":13362:13379   */\n      add\n        /* \"#utility.yul\":13355:13402   */\n      mstore\n        /* \"#utility.yul\":13419:13550   */\n      tag_464\n        /* \"#utility.yul\":13545:13549   */\n      dup2\n        /* \"#utility.yul\":13419:13550   */\n      tag_303\n      jump\t// in\n    tag_464:\n        /* \"#utility.yul\":13411:13550   */\n      swap1\n      pop\n        /* \"#utility.yul\":13138:13557   */\n      swap2\n      swap1\n      pop\n      jump\t// out\n        /* \"#utility.yul\":13563:13798   */\n    tag_304:\n        /* \"#utility.yul\":13703:13737   */\n      0x546f6b656e73206f6620746869732063616d706169676e20686173206265656e\n        /* \"#utility.yul\":13699:13700   */\n      0x00\n        /* \"#utility.yul\":13691:13697   */\n      dup3\n        /* \"#utility.yul\":13687:13701   */\n      add\n        /* \"#utility.yul\":13680:13738   */\n      mstore\n        /* \"#utility.yul\":13772:13790   */\n      0x20616c726561647920636c61696d656400000000000000000000000000000000\n        /* \"#utility.yul\":13767:13769   */\n      0x20\n        /* \"#utility.yul\":13759:13765   */\n      dup3\n        /* \"#utility.yul\":13755:13770   */\n      add\n        /* \"#utility.yul\":13748:13791   */\n      mstore\n        /* \"#utility.yul\":13563:13798   */\n      pop\n      jump\t// out\n        /* \"#utility.yul\":13804:14170   */\n    tag_305:\n        /* \"#utility.yul\":13946:13949   */\n      0x00\n        /* \"#utility.yul\":13967:14034   */\n      tag_467\n        /* \"#utility.yul\":14031:14033   */\n      0x30\n        /* \"#utility.yul\":14026:14029   */\n      dup4\n        /* \"#utility.yul\":13967:14034   */\n      tag_299\n      jump\t// in\n    tag_467:\n        /* \"#utility.yul\":13960:14034   */\n      swap2\n      pop\n        /* \"#utility.yul\":14043:14136   */\n      tag_468\n        /* \"#utility.yul\":14132:14135   */\n      dup3\n        /* \"#utility.yul\":14043:14136   */\n      tag_304\n      jump\t// in\n    tag_468:\n        /* \"#utility.yul\":14161:14163   */\n      0x40\n        /* \"#utility.yul\":14156:14159   */\n      dup3\n        /* \"#utility.yul\":14152:14164   */\n      add\n        /* \"#utility.yul\":14145:14164   */\n      swap1\n      pop\n        /* \"#utility.yul\":13804:14170   */\n      swap2\n      swap1\n      pop\n      jump\t// out\n        /* \"#utility.yul\":14176:14595   */\n    tag_76:\n        /* \"#utility.yul\":14342:14346   */\n      0x00\n        /* \"#utility.yul\":14380:14382   */\n      0x20\n        /* \"#utility.yul\":14369:14378   */\n      dup3\n        /* \"#utility.yul\":14365:14383   */\n      add\n        /* \"#utility.yul\":14357:14383   */\n      swap1\n      pop\n        /* \"#utility.yul\":14429:14438   */\n      dup2\n        /* \"#utility.yul\":14423:14427   */\n      dup2\n        /* \"#utility.yul\":14419:14439   */\n      sub\n        /* \"#utility.yul\":14415:14416   */\n      0x00\n        /* \"#utility.yul\":14404:14413   */\n      dup4\n        /* \"#utility.yul\":14400:14417   */\n      add\n        /* \"#utility.yul\":14393:14440   */\n      mstore\n        /* \"#utility.yul\":14457:14588   */\n      tag_470\n        /* \"#utility.yul\":14583:14587   */\n      dup2\n        /* \"#utility.yul\":14457:14588   */\n      tag_305\n      jump\t// in\n    tag_470:\n        /* \"#utility.yul\":14449:14588   */\n      swap1\n      pop\n        /* \"#utility.yul\":14176:14595   */\n      swap2\n      swap1\n      pop\n      jump\t// out\n        /* \"#utility.yul\":14601:14719   */\n    tag_306:\n        /* \"#utility.yul\":14688:14712   */\n      tag_472\n        /* \"#utility.yul\":14706:14711   */\n      dup2\n        /* \"#utility.yul\":14688:14712   */\n      tag_265\n      jump\t// in\n    tag_472:\n        /* \"#utility.yul\":14683:14686   */\n      dup3\n        /* \"#utility.yul\":14676:14713   */\n      mstore\n        /* \"#utility.yul\":14601:14719   */\n      pop\n      pop\n      jump\t// out\n        /* \"#utility.yul\":14725:15057   */\n    tag_78:\n        /* \"#utility.yul\":14846:14850   */\n      0x00\n        /* \"#utility.yul\":14884:14886   */\n      0x40\n        /* \"#utility.yul\":14873:14882   */\n      dup3\n        /* \"#utility.yul\":14869:14887   */\n      add\n        /* \"#utility.yul\":14861:14887   */\n      swap1\n      pop\n        /* \"#utility.yul\":14897:14968   */\n      tag_474\n        /* \"#utility.yul\":14965:14966   */\n      0x00\n        /* \"#utility.yul\":14954:14963   */\n      dup4\n        /* \"#utility.yul\":14950:14967   */\n      add\n        /* \"#utility.yul\":14941:14947   */\n      dup6\n        /* \"#utility.yul\":14897:14968   */\n      tag_270\n      jump\t// in\n    tag_474:\n        /* \"#utility.yul\":14978:15050   */\n      tag_475\n        /* \"#utility.yul\":15046:15048   */\n      0x20\n        /* \"#utility.yul\":15035:15044   */\n      dup4\n        /* \"#utility.yul\":15031:15049   */\n      add\n        /* \"#utility.yul\":15022:15028   */\n      dup5\n        /* \"#utility.yul\":14978:15050   */\n      tag_306\n      jump\t// in\n    tag_475:\n        /* \"#utility.yul\":14725:15057   */\n      swap4\n      swap3\n      pop\n      pop\n      pop\n      jump\t// out\n        /* \"#utility.yul\":15063:15179   */\n    tag_307:\n        /* \"#utility.yul\":15133:15154   */\n      tag_477\n        /* \"#utility.yul\":15148:15153   */\n      dup2\n        /* \"#utility.yul\":15133:15154   */\n      tag_284\n      jump\t// in\n    tag_477:\n        /* \"#utility.yul\":15126:15131   */\n      dup2\n        /* \"#utility.yul\":15123:15155   */\n      eq\n        /* \"#utility.yul\":15113:15173   */\n      tag_478\n      jumpi\n        /* \"#utility.yul\":15169:15170   */\n      0x00\n        /* \"#utility.yul\":15166:15167   */\n      dup1\n        /* \"#utility.yul\":15159:15171   */\n      revert\n        /* \"#utility.yul\":15113:15173   */\n    tag_478:\n        /* \"#utility.yul\":15063:15179   */\n      pop\n      jump\t// out\n        /* \"#utility.yul\":15185:15322   */\n    tag_308:\n        /* \"#utility.yul\":15239:15244   */\n      0x00\n        /* \"#utility.yul\":15270:15276   */\n      dup2\n        /* \"#utility.yul\":15264:15277   */\n      mload\n        /* \"#utility.yul\":15255:15277   */\n      swap1\n      pop\n        /* \"#utility.yul\":15286:15316   */\n      tag_480\n        /* \"#utility.yul\":15310:15315   */\n      dup2\n        /* \"#utility.yul\":15286:15316   */\n      tag_307\n      jump\t// in\n    tag_480:\n        /* \"#utility.yul\":15185:15322   */\n      swap3\n      swap2\n      pop\n      pop\n      jump\t// out\n        /* \"#utility.yul\":15328:15673   */\n    tag_82:\n        /* \"#utility.yul\":15395:15401   */\n      0x00\n        /* \"#utility.yul\":15444:15446   */\n      0x20\n        /* \"#utility.yul\":15432:15441   */\n      dup3\n        /* \"#utility.yul\":15423:15430   */\n      dup5\n        /* \"#utility.yul\":15419:15442   */\n      sub\n        /* \"#utility.yul\":15415:15447   */\n      slt\n        /* \"#utility.yul\":15412:15531   */\n      iszero\n      tag_482\n      jumpi\n        /* \"#utility.yul\":15450:15529   */\n      tag_483\n      tag_263\n      jump\t// in\n    tag_483:\n        /* \"#utility.yul\":15412:15531   */\n    tag_482:\n        /* \"#utility.yul\":15570:15571   */\n      0x00\n        /* \"#utility.yul\":15595:15656   */\n      tag_484\n        /* \"#utility.yul\":15648:15655   */\n      dup5\n        /* \"#utility.yul\":15639:15645   */\n      dup3\n        /* \"#utility.yul\":15628:15637   */\n      dup6\n        /* \"#utility.yul\":15624:15646   */\n      add\n        /* \"#utility.yul\":15595:15656   */\n      tag_308\n      jump\t// in\n    tag_484:\n        /* \"#utility.yul\":15585:15656   */\n      swap2\n      pop\n        /* \"#utility.yul\":15541:15666   */\n      pop\n        /* \"#utility.yul\":15328:15673   */\n      swap3\n      swap2\n      pop\n      pop\n      jump\t// out\n        /* \"#utility.yul\":15679:15900   */\n    tag_309:\n        /* \"#utility.yul\":15819:15853   */\n      0x54686572652077617320612070726f626c656d2073656e64696e6720746f6b65\n        /* \"#utility.yul\":15815:15816   */\n      0x00\n        /* \"#utility.yul\":15807:15813   */\n      dup3\n        /* \"#utility.yul\":15803:15817   */\n      add\n        /* \"#utility.yul\":15796:15854   */\n      mstore\n        /* \"#utility.yul\":15888:15892   */\n      0x6e73000000000000000000000000000000000000000000000000000000000000\n        /* \"#utility.yul\":15883:15885   */\n      0x20\n        /* \"#utility.yul\":15875:15881   */\n      dup3\n        /* \"#utility.yul\":15871:15886   */\n      add\n        /* \"#utility.yul\":15864:15893   */\n      mstore\n        /* \"#utility.yul\":15679:15900   */\n      pop\n      jump\t// out\n        /* \"#utility.yul\":15906:16272   */\n    tag_310:\n        /* \"#utility.yul\":16048:16051   */\n      0x00\n        /* \"#utility.yul\":16069:16136   */\n      tag_487\n        /* \"#utility.yul\":16133:16135   */\n      0x22\n        /* \"#utility.yul\":16128:16131   */\n      dup4\n        /* \"#utility.yul\":16069:16136   */\n      tag_299\n      jump\t// in\n    tag_487:\n        /* \"#utility.yul\":16062:16136   */\n      swap2\n      pop\n        /* \"#utility.yul\":16145:16238   */\n      tag_488\n        /* \"#utility.yul\":16234:16237   */\n      dup3\n        /* \"#utility.yul\":16145:16238   */\n      tag_309\n      jump\t// in\n    tag_488:\n        /* \"#utility.yul\":16263:16265   */\n      0x40\n        /* \"#utility.yul\":16258:16261   */\n      dup3\n        /* \"#utility.yul\":16254:16266   */\n      add\n        /* \"#utility.yul\":16247:16266   */\n      swap1\n      pop\n        /* \"#utility.yul\":15906:16272   */\n      swap2\n      swap1\n      pop\n      jump\t// out\n        /* \"#utility.yul\":16278:16697   */\n    tag_85:\n        /* \"#utility.yul\":16444:16448   */\n      0x00\n        /* \"#utility.yul\":16482:16484   */\n      0x20\n        /* \"#utility.yul\":16471:16480   */\n      dup3\n        /* \"#utility.yul\":16467:16485   */\n      add\n        /* \"#utility.yul\":16459:16485   */\n      swap1\n      pop\n        /* \"#utility.yul\":16531:16540   */\n      dup2\n        /* \"#utility.yul\":16525:16529   */\n      dup2\n        /* \"#utility.yul\":16521:16541   */\n      sub\n        /* \"#utility.yul\":16517:16518   */\n      0x00\n        /* \"#utility.yul\":16506:16515   */\n      dup4\n        /* \"#utility.yul\":16502:16519   */\n      add\n        /* \"#utility.yul\":16495:16542   */\n      mstore\n        /* \"#utility.yul\":16559:16690   */\n      tag_490\n        /* \"#utility.yul\":16685:16689   */\n      dup2\n        /* \"#utility.yul\":16559:16690   */\n      tag_310\n      jump\t// in\n    tag_490:\n        /* \"#utility.yul\":16551:16690   */\n      swap1\n      pop\n        /* \"#utility.yul\":16278:16697   */\n      swap2\n      swap1\n      pop\n      jump\t// out\n        /* \"#utility.yul\":16703:16939   */\n    tag_311:\n        /* \"#utility.yul\":16843:16877   */\n      0x546f6b656e7320666f7220746869732063616d706169676e2068617320626565\n        /* \"#utility.yul\":16839:16840   */\n      0x00\n        /* \"#utility.yul\":16831:16837   */\n      dup3\n        /* \"#utility.yul\":16827:16841   */\n      add\n        /* \"#utility.yul\":16820:16878   */\n      mstore\n        /* \"#utility.yul\":16912:16931   */\n      0x6e20616c726561647920636c61696d6564000000000000000000000000000000\n        /* \"#utility.yul\":16907:16909   */\n      0x20\n        /* \"#utility.yul\":16899:16905   */\n      dup3\n        /* \"#utility.yul\":16895:16910   */\n      add\n        /* \"#utility.yul\":16888:16932   */\n      mstore\n        /* \"#utility.yul\":16703:16939   */\n      pop\n      jump\t// out\n        /* \"#utility.yul\":16945:17311   */\n    tag_312:\n        /* \"#utility.yul\":17087:17090   */\n      0x00\n        /* \"#utility.yul\":17108:17175   */\n      tag_493\n        /* \"#utility.yul\":17172:17174   */\n      0x31\n        /* \"#utility.yul\":17167:17170   */\n      dup4\n        /* \"#utility.yul\":17108:17175   */\n      tag_299\n      jump\t// in\n    tag_493:\n        /* \"#utility.yul\":17101:17175   */\n      swap2\n      pop\n        /* \"#utility.yul\":17184:17277   */\n      tag_494\n        /* \"#utility.yul\":17273:17276   */\n      dup3\n        /* \"#utility.yul\":17184:17277   */\n      tag_311\n      jump\t// in\n    tag_494:\n        /* \"#utility.yul\":17302:17304   */\n      0x40\n        /* \"#utility.yul\":17297:17300   */\n      dup3\n        /* \"#utility.yul\":17293:17305   */\n      add\n        /* \"#utility.yul\":17286:17305   */\n      swap1\n      pop\n        /* \"#utility.yul\":16945:17311   */\n      swap2\n      swap1\n      pop\n      jump\t// out\n        /* \"#utility.yul\":17317:17736   */\n    tag_98:\n        /* \"#utility.yul\":17483:17487   */\n      0x00\n        /* \"#utility.yul\":17521:17523   */\n      0x20\n        /* \"#utility.yul\":17510:17519   */\n      dup3\n        /* \"#utility.yul\":17506:17524   */\n      add\n        /* \"#utility.yul\":17498:17524   */\n      swap1\n      pop\n        /* \"#utility.yul\":17570:17579   */\n      dup2\n        /* \"#utility.yul\":17564:17568   */\n      dup2\n        /* \"#utility.yul\":17560:17580   */\n      sub\n        /* \"#utility.yul\":17556:17557   */\n      0x00\n        /* \"#utility.yul\":17545:17554   */\n      dup4\n        /* \"#utility.yul\":17541:17558   */\n      add\n        /* \"#utility.yul\":17534:17581   */\n      mstore\n        /* \"#utility.yul\":17598:17729   */\n      tag_496\n        /* \"#utility.yul\":17724:17728   */\n      dup2\n        /* \"#utility.yul\":17598:17729   */\n      tag_312\n      jump\t// in\n    tag_496:\n        /* \"#utility.yul\":17590:17729   */\n      swap1\n      pop\n        /* \"#utility.yul\":17317:17736   */\n      swap2\n      swap1\n      pop\n      jump\t// out\n        /* \"#utility.yul\":17742:17922   */\n    tag_313:\n        /* \"#utility.yul\":17790:17867   */\n      0x4e487b7100000000000000000000000000000000000000000000000000000000\n        /* \"#utility.yul\":17787:17788   */\n      0x00\n        /* \"#utility.yul\":17780:17868   */\n      mstore\n        /* \"#utility.yul\":17887:17891   */\n      0x11\n        /* \"#utility.yul\":17884:17885   */\n      0x04\n        /* \"#utility.yul\":17877:17892   */\n      mstore\n        /* \"#utility.yul\":17911:17915   */\n      0x24\n        /* \"#utility.yul\":17908:17909   */\n      0x00\n        /* \"#utility.yul\":17901:17916   */\n      revert\n        /* \"#utility.yul\":17928:18119   */\n    tag_112:\n        /* \"#utility.yul\":17968:17972   */\n      0x00\n        /* \"#utility.yul\":17988:18008   */\n      tag_499\n        /* \"#utility.yul\":18006:18007   */\n      dup3\n        /* \"#utility.yul\":17988:18008   */\n      tag_265\n      jump\t// in\n    tag_499:\n        /* \"#utility.yul\":17983:18008   */\n      swap2\n      pop\n        /* \"#utility.yul\":18022:18042   */\n      tag_500\n        /* \"#utility.yul\":18040:18041   */\n      dup4\n        /* \"#utility.yul\":18022:18042   */\n      tag_265\n      jump\t// in\n    tag_500:\n        /* \"#utility.yul\":18017:18042   */\n      swap3\n      pop\n        /* \"#utility.yul\":18061:18062   */\n      dup3\n        /* \"#utility.yul\":18058:18059   */\n      dup3\n        /* \"#utility.yul\":18055:18063   */\n      lt\n        /* \"#utility.yul\":18052:18086   */\n      iszero\n      tag_501\n      jumpi\n        /* \"#utility.yul\":18066:18084   */\n      tag_502\n      tag_313\n      jump\t// in\n    tag_502:\n        /* \"#utility.yul\":18052:18086   */\n    tag_501:\n        /* \"#utility.yul\":18111:18112   */\n      dup3\n        /* \"#utility.yul\":18108:18109   */\n      dup3\n        /* \"#utility.yul\":18104:18113   */\n      sub\n        /* \"#utility.yul\":18096:18113   */\n      swap1\n      pop\n        /* \"#utility.yul\":17928:18119   */\n      swap3\n      swap2\n      pop\n      pop\n      jump\t// out\n        /* \"#utility.yul\":18125:18347   */\n    tag_115:\n        /* \"#utility.yul\":18218:18222   */\n      0x00\n        /* \"#utility.yul\":18256:18258   */\n      0x20\n        /* \"#utility.yul\":18245:18254   */\n      dup3\n        /* \"#utility.yul\":18241:18259   */\n      add\n        /* \"#utility.yul\":18233:18259   */\n      swap1\n      pop\n        /* \"#utility.yul\":18269:18340   */\n      tag_504\n        /* \"#utility.yul\":18337:18338   */\n      0x00\n        /* \"#utility.yul\":18326:18335   */\n      dup4\n        /* \"#utility.yul\":18322:18339   */\n      add\n        /* \"#utility.yul\":18313:18319   */\n      dup5\n        /* \"#utility.yul\":18269:18340   */\n      tag_306\n      jump\t// in\n    tag_504:\n        /* \"#utility.yul\":18125:18347   */\n      swap3\n      swap2\n      pop\n      pop\n      jump\t// out\n        /* \"#utility.yul\":18353:18586   */\n    tag_117:\n        /* \"#utility.yul\":18392:18395   */\n      0x00\n        /* \"#utility.yul\":18415:18439   */\n      tag_506\n        /* \"#utility.yul\":18433:18438   */\n      dup3\n        /* \"#utility.yul\":18415:18439   */\n      tag_265\n      jump\t// in\n    tag_506:\n        /* \"#utility.yul\":18406:18439   */\n      swap2\n      pop\n        /* \"#utility.yul\":18461:18527   */\n      0xffffffffffffffffffffffffffffffffffffffffffffffffffffffffffffffff\n        /* \"#utility.yul\":18454:18459   */\n      dup3\n        /* \"#utility.yul\":18451:18528   */\n      sub\n        /* \"#utility.yul\":18448:18551   */\n      tag_507\n      jumpi\n        /* \"#utility.yul\":18531:18549   */\n      tag_508\n      tag_313\n      jump\t// in\n    tag_508:\n        /* \"#utility.yul\":18448:18551   */\n    tag_507:\n        /* \"#utility.yul\":18578:18579   */\n      0x01\n        /* \"#utility.yul\":18571:18576   */\n      dup3\n        /* \"#utility.yul\":18567:18580   */\n      add\n        /* \"#utility.yul\":18560:18580   */\n      swap1\n      pop\n        /* \"#utility.yul\":18353:18586   */\n      swap2\n      swap1\n      pop\n      jump\t// out\n        /* \"#utility.yul\":18592:18831   */\n    tag_314:\n        /* \"#utility.yul\":18732:18766   */\n      0x596f7520646f6e277420686176652074686520617574686f7269747920746f20\n        /* \"#utility.yul\":18728:18729   */\n      0x00\n        /* \"#utility.yul\":18720:18726   */\n      dup3\n        /* \"#utility.yul\":18716:18730   */\n      add\n        /* \"#utility.yul\":18709:18767   */\n      mstore\n        /* \"#utility.yul\":18801:18823   */\n      0x63616e63656c20746869732063616d706169676e000000000000000000000000\n        /* \"#utility.yul\":18796:18798   */\n      0x20\n        /* \"#utility.yul\":18788:18794   */\n      dup3\n        /* \"#utility.yul\":18784:18799   */\n      add\n        /* \"#utility.yul\":18777:18824   */\n      mstore\n        /* \"#utility.yul\":18592:18831   */\n      pop\n      jump\t// out\n        /* \"#utility.yul\":18837:19203   */\n    tag_315:\n        /* \"#utility.yul\":18979:18982   */\n      0x00\n        /* \"#utility.yul\":19000:19067   */\n      tag_511\n        /* \"#utility.yul\":19064:19066   */\n      0x34\n        /* \"#utility.yul\":19059:19062   */\n      dup4\n        /* \"#utility.yul\":19000:19067   */\n      tag_299\n      jump\t// in\n    tag_511:\n        /* \"#utility.yul\":18993:19067   */\n      swap2\n      pop\n        /* \"#utility.yul\":19076:19169   */\n      tag_512\n        /* \"#utility.yul\":19165:19168   */\n      dup3\n        /* \"#utility.yul\":19076:19169   */\n      tag_314\n      jump\t// in\n    tag_512:\n        /* \"#utility.yul\":19194:19196   */\n      0x40\n        /* \"#utility.yul\":19189:19192   */\n      dup3\n        /* \"#utility.yul\":19185:19197   */\n      add\n        /* \"#utility.yul\":19178:19197   */\n      swap1\n      pop\n        /* \"#utility.yul\":18837:19203   */\n      swap2\n      swap1\n      pop\n      jump\t// out\n        /* \"#utility.yul\":19209:19628   */\n    tag_128:\n        /* \"#utility.yul\":19375:19379   */\n      0x00\n        /* \"#utility.yul\":19413:19415   */\n      0x20\n        /* \"#utility.yul\":19402:19411   */\n      dup3\n        /* \"#utility.yul\":19398:19416   */\n      add\n        /* \"#utility.yul\":19390:19416   */\n      swap1\n      pop\n        /* \"#utility.yul\":19462:19471   */\n      dup2\n        /* \"#utility.yul\":19456:19460   */\n      dup2\n        /* \"#utility.yul\":19452:19472   */\n      sub\n        /* \"#utility.yul\":19448:19449   */\n      0x00\n        /* \"#utility.yul\":19437:19446   */\n      dup4\n        /* \"#utility.yul\":19433:19450   */\n      add\n        /* \"#utility.yul\":19426:19473   */\n      mstore\n        /* \"#utility.yul\":19490:19621   */\n      tag_514\n        /* \"#utility.yul\":19616:19620   */\n      dup2\n        /* \"#utility.yul\":19490:19621   */\n      tag_315\n      jump\t// in\n    tag_514:\n        /* \"#utility.yul\":19482:19621   */\n      swap1\n      pop\n        /* \"#utility.yul\":19209:19628   */\n      swap2\n      swap1\n      pop\n      jump\t// out\n        /* \"#utility.yul\":19634:19874   */\n    tag_316:\n        /* \"#utility.yul\":19774:19808   */\n      0x546865726520617265207374696c6c20736f6d6520746f6b656e7320706c6564\n        /* \"#utility.yul\":19770:19771   */\n      0x00\n        /* \"#utility.yul\":19762:19768   */\n      dup3\n        /* \"#utility.yul\":19758:19772   */\n      add\n        /* \"#utility.yul\":19751:19809   */\n      mstore\n        /* \"#utility.yul\":19843:19866   */\n      0x67656420666f7220746869732063616d706169676e0000000000000000000000\n        /* \"#utility.yul\":19838:19840   */\n      0x20\n        /* \"#utility.yul\":19830:19836   */\n      dup3\n        /* \"#utility.yul\":19826:19841   */\n      add\n        /* \"#utility.yul\":19819:19867   */\n      mstore\n        /* \"#utility.yul\":19634:19874   */\n      pop\n      jump\t// out\n        /* \"#utility.yul\":19880:20246   */\n    tag_317:\n        /* \"#utility.yul\":20022:20025   */\n      0x00\n        /* \"#utility.yul\":20043:20110   */\n      tag_517\n        /* \"#utility.yul\":20107:20109   */\n      0x35\n        /* \"#utility.yul\":20102:20105   */\n      dup4\n        /* \"#utility.yul\":20043:20110   */\n      tag_299\n      jump\t// in\n    tag_517:\n        /* \"#utility.yul\":20036:20110   */\n      swap2\n      pop\n        /* \"#utility.yul\":20119:20212   */\n      tag_518\n        /* \"#utility.yul\":20208:20211   */\n      dup3\n        /* \"#utility.yul\":20119:20212   */\n      tag_316\n      jump\t// in\n    tag_518:\n        /* \"#utility.yul\":20237:20239   */\n      0x40\n        /* \"#utility.yul\":20232:20235   */\n      dup3\n        /* \"#utility.yul\":20228:20240   */\n      add\n        /* \"#utility.yul\":20221:20240   */\n      swap1\n      pop\n        /* \"#utility.yul\":19880:20246   */\n      swap2\n      swap1\n      pop\n      jump\t// out\n        /* \"#utility.yul\":20252:20671   */\n    tag_132:\n        /* \"#utility.yul\":20418:20422   */\n      0x00\n        /* \"#utility.yul\":20456:20458   */\n      0x20\n        /* \"#utility.yul\":20445:20454   */\n      dup3\n        /* \"#utility.yul\":20441:20459   */\n      add\n        /* \"#utility.yul\":20433:20459   */\n      swap1\n      pop\n        /* \"#utility.yul\":20505:20514   */\n      dup2\n        /* \"#utility.yul\":20499:20503   */\n      dup2\n        /* \"#utility.yul\":20495:20515   */\n      sub\n        /* \"#utility.yul\":20491:20492   */\n      0x00\n        /* \"#utility.yul\":20480:20489   */\n      dup4\n        /* \"#utility.yul\":20476:20493   */\n      add\n        /* \"#utility.yul\":20469:20516   */\n      mstore\n        /* \"#utility.yul\":20533:20664   */\n      tag_520\n        /* \"#utility.yul\":20659:20663   */\n      dup2\n        /* \"#utility.yul\":20533:20664   */\n      tag_317\n      jump\t// in\n    tag_520:\n        /* \"#utility.yul\":20525:20664   */\n      swap1\n      pop\n        /* \"#utility.yul\":20252:20671   */\n      swap2\n      swap1\n      pop\n      jump\t// out\n        /* \"#utility.yul\":20677:20852   */\n    tag_318:\n        /* \"#utility.yul\":20817:20844   */\n      0x43616d706169676e206e6f742073746172746564207965742100000000000000\n        /* \"#utility.yul\":20813:20814   */\n      0x00\n        /* \"#utility.yul\":20805:20811   */\n      dup3\n        /* \"#utility.yul\":20801:20815   */\n      add\n        /* \"#utility.yul\":20794:20845   */\n      mstore\n        /* \"#utility.yul\":20677:20852   */\n      pop\n      jump\t// out\n        /* \"#utility.yul\":20858:21224   */\n    tag_319:\n        /* \"#utility.yul\":21000:21003   */\n      0x00\n        /* \"#utility.yul\":21021:21088   */\n      tag_523\n        /* \"#utility.yul\":21085:21087   */\n      0x19\n        /* \"#utility.yul\":21080:21083   */\n      dup4\n        /* \"#utility.yul\":21021:21088   */\n      tag_299\n      jump\t// in\n    tag_523:\n        /* \"#utility.yul\":21014:21088   */\n      swap2\n      pop\n        /* \"#utility.yul\":21097:21190   */\n      tag_524\n        /* \"#utility.yul\":21186:21189   */\n      dup3\n        /* \"#utility.yul\":21097:21190   */\n      tag_318\n      jump\t// in\n    tag_524:\n        /* \"#utility.yul\":21215:21217   */\n      0x20\n        /* \"#utility.yul\":21210:21213   */\n      dup3\n        /* \"#utility.yul\":21206:21218   */\n      add\n        /* \"#utility.yul\":21199:21218   */\n      swap1\n      pop\n        /* \"#utility.yul\":20858:21224   */\n      swap2\n      swap1\n      pop\n      jump\t// out\n        /* \"#utility.yul\":21230:21649   */\n    tag_146:\n        /* \"#utility.yul\":21396:21400   */\n      0x00\n        /* \"#utility.yul\":21434:21436   */\n      0x20\n        /* \"#utility.yul\":21423:21432   */\n      dup3\n        /* \"#utility.yul\":21419:21437   */\n      add\n        /* \"#utility.yul\":21411:21437   */\n      swap1\n      pop\n        /* \"#utility.yul\":21483:21492   */\n      dup2\n        /* \"#utility.yul\":21477:21481   */\n      dup2\n        /* \"#utility.yul\":21473:21493   */\n      sub\n        /* \"#utility.yul\":21469:21470   */\n      0x00\n        /* \"#utility.yul\":21458:21467   */\n      dup4\n        /* \"#utility.yul\":21454:21471   */\n      add\n        /* \"#utility.yul\":21447:21494   */\n      mstore\n        /* \"#utility.yul\":21511:21642   */\n      tag_526\n        /* \"#utility.yul\":21637:21641   */\n      dup2\n        /* \"#utility.yul\":21511:21642   */\n      tag_319\n      jump\t// in\n    tag_526:\n        /* \"#utility.yul\":21503:21642   */\n      swap1\n      pop\n        /* \"#utility.yul\":21230:21649   */\n      swap2\n      swap1\n      pop\n      jump\t// out\n        /* \"#utility.yul\":21655:21823   */\n    tag_320:\n        /* \"#utility.yul\":21795:21815   */\n      0x43616d706169676e2068617320656e6465640000000000000000000000000000\n        /* \"#utility.yul\":21791:21792   */\n      0x00\n        /* \"#utility.yul\":21783:21789   */\n      dup3\n        /* \"#utility.yul\":21779:21793   */\n      add\n        /* \"#utility.yul\":21772:21816   */\n      mstore\n        /* \"#utility.yul\":21655:21823   */\n      pop\n      jump\t// out\n        /* \"#utility.yul\":21829:22195   */\n    tag_321:\n        /* \"#utility.yul\":21971:21974   */\n      0x00\n        /* \"#utility.yul\":21992:22059   */\n      tag_529\n        /* \"#utility.yul\":22056:22058   */\n      0x12\n        /* \"#utility.yul\":22051:22054   */\n      dup4\n        /* \"#utility.yul\":21992:22059   */\n      tag_299\n      jump\t// in\n    tag_529:\n        /* \"#utility.yul\":21985:22059   */\n      swap2\n      pop\n        /* \"#utility.yul\":22068:22161   */\n      tag_530\n        /* \"#utility.yul\":22157:22160   */\n      dup3\n        /* \"#utility.yul\":22068:22161   */\n      tag_320\n      jump\t// in\n    tag_530:\n        /* \"#utility.yul\":22186:22188   */\n      0x20\n        /* \"#utility.yul\":22181:22184   */\n      dup3\n        /* \"#utility.yul\":22177:22189   */\n      add\n        /* \"#utility.yul\":22170:22189   */\n      swap1\n      pop\n        /* \"#utility.yul\":21829:22195   */\n      swap2\n      swap1\n      pop\n      jump\t// out\n        /* \"#utility.yul\":22201:22620   */\n    tag_149:\n        /* \"#utility.yul\":22367:22371   */\n      0x00\n        /* \"#utility.yul\":22405:22407   */\n      0x20\n        /* \"#utility.yul\":22394:22403   */\n      dup3\n        /* \"#utility.yul\":22390:22408   */\n      add\n        /* \"#utility.yul\":22382:22408   */\n      swap1\n      pop\n        /* \"#utility.yul\":22454:22463   */\n      dup2\n        /* \"#utility.yul\":22448:22452   */\n      dup2\n        /* \"#utility.yul\":22444:22464   */\n      sub\n        /* \"#utility.yul\":22440:22441   */\n      0x00\n        /* \"#utility.yul\":22429:22438   */\n      dup4\n        /* \"#utility.yul\":22425:22442   */\n      add\n        /* \"#utility.yul\":22418:22465   */\n      mstore\n        /* \"#utility.yul\":22482:22613   */\n      tag_532\n        /* \"#utility.yul\":22608:22612   */\n      dup2\n        /* \"#utility.yul\":22482:22613   */\n      tag_321\n      jump\t// in\n    tag_532:\n        /* \"#utility.yul\":22474:22613   */\n      swap1\n      pop\n        /* \"#utility.yul\":22201:22620   */\n      swap2\n      swap1\n      pop\n      jump\t// out\n        /* \"#utility.yul\":22626:22850   */\n    tag_322:\n        /* \"#utility.yul\":22766:22800   */\n      0x43616d706169676e2068617320616c7265616479207265616368656420746865\n        /* \"#utility.yul\":22762:22763   */\n      0x00\n        /* \"#utility.yul\":22754:22760   */\n      dup3\n        /* \"#utility.yul\":22750:22764   */\n      add\n        /* \"#utility.yul\":22743:22801   */\n      mstore\n        /* \"#utility.yul\":22835:22842   */\n      0x20676f616c000000000000000000000000000000000000000000000000000000\n        /* \"#utility.yul\":22830:22832   */\n      0x20\n        /* \"#utility.yul\":22822:22828   */\n      dup3\n        /* \"#utility.yul\":22818:22833   */\n      add\n        /* \"#utility.yul\":22811:22843   */\n      mstore\n        /* \"#utility.yul\":22626:22850   */\n      pop\n      jump\t// out\n        /* \"#utility.yul\":22856:23222   */\n    tag_323:\n        /* \"#utility.yul\":22998:23001   */\n      0x00\n        /* \"#utility.yul\":23019:23086   */\n      tag_535\n        /* \"#utility.yul\":23083:23085   */\n      0x25\n        /* \"#utility.yul\":23078:23081   */\n      dup4\n        /* \"#utility.yul\":23019:23086   */\n      tag_299\n      jump\t// in\n    tag_535:\n        /* \"#utility.yul\":23012:23086   */\n      swap2\n      pop\n        /* \"#utility.yul\":23095:23188   */\n      tag_536\n        /* \"#utility.yul\":23184:23187   */\n      dup3\n        /* \"#utility.yul\":23095:23188   */\n      tag_322\n      jump\t// in\n    tag_536:\n        /* \"#utility.yul\":23213:23215   */\n      0x40\n        /* \"#utility.yul\":23208:23211   */\n      dup3\n        /* \"#utility.yul\":23204:23216   */\n      add\n        /* \"#utility.yul\":23197:23216   */\n      swap1\n      pop\n        /* \"#utility.yul\":22856:23222   */\n      swap2\n      swap1\n      pop\n      jump\t// out\n        /* \"#utility.yul\":23228:23647   */\n    tag_152:\n        /* \"#utility.yul\":23394:23398   */\n      0x00\n        /* \"#utility.yul\":23432:23434   */\n      0x20\n        /* \"#utility.yul\":23421:23430   */\n      dup3\n        /* \"#utility.yul\":23417:23435   */\n      add\n        /* \"#utility.yul\":23409:23435   */\n      swap1\n      pop\n        /* \"#utility.yul\":23481:23490   */\n      dup2\n        /* \"#utility.yul\":23475:23479   */\n      dup2\n        /* \"#utility.yul\":23471:23491   */\n      sub\n        /* \"#utility.yul\":23467:23468   */\n      0x00\n        /* \"#utility.yul\":23456:23465   */\n      dup4\n        /* \"#utility.yul\":23452:23469   */\n      add\n        /* \"#utility.yul\":23445:23492   */\n      mstore\n        /* \"#utility.yul\":23509:23640   */\n      tag_538\n        /* \"#utility.yul\":23635:23639   */\n      dup2\n        /* \"#utility.yul\":23509:23640   */\n      tag_323\n      jump\t// in\n    tag_538:\n        /* \"#utility.yul\":23501:23640   */\n      swap1\n      pop\n        /* \"#utility.yul\":23228:23647   */\n      swap2\n      swap1\n      pop\n      jump\t// out\n        /* \"#utility.yul\":23653:23875   */\n    tag_324:\n        /* \"#utility.yul\":23793:23827   */\n      0x43616d706169676e206f7065726174696f6e7320617265206465616374697661\n        /* \"#utility.yul\":23789:23790   */\n      0x00\n        /* \"#utility.yul\":23781:23787   */\n      dup3\n        /* \"#utility.yul\":23777:23791   */\n      add\n        /* \"#utility.yul\":23770:23828   */\n      mstore\n        /* \"#utility.yul\":23862:23867   */\n      0x7465640000000000000000000000000000000000000000000000000000000000\n        /* \"#utility.yul\":23857:23859   */\n      0x20\n        /* \"#utility.yul\":23849:23855   */\n      dup3\n        /* \"#utility.yul\":23845:23860   */\n      add\n        /* \"#utility.yul\":23838:23868   */\n      mstore\n        /* \"#utility.yul\":23653:23875   */\n      pop\n      jump\t// out\n        /* \"#utility.yul\":23881:24247   */\n    tag_325:\n        /* \"#utility.yul\":24023:24026   */\n      0x00\n        /* \"#utility.yul\":24044:24111   */\n      tag_541\n        /* \"#utility.yul\":24108:24110   */\n      0x23\n        /* \"#utility.yul\":24103:24106   */\n      dup4\n        /* \"#utility.yul\":24044:24111   */\n      tag_299\n      jump\t// in\n    tag_541:\n        /* \"#utility.yul\":24037:24111   */\n      swap2\n      pop\n        /* \"#utility.yul\":24120:24213   */\n      tag_542\n        /* \"#utility.yul\":24209:24212   */\n      dup3\n        /* \"#utility.yul\":24120:24213   */\n      tag_324\n      jump\t// in\n    tag_542:\n        /* \"#utility.yul\":24238:24240   */\n      0x40\n        /* \"#utility.yul\":24233:24236   */\n      dup3\n        /* \"#utility.yul\":24229:24241   */\n      add\n        /* \"#utility.yul\":24222:24241   */\n      swap1\n      pop\n        /* \"#utility.yul\":23881:24247   */\n      swap2\n      swap1\n      pop\n      jump\t// out\n        /* \"#utility.yul\":24253:24672   */\n    tag_155:\n        /* \"#utility.yul\":24419:24423   */\n      0x00\n        /* \"#utility.yul\":24457:24459   */\n      0x20\n        /* \"#utility.yul\":24446:24455   */\n      dup3\n        /* \"#utility.yul\":24442:24460   */\n      add\n        /* \"#utility.yul\":24434:24460   */\n      swap1\n      pop\n        /* \"#utility.yul\":24506:24515   */\n      dup2\n        /* \"#utility.yul\":24500:24504   */\n      dup2\n        /* \"#utility.yul\":24496:24516   */\n      sub\n        /* \"#utility.yul\":24492:24493   */\n      0x00\n        /* \"#utility.yul\":24481:24490   */\n      dup4\n        /* \"#utility.yul\":24477:24494   */\n      add\n        /* \"#utility.yul\":24470:24517   */\n      mstore\n        /* \"#utility.yul\":24534:24665   */\n      tag_544\n        /* \"#utility.yul\":24660:24664   */\n      dup2\n        /* \"#utility.yul\":24534:24665   */\n      tag_325\n      jump\t// in\n    tag_544:\n        /* \"#utility.yul\":24526:24665   */\n      swap1\n      pop\n        /* \"#utility.yul\":24253:24672   */\n      swap2\n      swap1\n      pop\n      jump\t// out\n        /* \"#utility.yul\":24678:24846   */\n    tag_326:\n        /* \"#utility.yul\":24818:24838   */\n      0x496e73756666696369656e742046756e64730000000000000000000000000000\n        /* \"#utility.yul\":24814:24815   */\n      0x00\n        /* \"#utility.yul\":24806:24812   */\n      dup3\n        /* \"#utility.yul\":24802:24816   */\n      add\n        /* \"#utility.yul\":24795:24839   */\n      mstore\n        /* \"#utility.yul\":24678:24846   */\n      pop\n      jump\t// out\n        /* \"#utility.yul\":24852:25218   */\n    tag_327:\n        /* \"#utility.yul\":24994:24997   */\n      0x00\n        /* \"#utility.yul\":25015:25082   */\n      tag_547\n        /* \"#utility.yul\":25079:25081   */\n      0x12\n        /* \"#utility.yul\":25074:25077   */\n      dup4\n        /* \"#utility.yul\":25015:25082   */\n      tag_299\n      jump\t// in\n    tag_547:\n        /* \"#utility.yul\":25008:25082   */\n      swap2\n      pop\n        /* \"#utility.yul\":25091:25184   */\n      tag_548\n        /* \"#utility.yul\":25180:25183   */\n      dup3\n        /* \"#utility.yul\":25091:25184   */\n      tag_326\n      jump\t// in\n    tag_548:\n        /* \"#utility.yul\":25209:25211   */\n      0x20\n        /* \"#utility.yul\":25204:25207   */\n      dup3\n        /* \"#utility.yul\":25200:25212   */\n      add\n        /* \"#utility.yul\":25193:25212   */\n      swap1\n      pop\n        /* \"#utility.yul\":24852:25218   */\n      swap2\n      swap1\n      pop\n      jump\t// out\n        /* \"#utility.yul\":25224:25643   */\n    tag_159:\n        /* \"#utility.yul\":25390:25394   */\n      0x00\n        /* \"#utility.yul\":25428:25430   */\n      0x20\n        /* \"#utility.yul\":25417:25426   */\n      dup3\n        /* \"#utility.yul\":25413:25431   */\n      add\n        /* \"#utility.yul\":25405:25431   */\n      swap1\n      pop\n        /* \"#utility.yul\":25477:25486   */\n      dup2\n        /* \"#utility.yul\":25471:25475   */\n      dup2\n        /* \"#utility.yul\":25467:25487   */\n      sub\n        /* \"#utility.yul\":25463:25464   */\n      0x00\n        /* \"#utility.yul\":25452:25461   */\n      dup4\n        /* \"#utility.yul\":25448:25465   */\n      add\n        /* \"#utility.yul\":25441:25488   */\n      mstore\n        /* \"#utility.yul\":25505:25636   */\n      tag_550\n        /* \"#utility.yul\":25631:25635   */\n      dup2\n        /* \"#utility.yul\":25505:25636   */\n      tag_327\n      jump\t// in\n    tag_550:\n        /* \"#utility.yul\":25497:25636   */\n      swap1\n      pop\n        /* \"#utility.yul\":25224:25643   */\n      swap2\n      swap1\n      pop\n      jump\t// out\n        /* \"#utility.yul\":25649:25820   */\n    tag_328:\n        /* \"#utility.yul\":25789:25812   */\n      0x496e76616c6964206461746520746f2073746172740000000000000000000000\n        /* \"#utility.yul\":25785:25786   */\n      0x00\n        /* \"#utility.yul\":25777:25783   */\n      dup3\n        /* \"#utility.yul\":25773:25787   */\n      add\n        /* \"#utility.yul\":25766:25813   */\n      mstore\n        /* \"#utility.yul\":25649:25820   */\n      pop\n      jump\t// out\n        /* \"#utility.yul\":25826:26192   */\n    tag_329:\n        /* \"#utility.yul\":25968:25971   */\n      0x00\n        /* \"#utility.yul\":25989:26056   */\n      tag_553\n        /* \"#utility.yul\":26053:26055   */\n      0x15\n        /* \"#utility.yul\":26048:26051   */\n      dup4\n        /* \"#utility.yul\":25989:26056   */\n      tag_299\n      jump\t// in\n    tag_553:\n        /* \"#utility.yul\":25982:26056   */\n      swap2\n      pop\n        /* \"#utility.yul\":26065:26158   */\n      tag_554\n        /* \"#utility.yul\":26154:26157   */\n      dup3\n        /* \"#utility.yul\":26065:26158   */\n      tag_328\n      jump\t// in\n    tag_554:\n        /* \"#utility.yul\":26183:26185   */\n      0x20\n        /* \"#utility.yul\":26178:26181   */\n      dup3\n        /* \"#utility.yul\":26174:26186   */\n      add\n        /* \"#utility.yul\":26167:26186   */\n      swap1\n      pop\n        /* \"#utility.yul\":25826:26192   */\n      swap2\n      swap1\n      pop\n      jump\t// out\n        /* \"#utility.yul\":26198:26617   */\n    tag_193:\n        /* \"#utility.yul\":26364:26368   */\n      0x00\n        /* \"#utility.yul\":26402:26404   */\n      0x20\n        /* \"#utility.yul\":26391:26400   */\n      dup3\n        /* \"#utility.yul\":26387:26405   */\n      add\n        /* \"#utility.yul\":26379:26405   */\n      swap1\n      pop\n        /* \"#utility.yul\":26451:26460   */\n      dup2\n        /* \"#utility.yul\":26445:26449   */\n      dup2\n        /* \"#utility.yul\":26441:26461   */\n      sub\n        /* \"#utility.yul\":26437:26438   */\n      0x00\n        /* \"#utility.yul\":26426:26435   */\n      dup4\n        /* \"#utility.yul\":26422:26439   */\n      add\n        /* \"#utility.yul\":26415:26462   */\n      mstore\n        /* \"#utility.yul\":26479:26610   */\n      tag_556\n        /* \"#utility.yul\":26605:26609   */\n      dup2\n        /* \"#utility.yul\":26479:26610   */\n      tag_329\n      jump\t// in\n    tag_556:\n        /* \"#utility.yul\":26471:26610   */\n      swap1\n      pop\n        /* \"#utility.yul\":26198:26617   */\n      swap2\n      swap1\n      pop\n      jump\t// out\n        /* \"#utility.yul\":26623:26857   */\n    tag_330:\n        /* \"#utility.yul\":26763:26797   */\n      0x43616d7061696e6720656e642064617465206d757374206265206c6174657220\n        /* \"#utility.yul\":26759:26760   */\n      0x00\n        /* \"#utility.yul\":26751:26757   */\n      dup3\n        /* \"#utility.yul\":26747:26761   */\n      add\n        /* \"#utility.yul\":26740:26798   */\n      mstore\n        /* \"#utility.yul\":26832:26849   */\n      0x7468616e20737461727420646174650000000000000000000000000000000000\n        /* \"#utility.yul\":26827:26829   */\n      0x20\n        /* \"#utility.yul\":26819:26825   */\n      dup3\n        /* \"#utility.yul\":26815:26830   */\n      add\n        /* \"#utility.yul\":26808:26850   */\n      mstore\n        /* \"#utility.yul\":26623:26857   */\n      pop\n      jump\t// out\n        /* \"#utility.yul\":26863:27229   */\n    tag_331:\n        /* \"#utility.yul\":27005:27008   */\n      0x00\n        /* \"#utility.yul\":27026:27093   */\n      tag_559\n        /* \"#utility.yul\":27090:27092   */\n      0x2f\n        /* \"#utility.yul\":27085:27088   */\n      dup4\n        /* \"#utility.yul\":27026:27093   */\n      tag_299\n      jump\t// in\n    tag_559:\n        /* \"#utility.yul\":27019:27093   */\n      swap2\n      pop\n        /* \"#utility.yul\":27102:27195   */\n      tag_560\n        /* \"#utility.yul\":27191:27194   */\n      dup3\n        /* \"#utility.yul\":27102:27195   */\n      tag_330\n      jump\t// in\n    tag_560:\n        /* \"#utility.yul\":27220:27222   */\n      0x40\n        /* \"#utility.yul\":27215:27218   */\n      dup3\n        /* \"#utility.yul\":27211:27223   */\n      add\n        /* \"#utility.yul\":27204:27223   */\n      swap1\n      pop\n        /* \"#utility.yul\":26863:27229   */\n      swap2\n      swap1\n      pop\n      jump\t// out\n        /* \"#utility.yul\":27235:27654   */\n    tag_196:\n        /* \"#utility.yul\":27401:27405   */\n      0x00\n        /* \"#utility.yul\":27439:27441   */\n      0x20\n        /* \"#utility.yul\":27428:27437   */\n      dup3\n        /* \"#utility.yul\":27424:27442   */\n      add\n        /* \"#utility.yul\":27416:27442   */\n      swap1\n      pop\n        /* \"#utility.yul\":27488:27497   */\n      dup2\n        /* \"#utility.yul\":27482:27486   */\n      dup2\n        /* \"#utility.yul\":27478:27498   */\n      sub\n        /* \"#utility.yul\":27474:27475   */\n      0x00\n        /* \"#utility.yul\":27463:27472   */\n      dup4\n        /* \"#utility.yul\":27459:27476   */\n      add\n        /* \"#utility.yul\":27452:27499   */\n      mstore\n        /* \"#utility.yul\":27516:27647   */\n      tag_562\n        /* \"#utility.yul\":27642:27646   */\n      dup2\n        /* \"#utility.yul\":27516:27647   */\n      tag_331\n      jump\t// in\n    tag_562:\n        /* \"#utility.yul\":27508:27647   */\n      swap1\n      pop\n        /* \"#utility.yul\":27235:27654   */\n      swap2\n      swap1\n      pop\n      jump\t// out\n        /* \"#utility.yul\":27660:27906   */\n    tag_198:\n        /* \"#utility.yul\":27699:27702   */\n      0x00\n        /* \"#utility.yul\":27718:27737   */\n      tag_564\n        /* \"#utility.yul\":27735:27736   */\n      dup3\n        /* \"#utility.yul\":27718:27737   */\n      tag_276\n      jump\t// in\n    tag_564:\n        /* \"#utility.yul\":27713:27737   */\n      swap2\n      pop\n        /* \"#utility.yul\":27751:27770   */\n      tag_565\n        /* \"#utility.yul\":27768:27769   */\n      dup4\n        /* \"#utility.yul\":27751:27770   */\n      tag_276\n      jump\t// in\n    tag_565:\n        /* \"#utility.yul\":27746:27770   */\n      swap3\n      pop\n        /* \"#utility.yul\":27848:27849   */\n      dup3\n        /* \"#utility.yul\":27836:27846   */\n      0xffffffff\n        /* \"#utility.yul\":27832:27850   */\n      sub\n        /* \"#utility.yul\":27829:27830   */\n      dup3\n        /* \"#utility.yul\":27826:27851   */\n      gt\n        /* \"#utility.yul\":27823:27874   */\n      iszero\n      tag_566\n      jumpi\n        /* \"#utility.yul\":27854:27872   */\n      tag_567\n      tag_313\n      jump\t// in\n    tag_567:\n        /* \"#utility.yul\":27823:27874   */\n    tag_566:\n        /* \"#utility.yul\":27898:27899   */\n      dup3\n        /* \"#utility.yul\":27895:27896   */\n      dup3\n        /* \"#utility.yul\":27891:27900   */\n      add\n        /* \"#utility.yul\":27884:27900   */\n      swap1\n      pop\n        /* \"#utility.yul\":27660:27906   */\n      swap3\n      swap2\n      pop\n      pop\n      jump\t// out\n        /* \"#utility.yul\":27912:28140   */\n    tag_332:\n        /* \"#utility.yul\":28052:28086   */\n      0x43616d706169676e73206d757374206e6f74206c617374206d6f726520746861\n        /* \"#utility.yul\":28048:28049   */\n      0x00\n        /* \"#utility.yul\":28040:28046   */\n      dup3\n        /* \"#utility.yul\":28036:28050   */\n      add\n        /* \"#utility.yul\":28029:28087   */\n      mstore\n        /* \"#utility.yul\":28121:28132   */\n      0x6e20393020646179730000000000000000000000000000000000000000000000\n        /* \"#utility.yul\":28116:28118   */\n      0x20\n        /* \"#utility.yul\":28108:28114   */\n      dup3\n        /* \"#utility.yul\":28104:28119   */\n      add\n        /* \"#utility.yul\":28097:28133   */\n      mstore\n        /* \"#utility.yul\":27912:28140   */\n      pop\n      jump\t// out\n        /* \"#utility.yul\":28146:28512   */\n    tag_333:\n        /* \"#utility.yul\":28288:28291   */\n      0x00\n        /* \"#utility.yul\":28309:28376   */\n      tag_570\n        /* \"#utility.yul\":28373:28375   */\n      0x29\n        /* \"#utility.yul\":28368:28371   */\n      dup4\n        /* \"#utility.yul\":28309:28376   */\n      tag_299\n      jump\t// in\n    tag_570:\n        /* \"#utility.yul\":28302:28376   */\n      swap2\n      pop\n        /* \"#utility.yul\":28385:28478   */\n      tag_571\n        /* \"#utility.yul\":28474:28477   */\n      dup3\n        /* \"#utility.yul\":28385:28478   */\n      tag_332\n      jump\t// in\n    tag_571:\n        /* \"#utility.yul\":28503:28505   */\n      0x40\n        /* \"#utility.yul\":28498:28501   */\n      dup3\n        /* \"#utility.yul\":28494:28506   */\n      add\n        /* \"#utility.yul\":28487:28506   */\n      swap1\n      pop\n        /* \"#utility.yul\":28146:28512   */\n      swap2\n      swap1\n      pop\n      jump\t// out\n        /* \"#utility.yul\":28518:28937   */\n    tag_201:\n        /* \"#utility.yul\":28684:28688   */\n      0x00\n        /* \"#utility.yul\":28722:28724   */\n      0x20\n        /* \"#utility.yul\":28711:28720   */\n      dup3\n        /* \"#utility.yul\":28707:28725   */\n      add\n        /* \"#utility.yul\":28699:28725   */\n      swap1\n      pop\n        /* \"#utility.yul\":28771:28780   */\n      dup2\n        /* \"#utility.yul\":28765:28769   */\n      dup2\n        /* \"#utility.yul\":28761:28781   */\n      sub\n        /* \"#utility.yul\":28757:28758   */\n      0x00\n        /* \"#utility.yul\":28746:28755   */\n      dup4\n        /* \"#utility.yul\":28742:28759   */\n      add\n        /* \"#utility.yul\":28735:28782   */\n      mstore\n        /* \"#utility.yul\":28799:28930   */\n      tag_573\n        /* \"#utility.yul\":28925:28929   */\n      dup2\n        /* \"#utility.yul\":28799:28930   */\n      tag_333\n      jump\t// in\n    tag_573:\n        /* \"#utility.yul\":28791:28930   */\n      swap1\n      pop\n        /* \"#utility.yul\":28518:28937   */\n      swap2\n      swap1\n      pop\n      jump\t// out\n        /* \"#utility.yul\":28943:29083   */\n    tag_334:\n        /* \"#utility.yul\":28992:29001   */\n      0x00\n        /* \"#utility.yul\":29025:29077   */\n      tag_575\n        /* \"#utility.yul\":29043:29076   */\n      tag_576\n        /* \"#utility.yul\":29052:29075   */\n      tag_577\n        /* \"#utility.yul\":29069:29074   */\n      dup5\n        /* \"#utility.yul\":29052:29075   */\n      tag_276\n      jump\t// in\n    tag_577:\n        /* \"#utility.yul\":29043:29076   */\n      tag_294\n      jump\t// in\n    tag_576:\n        /* \"#utility.yul\":29025:29077   */\n      tag_265\n      jump\t// in\n    tag_575:\n        /* \"#utility.yul\":29012:29077   */\n      swap1\n      pop\n        /* \"#utility.yul\":28943:29083   */\n      swap2\n      swap1\n      pop\n      jump\t// out\n        /* \"#utility.yul\":29089:29218   */\n    tag_335:\n        /* \"#utility.yul\":29175:29211   */\n      tag_579\n        /* \"#utility.yul\":29205:29210   */\n      dup2\n        /* \"#utility.yul\":29175:29211   */\n      tag_334\n      jump\t// in\n    tag_579:\n        /* \"#utility.yul\":29170:29173   */\n      dup3\n        /* \"#utility.yul\":29163:29212   */\n      mstore\n        /* \"#utility.yul\":29089:29218   */\n      pop\n      pop\n      jump\t// out\n        /* \"#utility.yul\":29224:29773   */\n    tag_207:\n        /* \"#utility.yul\":29399:29403   */\n      0x00\n        /* \"#utility.yul\":29437:29440   */\n      0x80\n        /* \"#utility.yul\":29426:29435   */\n      dup3\n        /* \"#utility.yul\":29422:29441   */\n      add\n        /* \"#utility.yul\":29414:29441   */\n      swap1\n      pop\n        /* \"#utility.yul\":29451:29522   */\n      tag_581\n        /* \"#utility.yul\":29519:29520   */\n      0x00\n        /* \"#utility.yul\":29508:29517   */\n      dup4\n        /* \"#utility.yul\":29504:29521   */\n      add\n        /* \"#utility.yul\":29495:29501   */\n      dup8\n        /* \"#utility.yul\":29451:29522   */\n      tag_306\n      jump\t// in\n    tag_581:\n        /* \"#utility.yul\":29532:29604   */\n      tag_582\n        /* \"#utility.yul\":29600:29602   */\n      0x20\n        /* \"#utility.yul\":29589:29598   */\n      dup4\n        /* \"#utility.yul\":29585:29603   */\n      add\n        /* \"#utility.yul\":29576:29582   */\n      dup7\n        /* \"#utility.yul\":29532:29604   */\n      tag_306\n      jump\t// in\n    tag_582:\n        /* \"#utility.yul\":29614:29685   */\n      tag_583\n        /* \"#utility.yul\":29681:29683   */\n      0x40\n        /* \"#utility.yul\":29670:29679   */\n      dup4\n        /* \"#utility.yul\":29666:29684   */\n      add\n        /* \"#utility.yul\":29657:29663   */\n      dup6\n        /* \"#utility.yul\":29614:29685   */\n      tag_335\n      jump\t// in\n    tag_583:\n        /* \"#utility.yul\":29695:29766   */\n      tag_584\n        /* \"#utility.yul\":29762:29764   */\n      0x60\n        /* \"#utility.yul\":29751:29760   */\n      dup4\n        /* \"#utility.yul\":29747:29765   */\n      add\n        /* \"#utility.yul\":29738:29744   */\n      dup5\n        /* \"#utility.yul\":29695:29766   */\n      tag_335\n      jump\t// in\n    tag_584:\n        /* \"#utility.yul\":29224:29773   */\n      swap6\n      swap5\n      pop\n      pop\n      pop\n      pop\n      pop\n      jump\t// out\n        /* \"#utility.yul\":29779:30004   */\n    tag_336:\n        /* \"#utility.yul\":29919:29953   */\n      0x4f776e61626c653a206e6577206f776e657220697320746865207a65726f2061\n        /* \"#utility.yul\":29915:29916   */\n      0x00\n        /* \"#utility.yul\":29907:29913   */\n      dup3\n        /* \"#utility.yul\":29903:29917   */\n      add\n        /* \"#utility.yul\":29896:29954   */\n      mstore\n        /* \"#utility.yul\":29988:29996   */\n      0x6464726573730000000000000000000000000000000000000000000000000000\n        /* \"#utility.yul\":29983:29985   */\n      0x20\n        /* \"#utility.yul\":29975:29981   */\n      dup3\n        /* \"#utility.yul\":29971:29986   */\n      add\n        /* \"#utility.yul\":29964:29997   */\n      mstore\n        /* \"#utility.yul\":29779:30004   */\n      pop\n      jump\t// out\n        /* \"#utility.yul\":30010:30376   */\n    tag_337:\n        /* \"#utility.yul\":30152:30155   */\n      0x00\n        /* \"#utility.yul\":30173:30240   */\n      tag_587\n        /* \"#utility.yul\":30237:30239   */\n      0x26\n        /* \"#utility.yul\":30232:30235   */\n      dup4\n        /* \"#utility.yul\":30173:30240   */\n      tag_299\n      jump\t// in\n    tag_587:\n        /* \"#utility.yul\":30166:30240   */\n      swap2\n      pop\n        /* \"#utility.yul\":30249:30342   */\n      tag_588\n        /* \"#utility.yul\":30338:30341   */\n      dup3\n        /* \"#utility.yul\":30249:30342   */\n      tag_336\n      jump\t// in\n    tag_588:\n        /* \"#utility.yul\":30367:30369   */\n      0x40\n        /* \"#utility.yul\":30362:30365   */\n      dup3\n        /* \"#utility.yul\":30358:30370   */\n      add\n        /* \"#utility.yul\":30351:30370   */\n      swap1\n      pop\n        /* \"#utility.yul\":30010:30376   */\n      swap2\n      swap1\n      pop\n      jump\t// out\n        /* \"#utility.yul\":30382:30801   */\n    tag_213:\n        /* \"#utility.yul\":30548:30552   */\n      0x00\n        /* \"#utility.yul\":30586:30588   */\n      0x20\n        /* \"#utility.yul\":30575:30584   */\n      dup3\n        /* \"#utility.yul\":30571:30589   */\n      add\n        /* \"#utility.yul\":30563:30589   */\n      swap1\n      pop\n        /* \"#utility.yul\":30635:30644   */\n      dup2\n        /* \"#utility.yul\":30629:30633   */\n      dup2\n        /* \"#utility.yul\":30625:30645   */\n      sub\n        /* \"#utility.yul\":30621:30622   */\n      0x00\n        /* \"#utility.yul\":30610:30619   */\n      dup4\n        /* \"#utility.yul\":30606:30623   */\n      add\n        /* \"#utility.yul\":30599:30646   */\n      mstore\n        /* \"#utility.yul\":30663:30794   */\n      tag_590\n        /* \"#utility.yul\":30789:30793   */\n      dup2\n        /* \"#utility.yul\":30663:30794   */\n      tag_337\n      jump\t// in\n    tag_590:\n        /* \"#utility.yul\":30655:30794   */\n      swap1\n      pop\n        /* \"#utility.yul\":30382:30801   */\n      swap2\n      swap1\n      pop\n      jump\t// out\n        /* \"#utility.yul\":30807:31249   */\n    tag_232:\n        /* \"#utility.yul\":30956:30960   */\n      0x00\n        /* \"#utility.yul\":30994:30996   */\n      0x60\n        /* \"#utility.yul\":30983:30992   */\n      dup3\n        /* \"#utility.yul\":30979:30997   */\n      add\n        /* \"#utility.yul\":30971:30997   */\n      swap1\n      pop\n        /* \"#utility.yul\":31007:31078   */\n      tag_592\n        /* \"#utility.yul\":31075:31076   */\n      0x00\n        /* \"#utility.yul\":31064:31073   */\n      dup4\n        /* \"#utility.yul\":31060:31077   */\n      add\n        /* \"#utility.yul\":31051:31057   */\n      dup7\n        /* \"#utility.yul\":31007:31078   */\n      tag_270\n      jump\t// in\n    tag_592:\n        /* \"#utility.yul\":31088:31160   */\n      tag_593\n        /* \"#utility.yul\":31156:31158   */\n      0x20\n        /* \"#utility.yul\":31145:31154   */\n      dup4\n        /* \"#utility.yul\":31141:31159   */\n      add\n        /* \"#utility.yul\":31132:31138   */\n      dup6\n        /* \"#utility.yul\":31088:31160   */\n      tag_270\n      jump\t// in\n    tag_593:\n        /* \"#utility.yul\":31170:31242   */\n      tag_594\n        /* \"#utility.yul\":31238:31240   */\n      0x40\n        /* \"#utility.yul\":31227:31236   */\n      dup4\n        /* \"#utility.yul\":31223:31241   */\n      add\n        /* \"#utility.yul\":31214:31220   */\n      dup5\n        /* \"#utility.yul\":31170:31242   */\n      tag_306\n      jump\t// in\n    tag_594:\n        /* \"#utility.yul\":30807:31249   */\n      swap5\n      swap4\n      pop\n      pop\n      pop\n      pop\n      jump\t// out\n        /* \"#utility.yul\":31255:31560   */\n    tag_241:\n        /* \"#utility.yul\":31295:31298   */\n      0x00\n        /* \"#utility.yul\":31314:31334   */\n      tag_596\n        /* \"#utility.yul\":31332:31333   */\n      dup3\n        /* \"#utility.yul\":31314:31334   */\n      tag_265\n      jump\t// in\n    tag_596:\n        /* \"#utility.yul\":31309:31334   */\n      swap2\n      pop\n        /* \"#utility.yul\":31348:31368   */\n      tag_597\n        /* \"#utility.yul\":31366:31367   */\n      dup4\n        /* \"#utility.yul\":31348:31368   */\n      tag_265\n      jump\t// in\n    tag_597:\n        /* \"#utility.yul\":31343:31368   */\n      swap3\n      pop\n        /* \"#utility.yul\":31502:31503   */\n      dup3\n        /* \"#utility.yul\":31434:31500   */\n      0xffffffffffffffffffffffffffffffffffffffffffffffffffffffffffffffff\n        /* \"#utility.yul\":31430:31504   */\n      sub\n        /* \"#utility.yul\":31427:31428   */\n      dup3\n        /* \"#utility.yul\":31424:31505   */\n      gt\n        /* \"#utility.yul\":31421:31528   */\n      iszero\n      tag_598\n      jumpi\n        /* \"#utility.yul\":31508:31526   */\n      tag_599\n      tag_313\n      jump\t// in\n    tag_599:\n        /* \"#utility.yul\":31421:31528   */\n    tag_598:\n        /* \"#utility.yul\":31552:31553   */\n      dup3\n        /* \"#utility.yul\":31549:31550   */\n      dup3\n        /* \"#utility.yul\":31545:31554   */\n      add\n        /* \"#utility.yul\":31538:31554   */\n      swap1\n      pop\n        /* \"#utility.yul\":31255:31560   */\n      swap3\n      swap2\n      pop\n      pop\n      jump\t// out\n        /* \"#utility.yul\":31566:31748   */\n    tag_338:\n        /* \"#utility.yul\":31706:31740   */\n      0x4f776e61626c653a2063616c6c6572206973206e6f7420746865206f776e6572\n        /* \"#utility.yul\":31702:31703   */\n      0x00\n        /* \"#utility.yul\":31694:31700   */\n      dup3\n        /* \"#utility.yul\":31690:31704   */\n      add\n        /* \"#utility.yul\":31683:31741   */\n      mstore\n        /* \"#utility.yul\":31566:31748   */\n      pop\n      jump\t// out\n        /* \"#utility.yul\":31754:32120   */\n    tag_339:\n        /* \"#utility.yul\":31896:31899   */\n      0x00\n        /* \"#utility.yul\":31917:31984   */\n      tag_602\n        /* \"#utility.yul\":31981:31983   */\n      0x20\n        /* \"#utility.yul\":31976:31979   */\n      dup4\n        /* \"#utility.yul\":31917:31984   */\n      tag_299\n      jump\t// in\n    tag_602:\n        /* \"#utility.yul\":31910:31984   */\n      swap2\n      pop\n        /* \"#utility.yul\":31993:32086   */\n      tag_603\n        /* \"#utility.yul\":32082:32085   */\n      dup3\n        /* \"#utility.yul\":31993:32086   */\n      tag_338\n      jump\t// in\n    tag_603:\n        /* \"#utility.yul\":32111:32113   */\n      0x20\n        /* \"#utility.yul\":32106:32109   */\n      dup3\n        /* \"#utility.yul\":32102:32114   */\n      add\n        /* \"#utility.yul\":32095:32114   */\n      swap1\n      pop\n        /* \"#utility.yul\":31754:32120   */\n      swap2\n      swap1\n      pop\n      jump\t// out\n        /* \"#utility.yul\":32126:32545   */\n    tag_250:\n        /* \"#utility.yul\":32292:32296   */\n      0x00\n        /* \"#utility.yul\":32330:32332   */\n      0x20\n        /* \"#utility.yul\":32319:32328   */\n      dup3\n        /* \"#utility.yul\":32315:32333   */\n      add\n        /* \"#utility.yul\":32307:32333   */\n      swap1\n      pop\n        /* \"#utility.yul\":32379:32388   */\n      dup2\n        /* \"#utility.yul\":32373:32377   */\n      dup2\n        /* \"#utility.yul\":32369:32389   */\n      sub\n        /* \"#utility.yul\":32365:32366   */\n      0x00\n        /* \"#utility.yul\":32354:32363   */\n      dup4\n        /* \"#utility.yul\":32350:32367   */\n      add\n        /* \"#utility.yul\":32343:32390   */\n      mstore\n        /* \"#utility.yul\":32407:32538   */\n      tag_605\n        /* \"#utility.yul\":32533:32537   */\n      dup2\n        /* \"#utility.yul\":32407:32538   */\n      tag_339\n      jump\t// in\n    tag_605:\n        /* \"#utility.yul\":32399:32538   */\n      swap1\n      pop\n        /* \"#utility.yul\":32126:32545   */\n      swap2\n      swap1\n      pop\n      jump\t// out\n\n    auxdata: 0xa2646970667358221220cf3b9b9604171213dbee98bbf538ead9efbfe0179080e2da650bff578e73ff2664736f6c634300080d0033\n}\n",
				"bytecode": {
					"linkReferences": {},
					"object": "60a06040523480156200001157600080fd5b5060405162003091380380620030918339818101604052810190620000379190620001c8565b620000576200004b6200009260201b60201c565b6200009a60201b60201c565b8073ffffffffffffffffffffffffffffffffffffffff1660808173ffffffffffffffffffffffffffffffffffffffff168152505050620001fa565b600033905090565b60008060009054906101000a900473ffffffffffffffffffffffffffffffffffffffff169050816000806101000a81548173ffffffffffffffffffffffffffffffffffffffff021916908373ffffffffffffffffffffffffffffffffffffffff1602179055508173ffffffffffffffffffffffffffffffffffffffff168173ffffffffffffffffffffffffffffffffffffffff167f8be0079c531659141344cd1fd0a4f28419497f9722a3daafe3b4186f6b6457e060405160405180910390a35050565b600080fd5b600073ffffffffffffffffffffffffffffffffffffffff82169050919050565b6000620001908262000163565b9050919050565b620001a28162000183565b8114620001ae57600080fd5b50565b600081519050620001c28162000197565b92915050565b600060208284031215620001e157620001e06200015e565b5b6000620001f184828501620001b1565b91505092915050565b608051612e5f62000232600039600081816103990152818161078b01528181610f140152818161170301526118d20152612e5f6000f3fe608060405234801561001057600080fd5b50600436106100cf5760003560e01c80638da5cb5b1161008c578063e491322411610066578063e4913224146101c2578063f2fde38b146101de578063fc0c546a146101fa578063fde327be14610218576100cf565b80638da5cb5b1461016a578063a6b0363314610188578063ad94a7d7146101a6576100cf565b806326b0739c146100d4578063278ecde1146100f057806340e58ee51461010c5780634854424e14610128578063711853ab14610144578063715018a614610160575b600080fd5b6100ee60048036038101906100e99190611d96565b610234565b005b61010a60048036038101906101059190611d96565b6104f8565b005b61012660048036038101906101219190611d96565b610934565b005b610142600480360381019061013d9190611dc3565b610cf6565b005b61015e60048036038101906101599190611dc3565b610cfa565b005b6101686110eb565b005b6101726110ff565b60405161017f9190611e44565b60405180910390f35b610190611128565b60405161019d91906120ed565b60405180910390f35b6101c060048036038101906101bb9190611d96565b61130c565b005b6101dc60048036038101906101d7919061213b565b61136c565b005b6101f860048036038101906101f391906121ba565b61167e565b005b610202611701565b60405161020f9190612246565b60405180910390f35b610232600480360381019061022d9190611dc3565b611725565b005b60006002828154811061024a57610249612261565b5b906000526020600020906007020190503373ffffffffffffffffffffffffffffffffffffffff168160010160009054906101000a900473ffffffffffffffffffffffffffffffffffffffff1673ffffffffffffffffffffffffffffffffffffffff16146102ec576040517f08c379a00000000000000000000000000000000000000000000000000000000081526004016102e390612313565b60405180910390fd5b8060060160019054906101000a900460ff1661033d576040517f08c379a0000000000000000000000000000000000000000000000000000000008152600401610334906123a5565b60405180910390fd5b600015158160060160009054906101000a900460ff16151514610395576040517f08c379a000000000000000000000000000000000000000000000000000000000815260040161038c90612437565b60405180910390fd5b60007f000000000000000000000000000000000000000000000000000000000000000073ffffffffffffffffffffffffffffffffffffffff1663a9059cbb3384600301546040518363ffffffff1660e01b81526004016103f6929190612466565b6020604051808303816000875af1158015610415573d6000803e3d6000fd5b505050506040513d601f19601f8201168201806040525081019061043991906124bb565b90508061047b576040517f08c379a00000000000000000000000000000000000000000000000000000000081526004016104729061255a565b60405180910390fd5b60008260060160016101000a81548160ff02191690831515021790555060018260060160006101000a81548160ff021916908315150217905550827f3ed1528b0fdc7c5207c1bf935e34a667e13656b9ed165260c522be0bc544f3033384600301546040516104eb929190612466565b60405180910390a2505050565b610500611b49565b60006002828154811061051657610515612261565b5b906000526020600020906007020160405180610120016040529081600082015481526020016001820160009054906101000a900473ffffffffffffffffffffffffffffffffffffffff1673ffffffffffffffffffffffffffffffffffffffff1673ffffffffffffffffffffffffffffffffffffffff16815260200160028201548152602001600382015481526020016004820160009054906101000a900463ffffffff1663ffffffff1663ffffffff1681526020016004820160049054906101000a900463ffffffff1663ffffffff1663ffffffff1681526020016005820180548060200260200160405190810160405280929190818152602001828054801561067557602002820191906000526020600020905b8160009054906101000a900473ffffffffffffffffffffffffffffffffffffffff1673ffffffffffffffffffffffffffffffffffffffff168152602001906001019080831161062b575b505050505081526020016006820160009054906101000a900460ff161515151581526020016006820160019054906101000a900460ff1615151515815250509050600015158160e00151151514610701576040517f08c379a00000000000000000000000000000000000000000000000000000000081526004016106f8906125ec565b60405180910390fd5b60005b8160c001515181101561092f5760008260c00151828151811061072a57610729612261565b5b6020026020010151905060006003600086815260200190815260200160002060008373ffffffffffffffffffffffffffffffffffffffff1673ffffffffffffffffffffffffffffffffffffffff1681526020019081526020016000205490507f000000000000000000000000000000000000000000000000000000000000000073ffffffffffffffffffffffffffffffffffffffff1663a9059cbb83836040518363ffffffff1660e01b81526004016107e4929190612466565b6020604051808303816000875af1158015610803573d6000803e3d6000fd5b505050506040513d601f19601f8201168201806040525081019061082791906124bb565b50806002868154811061083d5761083c612261565b5b9060005260206000209060070201600301600082825461085d919061263b565b92505081905550806003600087815260200190815260200160002060008473ffffffffffffffffffffffffffffffffffffffff1673ffffffffffffffffffffffffffffffffffffffff16815260200190815260200160002060008282546108c4919061263b565b925050819055508173ffffffffffffffffffffffffffffffffffffffff16857ffcd29b1632c6748a9a4bb9b4cd5c6486c3c84a8550dce2368f83fef3969d968583604051610912919061266f565b60405180910390a3505080806109279061268a565b915050610704565b505050565b60006002828154811061094a57610949612261565b5b906000526020600020906007020160405180610120016040529081600082015481526020016001820160009054906101000a900473ffffffffffffffffffffffffffffffffffffffff1673ffffffffffffffffffffffffffffffffffffffff1673ffffffffffffffffffffffffffffffffffffffff16815260200160028201548152602001600382015481526020016004820160009054906101000a900463ffffffff1663ffffffff1663ffffffff1681526020016004820160049054906101000a900463ffffffff1663ffffffff1663ffffffff16815260200160058201805480602002602001604051908101604052809291908181526020018280548015610aa957602002820191906000526020600020905b8160009054906101000a900473ffffffffffffffffffffffffffffffffffffffff1673ffffffffffffffffffffffffffffffffffffffff1681526020019060010190808311610a5f575b505050505081526020016006820160009054906101000a900460ff161515151581526020016006820160019054906101000a900460ff16151515158152505090503373ffffffffffffffffffffffffffffffffffffffff16816020015173ffffffffffffffffffffffffffffffffffffffff1614158015610b5d57503373ffffffffffffffffffffffffffffffffffffffff16610b446110ff565b73ffffffffffffffffffffffffffffffffffffffff1614155b15610b9d576040517f08c379a0000000000000000000000000000000000000000000000000000000008152600401610b9490612744565b60405180910390fd5b8060e0015180610bb257506000816060015111155b610bf1576040517f08c379a0000000000000000000000000000000000000000000000000000000008152600401610be8906127d6565b60405180910390fd5b60028281548110610c0557610c04612261565b5b90600052602060002090600702016000808201600090556001820160006101000a81549073ffffffffffffffffffffffffffffffffffffffff0219169055600282016000905560038201600090556004820160006101000a81549063ffffffff02191690556004820160046101000a81549063ffffffff0219169055600582016000610c919190611c93565b6006820160006101000a81549060ff02191690556006820160016101000a81549060ff021916905550507f8bf30e7ff26833413be5f69e1d373744864d600b664204b4a2f9844a8eedb9ed82604051610cea919061266f565b60405180910390a15050565b5050565b81600060028281548110610d1157610d10612261565b5b90600052602060002090600702019050428160040160009054906101000a900463ffffffff1663ffffffff161115610d7e576040517f08c379a0000000000000000000000000000000000000000000000000000000008152600401610d7590612842565b60405180910390fd5b428160040160049054906101000a900463ffffffff1663ffffffff161015610ddb576040517f08c379a0000000000000000000000000000000000000000000000000000000008152600401610dd2906128ae565b60405180910390fd5b8060020154816003015410610e25576040517f08c379a0000000000000000000000000000000000000000000000000000000008152600401610e1c90612940565b60405180910390fd5b600115158160060160019054906101000a900460ff16151514610e7d576040517f08c379a0000000000000000000000000000000000000000000000000000000008152600401610e74906129d2565b60405180910390fd5b826003600086815260200190815260200160002060003373ffffffffffffffffffffffffffffffffffffffff1673ffffffffffffffffffffffffffffffffffffffff168152602001908152602001600020541015610f10576040517f08c379a0000000000000000000000000000000000000000000000000000000008152600401610f0790612a3e565b60405180910390fd5b60007f000000000000000000000000000000000000000000000000000000000000000073ffffffffffffffffffffffffffffffffffffffff1663a9059cbb33866040518363ffffffff1660e01b8152600401610f6d929190612466565b6020604051808303816000875af1158015610f8c573d6000803e3d6000fd5b505050506040513d601f19601f82011682018060405250810190610fb091906124bb565b905080610ff2576040517f08c379a0000000000000000000000000000000000000000000000000000000008152600401610fe99061255a565b60405180910390fd5b836002868154811061100757611006612261565b5b90600052602060002090600702016003016000828254611027919061263b565b92505081905550836003600087815260200190815260200160002060003373ffffffffffffffffffffffffffffffffffffffff1673ffffffffffffffffffffffffffffffffffffffff168152602001908152602001600020600082825461108e919061263b565b925050819055503373ffffffffffffffffffffffffffffffffffffffff16857ffcd29b1632c6748a9a4bb9b4cd5c6486c3c84a8550dce2368f83fef3969d9685866040516110dc919061266f565b60405180910390a35050505050565b6110f3611b49565b6110fd6000611bc7565b565b60008060009054906101000a900473ffffffffffffffffffffffffffffffffffffffff16905090565b60606002805480602002602001604051908101604052809291908181526020016000905b82821015611303578382906000526020600020906007020160405180610120016040529081600082015481526020016001820160009054906101000a900473ffffffffffffffffffffffffffffffffffffffff1673ffffffffffffffffffffffffffffffffffffffff1673ffffffffffffffffffffffffffffffffffffffff16815260200160028201548152602001600382015481526020016004820160009054906101000a900463ffffffff1663ffffffff1663ffffffff1681526020016004820160049054906101000a900463ffffffff1663ffffffff1663ffffffff168152602001600582018054806020026020016040519081016040528092919081815260200182805480156112b557602002820191906000526020600020905b8160009054906101000a900473ffffffffffffffffffffffffffffffffffffffff1673ffffffffffffffffffffffffffffffffffffffff168152602001906001019080831161126b575b505050505081526020016006820160009054906101000a900460ff161515151581526020016006820160019054906101000a900460ff1615151515815250508152602001906001019061114c565b50505050905090565b611314611b49565b60006002828154811061132a57611329612261565b5b906000526020600020906007020190508060060160019054906101000a900460ff16158160060160016101000a81548160ff0219169083151502179055505050565b428263ffffffff16116113b4576040517f08c379a00000000000000000000000000000000000000000000000000000000081526004016113ab90612aaa565b60405180910390fd5b8163ffffffff168163ffffffff1611611402576040517f08c379a00000000000000000000000000000000000000000000000000000000081526004016113f990612b3c565b60405180910390fd5b6276a700826114119190612b5c565b63ffffffff168163ffffffff16111561145f576040517f08c379a000000000000000000000000000000000000000000000000000000000815260040161145690612c08565b60405180910390fd5b6060600260405180610120016040528060015481526020013373ffffffffffffffffffffffffffffffffffffffff168152602001868152602001600081526020018563ffffffff1681526020018463ffffffff1681526020018381526020016000151581526020016001151581525090806001815401808255809150506001900390600052602060002090600702016000909190919091506000820151816000015560208201518160010160006101000a81548173ffffffffffffffffffffffffffffffffffffffff021916908373ffffffffffffffffffffffffffffffffffffffff160217905550604082015181600201556060820151816003015560808201518160040160006101000a81548163ffffffff021916908363ffffffff16021790555060a08201518160040160046101000a81548163ffffffff021916908363ffffffff16021790555060c08201518160050190805190602001906115c6929190611cb4565b5060e08201518160060160006101000a81548160ff0219169083151502179055506101008201518160060160016101000a81548160ff02191690831515021790555050506001600081548092919061161d9061268a565b91905055503373ffffffffffffffffffffffffffffffffffffffff167f0f048c66111c8055b679ac16ac1f45c209334c7eb9bae25a2230d8299827a1fe6001548686866040516116709493929190612c59565b60405180910390a250505050565b611686611b49565b600073ffffffffffffffffffffffffffffffffffffffff168173ffffffffffffffffffffffffffffffffffffffff16036116f5576040517f08c379a00000000000000000000000000000000000000000000000000000000081526004016116ec90612d10565b60405180910390fd5b6116fe81611bc7565b50565b7f000000000000000000000000000000000000000000000000000000000000000081565b8160006002828154811061173c5761173b612261565b5b90600052602060002090600702019050428160040160009054906101000a900463ffffffff1663ffffffff1611156117a9576040517f08c379a00000000000000000000000000000000000000000000000000000000081526004016117a090612842565b60405180910390fd5b428160040160049054906101000a900463ffffffff1663ffffffff161015611806576040517f08c379a00000000000000000000000000000000000000000000000000000000081526004016117fd906128ae565b60405180910390fd5b8060020154816003015410611850576040517f08c379a000000000000000000000000000000000000000000000000000000000815260040161184790612940565b60405180910390fd5b600115158160060160019054906101000a900460ff161515146118a8576040517f08c379a000000000000000000000000000000000000000000000000000000000815260040161189f906129d2565b60405180910390fd5b6000600285815481106118be576118bd612261565b5b9060005260206000209060070201905060007f000000000000000000000000000000000000000000000000000000000000000073ffffffffffffffffffffffffffffffffffffffff166323b872dd3330886040518463ffffffff1660e01b815260040161192d93929190612d30565b6020604051808303816000875af115801561194c573d6000803e3d6000fd5b505050506040513d601f19601f8201168201806040525081019061197091906124bb565b9050806119b2576040517f08c379a00000000000000000000000000000000000000000000000000000000081526004016119a99061255a565b60405180910390fd5b60006003600088815260200190815260200160002060003373ffffffffffffffffffffffffffffffffffffffff1673ffffffffffffffffffffffffffffffffffffffff1681526020019081526020016000205403611a705781600501339080600181540180825580915050600190039060005260206000200160009091909190916101000a81548173ffffffffffffffffffffffffffffffffffffffff021916908373ffffffffffffffffffffffffffffffffffffffff1602179055505b84826003016000828254611a849190612d67565b92505081905550846003600088815260200190815260200160002060003373ffffffffffffffffffffffffffffffffffffffff1673ffffffffffffffffffffffffffffffffffffffff1681526020019081526020016000206000828254611aeb9190612d67565b925050819055503373ffffffffffffffffffffffffffffffffffffffff16867f2757ac6a40883f4491cc56930ae964df9034e343e660d5179eb01e198336756b87604051611b39919061266f565b60405180910390a3505050505050565b611b51611c8b565b73ffffffffffffffffffffffffffffffffffffffff16611b6f6110ff565b73ffffffffffffffffffffffffffffffffffffffff1614611bc5576040517f08c379a0000000000000000000000000000000000000000000000000000000008152600401611bbc90612e09565b60405180910390fd5b565b60008060009054906101000a900473ffffffffffffffffffffffffffffffffffffffff169050816000806101000a81548173ffffffffffffffffffffffffffffffffffffffff021916908373ffffffffffffffffffffffffffffffffffffffff1602179055508173ffffffffffffffffffffffffffffffffffffffff168173ffffffffffffffffffffffffffffffffffffffff167f8be0079c531659141344cd1fd0a4f28419497f9722a3daafe3b4186f6b6457e060405160405180910390a35050565b600033905090565b5080546000825590600052602060002090810190611cb19190611d3e565b50565b828054828255906000526020600020908101928215611d2d579160200282015b82811115611d2c5782518260006101000a81548173ffffffffffffffffffffffffffffffffffffffff021916908373ffffffffffffffffffffffffffffffffffffffff16021790555091602001919060010190611cd4565b5b509050611d3a9190611d3e565b5090565b5b80821115611d57576000816000905550600101611d3f565b5090565b600080fd5b6000819050919050565b611d7381611d60565b8114611d7e57600080fd5b50565b600081359050611d9081611d6a565b92915050565b600060208284031215611dac57611dab611d5b565b5b6000611dba84828501611d81565b91505092915050565b60008060408385031215611dda57611dd9611d5b565b5b6000611de885828601611d81565b9250506020611df985828601611d81565b9150509250929050565b600073ffffffffffffffffffffffffffffffffffffffff82169050919050565b6000611e2e82611e03565b9050919050565b611e3e81611e23565b82525050565b6000602082019050611e596000830184611e35565b92915050565b600081519050919050565b600082825260208201905092915050565b6000819050602082019050919050565b611e9481611d60565b82525050565b611ea381611e23565b82525050565b600063ffffffff82169050919050565b611ec281611ea9565b82525050565b600081519050919050565b600082825260208201905092915050565b6000819050602082019050919050565b6000611f008383611e9a565b60208301905092915050565b6000602082019050919050565b6000611f2482611ec8565b611f2e8185611ed3565b9350611f3983611ee4565b8060005b83811015611f6a578151611f518882611ef4565b9750611f5c83611f0c565b925050600181019050611f3d565b5085935050505092915050565b60008115159050919050565b611f8c81611f77565b82525050565b600061012083016000830151611fab6000860182611e8b565b506020830151611fbe6020860182611e9a565b506040830151611fd16040860182611e8b565b506060830151611fe46060860182611e8b565b506080830151611ff76080860182611eb9565b5060a083015161200a60a0860182611eb9565b5060c083015184820360c08601526120228282611f19565b91505060e083015161203760e0860182611f83565b5061010083015161204c610100860182611f83565b508091505092915050565b60006120638383611f92565b905092915050565b6000602082019050919050565b600061208382611e5f565b61208d8185611e6a565b93508360208202850161209f85611e7b565b8060005b858110156120db57848403895281516120bc8582612057565b94506120c78361206b565b925060208a019950506001810190506120a3565b50829750879550505050505092915050565b600060208201905081810360008301526121078184612078565b905092915050565b61211881611ea9565b811461212357600080fd5b50565b6000813590506121358161210f565b92915050565b60008060006060848603121561215457612153611d5b565b5b600061216286828701611d81565b935050602061217386828701612126565b925050604061218486828701612126565b9150509250925092565b61219781611e23565b81146121a257600080fd5b50565b6000813590506121b48161218e565b92915050565b6000602082840312156121d0576121cf611d5b565b5b60006121de848285016121a5565b91505092915050565b6000819050919050565b600061220c61220761220284611e03565b6121e7565b611e03565b9050919050565b600061221e826121f1565b9050919050565b600061223082612213565b9050919050565b61224081612225565b82525050565b600060208201905061225b6000830184612237565b92915050565b7f4e487b7100000000000000000000000000000000000000000000000000000000600052603260045260246000fd5b600082825260208201905092915050565b7f596f7520617265206e6f74207468652063726561746f72206f6620746869732060008201527f63616d706169676e000000000000000000000000000000000000000000000000602082015250565b60006122fd602883612290565b9150612308826122a1565b604082019050919050565b6000602082019050818103600083015261232c816122f0565b9050919050565b7f546869732063616d706169676e2773206f7065726174696f6e7320686173206260008201527f65656e2073746f70706564000000000000000000000000000000000000000000602082015250565b600061238f602b83612290565b915061239a82612333565b604082019050919050565b600060208201905081810360008301526123be81612382565b9050919050565b7f546f6b656e73206f6620746869732063616d706169676e20686173206265656e60008201527f20616c726561647920636c61696d656400000000000000000000000000000000602082015250565b6000612421603083612290565b915061242c826123c5565b604082019050919050565b6000602082019050818103600083015261245081612414565b9050919050565b61246081611d60565b82525050565b600060408201905061247b6000830185611e35565b6124886020830184612457565b9392505050565b61249881611f77565b81146124a357600080fd5b50565b6000815190506124b58161248f565b92915050565b6000602082840312156124d1576124d0611d5b565b5b60006124df848285016124a6565b91505092915050565b7f54686572652077617320612070726f626c656d2073656e64696e6720746f6b6560008201527f6e73000000000000000000000000000000000000000000000000000000000000602082015250565b6000612544602283612290565b915061254f826124e8565b604082019050919050565b6000602082019050818103600083015261257381612537565b9050919050565b7f546f6b656e7320666f7220746869732063616d706169676e206861732062656560008201527f6e20616c726561647920636c61696d6564000000000000000000000000000000602082015250565b60006125d6603183612290565b91506125e18261257a565b604082019050919050565b60006020820190508181036000830152612605816125c9565b9050919050565b7f4e487b7100000000000000000000000000000000000000000000000000000000600052601160045260246000fd5b600061264682611d60565b915061265183611d60565b9250828210156126645761266361260c565b5b828203905092915050565b60006020820190506126846000830184612457565b92915050565b600061269582611d60565b91507fffffffffffffffffffffffffffffffffffffffffffffffffffffffffffffffff82036126c7576126c661260c565b5b600182019050919050565b7f596f7520646f6e277420686176652074686520617574686f7269747920746f2060008201527f63616e63656c20746869732063616d706169676e000000000000000000000000602082015250565b600061272e603483612290565b9150612739826126d2565b604082019050919050565b6000602082019050818103600083015261275d81612721565b9050919050565b7f546865726520617265207374696c6c20736f6d6520746f6b656e7320706c656460008201527f67656420666f7220746869732063616d706169676e0000000000000000000000602082015250565b60006127c0603583612290565b91506127cb82612764565b604082019050919050565b600060208201905081810360008301526127ef816127b3565b9050919050565b7f43616d706169676e206e6f742073746172746564207965742100000000000000600082015250565b600061282c601983612290565b9150612837826127f6565b602082019050919050565b6000602082019050818103600083015261285b8161281f565b9050919050565b7f43616d706169676e2068617320656e6465640000000000000000000000000000600082015250565b6000612898601283612290565b91506128a382612862565b602082019050919050565b600060208201905081810360008301526128c78161288b565b9050919050565b7f43616d706169676e2068617320616c726561647920726561636865642074686560008201527f20676f616c000000000000000000000000000000000000000000000000000000602082015250565b600061292a602583612290565b9150612935826128ce565b604082019050919050565b600060208201905081810360008301526129598161291d565b9050919050565b7f43616d706169676e206f7065726174696f6e732061726520646561637469766160008201527f7465640000000000000000000000000000000000000000000000000000000000602082015250565b60006129bc602383612290565b91506129c782612960565b604082019050919050565b600060208201905081810360008301526129eb816129af565b9050919050565b7f496e73756666696369656e742046756e64730000000000000000000000000000600082015250565b6000612a28601283612290565b9150612a33826129f2565b602082019050919050565b60006020820190508181036000830152612a5781612a1b565b9050919050565b7f496e76616c6964206461746520746f2073746172740000000000000000000000600082015250565b6000612a94601583612290565b9150612a9f82612a5e565b602082019050919050565b60006020820190508181036000830152612ac381612a87565b9050919050565b7f43616d7061696e6720656e642064617465206d757374206265206c617465722060008201527f7468616e20737461727420646174650000000000000000000000000000000000602082015250565b6000612b26602f83612290565b9150612b3182612aca565b604082019050919050565b60006020820190508181036000830152612b5581612b19565b9050919050565b6000612b6782611ea9565b9150612b7283611ea9565b92508263ffffffff03821115612b8b57612b8a61260c565b5b828201905092915050565b7f43616d706169676e73206d757374206e6f74206c617374206d6f72652074686160008201527f6e20393020646179730000000000000000000000000000000000000000000000602082015250565b6000612bf2602983612290565b9150612bfd82612b96565b604082019050919050565b60006020820190508181036000830152612c2181612be5565b9050919050565b6000612c43612c3e612c3984611ea9565b6121e7565b611d60565b9050919050565b612c5381612c28565b82525050565b6000608082019050612c6e6000830187612457565b612c7b6020830186612457565b612c886040830185612c4a565b612c956060830184612c4a565b95945050505050565b7f4f776e61626c653a206e6577206f776e657220697320746865207a65726f206160008201527f6464726573730000000000000000000000000000000000000000000000000000602082015250565b6000612cfa602683612290565b9150612d0582612c9e565b604082019050919050565b60006020820190508181036000830152612d2981612ced565b9050919050565b6000606082019050612d456000830186611e35565b612d526020830185611e35565b612d5f6040830184612457565b949350505050565b6000612d7282611d60565b9150612d7d83611d60565b9250827fffffffffffffffffffffffffffffffffffffffffffffffffffffffffffffffff03821115612db257612db161260c565b5b828201905092915050565b7f4f776e61626c653a2063616c6c6572206973206e6f7420746865206f776e6572600082015250565b6000612df3602083612290565b9150612dfe82612dbd565b602082019050919050565b60006020820190508181036000830152612e2281612de6565b905091905056fea2646970667358221220cf3b9b9604171213dbee98bbf538ead9efbfe0179080e2da650bff578e73ff2664736f6c634300080d0033",
					"opcodes": "PUSH1 0xA0 PUSH1 0x40 MSTORE CALLVALUE DUP1 ISZERO PUSH3 0x11 JUMPI PUSH1 0x0 DUP1 REVERT JUMPDEST POP PUSH1 0x40 MLOAD PUSH3 0x3091 CODESIZE SUB DUP1 PUSH3 0x3091 DUP4 CODECOPY DUP2 DUP2 ADD PUSH1 0x40 MSTORE DUP2 ADD SWAP1 PUSH3 0x37 SWAP2 SWAP1 PUSH3 0x1C8 JUMP JUMPDEST PUSH3 0x57 PUSH3 0x4B PUSH3 0x92 PUSH1 0x20 SHL PUSH1 0x20 SHR JUMP JUMPDEST PUSH3 0x9A PUSH1 0x20 SHL PUSH1 0x20 SHR JUMP JUMPDEST DUP1 PUSH20 0xFFFFFFFFFFFFFFFFFFFFFFFFFFFFFFFFFFFFFFFF AND PUSH1 0x80 DUP2 PUSH20 0xFFFFFFFFFFFFFFFFFFFFFFFFFFFFFFFFFFFFFFFF AND DUP2 MSTORE POP POP POP PUSH3 0x1FA JUMP JUMPDEST PUSH1 0x0 CALLER SWAP1 POP SWAP1 JUMP JUMPDEST PUSH1 0x0 DUP1 PUSH1 0x0 SWAP1 SLOAD SWAP1 PUSH2 0x100 EXP SWAP1 DIV PUSH20 0xFFFFFFFFFFFFFFFFFFFFFFFFFFFFFFFFFFFFFFFF AND SWAP1 POP DUP2 PUSH1 0x0 DUP1 PUSH2 0x100 EXP DUP2 SLOAD DUP2 PUSH20 0xFFFFFFFFFFFFFFFFFFFFFFFFFFFFFFFFFFFFFFFF MUL NOT AND SWAP1 DUP4 PUSH20 0xFFFFFFFFFFFFFFFFFFFFFFFFFFFFFFFFFFFFFFFF AND MUL OR SWAP1 SSTORE POP DUP2 PUSH20 0xFFFFFFFFFFFFFFFFFFFFFFFFFFFFFFFFFFFFFFFF AND DUP2 PUSH20 0xFFFFFFFFFFFFFFFFFFFFFFFFFFFFFFFFFFFFFFFF AND PUSH32 0x8BE0079C531659141344CD1FD0A4F28419497F9722A3DAAFE3B4186F6B6457E0 PUSH1 0x40 MLOAD PUSH1 0x40 MLOAD DUP1 SWAP2 SUB SWAP1 LOG3 POP POP JUMP JUMPDEST PUSH1 0x0 DUP1 REVERT JUMPDEST PUSH1 0x0 PUSH20 0xFFFFFFFFFFFFFFFFFFFFFFFFFFFFFFFFFFFFFFFF DUP3 AND SWAP1 POP SWAP2 SWAP1 POP JUMP JUMPDEST PUSH1 0x0 PUSH3 0x190 DUP3 PUSH3 0x163 JUMP JUMPDEST SWAP1 POP SWAP2 SWAP1 POP JUMP JUMPDEST PUSH3 0x1A2 DUP2 PUSH3 0x183 JUMP JUMPDEST DUP2 EQ PUSH3 0x1AE JUMPI PUSH1 0x0 DUP1 REVERT JUMPDEST POP JUMP JUMPDEST PUSH1 0x0 DUP2 MLOAD SWAP1 POP PUSH3 0x1C2 DUP2 PUSH3 0x197 JUMP JUMPDEST SWAP3 SWAP2 POP POP JUMP JUMPDEST PUSH1 0x0 PUSH1 0x20 DUP3 DUP5 SUB SLT ISZERO PUSH3 0x1E1 JUMPI PUSH3 0x1E0 PUSH3 0x15E JUMP JUMPDEST JUMPDEST PUSH1 0x0 PUSH3 0x1F1 DUP5 DUP3 DUP6 ADD PUSH3 0x1B1 JUMP JUMPDEST SWAP2 POP POP SWAP3 SWAP2 POP POP JUMP JUMPDEST PUSH1 0x80 MLOAD PUSH2 0x2E5F PUSH3 0x232 PUSH1 0x0 CODECOPY PUSH1 0x0 DUP2 DUP2 PUSH2 0x399 ADD MSTORE DUP2 DUP2 PUSH2 0x78B ADD MSTORE DUP2 DUP2 PUSH2 0xF14 ADD MSTORE DUP2 DUP2 PUSH2 0x1703 ADD MSTORE PUSH2 0x18D2 ADD MSTORE PUSH2 0x2E5F PUSH1 0x0 RETURN INVALID PUSH1 0x80 PUSH1 0x40 MSTORE CALLVALUE DUP1 ISZERO PUSH2 0x10 JUMPI PUSH1 0x0 DUP1 REVERT JUMPDEST POP PUSH1 0x4 CALLDATASIZE LT PUSH2 0xCF JUMPI PUSH1 0x0 CALLDATALOAD PUSH1 0xE0 SHR DUP1 PUSH4 0x8DA5CB5B GT PUSH2 0x8C JUMPI DUP1 PUSH4 0xE4913224 GT PUSH2 0x66 JUMPI DUP1 PUSH4 0xE4913224 EQ PUSH2 0x1C2 JUMPI DUP1 PUSH4 0xF2FDE38B EQ PUSH2 0x1DE JUMPI DUP1 PUSH4 0xFC0C546A EQ PUSH2 0x1FA JUMPI DUP1 PUSH4 0xFDE327BE EQ PUSH2 0x218 JUMPI PUSH2 0xCF JUMP JUMPDEST DUP1 PUSH4 0x8DA5CB5B EQ PUSH2 0x16A JUMPI DUP1 PUSH4 0xA6B03633 EQ PUSH2 0x188 JUMPI DUP1 PUSH4 0xAD94A7D7 EQ PUSH2 0x1A6 JUMPI PUSH2 0xCF JUMP JUMPDEST DUP1 PUSH4 0x26B0739C EQ PUSH2 0xD4 JUMPI DUP1 PUSH4 0x278ECDE1 EQ PUSH2 0xF0 JUMPI DUP1 PUSH4 0x40E58EE5 EQ PUSH2 0x10C JUMPI DUP1 PUSH4 0x4854424E EQ PUSH2 0x128 JUMPI DUP1 PUSH4 0x711853AB EQ PUSH2 0x144 JUMPI DUP1 PUSH4 0x715018A6 EQ PUSH2 0x160 JUMPI JUMPDEST PUSH1 0x0 DUP1 REVERT JUMPDEST PUSH2 0xEE PUSH1 0x4 DUP1 CALLDATASIZE SUB DUP2 ADD SWAP1 PUSH2 0xE9 SWAP2 SWAP1 PUSH2 0x1D96 JUMP JUMPDEST PUSH2 0x234 JUMP JUMPDEST STOP JUMPDEST PUSH2 0x10A PUSH1 0x4 DUP1 CALLDATASIZE SUB DUP2 ADD SWAP1 PUSH2 0x105 SWAP2 SWAP1 PUSH2 0x1D96 JUMP JUMPDEST PUSH2 0x4F8 JUMP JUMPDEST STOP JUMPDEST PUSH2 0x126 PUSH1 0x4 DUP1 CALLDATASIZE SUB DUP2 ADD SWAP1 PUSH2 0x121 SWAP2 SWAP1 PUSH2 0x1D96 JUMP JUMPDEST PUSH2 0x934 JUMP JUMPDEST STOP JUMPDEST PUSH2 0x142 PUSH1 0x4 DUP1 CALLDATASIZE SUB DUP2 ADD SWAP1 PUSH2 0x13D SWAP2 SWAP1 PUSH2 0x1DC3 JUMP JUMPDEST PUSH2 0xCF6 JUMP JUMPDEST STOP JUMPDEST PUSH2 0x15E PUSH1 0x4 DUP1 CALLDATASIZE SUB DUP2 ADD SWAP1 PUSH2 0x159 SWAP2 SWAP1 PUSH2 0x1DC3 JUMP JUMPDEST PUSH2 0xCFA JUMP JUMPDEST STOP JUMPDEST PUSH2 0x168 PUSH2 0x10EB JUMP JUMPDEST STOP JUMPDEST PUSH2 0x172 PUSH2 0x10FF JUMP JUMPDEST PUSH1 0x40 MLOAD PUSH2 0x17F SWAP2 SWAP1 PUSH2 0x1E44 JUMP JUMPDEST PUSH1 0x40 MLOAD DUP1 SWAP2 SUB SWAP1 RETURN JUMPDEST PUSH2 0x190 PUSH2 0x1128 JUMP JUMPDEST PUSH1 0x40 MLOAD PUSH2 0x19D SWAP2 SWAP1 PUSH2 0x20ED JUMP JUMPDEST PUSH1 0x40 MLOAD DUP1 SWAP2 SUB SWAP1 RETURN JUMPDEST PUSH2 0x1C0 PUSH1 0x4 DUP1 CALLDATASIZE SUB DUP2 ADD SWAP1 PUSH2 0x1BB SWAP2 SWAP1 PUSH2 0x1D96 JUMP JUMPDEST PUSH2 0x130C JUMP JUMPDEST STOP JUMPDEST PUSH2 0x1DC PUSH1 0x4 DUP1 CALLDATASIZE SUB DUP2 ADD SWAP1 PUSH2 0x1D7 SWAP2 SWAP1 PUSH2 0x213B JUMP JUMPDEST PUSH2 0x136C JUMP JUMPDEST STOP JUMPDEST PUSH2 0x1F8 PUSH1 0x4 DUP1 CALLDATASIZE SUB DUP2 ADD SWAP1 PUSH2 0x1F3 SWAP2 SWAP1 PUSH2 0x21BA JUMP JUMPDEST PUSH2 0x167E JUMP JUMPDEST STOP JUMPDEST PUSH2 0x202 PUSH2 0x1701 JUMP JUMPDEST PUSH1 0x40 MLOAD PUSH2 0x20F SWAP2 SWAP1 PUSH2 0x2246 JUMP JUMPDEST PUSH1 0x40 MLOAD DUP1 SWAP2 SUB SWAP1 RETURN JUMPDEST PUSH2 0x232 PUSH1 0x4 DUP1 CALLDATASIZE SUB DUP2 ADD SWAP1 PUSH2 0x22D SWAP2 SWAP1 PUSH2 0x1DC3 JUMP JUMPDEST PUSH2 0x1725 JUMP JUMPDEST STOP JUMPDEST PUSH1 0x0 PUSH1 0x2 DUP3 DUP2 SLOAD DUP2 LT PUSH2 0x24A JUMPI PUSH2 0x249 PUSH2 0x2261 JUMP JUMPDEST JUMPDEST SWAP1 PUSH1 0x0 MSTORE PUSH1 0x20 PUSH1 0x0 KECCAK256 SWAP1 PUSH1 0x7 MUL ADD SWAP1 POP CALLER PUSH20 0xFFFFFFFFFFFFFFFFFFFFFFFFFFFFFFFFFFFFFFFF AND DUP2 PUSH1 0x1 ADD PUSH1 0x0 SWAP1 SLOAD SWAP1 PUSH2 0x100 EXP SWAP1 DIV PUSH20 0xFFFFFFFFFFFFFFFFFFFFFFFFFFFFFFFFFFFFFFFF AND PUSH20 0xFFFFFFFFFFFFFFFFFFFFFFFFFFFFFFFFFFFFFFFF AND EQ PUSH2 0x2EC JUMPI PUSH1 0x40 MLOAD PUSH32 0x8C379A000000000000000000000000000000000000000000000000000000000 DUP2 MSTORE PUSH1 0x4 ADD PUSH2 0x2E3 SWAP1 PUSH2 0x2313 JUMP JUMPDEST PUSH1 0x40 MLOAD DUP1 SWAP2 SUB SWAP1 REVERT JUMPDEST DUP1 PUSH1 0x6 ADD PUSH1 0x1 SWAP1 SLOAD SWAP1 PUSH2 0x100 EXP SWAP1 DIV PUSH1 0xFF AND PUSH2 0x33D JUMPI PUSH1 0x40 MLOAD PUSH32 0x8C379A000000000000000000000000000000000000000000000000000000000 DUP2 MSTORE PUSH1 0x4 ADD PUSH2 0x334 SWAP1 PUSH2 0x23A5 JUMP JUMPDEST PUSH1 0x40 MLOAD DUP1 SWAP2 SUB SWAP1 REVERT JUMPDEST PUSH1 0x0 ISZERO ISZERO DUP2 PUSH1 0x6 ADD PUSH1 0x0 SWAP1 SLOAD SWAP1 PUSH2 0x100 EXP SWAP1 DIV PUSH1 0xFF AND ISZERO ISZERO EQ PUSH2 0x395 JUMPI PUSH1 0x40 MLOAD PUSH32 0x8C379A000000000000000000000000000000000000000000000000000000000 DUP2 MSTORE PUSH1 0x4 ADD PUSH2 0x38C SWAP1 PUSH2 0x2437 JUMP JUMPDEST PUSH1 0x40 MLOAD DUP1 SWAP2 SUB SWAP1 REVERT JUMPDEST PUSH1 0x0 PUSH32 0x0 PUSH20 0xFFFFFFFFFFFFFFFFFFFFFFFFFFFFFFFFFFFFFFFF AND PUSH4 0xA9059CBB CALLER DUP5 PUSH1 0x3 ADD SLOAD PUSH1 0x40 MLOAD DUP4 PUSH4 0xFFFFFFFF AND PUSH1 0xE0 SHL DUP2 MSTORE PUSH1 0x4 ADD PUSH2 0x3F6 SWAP3 SWAP2 SWAP1 PUSH2 0x2466 JUMP JUMPDEST PUSH1 0x20 PUSH1 0x40 MLOAD DUP1 DUP4 SUB DUP2 PUSH1 0x0 DUP8 GAS CALL ISZERO DUP1 ISZERO PUSH2 0x415 JUMPI RETURNDATASIZE PUSH1 0x0 DUP1 RETURNDATACOPY RETURNDATASIZE PUSH1 0x0 REVERT JUMPDEST POP POP POP POP PUSH1 0x40 MLOAD RETURNDATASIZE PUSH1 0x1F NOT PUSH1 0x1F DUP3 ADD AND DUP3 ADD DUP1 PUSH1 0x40 MSTORE POP DUP2 ADD SWAP1 PUSH2 0x439 SWAP2 SWAP1 PUSH2 0x24BB JUMP JUMPDEST SWAP1 POP DUP1 PUSH2 0x47B JUMPI PUSH1 0x40 MLOAD PUSH32 0x8C379A000000000000000000000000000000000000000000000000000000000 DUP2 MSTORE PUSH1 0x4 ADD PUSH2 0x472 SWAP1 PUSH2 0x255A JUMP JUMPDEST PUSH1 0x40 MLOAD DUP1 SWAP2 SUB SWAP1 REVERT JUMPDEST PUSH1 0x0 DUP3 PUSH1 0x6 ADD PUSH1 0x1 PUSH2 0x100 EXP DUP2 SLOAD DUP2 PUSH1 0xFF MUL NOT AND SWAP1 DUP4 ISZERO ISZERO MUL OR SWAP1 SSTORE POP PUSH1 0x1 DUP3 PUSH1 0x6 ADD PUSH1 0x0 PUSH2 0x100 EXP DUP2 SLOAD DUP2 PUSH1 0xFF MUL NOT AND SWAP1 DUP4 ISZERO ISZERO MUL OR SWAP1 SSTORE POP DUP3 PUSH32 0x3ED1528B0FDC7C5207C1BF935E34A667E13656B9ED165260C522BE0BC544F303 CALLER DUP5 PUSH1 0x3 ADD SLOAD PUSH1 0x40 MLOAD PUSH2 0x4EB SWAP3 SWAP2 SWAP1 PUSH2 0x2466 JUMP JUMPDEST PUSH1 0x40 MLOAD DUP1 SWAP2 SUB SWAP1 LOG2 POP POP POP JUMP JUMPDEST PUSH2 0x500 PUSH2 0x1B49 JUMP JUMPDEST PUSH1 0x0 PUSH1 0x2 DUP3 DUP2 SLOAD DUP2 LT PUSH2 0x516 JUMPI PUSH2 0x515 PUSH2 0x2261 JUMP JUMPDEST JUMPDEST SWAP1 PUSH1 0x0 MSTORE PUSH1 0x20 PUSH1 0x0 KECCAK256 SWAP1 PUSH1 0x7 MUL ADD PUSH1 0x40 MLOAD DUP1 PUSH2 0x120 ADD PUSH1 0x40 MSTORE SWAP1 DUP2 PUSH1 0x0 DUP3 ADD SLOAD DUP2 MSTORE PUSH1 0x20 ADD PUSH1 0x1 DUP3 ADD PUSH1 0x0 SWAP1 SLOAD SWAP1 PUSH2 0x100 EXP SWAP1 DIV PUSH20 0xFFFFFFFFFFFFFFFFFFFFFFFFFFFFFFFFFFFFFFFF AND PUSH20 0xFFFFFFFFFFFFFFFFFFFFFFFFFFFFFFFFFFFFFFFF AND PUSH20 0xFFFFFFFFFFFFFFFFFFFFFFFFFFFFFFFFFFFFFFFF AND DUP2 MSTORE PUSH1 0x20 ADD PUSH1 0x2 DUP3 ADD SLOAD DUP2 MSTORE PUSH1 0x20 ADD PUSH1 0x3 DUP3 ADD SLOAD DUP2 MSTORE PUSH1 0x20 ADD PUSH1 0x4 DUP3 ADD PUSH1 0x0 SWAP1 SLOAD SWAP1 PUSH2 0x100 EXP SWAP1 DIV PUSH4 0xFFFFFFFF AND PUSH4 0xFFFFFFFF AND PUSH4 0xFFFFFFFF AND DUP2 MSTORE PUSH1 0x20 ADD PUSH1 0x4 DUP3 ADD PUSH1 0x4 SWAP1 SLOAD SWAP1 PUSH2 0x100 EXP SWAP1 DIV PUSH4 0xFFFFFFFF AND PUSH4 0xFFFFFFFF AND PUSH4 0xFFFFFFFF AND DUP2 MSTORE PUSH1 0x20 ADD PUSH1 0x5 DUP3 ADD DUP1 SLOAD DUP1 PUSH1 0x20 MUL PUSH1 0x20 ADD PUSH1 0x40 MLOAD SWAP1 DUP2 ADD PUSH1 0x40 MSTORE DUP1 SWAP3 SWAP2 SWAP1 DUP2 DUP2 MSTORE PUSH1 0x20 ADD DUP3 DUP1 SLOAD DUP1 ISZERO PUSH2 0x675 JUMPI PUSH1 0x20 MUL DUP3 ADD SWAP2 SWAP1 PUSH1 0x0 MSTORE PUSH1 0x20 PUSH1 0x0 KECCAK256 SWAP1 JUMPDEST DUP2 PUSH1 0x0 SWAP1 SLOAD SWAP1 PUSH2 0x100 EXP SWAP1 DIV PUSH20 0xFFFFFFFFFFFFFFFFFFFFFFFFFFFFFFFFFFFFFFFF AND PUSH20 0xFFFFFFFFFFFFFFFFFFFFFFFFFFFFFFFFFFFFFFFF AND DUP2 MSTORE PUSH1 0x20 ADD SWAP1 PUSH1 0x1 ADD SWAP1 DUP1 DUP4 GT PUSH2 0x62B JUMPI JUMPDEST POP POP POP POP POP DUP2 MSTORE PUSH1 0x20 ADD PUSH1 0x6 DUP3 ADD PUSH1 0x0 SWAP1 SLOAD SWAP1 PUSH2 0x100 EXP SWAP1 DIV PUSH1 0xFF AND ISZERO ISZERO ISZERO ISZERO DUP2 MSTORE PUSH1 0x20 ADD PUSH1 0x6 DUP3 ADD PUSH1 0x1 SWAP1 SLOAD SWAP1 PUSH2 0x100 EXP SWAP1 DIV PUSH1 0xFF AND ISZERO ISZERO ISZERO ISZERO DUP2 MSTORE POP POP SWAP1 POP PUSH1 0x0 ISZERO ISZERO DUP2 PUSH1 0xE0 ADD MLOAD ISZERO ISZERO EQ PUSH2 0x701 JUMPI PUSH1 0x40 MLOAD PUSH32 0x8C379A000000000000000000000000000000000000000000000000000000000 DUP2 MSTORE PUSH1 0x4 ADD PUSH2 0x6F8 SWAP1 PUSH2 0x25EC JUMP JUMPDEST PUSH1 0x40 MLOAD DUP1 SWAP2 SUB SWAP1 REVERT JUMPDEST PUSH1 0x0 JUMPDEST DUP2 PUSH1 0xC0 ADD MLOAD MLOAD DUP2 LT ISZERO PUSH2 0x92F JUMPI PUSH1 0x0 DUP3 PUSH1 0xC0 ADD MLOAD DUP3 DUP2 MLOAD DUP2 LT PUSH2 0x72A JUMPI PUSH2 0x729 PUSH2 0x2261 JUMP JUMPDEST JUMPDEST PUSH1 0x20 MUL PUSH1 0x20 ADD ADD MLOAD SWAP1 POP PUSH1 0x0 PUSH1 0x3 PUSH1 0x0 DUP7 DUP2 MSTORE PUSH1 0x20 ADD SWAP1 DUP2 MSTORE PUSH1 0x20 ADD PUSH1 0x0 KECCAK256 PUSH1 0x0 DUP4 PUSH20 0xFFFFFFFFFFFFFFFFFFFFFFFFFFFFFFFFFFFFFFFF AND PUSH20 0xFFFFFFFFFFFFFFFFFFFFFFFFFFFFFFFFFFFFFFFF AND DUP2 MSTORE PUSH1 0x20 ADD SWAP1 DUP2 MSTORE PUSH1 0x20 ADD PUSH1 0x0 KECCAK256 SLOAD SWAP1 POP PUSH32 0x0 PUSH20 0xFFFFFFFFFFFFFFFFFFFFFFFFFFFFFFFFFFFFFFFF AND PUSH4 0xA9059CBB DUP4 DUP4 PUSH1 0x40 MLOAD DUP4 PUSH4 0xFFFFFFFF AND PUSH1 0xE0 SHL DUP2 MSTORE PUSH1 0x4 ADD PUSH2 0x7E4 SWAP3 SWAP2 SWAP1 PUSH2 0x2466 JUMP JUMPDEST PUSH1 0x20 PUSH1 0x40 MLOAD DUP1 DUP4 SUB DUP2 PUSH1 0x0 DUP8 GAS CALL ISZERO DUP1 ISZERO PUSH2 0x803 JUMPI RETURNDATASIZE PUSH1 0x0 DUP1 RETURNDATACOPY RETURNDATASIZE PUSH1 0x0 REVERT JUMPDEST POP POP POP POP PUSH1 0x40 MLOAD RETURNDATASIZE PUSH1 0x1F NOT PUSH1 0x1F DUP3 ADD AND DUP3 ADD DUP1 PUSH1 0x40 MSTORE POP DUP2 ADD SWAP1 PUSH2 0x827 SWAP2 SWAP1 PUSH2 0x24BB JUMP JUMPDEST POP DUP1 PUSH1 0x2 DUP7 DUP2 SLOAD DUP2 LT PUSH2 0x83D JUMPI PUSH2 0x83C PUSH2 0x2261 JUMP JUMPDEST JUMPDEST SWAP1 PUSH1 0x0 MSTORE PUSH1 0x20 PUSH1 0x0 KECCAK256 SWAP1 PUSH1 0x7 MUL ADD PUSH1 0x3 ADD PUSH1 0x0 DUP3 DUP3 SLOAD PUSH2 0x85D SWAP2 SWAP1 PUSH2 0x263B JUMP JUMPDEST SWAP3 POP POP DUP2 SWAP1 SSTORE POP DUP1 PUSH1 0x3 PUSH1 0x0 DUP8 DUP2 MSTORE PUSH1 0x20 ADD SWAP1 DUP2 MSTORE PUSH1 0x20 ADD PUSH1 0x0 KECCAK256 PUSH1 0x0 DUP5 PUSH20 0xFFFFFFFFFFFFFFFFFFFFFFFFFFFFFFFFFFFFFFFF AND PUSH20 0xFFFFFFFFFFFFFFFFFFFFFFFFFFFFFFFFFFFFFFFF AND DUP2 MSTORE PUSH1 0x20 ADD SWAP1 DUP2 MSTORE PUSH1 0x20 ADD PUSH1 0x0 KECCAK256 PUSH1 0x0 DUP3 DUP3 SLOAD PUSH2 0x8C4 SWAP2 SWAP1 PUSH2 0x263B JUMP JUMPDEST SWAP3 POP POP DUP2 SWAP1 SSTORE POP DUP2 PUSH20 0xFFFFFFFFFFFFFFFFFFFFFFFFFFFFFFFFFFFFFFFF AND DUP6 PUSH32 0xFCD29B1632C6748A9A4BB9B4CD5C6486C3C84A8550DCE2368F83FEF3969D9685 DUP4 PUSH1 0x40 MLOAD PUSH2 0x912 SWAP2 SWAP1 PUSH2 0x266F JUMP JUMPDEST PUSH1 0x40 MLOAD DUP1 SWAP2 SUB SWAP1 LOG3 POP POP DUP1 DUP1 PUSH2 0x927 SWAP1 PUSH2 0x268A JUMP JUMPDEST SWAP2 POP POP PUSH2 0x704 JUMP JUMPDEST POP POP POP JUMP JUMPDEST PUSH1 0x0 PUSH1 0x2 DUP3 DUP2 SLOAD DUP2 LT PUSH2 0x94A JUMPI PUSH2 0x949 PUSH2 0x2261 JUMP JUMPDEST JUMPDEST SWAP1 PUSH1 0x0 MSTORE PUSH1 0x20 PUSH1 0x0 KECCAK256 SWAP1 PUSH1 0x7 MUL ADD PUSH1 0x40 MLOAD DUP1 PUSH2 0x120 ADD PUSH1 0x40 MSTORE SWAP1 DUP2 PUSH1 0x0 DUP3 ADD SLOAD DUP2 MSTORE PUSH1 0x20 ADD PUSH1 0x1 DUP3 ADD PUSH1 0x0 SWAP1 SLOAD SWAP1 PUSH2 0x100 EXP SWAP1 DIV PUSH20 0xFFFFFFFFFFFFFFFFFFFFFFFFFFFFFFFFFFFFFFFF AND PUSH20 0xFFFFFFFFFFFFFFFFFFFFFFFFFFFFFFFFFFFFFFFF AND PUSH20 0xFFFFFFFFFFFFFFFFFFFFFFFFFFFFFFFFFFFFFFFF AND DUP2 MSTORE PUSH1 0x20 ADD PUSH1 0x2 DUP3 ADD SLOAD DUP2 MSTORE PUSH1 0x20 ADD PUSH1 0x3 DUP3 ADD SLOAD DUP2 MSTORE PUSH1 0x20 ADD PUSH1 0x4 DUP3 ADD PUSH1 0x0 SWAP1 SLOAD SWAP1 PUSH2 0x100 EXP SWAP1 DIV PUSH4 0xFFFFFFFF AND PUSH4 0xFFFFFFFF AND PUSH4 0xFFFFFFFF AND DUP2 MSTORE PUSH1 0x20 ADD PUSH1 0x4 DUP3 ADD PUSH1 0x4 SWAP1 SLOAD SWAP1 PUSH2 0x100 EXP SWAP1 DIV PUSH4 0xFFFFFFFF AND PUSH4 0xFFFFFFFF AND PUSH4 0xFFFFFFFF AND DUP2 MSTORE PUSH1 0x20 ADD PUSH1 0x5 DUP3 ADD DUP1 SLOAD DUP1 PUSH1 0x20 MUL PUSH1 0x20 ADD PUSH1 0x40 MLOAD SWAP1 DUP2 ADD PUSH1 0x40 MSTORE DUP1 SWAP3 SWAP2 SWAP1 DUP2 DUP2 MSTORE PUSH1 0x20 ADD DUP3 DUP1 SLOAD DUP1 ISZERO PUSH2 0xAA9 JUMPI PUSH1 0x20 MUL DUP3 ADD SWAP2 SWAP1 PUSH1 0x0 MSTORE PUSH1 0x20 PUSH1 0x0 KECCAK256 SWAP1 JUMPDEST DUP2 PUSH1 0x0 SWAP1 SLOAD SWAP1 PUSH2 0x100 EXP SWAP1 DIV PUSH20 0xFFFFFFFFFFFFFFFFFFFFFFFFFFFFFFFFFFFFFFFF AND PUSH20 0xFFFFFFFFFFFFFFFFFFFFFFFFFFFFFFFFFFFFFFFF AND DUP2 MSTORE PUSH1 0x20 ADD SWAP1 PUSH1 0x1 ADD SWAP1 DUP1 DUP4 GT PUSH2 0xA5F JUMPI JUMPDEST POP POP POP POP POP DUP2 MSTORE PUSH1 0x20 ADD PUSH1 0x6 DUP3 ADD PUSH1 0x0 SWAP1 SLOAD SWAP1 PUSH2 0x100 EXP SWAP1 DIV PUSH1 0xFF AND ISZERO ISZERO ISZERO ISZERO DUP2 MSTORE PUSH1 0x20 ADD PUSH1 0x6 DUP3 ADD PUSH1 0x1 SWAP1 SLOAD SWAP1 PUSH2 0x100 EXP SWAP1 DIV PUSH1 0xFF AND ISZERO ISZERO ISZERO ISZERO DUP2 MSTORE POP POP SWAP1 POP CALLER PUSH20 0xFFFFFFFFFFFFFFFFFFFFFFFFFFFFFFFFFFFFFFFF AND DUP2 PUSH1 0x20 ADD MLOAD PUSH20 0xFFFFFFFFFFFFFFFFFFFFFFFFFFFFFFFFFFFFFFFF AND EQ ISZERO DUP1 ISZERO PUSH2 0xB5D JUMPI POP CALLER PUSH20 0xFFFFFFFFFFFFFFFFFFFFFFFFFFFFFFFFFFFFFFFF AND PUSH2 0xB44 PUSH2 0x10FF JUMP JUMPDEST PUSH20 0xFFFFFFFFFFFFFFFFFFFFFFFFFFFFFFFFFFFFFFFF AND EQ ISZERO JUMPDEST ISZERO PUSH2 0xB9D JUMPI PUSH1 0x40 MLOAD PUSH32 0x8C379A000000000000000000000000000000000000000000000000000000000 DUP2 MSTORE PUSH1 0x4 ADD PUSH2 0xB94 SWAP1 PUSH2 0x2744 JUMP JUMPDEST PUSH1 0x40 MLOAD DUP1 SWAP2 SUB SWAP1 REVERT JUMPDEST DUP1 PUSH1 0xE0 ADD MLOAD DUP1 PUSH2 0xBB2 JUMPI POP PUSH1 0x0 DUP2 PUSH1 0x60 ADD MLOAD GT ISZERO JUMPDEST PUSH2 0xBF1 JUMPI PUSH1 0x40 MLOAD PUSH32 0x8C379A000000000000000000000000000000000000000000000000000000000 DUP2 MSTORE PUSH1 0x4 ADD PUSH2 0xBE8 SWAP1 PUSH2 0x27D6 JUMP JUMPDEST PUSH1 0x40 MLOAD DUP1 SWAP2 SUB SWAP1 REVERT JUMPDEST PUSH1 0x2 DUP3 DUP2 SLOAD DUP2 LT PUSH2 0xC05 JUMPI PUSH2 0xC04 PUSH2 0x2261 JUMP JUMPDEST JUMPDEST SWAP1 PUSH1 0x0 MSTORE PUSH1 0x20 PUSH1 0x0 KECCAK256 SWAP1 PUSH1 0x7 MUL ADD PUSH1 0x0 DUP1 DUP3 ADD PUSH1 0x0 SWAP1 SSTORE PUSH1 0x1 DUP3 ADD PUSH1 0x0 PUSH2 0x100 EXP DUP2 SLOAD SWAP1 PUSH20 0xFFFFFFFFFFFFFFFFFFFFFFFFFFFFFFFFFFFFFFFF MUL NOT AND SWAP1 SSTORE PUSH1 0x2 DUP3 ADD PUSH1 0x0 SWAP1 SSTORE PUSH1 0x3 DUP3 ADD PUSH1 0x0 SWAP1 SSTORE PUSH1 0x4 DUP3 ADD PUSH1 0x0 PUSH2 0x100 EXP DUP2 SLOAD SWAP1 PUSH4 0xFFFFFFFF MUL NOT AND SWAP1 SSTORE PUSH1 0x4 DUP3 ADD PUSH1 0x4 PUSH2 0x100 EXP DUP2 SLOAD SWAP1 PUSH4 0xFFFFFFFF MUL NOT AND SWAP1 SSTORE PUSH1 0x5 DUP3 ADD PUSH1 0x0 PUSH2 0xC91 SWAP2 SWAP1 PUSH2 0x1C93 JUMP JUMPDEST PUSH1 0x6 DUP3 ADD PUSH1 0x0 PUSH2 0x100 EXP DUP2 SLOAD SWAP1 PUSH1 0xFF MUL NOT AND SWAP1 SSTORE PUSH1 0x6 DUP3 ADD PUSH1 0x1 PUSH2 0x100 EXP DUP2 SLOAD SWAP1 PUSH1 0xFF MUL NOT AND SWAP1 SSTORE POP POP PUSH32 0x8BF30E7FF26833413BE5F69E1D373744864D600B664204B4A2F9844A8EEDB9ED DUP3 PUSH1 0x40 MLOAD PUSH2 0xCEA SWAP2 SWAP1 PUSH2 0x266F JUMP JUMPDEST PUSH1 0x40 MLOAD DUP1 SWAP2 SUB SWAP1 LOG1 POP POP JUMP JUMPDEST POP POP JUMP JUMPDEST DUP2 PUSH1 0x0 PUSH1 0x2 DUP3 DUP2 SLOAD DUP2 LT PUSH2 0xD11 JUMPI PUSH2 0xD10 PUSH2 0x2261 JUMP JUMPDEST JUMPDEST SWAP1 PUSH1 0x0 MSTORE PUSH1 0x20 PUSH1 0x0 KECCAK256 SWAP1 PUSH1 0x7 MUL ADD SWAP1 POP TIMESTAMP DUP2 PUSH1 0x4 ADD PUSH1 0x0 SWAP1 SLOAD SWAP1 PUSH2 0x100 EXP SWAP1 DIV PUSH4 0xFFFFFFFF AND PUSH4 0xFFFFFFFF AND GT ISZERO PUSH2 0xD7E JUMPI PUSH1 0x40 MLOAD PUSH32 0x8C379A000000000000000000000000000000000000000000000000000000000 DUP2 MSTORE PUSH1 0x4 ADD PUSH2 0xD75 SWAP1 PUSH2 0x2842 JUMP JUMPDEST PUSH1 0x40 MLOAD DUP1 SWAP2 SUB SWAP1 REVERT JUMPDEST TIMESTAMP DUP2 PUSH1 0x4 ADD PUSH1 0x4 SWAP1 SLOAD SWAP1 PUSH2 0x100 EXP SWAP1 DIV PUSH4 0xFFFFFFFF AND PUSH4 0xFFFFFFFF AND LT ISZERO PUSH2 0xDDB JUMPI PUSH1 0x40 MLOAD PUSH32 0x8C379A000000000000000000000000000000000000000000000000000000000 DUP2 MSTORE PUSH1 0x4 ADD PUSH2 0xDD2 SWAP1 PUSH2 0x28AE JUMP JUMPDEST PUSH1 0x40 MLOAD DUP1 SWAP2 SUB SWAP1 REVERT JUMPDEST DUP1 PUSH1 0x2 ADD SLOAD DUP2 PUSH1 0x3 ADD SLOAD LT PUSH2 0xE25 JUMPI PUSH1 0x40 MLOAD PUSH32 0x8C379A000000000000000000000000000000000000000000000000000000000 DUP2 MSTORE PUSH1 0x4 ADD PUSH2 0xE1C SWAP1 PUSH2 0x2940 JUMP JUMPDEST PUSH1 0x40 MLOAD DUP1 SWAP2 SUB SWAP1 REVERT JUMPDEST PUSH1 0x1 ISZERO ISZERO DUP2 PUSH1 0x6 ADD PUSH1 0x1 SWAP1 SLOAD SWAP1 PUSH2 0x100 EXP SWAP1 DIV PUSH1 0xFF AND ISZERO ISZERO EQ PUSH2 0xE7D JUMPI PUSH1 0x40 MLOAD PUSH32 0x8C379A000000000000000000000000000000000000000000000000000000000 DUP2 MSTORE PUSH1 0x4 ADD PUSH2 0xE74 SWAP1 PUSH2 0x29D2 JUMP JUMPDEST PUSH1 0x40 MLOAD DUP1 SWAP2 SUB SWAP1 REVERT JUMPDEST DUP3 PUSH1 0x3 PUSH1 0x0 DUP7 DUP2 MSTORE PUSH1 0x20 ADD SWAP1 DUP2 MSTORE PUSH1 0x20 ADD PUSH1 0x0 KECCAK256 PUSH1 0x0 CALLER PUSH20 0xFFFFFFFFFFFFFFFFFFFFFFFFFFFFFFFFFFFFFFFF AND PUSH20 0xFFFFFFFFFFFFFFFFFFFFFFFFFFFFFFFFFFFFFFFF AND DUP2 MSTORE PUSH1 0x20 ADD SWAP1 DUP2 MSTORE PUSH1 0x20 ADD PUSH1 0x0 KECCAK256 SLOAD LT ISZERO PUSH2 0xF10 JUMPI PUSH1 0x40 MLOAD PUSH32 0x8C379A000000000000000000000000000000000000000000000000000000000 DUP2 MSTORE PUSH1 0x4 ADD PUSH2 0xF07 SWAP1 PUSH2 0x2A3E JUMP JUMPDEST PUSH1 0x40 MLOAD DUP1 SWAP2 SUB SWAP1 REVERT JUMPDEST PUSH1 0x0 PUSH32 0x0 PUSH20 0xFFFFFFFFFFFFFFFFFFFFFFFFFFFFFFFFFFFFFFFF AND PUSH4 0xA9059CBB CALLER DUP7 PUSH1 0x40 MLOAD DUP4 PUSH4 0xFFFFFFFF AND PUSH1 0xE0 SHL DUP2 MSTORE PUSH1 0x4 ADD PUSH2 0xF6D SWAP3 SWAP2 SWAP1 PUSH2 0x2466 JUMP JUMPDEST PUSH1 0x20 PUSH1 0x40 MLOAD DUP1 DUP4 SUB DUP2 PUSH1 0x0 DUP8 GAS CALL ISZERO DUP1 ISZERO PUSH2 0xF8C JUMPI RETURNDATASIZE PUSH1 0x0 DUP1 RETURNDATACOPY RETURNDATASIZE PUSH1 0x0 REVERT JUMPDEST POP POP POP POP PUSH1 0x40 MLOAD RETURNDATASIZE PUSH1 0x1F NOT PUSH1 0x1F DUP3 ADD AND DUP3 ADD DUP1 PUSH1 0x40 MSTORE POP DUP2 ADD SWAP1 PUSH2 0xFB0 SWAP2 SWAP1 PUSH2 0x24BB JUMP JUMPDEST SWAP1 POP DUP1 PUSH2 0xFF2 JUMPI PUSH1 0x40 MLOAD PUSH32 0x8C379A000000000000000000000000000000000000000000000000000000000 DUP2 MSTORE PUSH1 0x4 ADD PUSH2 0xFE9 SWAP1 PUSH2 0x255A JUMP JUMPDEST PUSH1 0x40 MLOAD DUP1 SWAP2 SUB SWAP1 REVERT JUMPDEST DUP4 PUSH1 0x2 DUP7 DUP2 SLOAD DUP2 LT PUSH2 0x1007 JUMPI PUSH2 0x1006 PUSH2 0x2261 JUMP JUMPDEST JUMPDEST SWAP1 PUSH1 0x0 MSTORE PUSH1 0x20 PUSH1 0x0 KECCAK256 SWAP1 PUSH1 0x7 MUL ADD PUSH1 0x3 ADD PUSH1 0x0 DUP3 DUP3 SLOAD PUSH2 0x1027 SWAP2 SWAP1 PUSH2 0x263B JUMP JUMPDEST SWAP3 POP POP DUP2 SWAP1 SSTORE POP DUP4 PUSH1 0x3 PUSH1 0x0 DUP8 DUP2 MSTORE PUSH1 0x20 ADD SWAP1 DUP2 MSTORE PUSH1 0x20 ADD PUSH1 0x0 KECCAK256 PUSH1 0x0 CALLER PUSH20 0xFFFFFFFFFFFFFFFFFFFFFFFFFFFFFFFFFFFFFFFF AND PUSH20 0xFFFFFFFFFFFFFFFFFFFFFFFFFFFFFFFFFFFFFFFF AND DUP2 MSTORE PUSH1 0x20 ADD SWAP1 DUP2 MSTORE PUSH1 0x20 ADD PUSH1 0x0 KECCAK256 PUSH1 0x0 DUP3 DUP3 SLOAD PUSH2 0x108E SWAP2 SWAP1 PUSH2 0x263B JUMP JUMPDEST SWAP3 POP POP DUP2 SWAP1 SSTORE POP CALLER PUSH20 0xFFFFFFFFFFFFFFFFFFFFFFFFFFFFFFFFFFFFFFFF AND DUP6 PUSH32 0xFCD29B1632C6748A9A4BB9B4CD5C6486C3C84A8550DCE2368F83FEF3969D9685 DUP7 PUSH1 0x40 MLOAD PUSH2 0x10DC SWAP2 SWAP1 PUSH2 0x266F JUMP JUMPDEST PUSH1 0x40 MLOAD DUP1 SWAP2 SUB SWAP1 LOG3 POP POP POP POP POP JUMP JUMPDEST PUSH2 0x10F3 PUSH2 0x1B49 JUMP JUMPDEST PUSH2 0x10FD PUSH1 0x0 PUSH2 0x1BC7 JUMP JUMPDEST JUMP JUMPDEST PUSH1 0x0 DUP1 PUSH1 0x0 SWAP1 SLOAD SWAP1 PUSH2 0x100 EXP SWAP1 DIV PUSH20 0xFFFFFFFFFFFFFFFFFFFFFFFFFFFFFFFFFFFFFFFF AND SWAP1 POP SWAP1 JUMP JUMPDEST PUSH1 0x60 PUSH1 0x2 DUP1 SLOAD DUP1 PUSH1 0x20 MUL PUSH1 0x20 ADD PUSH1 0x40 MLOAD SWAP1 DUP2 ADD PUSH1 0x40 MSTORE DUP1 SWAP3 SWAP2 SWAP1 DUP2 DUP2 MSTORE PUSH1 0x20 ADD PUSH1 0x0 SWAP1 JUMPDEST DUP3 DUP3 LT ISZERO PUSH2 0x1303 JUMPI DUP4 DUP3 SWAP1 PUSH1 0x0 MSTORE PUSH1 0x20 PUSH1 0x0 KECCAK256 SWAP1 PUSH1 0x7 MUL ADD PUSH1 0x40 MLOAD DUP1 PUSH2 0x120 ADD PUSH1 0x40 MSTORE SWAP1 DUP2 PUSH1 0x0 DUP3 ADD SLOAD DUP2 MSTORE PUSH1 0x20 ADD PUSH1 0x1 DUP3 ADD PUSH1 0x0 SWAP1 SLOAD SWAP1 PUSH2 0x100 EXP SWAP1 DIV PUSH20 0xFFFFFFFFFFFFFFFFFFFFFFFFFFFFFFFFFFFFFFFF AND PUSH20 0xFFFFFFFFFFFFFFFFFFFFFFFFFFFFFFFFFFFFFFFF AND PUSH20 0xFFFFFFFFFFFFFFFFFFFFFFFFFFFFFFFFFFFFFFFF AND DUP2 MSTORE PUSH1 0x20 ADD PUSH1 0x2 DUP3 ADD SLOAD DUP2 MSTORE PUSH1 0x20 ADD PUSH1 0x3 DUP3 ADD SLOAD DUP2 MSTORE PUSH1 0x20 ADD PUSH1 0x4 DUP3 ADD PUSH1 0x0 SWAP1 SLOAD SWAP1 PUSH2 0x100 EXP SWAP1 DIV PUSH4 0xFFFFFFFF AND PUSH4 0xFFFFFFFF AND PUSH4 0xFFFFFFFF AND DUP2 MSTORE PUSH1 0x20 ADD PUSH1 0x4 DUP3 ADD PUSH1 0x4 SWAP1 SLOAD SWAP1 PUSH2 0x100 EXP SWAP1 DIV PUSH4 0xFFFFFFFF AND PUSH4 0xFFFFFFFF AND PUSH4 0xFFFFFFFF AND DUP2 MSTORE PUSH1 0x20 ADD PUSH1 0x5 DUP3 ADD DUP1 SLOAD DUP1 PUSH1 0x20 MUL PUSH1 0x20 ADD PUSH1 0x40 MLOAD SWAP1 DUP2 ADD PUSH1 0x40 MSTORE DUP1 SWAP3 SWAP2 SWAP1 DUP2 DUP2 MSTORE PUSH1 0x20 ADD DUP3 DUP1 SLOAD DUP1 ISZERO PUSH2 0x12B5 JUMPI PUSH1 0x20 MUL DUP3 ADD SWAP2 SWAP1 PUSH1 0x0 MSTORE PUSH1 0x20 PUSH1 0x0 KECCAK256 SWAP1 JUMPDEST DUP2 PUSH1 0x0 SWAP1 SLOAD SWAP1 PUSH2 0x100 EXP SWAP1 DIV PUSH20 0xFFFFFFFFFFFFFFFFFFFFFFFFFFFFFFFFFFFFFFFF AND PUSH20 0xFFFFFFFFFFFFFFFFFFFFFFFFFFFFFFFFFFFFFFFF AND DUP2 MSTORE PUSH1 0x20 ADD SWAP1 PUSH1 0x1 ADD SWAP1 DUP1 DUP4 GT PUSH2 0x126B JUMPI JUMPDEST POP POP POP POP POP DUP2 MSTORE PUSH1 0x20 ADD PUSH1 0x6 DUP3 ADD PUSH1 0x0 SWAP1 SLOAD SWAP1 PUSH2 0x100 EXP SWAP1 DIV PUSH1 0xFF AND ISZERO ISZERO ISZERO ISZERO DUP2 MSTORE PUSH1 0x20 ADD PUSH1 0x6 DUP3 ADD PUSH1 0x1 SWAP1 SLOAD SWAP1 PUSH2 0x100 EXP SWAP1 DIV PUSH1 0xFF AND ISZERO ISZERO ISZERO ISZERO DUP2 MSTORE POP POP DUP2 MSTORE PUSH1 0x20 ADD SWAP1 PUSH1 0x1 ADD SWAP1 PUSH2 0x114C JUMP JUMPDEST POP POP POP POP SWAP1 POP SWAP1 JUMP JUMPDEST PUSH2 0x1314 PUSH2 0x1B49 JUMP JUMPDEST PUSH1 0x0 PUSH1 0x2 DUP3 DUP2 SLOAD DUP2 LT PUSH2 0x132A JUMPI PUSH2 0x1329 PUSH2 0x2261 JUMP JUMPDEST JUMPDEST SWAP1 PUSH1 0x0 MSTORE PUSH1 0x20 PUSH1 0x0 KECCAK256 SWAP1 PUSH1 0x7 MUL ADD SWAP1 POP DUP1 PUSH1 0x6 ADD PUSH1 0x1 SWAP1 SLOAD SWAP1 PUSH2 0x100 EXP SWAP1 DIV PUSH1 0xFF AND ISZERO DUP2 PUSH1 0x6 ADD PUSH1 0x1 PUSH2 0x100 EXP DUP2 SLOAD DUP2 PUSH1 0xFF MUL NOT AND SWAP1 DUP4 ISZERO ISZERO MUL OR SWAP1 SSTORE POP POP POP JUMP JUMPDEST TIMESTAMP DUP3 PUSH4 0xFFFFFFFF AND GT PUSH2 0x13B4 JUMPI PUSH1 0x40 MLOAD PUSH32 0x8C379A000000000000000000000000000000000000000000000000000000000 DUP2 MSTORE PUSH1 0x4 ADD PUSH2 0x13AB SWAP1 PUSH2 0x2AAA JUMP JUMPDEST PUSH1 0x40 MLOAD DUP1 SWAP2 SUB SWAP1 REVERT JUMPDEST DUP2 PUSH4 0xFFFFFFFF AND DUP2 PUSH4 0xFFFFFFFF AND GT PUSH2 0x1402 JUMPI PUSH1 0x40 MLOAD PUSH32 0x8C379A000000000000000000000000000000000000000000000000000000000 DUP2 MSTORE PUSH1 0x4 ADD PUSH2 0x13F9 SWAP1 PUSH2 0x2B3C JUMP JUMPDEST PUSH1 0x40 MLOAD DUP1 SWAP2 SUB SWAP1 REVERT JUMPDEST PUSH3 0x76A700 DUP3 PUSH2 0x1411 SWAP2 SWAP1 PUSH2 0x2B5C JUMP JUMPDEST PUSH4 0xFFFFFFFF AND DUP2 PUSH4 0xFFFFFFFF AND GT ISZERO PUSH2 0x145F JUMPI PUSH1 0x40 MLOAD PUSH32 0x8C379A000000000000000000000000000000000000000000000000000000000 DUP2 MSTORE PUSH1 0x4 ADD PUSH2 0x1456 SWAP1 PUSH2 0x2C08 JUMP JUMPDEST PUSH1 0x40 MLOAD DUP1 SWAP2 SUB SWAP1 REVERT JUMPDEST PUSH1 0x60 PUSH1 0x2 PUSH1 0x40 MLOAD DUP1 PUSH2 0x120 ADD PUSH1 0x40 MSTORE DUP1 PUSH1 0x1 SLOAD DUP2 MSTORE PUSH1 0x20 ADD CALLER PUSH20 0xFFFFFFFFFFFFFFFFFFFFFFFFFFFFFFFFFFFFFFFF AND DUP2 MSTORE PUSH1 0x20 ADD DUP7 DUP2 MSTORE PUSH1 0x20 ADD PUSH1 0x0 DUP2 MSTORE PUSH1 0x20 ADD DUP6 PUSH4 0xFFFFFFFF AND DUP2 MSTORE PUSH1 0x20 ADD DUP5 PUSH4 0xFFFFFFFF AND DUP2 MSTORE PUSH1 0x20 ADD DUP4 DUP2 MSTORE PUSH1 0x20 ADD PUSH1 0x0 ISZERO ISZERO DUP2 MSTORE PUSH1 0x20 ADD PUSH1 0x1 ISZERO ISZERO DUP2 MSTORE POP SWAP1 DUP1 PUSH1 0x1 DUP2 SLOAD ADD DUP1 DUP3 SSTORE DUP1 SWAP2 POP POP PUSH1 0x1 SWAP1 SUB SWAP1 PUSH1 0x0 MSTORE PUSH1 0x20 PUSH1 0x0 KECCAK256 SWAP1 PUSH1 0x7 MUL ADD PUSH1 0x0 SWAP1 SWAP2 SWAP1 SWAP2 SWAP1 SWAP2 POP PUSH1 0x0 DUP3 ADD MLOAD DUP2 PUSH1 0x0 ADD SSTORE PUSH1 0x20 DUP3 ADD MLOAD DUP2 PUSH1 0x1 ADD PUSH1 0x0 PUSH2 0x100 EXP DUP2 SLOAD DUP2 PUSH20 0xFFFFFFFFFFFFFFFFFFFFFFFFFFFFFFFFFFFFFFFF MUL NOT AND SWAP1 DUP4 PUSH20 0xFFFFFFFFFFFFFFFFFFFFFFFFFFFFFFFFFFFFFFFF AND MUL OR SWAP1 SSTORE POP PUSH1 0x40 DUP3 ADD MLOAD DUP2 PUSH1 0x2 ADD SSTORE PUSH1 0x60 DUP3 ADD MLOAD DUP2 PUSH1 0x3 ADD SSTORE PUSH1 0x80 DUP3 ADD MLOAD DUP2 PUSH1 0x4 ADD PUSH1 0x0 PUSH2 0x100 EXP DUP2 SLOAD DUP2 PUSH4 0xFFFFFFFF MUL NOT AND SWAP1 DUP4 PUSH4 0xFFFFFFFF AND MUL OR SWAP1 SSTORE POP PUSH1 0xA0 DUP3 ADD MLOAD DUP2 PUSH1 0x4 ADD PUSH1 0x4 PUSH2 0x100 EXP DUP2 SLOAD DUP2 PUSH4 0xFFFFFFFF MUL NOT AND SWAP1 DUP4 PUSH4 0xFFFFFFFF AND MUL OR SWAP1 SSTORE POP PUSH1 0xC0 DUP3 ADD MLOAD DUP2 PUSH1 0x5 ADD SWAP1 DUP1 MLOAD SWAP1 PUSH1 0x20 ADD SWAP1 PUSH2 0x15C6 SWAP3 SWAP2 SWAP1 PUSH2 0x1CB4 JUMP JUMPDEST POP PUSH1 0xE0 DUP3 ADD MLOAD DUP2 PUSH1 0x6 ADD PUSH1 0x0 PUSH2 0x100 EXP DUP2 SLOAD DUP2 PUSH1 0xFF MUL NOT AND SWAP1 DUP4 ISZERO ISZERO MUL OR SWAP1 SSTORE POP PUSH2 0x100 DUP3 ADD MLOAD DUP2 PUSH1 0x6 ADD PUSH1 0x1 PUSH2 0x100 EXP DUP2 SLOAD DUP2 PUSH1 0xFF MUL NOT AND SWAP1 DUP4 ISZERO ISZERO MUL OR SWAP1 SSTORE POP POP POP PUSH1 0x1 PUSH1 0x0 DUP2 SLOAD DUP1 SWAP3 SWAP2 SWAP1 PUSH2 0x161D SWAP1 PUSH2 0x268A JUMP JUMPDEST SWAP2 SWAP1 POP SSTORE POP CALLER PUSH20 0xFFFFFFFFFFFFFFFFFFFFFFFFFFFFFFFFFFFFFFFF AND PUSH32 0xF048C66111C8055B679AC16AC1F45C209334C7EB9BAE25A2230D8299827A1FE PUSH1 0x1 SLOAD DUP7 DUP7 DUP7 PUSH1 0x40 MLOAD PUSH2 0x1670 SWAP5 SWAP4 SWAP3 SWAP2 SWAP1 PUSH2 0x2C59 JUMP JUMPDEST PUSH1 0x40 MLOAD DUP1 SWAP2 SUB SWAP1 LOG2 POP POP POP POP JUMP JUMPDEST PUSH2 0x1686 PUSH2 0x1B49 JUMP JUMPDEST PUSH1 0x0 PUSH20 0xFFFFFFFFFFFFFFFFFFFFFFFFFFFFFFFFFFFFFFFF AND DUP2 PUSH20 0xFFFFFFFFFFFFFFFFFFFFFFFFFFFFFFFFFFFFFFFF AND SUB PUSH2 0x16F5 JUMPI PUSH1 0x40 MLOAD PUSH32 0x8C379A000000000000000000000000000000000000000000000000000000000 DUP2 MSTORE PUSH1 0x4 ADD PUSH2 0x16EC SWAP1 PUSH2 0x2D10 JUMP JUMPDEST PUSH1 0x40 MLOAD DUP1 SWAP2 SUB SWAP1 REVERT JUMPDEST PUSH2 0x16FE DUP2 PUSH2 0x1BC7 JUMP JUMPDEST POP JUMP JUMPDEST PUSH32 0x0 DUP2 JUMP JUMPDEST DUP2 PUSH1 0x0 PUSH1 0x2 DUP3 DUP2 SLOAD DUP2 LT PUSH2 0x173C JUMPI PUSH2 0x173B PUSH2 0x2261 JUMP JUMPDEST JUMPDEST SWAP1 PUSH1 0x0 MSTORE PUSH1 0x20 PUSH1 0x0 KECCAK256 SWAP1 PUSH1 0x7 MUL ADD SWAP1 POP TIMESTAMP DUP2 PUSH1 0x4 ADD PUSH1 0x0 SWAP1 SLOAD SWAP1 PUSH2 0x100 EXP SWAP1 DIV PUSH4 0xFFFFFFFF AND PUSH4 0xFFFFFFFF AND GT ISZERO PUSH2 0x17A9 JUMPI PUSH1 0x40 MLOAD PUSH32 0x8C379A000000000000000000000000000000000000000000000000000000000 DUP2 MSTORE PUSH1 0x4 ADD PUSH2 0x17A0 SWAP1 PUSH2 0x2842 JUMP JUMPDEST PUSH1 0x40 MLOAD DUP1 SWAP2 SUB SWAP1 REVERT JUMPDEST TIMESTAMP DUP2 PUSH1 0x4 ADD PUSH1 0x4 SWAP1 SLOAD SWAP1 PUSH2 0x100 EXP SWAP1 DIV PUSH4 0xFFFFFFFF AND PUSH4 0xFFFFFFFF AND LT ISZERO PUSH2 0x1806 JUMPI PUSH1 0x40 MLOAD PUSH32 0x8C379A000000000000000000000000000000000000000000000000000000000 DUP2 MSTORE PUSH1 0x4 ADD PUSH2 0x17FD SWAP1 PUSH2 0x28AE JUMP JUMPDEST PUSH1 0x40 MLOAD DUP1 SWAP2 SUB SWAP1 REVERT JUMPDEST DUP1 PUSH1 0x2 ADD SLOAD DUP2 PUSH1 0x3 ADD SLOAD LT PUSH2 0x1850 JUMPI PUSH1 0x40 MLOAD PUSH32 0x8C379A000000000000000000000000000000000000000000000000000000000 DUP2 MSTORE PUSH1 0x4 ADD PUSH2 0x1847 SWAP1 PUSH2 0x2940 JUMP JUMPDEST PUSH1 0x40 MLOAD DUP1 SWAP2 SUB SWAP1 REVERT JUMPDEST PUSH1 0x1 ISZERO ISZERO DUP2 PUSH1 0x6 ADD PUSH1 0x1 SWAP1 SLOAD SWAP1 PUSH2 0x100 EXP SWAP1 DIV PUSH1 0xFF AND ISZERO ISZERO EQ PUSH2 0x18A8 JUMPI PUSH1 0x40 MLOAD PUSH32 0x8C379A000000000000000000000000000000000000000000000000000000000 DUP2 MSTORE PUSH1 0x4 ADD PUSH2 0x189F SWAP1 PUSH2 0x29D2 JUMP JUMPDEST PUSH1 0x40 MLOAD DUP1 SWAP2 SUB SWAP1 REVERT JUMPDEST PUSH1 0x0 PUSH1 0x2 DUP6 DUP2 SLOAD DUP2 LT PUSH2 0x18BE JUMPI PUSH2 0x18BD PUSH2 0x2261 JUMP JUMPDEST JUMPDEST SWAP1 PUSH1 0x0 MSTORE PUSH1 0x20 PUSH1 0x0 KECCAK256 SWAP1 PUSH1 0x7 MUL ADD SWAP1 POP PUSH1 0x0 PUSH32 0x0 PUSH20 0xFFFFFFFFFFFFFFFFFFFFFFFFFFFFFFFFFFFFFFFF AND PUSH4 0x23B872DD CALLER ADDRESS DUP9 PUSH1 0x40 MLOAD DUP5 PUSH4 0xFFFFFFFF AND PUSH1 0xE0 SHL DUP2 MSTORE PUSH1 0x4 ADD PUSH2 0x192D SWAP4 SWAP3 SWAP2 SWAP1 PUSH2 0x2D30 JUMP JUMPDEST PUSH1 0x20 PUSH1 0x40 MLOAD DUP1 DUP4 SUB DUP2 PUSH1 0x0 DUP8 GAS CALL ISZERO DUP1 ISZERO PUSH2 0x194C JUMPI RETURNDATASIZE PUSH1 0x0 DUP1 RETURNDATACOPY RETURNDATASIZE PUSH1 0x0 REVERT JUMPDEST POP POP POP POP PUSH1 0x40 MLOAD RETURNDATASIZE PUSH1 0x1F NOT PUSH1 0x1F DUP3 ADD AND DUP3 ADD DUP1 PUSH1 0x40 MSTORE POP DUP2 ADD SWAP1 PUSH2 0x1970 SWAP2 SWAP1 PUSH2 0x24BB JUMP JUMPDEST SWAP1 POP DUP1 PUSH2 0x19B2 JUMPI PUSH1 0x40 MLOAD PUSH32 0x8C379A000000000000000000000000000000000000000000000000000000000 DUP2 MSTORE PUSH1 0x4 ADD PUSH2 0x19A9 SWAP1 PUSH2 0x255A JUMP JUMPDEST PUSH1 0x40 MLOAD DUP1 SWAP2 SUB SWAP1 REVERT JUMPDEST PUSH1 0x0 PUSH1 0x3 PUSH1 0x0 DUP9 DUP2 MSTORE PUSH1 0x20 ADD SWAP1 DUP2 MSTORE PUSH1 0x20 ADD PUSH1 0x0 KECCAK256 PUSH1 0x0 CALLER PUSH20 0xFFFFFFFFFFFFFFFFFFFFFFFFFFFFFFFFFFFFFFFF AND PUSH20 0xFFFFFFFFFFFFFFFFFFFFFFFFFFFFFFFFFFFFFFFF AND DUP2 MSTORE PUSH1 0x20 ADD SWAP1 DUP2 MSTORE PUSH1 0x20 ADD PUSH1 0x0 KECCAK256 SLOAD SUB PUSH2 0x1A70 JUMPI DUP2 PUSH1 0x5 ADD CALLER SWAP1 DUP1 PUSH1 0x1 DUP2 SLOAD ADD DUP1 DUP3 SSTORE DUP1 SWAP2 POP POP PUSH1 0x1 SWAP1 SUB SWAP1 PUSH1 0x0 MSTORE PUSH1 0x20 PUSH1 0x0 KECCAK256 ADD PUSH1 0x0 SWAP1 SWAP2 SWAP1 SWAP2 SWAP1 SWAP2 PUSH2 0x100 EXP DUP2 SLOAD DUP2 PUSH20 0xFFFFFFFFFFFFFFFFFFFFFFFFFFFFFFFFFFFFFFFF MUL NOT AND SWAP1 DUP4 PUSH20 0xFFFFFFFFFFFFFFFFFFFFFFFFFFFFFFFFFFFFFFFF AND MUL OR SWAP1 SSTORE POP JUMPDEST DUP5 DUP3 PUSH1 0x3 ADD PUSH1 0x0 DUP3 DUP3 SLOAD PUSH2 0x1A84 SWAP2 SWAP1 PUSH2 0x2D67 JUMP JUMPDEST SWAP3 POP POP DUP2 SWAP1 SSTORE POP DUP5 PUSH1 0x3 PUSH1 0x0 DUP9 DUP2 MSTORE PUSH1 0x20 ADD SWAP1 DUP2 MSTORE PUSH1 0x20 ADD PUSH1 0x0 KECCAK256 PUSH1 0x0 CALLER PUSH20 0xFFFFFFFFFFFFFFFFFFFFFFFFFFFFFFFFFFFFFFFF AND PUSH20 0xFFFFFFFFFFFFFFFFFFFFFFFFFFFFFFFFFFFFFFFF AND DUP2 MSTORE PUSH1 0x20 ADD SWAP1 DUP2 MSTORE PUSH1 0x20 ADD PUSH1 0x0 KECCAK256 PUSH1 0x0 DUP3 DUP3 SLOAD PUSH2 0x1AEB SWAP2 SWAP1 PUSH2 0x2D67 JUMP JUMPDEST SWAP3 POP POP DUP2 SWAP1 SSTORE POP CALLER PUSH20 0xFFFFFFFFFFFFFFFFFFFFFFFFFFFFFFFFFFFFFFFF AND DUP7 PUSH32 0x2757AC6A40883F4491CC56930AE964DF9034E343E660D5179EB01E198336756B DUP8 PUSH1 0x40 MLOAD PUSH2 0x1B39 SWAP2 SWAP1 PUSH2 0x266F JUMP JUMPDEST PUSH1 0x40 MLOAD DUP1 SWAP2 SUB SWAP1 LOG3 POP POP POP POP POP POP JUMP JUMPDEST PUSH2 0x1B51 PUSH2 0x1C8B JUMP JUMPDEST PUSH20 0xFFFFFFFFFFFFFFFFFFFFFFFFFFFFFFFFFFFFFFFF AND PUSH2 0x1B6F PUSH2 0x10FF JUMP JUMPDEST PUSH20 0xFFFFFFFFFFFFFFFFFFFFFFFFFFFFFFFFFFFFFFFF AND EQ PUSH2 0x1BC5 JUMPI PUSH1 0x40 MLOAD PUSH32 0x8C379A000000000000000000000000000000000000000000000000000000000 DUP2 MSTORE PUSH1 0x4 ADD PUSH2 0x1BBC SWAP1 PUSH2 0x2E09 JUMP JUMPDEST PUSH1 0x40 MLOAD DUP1 SWAP2 SUB SWAP1 REVERT JUMPDEST JUMP JUMPDEST PUSH1 0x0 DUP1 PUSH1 0x0 SWAP1 SLOAD SWAP1 PUSH2 0x100 EXP SWAP1 DIV PUSH20 0xFFFFFFFFFFFFFFFFFFFFFFFFFFFFFFFFFFFFFFFF AND SWAP1 POP DUP2 PUSH1 0x0 DUP1 PUSH2 0x100 EXP DUP2 SLOAD DUP2 PUSH20 0xFFFFFFFFFFFFFFFFFFFFFFFFFFFFFFFFFFFFFFFF MUL NOT AND SWAP1 DUP4 PUSH20 0xFFFFFFFFFFFFFFFFFFFFFFFFFFFFFFFFFFFFFFFF AND MUL OR SWAP1 SSTORE POP DUP2 PUSH20 0xFFFFFFFFFFFFFFFFFFFFFFFFFFFFFFFFFFFFFFFF AND DUP2 PUSH20 0xFFFFFFFFFFFFFFFFFFFFFFFFFFFFFFFFFFFFFFFF AND PUSH32 0x8BE0079C531659141344CD1FD0A4F28419497F9722A3DAAFE3B4186F6B6457E0 PUSH1 0x40 MLOAD PUSH1 0x40 MLOAD DUP1 SWAP2 SUB SWAP1 LOG3 POP POP JUMP JUMPDEST PUSH1 0x0 CALLER SWAP1 POP SWAP1 JUMP JUMPDEST POP DUP1 SLOAD PUSH1 0x0 DUP3 SSTORE SWAP1 PUSH1 0x0 MSTORE PUSH1 0x20 PUSH1 0x0 KECCAK256 SWAP1 DUP2 ADD SWAP1 PUSH2 0x1CB1 SWAP2 SWAP1 PUSH2 0x1D3E JUMP JUMPDEST POP JUMP JUMPDEST DUP3 DUP1 SLOAD DUP3 DUP3 SSTORE SWAP1 PUSH1 0x0 MSTORE PUSH1 0x20 PUSH1 0x0 KECCAK256 SWAP1 DUP2 ADD SWAP3 DUP3 ISZERO PUSH2 0x1D2D JUMPI SWAP2 PUSH1 0x20 MUL DUP3 ADD JUMPDEST DUP3 DUP2 GT ISZERO PUSH2 0x1D2C JUMPI DUP3 MLOAD DUP3 PUSH1 0x0 PUSH2 0x100 EXP DUP2 SLOAD DUP2 PUSH20 0xFFFFFFFFFFFFFFFFFFFFFFFFFFFFFFFFFFFFFFFF MUL NOT AND SWAP1 DUP4 PUSH20 0xFFFFFFFFFFFFFFFFFFFFFFFFFFFFFFFFFFFFFFFF AND MUL OR SWAP1 SSTORE POP SWAP2 PUSH1 0x20 ADD SWAP2 SWAP1 PUSH1 0x1 ADD SWAP1 PUSH2 0x1CD4 JUMP JUMPDEST JUMPDEST POP SWAP1 POP PUSH2 0x1D3A SWAP2 SWAP1 PUSH2 0x1D3E JUMP JUMPDEST POP SWAP1 JUMP JUMPDEST JUMPDEST DUP1 DUP3 GT ISZERO PUSH2 0x1D57 JUMPI PUSH1 0x0 DUP2 PUSH1 0x0 SWAP1 SSTORE POP PUSH1 0x1 ADD PUSH2 0x1D3F JUMP JUMPDEST POP SWAP1 JUMP JUMPDEST PUSH1 0x0 DUP1 REVERT JUMPDEST PUSH1 0x0 DUP2 SWAP1 POP SWAP2 SWAP1 POP JUMP JUMPDEST PUSH2 0x1D73 DUP2 PUSH2 0x1D60 JUMP JUMPDEST DUP2 EQ PUSH2 0x1D7E JUMPI PUSH1 0x0 DUP1 REVERT JUMPDEST POP JUMP JUMPDEST PUSH1 0x0 DUP2 CALLDATALOAD SWAP1 POP PUSH2 0x1D90 DUP2 PUSH2 0x1D6A JUMP JUMPDEST SWAP3 SWAP2 POP POP JUMP JUMPDEST PUSH1 0x0 PUSH1 0x20 DUP3 DUP5 SUB SLT ISZERO PUSH2 0x1DAC JUMPI PUSH2 0x1DAB PUSH2 0x1D5B JUMP JUMPDEST JUMPDEST PUSH1 0x0 PUSH2 0x1DBA DUP5 DUP3 DUP6 ADD PUSH2 0x1D81 JUMP JUMPDEST SWAP2 POP POP SWAP3 SWAP2 POP POP JUMP JUMPDEST PUSH1 0x0 DUP1 PUSH1 0x40 DUP4 DUP6 SUB SLT ISZERO PUSH2 0x1DDA JUMPI PUSH2 0x1DD9 PUSH2 0x1D5B JUMP JUMPDEST JUMPDEST PUSH1 0x0 PUSH2 0x1DE8 DUP6 DUP3 DUP7 ADD PUSH2 0x1D81 JUMP JUMPDEST SWAP3 POP POP PUSH1 0x20 PUSH2 0x1DF9 DUP6 DUP3 DUP7 ADD PUSH2 0x1D81 JUMP JUMPDEST SWAP2 POP POP SWAP3 POP SWAP3 SWAP1 POP JUMP JUMPDEST PUSH1 0x0 PUSH20 0xFFFFFFFFFFFFFFFFFFFFFFFFFFFFFFFFFFFFFFFF DUP3 AND SWAP1 POP SWAP2 SWAP1 POP JUMP JUMPDEST PUSH1 0x0 PUSH2 0x1E2E DUP3 PUSH2 0x1E03 JUMP JUMPDEST SWAP1 POP SWAP2 SWAP1 POP JUMP JUMPDEST PUSH2 0x1E3E DUP2 PUSH2 0x1E23 JUMP JUMPDEST DUP3 MSTORE POP POP JUMP JUMPDEST PUSH1 0x0 PUSH1 0x20 DUP3 ADD SWAP1 POP PUSH2 0x1E59 PUSH1 0x0 DUP4 ADD DUP5 PUSH2 0x1E35 JUMP JUMPDEST SWAP3 SWAP2 POP POP JUMP JUMPDEST PUSH1 0x0 DUP2 MLOAD SWAP1 POP SWAP2 SWAP1 POP JUMP JUMPDEST PUSH1 0x0 DUP3 DUP3 MSTORE PUSH1 0x20 DUP3 ADD SWAP1 POP SWAP3 SWAP2 POP POP JUMP JUMPDEST PUSH1 0x0 DUP2 SWAP1 POP PUSH1 0x20 DUP3 ADD SWAP1 POP SWAP2 SWAP1 POP JUMP JUMPDEST PUSH2 0x1E94 DUP2 PUSH2 0x1D60 JUMP JUMPDEST DUP3 MSTORE POP POP JUMP JUMPDEST PUSH2 0x1EA3 DUP2 PUSH2 0x1E23 JUMP JUMPDEST DUP3 MSTORE POP POP JUMP JUMPDEST PUSH1 0x0 PUSH4 0xFFFFFFFF DUP3 AND SWAP1 POP SWAP2 SWAP1 POP JUMP JUMPDEST PUSH2 0x1EC2 DUP2 PUSH2 0x1EA9 JUMP JUMPDEST DUP3 MSTORE POP POP JUMP JUMPDEST PUSH1 0x0 DUP2 MLOAD SWAP1 POP SWAP2 SWAP1 POP JUMP JUMPDEST PUSH1 0x0 DUP3 DUP3 MSTORE PUSH1 0x20 DUP3 ADD SWAP1 POP SWAP3 SWAP2 POP POP JUMP JUMPDEST PUSH1 0x0 DUP2 SWAP1 POP PUSH1 0x20 DUP3 ADD SWAP1 POP SWAP2 SWAP1 POP JUMP JUMPDEST PUSH1 0x0 PUSH2 0x1F00 DUP4 DUP4 PUSH2 0x1E9A JUMP JUMPDEST PUSH1 0x20 DUP4 ADD SWAP1 POP SWAP3 SWAP2 POP POP JUMP JUMPDEST PUSH1 0x0 PUSH1 0x20 DUP3 ADD SWAP1 POP SWAP2 SWAP1 POP JUMP JUMPDEST PUSH1 0x0 PUSH2 0x1F24 DUP3 PUSH2 0x1EC8 JUMP JUMPDEST PUSH2 0x1F2E DUP2 DUP6 PUSH2 0x1ED3 JUMP JUMPDEST SWAP4 POP PUSH2 0x1F39 DUP4 PUSH2 0x1EE4 JUMP JUMPDEST DUP1 PUSH1 0x0 JUMPDEST DUP4 DUP2 LT ISZERO PUSH2 0x1F6A JUMPI DUP2 MLOAD PUSH2 0x1F51 DUP9 DUP3 PUSH2 0x1EF4 JUMP JUMPDEST SWAP8 POP PUSH2 0x1F5C DUP4 PUSH2 0x1F0C JUMP JUMPDEST SWAP3 POP POP PUSH1 0x1 DUP2 ADD SWAP1 POP PUSH2 0x1F3D JUMP JUMPDEST POP DUP6 SWAP4 POP POP POP POP SWAP3 SWAP2 POP POP JUMP JUMPDEST PUSH1 0x0 DUP2 ISZERO ISZERO SWAP1 POP SWAP2 SWAP1 POP JUMP JUMPDEST PUSH2 0x1F8C DUP2 PUSH2 0x1F77 JUMP JUMPDEST DUP3 MSTORE POP POP JUMP JUMPDEST PUSH1 0x0 PUSH2 0x120 DUP4 ADD PUSH1 0x0 DUP4 ADD MLOAD PUSH2 0x1FAB PUSH1 0x0 DUP7 ADD DUP3 PUSH2 0x1E8B JUMP JUMPDEST POP PUSH1 0x20 DUP4 ADD MLOAD PUSH2 0x1FBE PUSH1 0x20 DUP7 ADD DUP3 PUSH2 0x1E9A JUMP JUMPDEST POP PUSH1 0x40 DUP4 ADD MLOAD PUSH2 0x1FD1 PUSH1 0x40 DUP7 ADD DUP3 PUSH2 0x1E8B JUMP JUMPDEST POP PUSH1 0x60 DUP4 ADD MLOAD PUSH2 0x1FE4 PUSH1 0x60 DUP7 ADD DUP3 PUSH2 0x1E8B JUMP JUMPDEST POP PUSH1 0x80 DUP4 ADD MLOAD PUSH2 0x1FF7 PUSH1 0x80 DUP7 ADD DUP3 PUSH2 0x1EB9 JUMP JUMPDEST POP PUSH1 0xA0 DUP4 ADD MLOAD PUSH2 0x200A PUSH1 0xA0 DUP7 ADD DUP3 PUSH2 0x1EB9 JUMP JUMPDEST POP PUSH1 0xC0 DUP4 ADD MLOAD DUP5 DUP3 SUB PUSH1 0xC0 DUP7 ADD MSTORE PUSH2 0x2022 DUP3 DUP3 PUSH2 0x1F19 JUMP JUMPDEST SWAP2 POP POP PUSH1 0xE0 DUP4 ADD MLOAD PUSH2 0x2037 PUSH1 0xE0 DUP7 ADD DUP3 PUSH2 0x1F83 JUMP JUMPDEST POP PUSH2 0x100 DUP4 ADD MLOAD PUSH2 0x204C PUSH2 0x100 DUP7 ADD DUP3 PUSH2 0x1F83 JUMP JUMPDEST POP DUP1 SWAP2 POP POP SWAP3 SWAP2 POP POP JUMP JUMPDEST PUSH1 0x0 PUSH2 0x2063 DUP4 DUP4 PUSH2 0x1F92 JUMP JUMPDEST SWAP1 POP SWAP3 SWAP2 POP POP JUMP JUMPDEST PUSH1 0x0 PUSH1 0x20 DUP3 ADD SWAP1 POP SWAP2 SWAP1 POP JUMP JUMPDEST PUSH1 0x0 PUSH2 0x2083 DUP3 PUSH2 0x1E5F JUMP JUMPDEST PUSH2 0x208D DUP2 DUP6 PUSH2 0x1E6A JUMP JUMPDEST SWAP4 POP DUP4 PUSH1 0x20 DUP3 MUL DUP6 ADD PUSH2 0x209F DUP6 PUSH2 0x1E7B JUMP JUMPDEST DUP1 PUSH1 0x0 JUMPDEST DUP6 DUP2 LT ISZERO PUSH2 0x20DB JUMPI DUP5 DUP5 SUB DUP10 MSTORE DUP2 MLOAD PUSH2 0x20BC DUP6 DUP3 PUSH2 0x2057 JUMP JUMPDEST SWAP5 POP PUSH2 0x20C7 DUP4 PUSH2 0x206B JUMP JUMPDEST SWAP3 POP PUSH1 0x20 DUP11 ADD SWAP10 POP POP PUSH1 0x1 DUP2 ADD SWAP1 POP PUSH2 0x20A3 JUMP JUMPDEST POP DUP3 SWAP8 POP DUP8 SWAP6 POP POP POP POP POP POP SWAP3 SWAP2 POP POP JUMP JUMPDEST PUSH1 0x0 PUSH1 0x20 DUP3 ADD SWAP1 POP DUP2 DUP2 SUB PUSH1 0x0 DUP4 ADD MSTORE PUSH2 0x2107 DUP2 DUP5 PUSH2 0x2078 JUMP JUMPDEST SWAP1 POP SWAP3 SWAP2 POP POP JUMP JUMPDEST PUSH2 0x2118 DUP2 PUSH2 0x1EA9 JUMP JUMPDEST DUP2 EQ PUSH2 0x2123 JUMPI PUSH1 0x0 DUP1 REVERT JUMPDEST POP JUMP JUMPDEST PUSH1 0x0 DUP2 CALLDATALOAD SWAP1 POP PUSH2 0x2135 DUP2 PUSH2 0x210F JUMP JUMPDEST SWAP3 SWAP2 POP POP JUMP JUMPDEST PUSH1 0x0 DUP1 PUSH1 0x0 PUSH1 0x60 DUP5 DUP7 SUB SLT ISZERO PUSH2 0x2154 JUMPI PUSH2 0x2153 PUSH2 0x1D5B JUMP JUMPDEST JUMPDEST PUSH1 0x0 PUSH2 0x2162 DUP7 DUP3 DUP8 ADD PUSH2 0x1D81 JUMP JUMPDEST SWAP4 POP POP PUSH1 0x20 PUSH2 0x2173 DUP7 DUP3 DUP8 ADD PUSH2 0x2126 JUMP JUMPDEST SWAP3 POP POP PUSH1 0x40 PUSH2 0x2184 DUP7 DUP3 DUP8 ADD PUSH2 0x2126 JUMP JUMPDEST SWAP2 POP POP SWAP3 POP SWAP3 POP SWAP3 JUMP JUMPDEST PUSH2 0x2197 DUP2 PUSH2 0x1E23 JUMP JUMPDEST DUP2 EQ PUSH2 0x21A2 JUMPI PUSH1 0x0 DUP1 REVERT JUMPDEST POP JUMP JUMPDEST PUSH1 0x0 DUP2 CALLDATALOAD SWAP1 POP PUSH2 0x21B4 DUP2 PUSH2 0x218E JUMP JUMPDEST SWAP3 SWAP2 POP POP JUMP JUMPDEST PUSH1 0x0 PUSH1 0x20 DUP3 DUP5 SUB SLT ISZERO PUSH2 0x21D0 JUMPI PUSH2 0x21CF PUSH2 0x1D5B JUMP JUMPDEST JUMPDEST PUSH1 0x0 PUSH2 0x21DE DUP5 DUP3 DUP6 ADD PUSH2 0x21A5 JUMP JUMPDEST SWAP2 POP POP SWAP3 SWAP2 POP POP JUMP JUMPDEST PUSH1 0x0 DUP2 SWAP1 POP SWAP2 SWAP1 POP JUMP JUMPDEST PUSH1 0x0 PUSH2 0x220C PUSH2 0x2207 PUSH2 0x2202 DUP5 PUSH2 0x1E03 JUMP JUMPDEST PUSH2 0x21E7 JUMP JUMPDEST PUSH2 0x1E03 JUMP JUMPDEST SWAP1 POP SWAP2 SWAP1 POP JUMP JUMPDEST PUSH1 0x0 PUSH2 0x221E DUP3 PUSH2 0x21F1 JUMP JUMPDEST SWAP1 POP SWAP2 SWAP1 POP JUMP JUMPDEST PUSH1 0x0 PUSH2 0x2230 DUP3 PUSH2 0x2213 JUMP JUMPDEST SWAP1 POP SWAP2 SWAP1 POP JUMP JUMPDEST PUSH2 0x2240 DUP2 PUSH2 0x2225 JUMP JUMPDEST DUP3 MSTORE POP POP JUMP JUMPDEST PUSH1 0x0 PUSH1 0x20 DUP3 ADD SWAP1 POP PUSH2 0x225B PUSH1 0x0 DUP4 ADD DUP5 PUSH2 0x2237 JUMP JUMPDEST SWAP3 SWAP2 POP POP JUMP JUMPDEST PUSH32 0x4E487B7100000000000000000000000000000000000000000000000000000000 PUSH1 0x0 MSTORE PUSH1 0x32 PUSH1 0x4 MSTORE PUSH1 0x24 PUSH1 0x0 REVERT JUMPDEST PUSH1 0x0 DUP3 DUP3 MSTORE PUSH1 0x20 DUP3 ADD SWAP1 POP SWAP3 SWAP2 POP POP JUMP JUMPDEST PUSH32 0x596F7520617265206E6F74207468652063726561746F72206F66207468697320 PUSH1 0x0 DUP3 ADD MSTORE PUSH32 0x63616D706169676E000000000000000000000000000000000000000000000000 PUSH1 0x20 DUP3 ADD MSTORE POP JUMP JUMPDEST PUSH1 0x0 PUSH2 0x22FD PUSH1 0x28 DUP4 PUSH2 0x2290 JUMP JUMPDEST SWAP2 POP PUSH2 0x2308 DUP3 PUSH2 0x22A1 JUMP JUMPDEST PUSH1 0x40 DUP3 ADD SWAP1 POP SWAP2 SWAP1 POP JUMP JUMPDEST PUSH1 0x0 PUSH1 0x20 DUP3 ADD SWAP1 POP DUP2 DUP2 SUB PUSH1 0x0 DUP4 ADD MSTORE PUSH2 0x232C DUP2 PUSH2 0x22F0 JUMP JUMPDEST SWAP1 POP SWAP2 SWAP1 POP JUMP JUMPDEST PUSH32 0x546869732063616D706169676E2773206F7065726174696F6E73206861732062 PUSH1 0x0 DUP3 ADD MSTORE PUSH32 0x65656E2073746F70706564000000000000000000000000000000000000000000 PUSH1 0x20 DUP3 ADD MSTORE POP JUMP JUMPDEST PUSH1 0x0 PUSH2 0x238F PUSH1 0x2B DUP4 PUSH2 0x2290 JUMP JUMPDEST SWAP2 POP PUSH2 0x239A DUP3 PUSH2 0x2333 JUMP JUMPDEST PUSH1 0x40 DUP3 ADD SWAP1 POP SWAP2 SWAP1 POP JUMP JUMPDEST PUSH1 0x0 PUSH1 0x20 DUP3 ADD SWAP1 POP DUP2 DUP2 SUB PUSH1 0x0 DUP4 ADD MSTORE PUSH2 0x23BE DUP2 PUSH2 0x2382 JUMP JUMPDEST SWAP1 POP SWAP2 SWAP1 POP JUMP JUMPDEST PUSH32 0x546F6B656E73206F6620746869732063616D706169676E20686173206265656E PUSH1 0x0 DUP3 ADD MSTORE PUSH32 0x20616C726561647920636C61696D656400000000000000000000000000000000 PUSH1 0x20 DUP3 ADD MSTORE POP JUMP JUMPDEST PUSH1 0x0 PUSH2 0x2421 PUSH1 0x30 DUP4 PUSH2 0x2290 JUMP JUMPDEST SWAP2 POP PUSH2 0x242C DUP3 PUSH2 0x23C5 JUMP JUMPDEST PUSH1 0x40 DUP3 ADD SWAP1 POP SWAP2 SWAP1 POP JUMP JUMPDEST PUSH1 0x0 PUSH1 0x20 DUP3 ADD SWAP1 POP DUP2 DUP2 SUB PUSH1 0x0 DUP4 ADD MSTORE PUSH2 0x2450 DUP2 PUSH2 0x2414 JUMP JUMPDEST SWAP1 POP SWAP2 SWAP1 POP JUMP JUMPDEST PUSH2 0x2460 DUP2 PUSH2 0x1D60 JUMP JUMPDEST DUP3 MSTORE POP POP JUMP JUMPDEST PUSH1 0x0 PUSH1 0x40 DUP3 ADD SWAP1 POP PUSH2 0x247B PUSH1 0x0 DUP4 ADD DUP6 PUSH2 0x1E35 JUMP JUMPDEST PUSH2 0x2488 PUSH1 0x20 DUP4 ADD DUP5 PUSH2 0x2457 JUMP JUMPDEST SWAP4 SWAP3 POP POP POP JUMP JUMPDEST PUSH2 0x2498 DUP2 PUSH2 0x1F77 JUMP JUMPDEST DUP2 EQ PUSH2 0x24A3 JUMPI PUSH1 0x0 DUP1 REVERT JUMPDEST POP JUMP JUMPDEST PUSH1 0x0 DUP2 MLOAD SWAP1 POP PUSH2 0x24B5 DUP2 PUSH2 0x248F JUMP JUMPDEST SWAP3 SWAP2 POP POP JUMP JUMPDEST PUSH1 0x0 PUSH1 0x20 DUP3 DUP5 SUB SLT ISZERO PUSH2 0x24D1 JUMPI PUSH2 0x24D0 PUSH2 0x1D5B JUMP JUMPDEST JUMPDEST PUSH1 0x0 PUSH2 0x24DF DUP5 DUP3 DUP6 ADD PUSH2 0x24A6 JUMP JUMPDEST SWAP2 POP POP SWAP3 SWAP2 POP POP JUMP JUMPDEST PUSH32 0x54686572652077617320612070726F626C656D2073656E64696E6720746F6B65 PUSH1 0x0 DUP3 ADD MSTORE PUSH32 0x6E73000000000000000000000000000000000000000000000000000000000000 PUSH1 0x20 DUP3 ADD MSTORE POP JUMP JUMPDEST PUSH1 0x0 PUSH2 0x2544 PUSH1 0x22 DUP4 PUSH2 0x2290 JUMP JUMPDEST SWAP2 POP PUSH2 0x254F DUP3 PUSH2 0x24E8 JUMP JUMPDEST PUSH1 0x40 DUP3 ADD SWAP1 POP SWAP2 SWAP1 POP JUMP JUMPDEST PUSH1 0x0 PUSH1 0x20 DUP3 ADD SWAP1 POP DUP2 DUP2 SUB PUSH1 0x0 DUP4 ADD MSTORE PUSH2 0x2573 DUP2 PUSH2 0x2537 JUMP JUMPDEST SWAP1 POP SWAP2 SWAP1 POP JUMP JUMPDEST PUSH32 0x546F6B656E7320666F7220746869732063616D706169676E2068617320626565 PUSH1 0x0 DUP3 ADD MSTORE PUSH32 0x6E20616C726561647920636C61696D6564000000000000000000000000000000 PUSH1 0x20 DUP3 ADD MSTORE POP JUMP JUMPDEST PUSH1 0x0 PUSH2 0x25D6 PUSH1 0x31 DUP4 PUSH2 0x2290 JUMP JUMPDEST SWAP2 POP PUSH2 0x25E1 DUP3 PUSH2 0x257A JUMP JUMPDEST PUSH1 0x40 DUP3 ADD SWAP1 POP SWAP2 SWAP1 POP JUMP JUMPDEST PUSH1 0x0 PUSH1 0x20 DUP3 ADD SWAP1 POP DUP2 DUP2 SUB PUSH1 0x0 DUP4 ADD MSTORE PUSH2 0x2605 DUP2 PUSH2 0x25C9 JUMP JUMPDEST SWAP1 POP SWAP2 SWAP1 POP JUMP JUMPDEST PUSH32 0x4E487B7100000000000000000000000000000000000000000000000000000000 PUSH1 0x0 MSTORE PUSH1 0x11 PUSH1 0x4 MSTORE PUSH1 0x24 PUSH1 0x0 REVERT JUMPDEST PUSH1 0x0 PUSH2 0x2646 DUP3 PUSH2 0x1D60 JUMP JUMPDEST SWAP2 POP PUSH2 0x2651 DUP4 PUSH2 0x1D60 JUMP JUMPDEST SWAP3 POP DUP3 DUP3 LT ISZERO PUSH2 0x2664 JUMPI PUSH2 0x2663 PUSH2 0x260C JUMP JUMPDEST JUMPDEST DUP3 DUP3 SUB SWAP1 POP SWAP3 SWAP2 POP POP JUMP JUMPDEST PUSH1 0x0 PUSH1 0x20 DUP3 ADD SWAP1 POP PUSH2 0x2684 PUSH1 0x0 DUP4 ADD DUP5 PUSH2 0x2457 JUMP JUMPDEST SWAP3 SWAP2 POP POP JUMP JUMPDEST PUSH1 0x0 PUSH2 0x2695 DUP3 PUSH2 0x1D60 JUMP JUMPDEST SWAP2 POP PUSH32 0xFFFFFFFFFFFFFFFFFFFFFFFFFFFFFFFFFFFFFFFFFFFFFFFFFFFFFFFFFFFFFFFF DUP3 SUB PUSH2 0x26C7 JUMPI PUSH2 0x26C6 PUSH2 0x260C JUMP JUMPDEST JUMPDEST PUSH1 0x1 DUP3 ADD SWAP1 POP SWAP2 SWAP1 POP JUMP JUMPDEST PUSH32 0x596F7520646F6E277420686176652074686520617574686F7269747920746F20 PUSH1 0x0 DUP3 ADD MSTORE PUSH32 0x63616E63656C20746869732063616D706169676E000000000000000000000000 PUSH1 0x20 DUP3 ADD MSTORE POP JUMP JUMPDEST PUSH1 0x0 PUSH2 0x272E PUSH1 0x34 DUP4 PUSH2 0x2290 JUMP JUMPDEST SWAP2 POP PUSH2 0x2739 DUP3 PUSH2 0x26D2 JUMP JUMPDEST PUSH1 0x40 DUP3 ADD SWAP1 POP SWAP2 SWAP1 POP JUMP JUMPDEST PUSH1 0x0 PUSH1 0x20 DUP3 ADD SWAP1 POP DUP2 DUP2 SUB PUSH1 0x0 DUP4 ADD MSTORE PUSH2 0x275D DUP2 PUSH2 0x2721 JUMP JUMPDEST SWAP1 POP SWAP2 SWAP1 POP JUMP JUMPDEST PUSH32 0x546865726520617265207374696C6C20736F6D6520746F6B656E7320706C6564 PUSH1 0x0 DUP3 ADD MSTORE PUSH32 0x67656420666F7220746869732063616D706169676E0000000000000000000000 PUSH1 0x20 DUP3 ADD MSTORE POP JUMP JUMPDEST PUSH1 0x0 PUSH2 0x27C0 PUSH1 0x35 DUP4 PUSH2 0x2290 JUMP JUMPDEST SWAP2 POP PUSH2 0x27CB DUP3 PUSH2 0x2764 JUMP JUMPDEST PUSH1 0x40 DUP3 ADD SWAP1 POP SWAP2 SWAP1 POP JUMP JUMPDEST PUSH1 0x0 PUSH1 0x20 DUP3 ADD SWAP1 POP DUP2 DUP2 SUB PUSH1 0x0 DUP4 ADD MSTORE PUSH2 0x27EF DUP2 PUSH2 0x27B3 JUMP JUMPDEST SWAP1 POP SWAP2 SWAP1 POP JUMP JUMPDEST PUSH32 0x43616D706169676E206E6F742073746172746564207965742100000000000000 PUSH1 0x0 DUP3 ADD MSTORE POP JUMP JUMPDEST PUSH1 0x0 PUSH2 0x282C PUSH1 0x19 DUP4 PUSH2 0x2290 JUMP JUMPDEST SWAP2 POP PUSH2 0x2837 DUP3 PUSH2 0x27F6 JUMP JUMPDEST PUSH1 0x20 DUP3 ADD SWAP1 POP SWAP2 SWAP1 POP JUMP JUMPDEST PUSH1 0x0 PUSH1 0x20 DUP3 ADD SWAP1 POP DUP2 DUP2 SUB PUSH1 0x0 DUP4 ADD MSTORE PUSH2 0x285B DUP2 PUSH2 0x281F JUMP JUMPDEST SWAP1 POP SWAP2 SWAP1 POP JUMP JUMPDEST PUSH32 0x43616D706169676E2068617320656E6465640000000000000000000000000000 PUSH1 0x0 DUP3 ADD MSTORE POP JUMP JUMPDEST PUSH1 0x0 PUSH2 0x2898 PUSH1 0x12 DUP4 PUSH2 0x2290 JUMP JUMPDEST SWAP2 POP PUSH2 0x28A3 DUP3 PUSH2 0x2862 JUMP JUMPDEST PUSH1 0x20 DUP3 ADD SWAP1 POP SWAP2 SWAP1 POP JUMP JUMPDEST PUSH1 0x0 PUSH1 0x20 DUP3 ADD SWAP1 POP DUP2 DUP2 SUB PUSH1 0x0 DUP4 ADD MSTORE PUSH2 0x28C7 DUP2 PUSH2 0x288B JUMP JUMPDEST SWAP1 POP SWAP2 SWAP1 POP JUMP JUMPDEST PUSH32 0x43616D706169676E2068617320616C7265616479207265616368656420746865 PUSH1 0x0 DUP3 ADD MSTORE PUSH32 0x20676F616C000000000000000000000000000000000000000000000000000000 PUSH1 0x20 DUP3 ADD MSTORE POP JUMP JUMPDEST PUSH1 0x0 PUSH2 0x292A PUSH1 0x25 DUP4 PUSH2 0x2290 JUMP JUMPDEST SWAP2 POP PUSH2 0x2935 DUP3 PUSH2 0x28CE JUMP JUMPDEST PUSH1 0x40 DUP3 ADD SWAP1 POP SWAP2 SWAP1 POP JUMP JUMPDEST PUSH1 0x0 PUSH1 0x20 DUP3 ADD SWAP1 POP DUP2 DUP2 SUB PUSH1 0x0 DUP4 ADD MSTORE PUSH2 0x2959 DUP2 PUSH2 0x291D JUMP JUMPDEST SWAP1 POP SWAP2 SWAP1 POP JUMP JUMPDEST PUSH32 0x43616D706169676E206F7065726174696F6E7320617265206465616374697661 PUSH1 0x0 DUP3 ADD MSTORE PUSH32 0x7465640000000000000000000000000000000000000000000000000000000000 PUSH1 0x20 DUP3 ADD MSTORE POP JUMP JUMPDEST PUSH1 0x0 PUSH2 0x29BC PUSH1 0x23 DUP4 PUSH2 0x2290 JUMP JUMPDEST SWAP2 POP PUSH2 0x29C7 DUP3 PUSH2 0x2960 JUMP JUMPDEST PUSH1 0x40 DUP3 ADD SWAP1 POP SWAP2 SWAP1 POP JUMP JUMPDEST PUSH1 0x0 PUSH1 0x20 DUP3 ADD SWAP1 POP DUP2 DUP2 SUB PUSH1 0x0 DUP4 ADD MSTORE PUSH2 0x29EB DUP2 PUSH2 0x29AF JUMP JUMPDEST SWAP1 POP SWAP2 SWAP1 POP JUMP JUMPDEST PUSH32 0x496E73756666696369656E742046756E64730000000000000000000000000000 PUSH1 0x0 DUP3 ADD MSTORE POP JUMP JUMPDEST PUSH1 0x0 PUSH2 0x2A28 PUSH1 0x12 DUP4 PUSH2 0x2290 JUMP JUMPDEST SWAP2 POP PUSH2 0x2A33 DUP3 PUSH2 0x29F2 JUMP JUMPDEST PUSH1 0x20 DUP3 ADD SWAP1 POP SWAP2 SWAP1 POP JUMP JUMPDEST PUSH1 0x0 PUSH1 0x20 DUP3 ADD SWAP1 POP DUP2 DUP2 SUB PUSH1 0x0 DUP4 ADD MSTORE PUSH2 0x2A57 DUP2 PUSH2 0x2A1B JUMP JUMPDEST SWAP1 POP SWAP2 SWAP1 POP JUMP JUMPDEST PUSH32 0x496E76616C6964206461746520746F2073746172740000000000000000000000 PUSH1 0x0 DUP3 ADD MSTORE POP JUMP JUMPDEST PUSH1 0x0 PUSH2 0x2A94 PUSH1 0x15 DUP4 PUSH2 0x2290 JUMP JUMPDEST SWAP2 POP PUSH2 0x2A9F DUP3 PUSH2 0x2A5E JUMP JUMPDEST PUSH1 0x20 DUP3 ADD SWAP1 POP SWAP2 SWAP1 POP JUMP JUMPDEST PUSH1 0x0 PUSH1 0x20 DUP3 ADD SWAP1 POP DUP2 DUP2 SUB PUSH1 0x0 DUP4 ADD MSTORE PUSH2 0x2AC3 DUP2 PUSH2 0x2A87 JUMP JUMPDEST SWAP1 POP SWAP2 SWAP1 POP JUMP JUMPDEST PUSH32 0x43616D7061696E6720656E642064617465206D757374206265206C6174657220 PUSH1 0x0 DUP3 ADD MSTORE PUSH32 0x7468616E20737461727420646174650000000000000000000000000000000000 PUSH1 0x20 DUP3 ADD MSTORE POP JUMP JUMPDEST PUSH1 0x0 PUSH2 0x2B26 PUSH1 0x2F DUP4 PUSH2 0x2290 JUMP JUMPDEST SWAP2 POP PUSH2 0x2B31 DUP3 PUSH2 0x2ACA JUMP JUMPDEST PUSH1 0x40 DUP3 ADD SWAP1 POP SWAP2 SWAP1 POP JUMP JUMPDEST PUSH1 0x0 PUSH1 0x20 DUP3 ADD SWAP1 POP DUP2 DUP2 SUB PUSH1 0x0 DUP4 ADD MSTORE PUSH2 0x2B55 DUP2 PUSH2 0x2B19 JUMP JUMPDEST SWAP1 POP SWAP2 SWAP1 POP JUMP JUMPDEST PUSH1 0x0 PUSH2 0x2B67 DUP3 PUSH2 0x1EA9 JUMP JUMPDEST SWAP2 POP PUSH2 0x2B72 DUP4 PUSH2 0x1EA9 JUMP JUMPDEST SWAP3 POP DUP3 PUSH4 0xFFFFFFFF SUB DUP3 GT ISZERO PUSH2 0x2B8B JUMPI PUSH2 0x2B8A PUSH2 0x260C JUMP JUMPDEST JUMPDEST DUP3 DUP3 ADD SWAP1 POP SWAP3 SWAP2 POP POP JUMP JUMPDEST PUSH32 0x43616D706169676E73206D757374206E6F74206C617374206D6F726520746861 PUSH1 0x0 DUP3 ADD MSTORE PUSH32 0x6E20393020646179730000000000000000000000000000000000000000000000 PUSH1 0x20 DUP3 ADD MSTORE POP JUMP JUMPDEST PUSH1 0x0 PUSH2 0x2BF2 PUSH1 0x29 DUP4 PUSH2 0x2290 JUMP JUMPDEST SWAP2 POP PUSH2 0x2BFD DUP3 PUSH2 0x2B96 JUMP JUMPDEST PUSH1 0x40 DUP3 ADD SWAP1 POP SWAP2 SWAP1 POP JUMP JUMPDEST PUSH1 0x0 PUSH1 0x20 DUP3 ADD SWAP1 POP DUP2 DUP2 SUB PUSH1 0x0 DUP4 ADD MSTORE PUSH2 0x2C21 DUP2 PUSH2 0x2BE5 JUMP JUMPDEST SWAP1 POP SWAP2 SWAP1 POP JUMP JUMPDEST PUSH1 0x0 PUSH2 0x2C43 PUSH2 0x2C3E PUSH2 0x2C39 DUP5 PUSH2 0x1EA9 JUMP JUMPDEST PUSH2 0x21E7 JUMP JUMPDEST PUSH2 0x1D60 JUMP JUMPDEST SWAP1 POP SWAP2 SWAP1 POP JUMP JUMPDEST PUSH2 0x2C53 DUP2 PUSH2 0x2C28 JUMP JUMPDEST DUP3 MSTORE POP POP JUMP JUMPDEST PUSH1 0x0 PUSH1 0x80 DUP3 ADD SWAP1 POP PUSH2 0x2C6E PUSH1 0x0 DUP4 ADD DUP8 PUSH2 0x2457 JUMP JUMPDEST PUSH2 0x2C7B PUSH1 0x20 DUP4 ADD DUP7 PUSH2 0x2457 JUMP JUMPDEST PUSH2 0x2C88 PUSH1 0x40 DUP4 ADD DUP6 PUSH2 0x2C4A JUMP JUMPDEST PUSH2 0x2C95 PUSH1 0x60 DUP4 ADD DUP5 PUSH2 0x2C4A JUMP JUMPDEST SWAP6 SWAP5 POP POP POP POP POP JUMP JUMPDEST PUSH32 0x4F776E61626C653A206E6577206F776E657220697320746865207A65726F2061 PUSH1 0x0 DUP3 ADD MSTORE PUSH32 0x6464726573730000000000000000000000000000000000000000000000000000 PUSH1 0x20 DUP3 ADD MSTORE POP JUMP JUMPDEST PUSH1 0x0 PUSH2 0x2CFA PUSH1 0x26 DUP4 PUSH2 0x2290 JUMP JUMPDEST SWAP2 POP PUSH2 0x2D05 DUP3 PUSH2 0x2C9E JUMP JUMPDEST PUSH1 0x40 DUP3 ADD SWAP1 POP SWAP2 SWAP1 POP JUMP JUMPDEST PUSH1 0x0 PUSH1 0x20 DUP3 ADD SWAP1 POP DUP2 DUP2 SUB PUSH1 0x0 DUP4 ADD MSTORE PUSH2 0x2D29 DUP2 PUSH2 0x2CED JUMP JUMPDEST SWAP1 POP SWAP2 SWAP1 POP JUMP JUMPDEST PUSH1 0x0 PUSH1 0x60 DUP3 ADD SWAP1 POP PUSH2 0x2D45 PUSH1 0x0 DUP4 ADD DUP7 PUSH2 0x1E35 JUMP JUMPDEST PUSH2 0x2D52 PUSH1 0x20 DUP4 ADD DUP6 PUSH2 0x1E35 JUMP JUMPDEST PUSH2 0x2D5F PUSH1 0x40 DUP4 ADD DUP5 PUSH2 0x2457 JUMP JUMPDEST SWAP5 SWAP4 POP POP POP POP JUMP JUMPDEST PUSH1 0x0 PUSH2 0x2D72 DUP3 PUSH2 0x1D60 JUMP JUMPDEST SWAP2 POP PUSH2 0x2D7D DUP4 PUSH2 0x1D60 JUMP JUMPDEST SWAP3 POP DUP3 PUSH32 0xFFFFFFFFFFFFFFFFFFFFFFFFFFFFFFFFFFFFFFFFFFFFFFFFFFFFFFFFFFFFFFFF SUB DUP3 GT ISZERO PUSH2 0x2DB2 JUMPI PUSH2 0x2DB1 PUSH2 0x260C JUMP JUMPDEST JUMPDEST DUP3 DUP3 ADD SWAP1 POP SWAP3 SWAP2 POP POP JUMP JUMPDEST PUSH32 0x4F776E61626C653A2063616C6C6572206973206E6F7420746865206F776E6572 PUSH1 0x0 DUP3 ADD MSTORE POP JUMP JUMPDEST PUSH1 0x0 PUSH2 0x2DF3 PUSH1 0x20 DUP4 PUSH2 0x2290 JUMP JUMPDEST SWAP2 POP PUSH2 0x2DFE DUP3 PUSH2 0x2DBD JUMP JUMPDEST PUSH1 0x20 DUP3 ADD SWAP1 POP SWAP2 SWAP1 POP JUMP JUMPDEST PUSH1 0x0 PUSH1 0x20 DUP3 ADD SWAP1 POP DUP2 DUP2 SUB PUSH1 0x0 DUP4 ADD MSTORE PUSH2 0x2E22 DUP2 PUSH2 0x2DE6 JUMP JUMPDEST SWAP1 POP SWAP2 SWAP1 POP JUMP INVALID LOG2 PUSH5 0x6970667358 0x22 SLT KECCAK256 0xCF EXTCODESIZE SWAP12 SWAP7 DIV OR SLT SGT 0xDB 0xEE SWAP9 0xBB CREATE2 CODESIZE 0xEA 0xD9 0xEF 0xBF 0xE0 OR SWAP1 DUP1 0xE2 0xDA PUSH6 0xBFF578E73FF 0x26 PUSH5 0x736F6C6343 STOP ADDMOD 0xD STOP CALLER "
				},
				"gasEstimates": {
					"creation": {
						"codeDepositCost": "2374200",
						"executionCost": "infinite",
						"totalCost": "infinite"
					},
					"external": {
						"cancel(uint256)": "infinite",
						"claimAllAndEnd(uint256)": "infinite",
						"claimPartial(uint256,uint256)": "infinite",
						"createCampaign(uint256,uint32,uint32)": "infinite",
						"getCampaigns()": "infinite",
						"owner()": "2545",
						"pledge(uint256,uint256)": "infinite",
						"refund(uint256)": "infinite",
						"renounceOwnership()": "30509",
						"toggleCanOperate(uint256)": "31459",
						"token()": "infinite",
						"transferOwnership(address)": "30788",
						"unpledge(uint256,uint256)": "infinite"
					}
				},
				"methodIdentifiers": {
					"cancel(uint256)": "40e58ee5",
					"claimAllAndEnd(uint256)": "26b0739c",
					"claimPartial(uint256,uint256)": "4854424e",
					"createCampaign(uint256,uint32,uint32)": "e4913224",
					"getCampaigns()": "a6b03633",
					"owner()": "8da5cb5b",
					"pledge(uint256,uint256)": "fde327be",
					"refund(uint256)": "278ecde1",
					"renounceOwnership()": "715018a6",
					"toggleCanOperate(uint256)": "ad94a7d7",
					"token()": "fc0c546a",
					"transferOwnership(address)": "f2fde38b",
					"unpledge(uint256,uint256)": "711853ab"
				}
			},
			"storageLayout": {
				"storage": [
					{
						"astId": 7,
						"contract": "contracts/CrowdFund.sol:CrowdFund",
						"label": "_owner",
						"offset": 0,
						"slot": "0",
						"type": "t_address"
					},
					{
						"astId": 243,
						"contract": "contracts/CrowdFund.sol:CrowdFund",
						"label": "idCounter",
						"offset": 0,
						"slot": "1",
						"type": "t_uint256"
					},
					{
						"astId": 247,
						"contract": "contracts/CrowdFund.sol:CrowdFund",
						"label": "campaigns",
						"offset": 0,
						"slot": "2",
						"type": "t_array(t_struct(Campaign)238_storage)dyn_storage"
					},
					{
						"astId": 253,
						"contract": "contracts/CrowdFund.sol:CrowdFund",
						"label": "pledgedAmount",
						"offset": 0,
						"slot": "3",
						"type": "t_mapping(t_uint256,t_mapping(t_address,t_uint256))"
					}
				],
				"types": {
					"t_address": {
						"encoding": "inplace",
						"label": "address",
						"numberOfBytes": "20"
					},
					"t_array(t_address)dyn_storage": {
						"base": "t_address",
						"encoding": "dynamic_array",
						"label": "address[]",
						"numberOfBytes": "32"
					},
					"t_array(t_struct(Campaign)238_storage)dyn_storage": {
						"base": "t_struct(Campaign)238_storage",
						"encoding": "dynamic_array",
						"label": "struct CrowdFund.Campaign[]",
						"numberOfBytes": "32"
					},
					"t_bool": {
						"encoding": "inplace",
						"label": "bool",
						"numberOfBytes": "1"
					},
					"t_mapping(t_address,t_uint256)": {
						"encoding": "mapping",
						"key": "t_address",
						"label": "mapping(address => uint256)",
						"numberOfBytes": "32",
						"value": "t_uint256"
					},
					"t_mapping(t_uint256,t_mapping(t_address,t_uint256))": {
						"encoding": "mapping",
						"key": "t_uint256",
						"label": "mapping(uint256 => mapping(address => uint256))",
						"numberOfBytes": "32",
						"value": "t_mapping(t_address,t_uint256)"
					},
					"t_struct(Campaign)238_storage": {
						"encoding": "inplace",
						"label": "struct CrowdFund.Campaign",
						"members": [
							{
								"astId": 220,
								"contract": "contracts/CrowdFund.sol:CrowdFund",
								"label": "id",
								"offset": 0,
								"slot": "0",
								"type": "t_uint256"
							},
							{
								"astId": 222,
								"contract": "contracts/CrowdFund.sol:CrowdFund",
								"label": "creator",
								"offset": 0,
								"slot": "1",
								"type": "t_address"
							},
							{
								"astId": 224,
								"contract": "contracts/CrowdFund.sol:CrowdFund",
								"label": "goal",
								"offset": 0,
								"slot": "2",
								"type": "t_uint256"
							},
							{
								"astId": 226,
								"contract": "contracts/CrowdFund.sol:CrowdFund",
								"label": "pledged",
								"offset": 0,
								"slot": "3",
								"type": "t_uint256"
							},
							{
								"astId": 228,
								"contract": "contracts/CrowdFund.sol:CrowdFund",
								"label": "start",
								"offset": 0,
								"slot": "4",
								"type": "t_uint32"
							},
							{
								"astId": 230,
								"contract": "contracts/CrowdFund.sol:CrowdFund",
								"label": "end",
								"offset": 4,
								"slot": "4",
								"type": "t_uint32"
							},
							{
								"astId": 233,
								"contract": "contracts/CrowdFund.sol:CrowdFund",
								"label": "donors",
								"offset": 0,
								"slot": "5",
								"type": "t_array(t_address)dyn_storage"
							},
							{
								"astId": 235,
								"contract": "contracts/CrowdFund.sol:CrowdFund",
								"label": "claimed",
								"offset": 0,
								"slot": "6",
								"type": "t_bool"
							},
							{
								"astId": 237,
								"contract": "contracts/CrowdFund.sol:CrowdFund",
								"label": "canOperate",
								"offset": 1,
								"slot": "6",
								"type": "t_bool"
							}
						],
						"numberOfBytes": "224"
					},
					"t_uint256": {
						"encoding": "inplace",
						"label": "uint256",
						"numberOfBytes": "32"
					},
					"t_uint32": {
						"encoding": "inplace",
						"label": "uint32",
						"numberOfBytes": "4"
					}
				}
			},
			"userdoc": {
				"kind": "user",
				"methods": {},
				"version": 1
			}
		}
	}
}