{
	"data": {
		"bytecode": {
			"linkReferences": {},
			"object": "60a06040523480156200001157600080fd5b5060405162003091380380620030918339818101604052810190620000379190620001c8565b620000576200004b6200009260201b60201c565b6200009a60201b60201c565b8073ffffffffffffffffffffffffffffffffffffffff1660808173ffffffffffffffffffffffffffffffffffffffff168152505050620001fa565b600033905090565b60008060009054906101000a900473ffffffffffffffffffffffffffffffffffffffff169050816000806101000a81548173ffffffffffffffffffffffffffffffffffffffff021916908373ffffffffffffffffffffffffffffffffffffffff1602179055508173ffffffffffffffffffffffffffffffffffffffff168173ffffffffffffffffffffffffffffffffffffffff167f8be0079c531659141344cd1fd0a4f28419497f9722a3daafe3b4186f6b6457e060405160405180910390a35050565b600080fd5b600073ffffffffffffffffffffffffffffffffffffffff82169050919050565b6000620001908262000163565b9050919050565b620001a28162000183565b8114620001ae57600080fd5b50565b600081519050620001c28162000197565b92915050565b600060208284031215620001e157620001e06200015e565b5b6000620001f184828501620001b1565b91505092915050565b608051612e5f62000232600039600081816103990152818161078b01528181610f140152818161170301526118d20152612e5f6000f3fe608060405234801561001057600080fd5b50600436106100cf5760003560e01c80638da5cb5b1161008c578063e491322411610066578063e4913224146101c2578063f2fde38b146101de578063fc0c546a146101fa578063fde327be14610218576100cf565b80638da5cb5b1461016a578063a6b0363314610188578063ad94a7d7146101a6576100cf565b806326b0739c146100d4578063278ecde1146100f057806340e58ee51461010c5780634854424e14610128578063711853ab14610144578063715018a614610160575b600080fd5b6100ee60048036038101906100e99190611d96565b610234565b005b61010a60048036038101906101059190611d96565b6104f8565b005b61012660048036038101906101219190611d96565b610934565b005b610142600480360381019061013d9190611dc3565b610cf6565b005b61015e60048036038101906101599190611dc3565b610cfa565b005b6101686110eb565b005b6101726110ff565b60405161017f9190611e44565b60405180910390f35b610190611128565b60405161019d91906120ed565b60405180910390f35b6101c060048036038101906101bb9190611d96565b61130c565b005b6101dc60048036038101906101d7919061213b565b61136c565b005b6101f860048036038101906101f391906121ba565b61167e565b005b610202611701565b60405161020f9190612246565b60405180910390f35b610232600480360381019061022d9190611dc3565b611725565b005b60006002828154811061024a57610249612261565b5b906000526020600020906007020190503373ffffffffffffffffffffffffffffffffffffffff168160010160009054906101000a900473ffffffffffffffffffffffffffffffffffffffff1673ffffffffffffffffffffffffffffffffffffffff16146102ec576040517f08c379a00000000000000000000000000000000000000000000000000000000081526004016102e390612313565b60405180910390fd5b8060060160019054906101000a900460ff1661033d576040517f08c379a0000000000000000000000000000000000000000000000000000000008152600401610334906123a5565b60405180910390fd5b600015158160060160009054906101000a900460ff16151514610395576040517f08c379a000000000000000000000000000000000000000000000000000000000815260040161038c90612437565b60405180910390fd5b60007f000000000000000000000000000000000000000000000000000000000000000073ffffffffffffffffffffffffffffffffffffffff1663a9059cbb3384600301546040518363ffffffff1660e01b81526004016103f6929190612466565b6020604051808303816000875af1158015610415573d6000803e3d6000fd5b505050506040513d601f19601f8201168201806040525081019061043991906124bb565b90508061047b576040517f08c379a00000000000000000000000000000000000000000000000000000000081526004016104729061255a565b60405180910390fd5b60008260060160016101000a81548160ff02191690831515021790555060018260060160006101000a81548160ff021916908315150217905550827f3ed1528b0fdc7c5207c1bf935e34a667e13656b9ed165260c522be0bc544f3033384600301546040516104eb929190612466565b60405180910390a2505050565b610500611b49565b60006002828154811061051657610515612261565b5b906000526020600020906007020160405180610120016040529081600082015481526020016001820160009054906101000a900473ffffffffffffffffffffffffffffffffffffffff1673ffffffffffffffffffffffffffffffffffffffff1673ffffffffffffffffffffffffffffffffffffffff16815260200160028201548152602001600382015481526020016004820160009054906101000a900463ffffffff1663ffffffff1663ffffffff1681526020016004820160049054906101000a900463ffffffff1663ffffffff1663ffffffff1681526020016005820180548060200260200160405190810160405280929190818152602001828054801561067557602002820191906000526020600020905b8160009054906101000a900473ffffffffffffffffffffffffffffffffffffffff1673ffffffffffffffffffffffffffffffffffffffff168152602001906001019080831161062b575b505050505081526020016006820160009054906101000a900460ff161515151581526020016006820160019054906101000a900460ff1615151515815250509050600015158160e00151151514610701576040517f08c379a00000000000000000000000000000000000000000000000000000000081526004016106f8906125ec565b60405180910390fd5b60005b8160c001515181101561092f5760008260c00151828151811061072a57610729612261565b5b6020026020010151905060006003600086815260200190815260200160002060008373ffffffffffffffffffffffffffffffffffffffff1673ffffffffffffffffffffffffffffffffffffffff1681526020019081526020016000205490507f000000000000000000000000000000000000000000000000000000000000000073ffffffffffffffffffffffffffffffffffffffff1663a9059cbb83836040518363ffffffff1660e01b81526004016107e4929190612466565b6020604051808303816000875af1158015610803573d6000803e3d6000fd5b505050506040513d601f19601f8201168201806040525081019061082791906124bb565b50806002868154811061083d5761083c612261565b5b9060005260206000209060070201600301600082825461085d919061263b565b92505081905550806003600087815260200190815260200160002060008473ffffffffffffffffffffffffffffffffffffffff1673ffffffffffffffffffffffffffffffffffffffff16815260200190815260200160002060008282546108c4919061263b565b925050819055508173ffffffffffffffffffffffffffffffffffffffff16857ffcd29b1632c6748a9a4bb9b4cd5c6486c3c84a8550dce2368f83fef3969d968583604051610912919061266f565b60405180910390a3505080806109279061268a565b915050610704565b505050565b60006002828154811061094a57610949612261565b5b906000526020600020906007020160405180610120016040529081600082015481526020016001820160009054906101000a900473ffffffffffffffffffffffffffffffffffffffff1673ffffffffffffffffffffffffffffffffffffffff1673ffffffffffffffffffffffffffffffffffffffff16815260200160028201548152602001600382015481526020016004820160009054906101000a900463ffffffff1663ffffffff1663ffffffff1681526020016004820160049054906101000a900463ffffffff1663ffffffff1663ffffffff16815260200160058201805480602002602001604051908101604052809291908181526020018280548015610aa957602002820191906000526020600020905b8160009054906101000a900473ffffffffffffffffffffffffffffffffffffffff1673ffffffffffffffffffffffffffffffffffffffff1681526020019060010190808311610a5f575b505050505081526020016006820160009054906101000a900460ff161515151581526020016006820160019054906101000a900460ff16151515158152505090503373ffffffffffffffffffffffffffffffffffffffff16816020015173ffffffffffffffffffffffffffffffffffffffff1614158015610b5d57503373ffffffffffffffffffffffffffffffffffffffff16610b446110ff565b73ffffffffffffffffffffffffffffffffffffffff1614155b15610b9d576040517f08c379a0000000000000000000000000000000000000000000000000000000008152600401610b9490612744565b60405180910390fd5b8060e0015180610bb257506000816060015111155b610bf1576040517f08c379a0000000000000000000000000000000000000000000000000000000008152600401610be8906127d6565b60405180910390fd5b60028281548110610c0557610c04612261565b5b90600052602060002090600702016000808201600090556001820160006101000a81549073ffffffffffffffffffffffffffffffffffffffff0219169055600282016000905560038201600090556004820160006101000a81549063ffffffff02191690556004820160046101000a81549063ffffffff0219169055600582016000610c919190611c93565b6006820160006101000a81549060ff02191690556006820160016101000a81549060ff021916905550507f8bf30e7ff26833413be5f69e1d373744864d600b664204b4a2f9844a8eedb9ed82604051610cea919061266f565b60405180910390a15050565b5050565b81600060028281548110610d1157610d10612261565b5b90600052602060002090600702019050428160040160009054906101000a900463ffffffff1663ffffffff161115610d7e576040517f08c379a0000000000000000000000000000000000000000000000000000000008152600401610d7590612842565b60405180910390fd5b428160040160049054906101000a900463ffffffff1663ffffffff161015610ddb576040517f08c379a0000000000000000000000000000000000000000000000000000000008152600401610dd2906128ae565b60405180910390fd5b8060020154816003015410610e25576040517f08c379a0000000000000000000000000000000000000000000000000000000008152600401610e1c90612940565b60405180910390fd5b600115158160060160019054906101000a900460ff16151514610e7d576040517f08c379a0000000000000000000000000000000000000000000000000000000008152600401610e74906129d2565b60405180910390fd5b826003600086815260200190815260200160002060003373ffffffffffffffffffffffffffffffffffffffff1673ffffffffffffffffffffffffffffffffffffffff168152602001908152602001600020541015610f10576040517f08c379a0000000000000000000000000000000000000000000000000000000008152600401610f0790612a3e565b60405180910390fd5b60007f000000000000000000000000000000000000000000000000000000000000000073ffffffffffffffffffffffffffffffffffffffff1663a9059cbb33866040518363ffffffff1660e01b8152600401610f6d929190612466565b6020604051808303816000875af1158015610f8c573d6000803e3d6000fd5b505050506040513d601f19601f82011682018060405250810190610fb091906124bb565b905080610ff2576040517f08c379a0000000000000000000000000000000000000000000000000000000008152600401610fe99061255a565b60405180910390fd5b836002868154811061100757611006612261565b5b90600052602060002090600702016003016000828254611027919061263b565b92505081905550836003600087815260200190815260200160002060003373ffffffffffffffffffffffffffffffffffffffff1673ffffffffffffffffffffffffffffffffffffffff168152602001908152602001600020600082825461108e919061263b565b925050819055503373ffffffffffffffffffffffffffffffffffffffff16857ffcd29b1632c6748a9a4bb9b4cd5c6486c3c84a8550dce2368f83fef3969d9685866040516110dc919061266f565b60405180910390a35050505050565b6110f3611b49565b6110fd6000611bc7565b565b60008060009054906101000a900473ffffffffffffffffffffffffffffffffffffffff16905090565b60606002805480602002602001604051908101604052809291908181526020016000905b82821015611303578382906000526020600020906007020160405180610120016040529081600082015481526020016001820160009054906101000a900473ffffffffffffffffffffffffffffffffffffffff1673ffffffffffffffffffffffffffffffffffffffff1673ffffffffffffffffffffffffffffffffffffffff16815260200160028201548152602001600382015481526020016004820160009054906101000a900463ffffffff1663ffffffff1663ffffffff1681526020016004820160049054906101000a900463ffffffff1663ffffffff1663ffffffff168152602001600582018054806020026020016040519081016040528092919081815260200182805480156112b557602002820191906000526020600020905b8160009054906101000a900473ffffffffffffffffffffffffffffffffffffffff1673ffffffffffffffffffffffffffffffffffffffff168152602001906001019080831161126b575b505050505081526020016006820160009054906101000a900460ff161515151581526020016006820160019054906101000a900460ff1615151515815250508152602001906001019061114c565b50505050905090565b611314611b49565b60006002828154811061132a57611329612261565b5b906000526020600020906007020190508060060160019054906101000a900460ff16158160060160016101000a81548160ff0219169083151502179055505050565b428263ffffffff16116113b4576040517f08c379a00000000000000000000000000000000000000000000000000000000081526004016113ab90612aaa565b60405180910390fd5b8163ffffffff168163ffffffff1611611402576040517f08c379a00000000000000000000000000000000000000000000000000000000081526004016113f990612b3c565b60405180910390fd5b6276a700826114119190612b5c565b63ffffffff168163ffffffff16111561145f576040517f08c379a000000000000000000000000000000000000000000000000000000000815260040161145690612c08565b60405180910390fd5b6060600260405180610120016040528060015481526020013373ffffffffffffffffffffffffffffffffffffffff168152602001868152602001600081526020018563ffffffff1681526020018463ffffffff1681526020018381526020016000151581526020016001151581525090806001815401808255809150506001900390600052602060002090600702016000909190919091506000820151816000015560208201518160010160006101000a81548173ffffffffffffffffffffffffffffffffffffffff021916908373ffffffffffffffffffffffffffffffffffffffff160217905550604082015181600201556060820151816003015560808201518160040160006101000a81548163ffffffff021916908363ffffffff16021790555060a08201518160040160046101000a81548163ffffffff021916908363ffffffff16021790555060c08201518160050190805190602001906115c6929190611cb4565b5060e08201518160060160006101000a81548160ff0219169083151502179055506101008201518160060160016101000a81548160ff02191690831515021790555050506001600081548092919061161d9061268a565b91905055503373ffffffffffffffffffffffffffffffffffffffff167f0f048c66111c8055b679ac16ac1f45c209334c7eb9bae25a2230d8299827a1fe6001548686866040516116709493929190612c59565b60405180910390a250505050565b611686611b49565b600073ffffffffffffffffffffffffffffffffffffffff168173ffffffffffffffffffffffffffffffffffffffff16036116f5576040517f08c379a00000000000000000000000000000000000000000000000000000000081526004016116ec90612d10565b60405180910390fd5b6116fe81611bc7565b50565b7f000000000000000000000000000000000000000000000000000000000000000081565b8160006002828154811061173c5761173b612261565b5b90600052602060002090600702019050428160040160009054906101000a900463ffffffff1663ffffffff1611156117a9576040517f08c379a00000000000000000000000000000000000000000000000000000000081526004016117a090612842565b60405180910390fd5b428160040160049054906101000a900463ffffffff1663ffffffff161015611806576040517f08c379a00000000000000000000000000000000000000000000000000000000081526004016117fd906128ae565b60405180910390fd5b8060020154816003015410611850576040517f08c379a000000000000000000000000000000000000000000000000000000000815260040161184790612940565b60405180910390fd5b600115158160060160019054906101000a900460ff161515146118a8576040517f08c379a000000000000000000000000000000000000000000000000000000000815260040161189f906129d2565b60405180910390fd5b6000600285815481106118be576118bd612261565b5b9060005260206000209060070201905060007f000000000000000000000000000000000000000000000000000000000000000073ffffffffffffffffffffffffffffffffffffffff166323b872dd3330886040518463ffffffff1660e01b815260040161192d93929190612d30565b6020604051808303816000875af115801561194c573d6000803e3d6000fd5b505050506040513d601f19601f8201168201806040525081019061197091906124bb565b9050806119b2576040517f08c379a00000000000000000000000000000000000000000000000000000000081526004016119a99061255a565b60405180910390fd5b60006003600088815260200190815260200160002060003373ffffffffffffffffffffffffffffffffffffffff1673ffffffffffffffffffffffffffffffffffffffff1681526020019081526020016000205403611a705781600501339080600181540180825580915050600190039060005260206000200160009091909190916101000a81548173ffffffffffffffffffffffffffffffffffffffff021916908373ffffffffffffffffffffffffffffffffffffffff1602179055505b84826003016000828254611a849190612d67565b92505081905550846003600088815260200190815260200160002060003373ffffffffffffffffffffffffffffffffffffffff1673ffffffffffffffffffffffffffffffffffffffff1681526020019081526020016000206000828254611aeb9190612d67565b925050819055503373ffffffffffffffffffffffffffffffffffffffff16867f2757ac6a40883f4491cc56930ae964df9034e343e660d5179eb01e198336756b87604051611b39919061266f565b60405180910390a3505050505050565b611b51611c8b565b73ffffffffffffffffffffffffffffffffffffffff16611b6f6110ff565b73ffffffffffffffffffffffffffffffffffffffff1614611bc5576040517f08c379a0000000000000000000000000000000000000000000000000000000008152600401611bbc90612e09565b60405180910390fd5b565b60008060009054906101000a900473ffffffffffffffffffffffffffffffffffffffff169050816000806101000a81548173ffffffffffffffffffffffffffffffffffffffff021916908373ffffffffffffffffffffffffffffffffffffffff1602179055508173ffffffffffffffffffffffffffffffffffffffff168173ffffffffffffffffffffffffffffffffffffffff167f8be0079c531659141344cd1fd0a4f28419497f9722a3daafe3b4186f6b6457e060405160405180910390a35050565b600033905090565b5080546000825590600052602060002090810190611cb19190611d3e565b50565b828054828255906000526020600020908101928215611d2d579160200282015b82811115611d2c5782518260006101000a81548173ffffffffffffffffffffffffffffffffffffffff021916908373ffffffffffffffffffffffffffffffffffffffff16021790555091602001919060010190611cd4565b5b509050611d3a9190611d3e565b5090565b5b80821115611d57576000816000905550600101611d3f565b5090565b600080fd5b6000819050919050565b611d7381611d60565b8114611d7e57600080fd5b50565b600081359050611d9081611d6a565b92915050565b600060208284031215611dac57611dab611d5b565b5b6000611dba84828501611d81565b91505092915050565b60008060408385031215611dda57611dd9611d5b565b5b6000611de885828601611d81565b9250506020611df985828601611d81565b9150509250929050565b600073ffffffffffffffffffffffffffffffffffffffff82169050919050565b6000611e2e82611e03565b9050919050565b611e3e81611e23565b82525050565b6000602082019050611e596000830184611e35565b92915050565b600081519050919050565b600082825260208201905092915050565b6000819050602082019050919050565b611e9481611d60565b82525050565b611ea381611e23565b82525050565b600063ffffffff82169050919050565b611ec281611ea9565b82525050565b600081519050919050565b600082825260208201905092915050565b6000819050602082019050919050565b6000611f008383611e9a565b60208301905092915050565b6000602082019050919050565b6000611f2482611ec8565b611f2e8185611ed3565b9350611f3983611ee4565b8060005b83811015611f6a578151611f518882611ef4565b9750611f5c83611f0c565b925050600181019050611f3d565b5085935050505092915050565b60008115159050919050565b611f8c81611f77565b82525050565b600061012083016000830151611fab6000860182611e8b565b506020830151611fbe6020860182611e9a565b506040830151611fd16040860182611e8b565b506060830151611fe46060860182611e8b565b506080830151611ff76080860182611eb9565b5060a083015161200a60a0860182611eb9565b5060c083015184820360c08601526120228282611f19565b91505060e083015161203760e0860182611f83565b5061010083015161204c610100860182611f83565b508091505092915050565b60006120638383611f92565b905092915050565b6000602082019050919050565b600061208382611e5f565b61208d8185611e6a565b93508360208202850161209f85611e7b565b8060005b858110156120db57848403895281516120bc8582612057565b94506120c78361206b565b925060208a019950506001810190506120a3565b50829750879550505050505092915050565b600060208201905081810360008301526121078184612078565b905092915050565b61211881611ea9565b811461212357600080fd5b50565b6000813590506121358161210f565b92915050565b60008060006060848603121561215457612153611d5b565b5b600061216286828701611d81565b935050602061217386828701612126565b925050604061218486828701612126565b9150509250925092565b61219781611e23565b81146121a257600080fd5b50565b6000813590506121b48161218e565b92915050565b6000602082840312156121d0576121cf611d5b565b5b60006121de848285016121a5565b91505092915050565b6000819050919050565b600061220c61220761220284611e03565b6121e7565b611e03565b9050919050565b600061221e826121f1565b9050919050565b600061223082612213565b9050919050565b61224081612225565b82525050565b600060208201905061225b6000830184612237565b92915050565b7f4e487b7100000000000000000000000000000000000000000000000000000000600052603260045260246000fd5b600082825260208201905092915050565b7f596f7520617265206e6f74207468652063726561746f72206f6620746869732060008201527f63616d706169676e000000000000000000000000000000000000000000000000602082015250565b60006122fd602883612290565b9150612308826122a1565b604082019050919050565b6000602082019050818103600083015261232c816122f0565b9050919050565b7f546869732063616d706169676e2773206f7065726174696f6e7320686173206260008201527f65656e2073746f70706564000000000000000000000000000000000000000000602082015250565b600061238f602b83612290565b915061239a82612333565b604082019050919050565b600060208201905081810360008301526123be81612382565b9050919050565b7f546f6b656e73206f6620746869732063616d706169676e20686173206265656e60008201527f20616c726561647920636c61696d656400000000000000000000000000000000602082015250565b6000612421603083612290565b915061242c826123c5565b604082019050919050565b6000602082019050818103600083015261245081612414565b9050919050565b61246081611d60565b82525050565b600060408201905061247b6000830185611e35565b6124886020830184612457565b9392505050565b61249881611f77565b81146124a357600080fd5b50565b6000815190506124b58161248f565b92915050565b6000602082840312156124d1576124d0611d5b565b5b60006124df848285016124a6565b91505092915050565b7f54686572652077617320612070726f626c656d2073656e64696e6720746f6b6560008201527f6e73000000000000000000000000000000000000000000000000000000000000602082015250565b6000612544602283612290565b915061254f826124e8565b604082019050919050565b6000602082019050818103600083015261257381612537565b9050919050565b7f546f6b656e7320666f7220746869732063616d706169676e206861732062656560008201527f6e20616c726561647920636c61696d6564000000000000000000000000000000602082015250565b60006125d6603183612290565b91506125e18261257a565b604082019050919050565b60006020820190508181036000830152612605816125c9565b9050919050565b7f4e487b7100000000000000000000000000000000000000000000000000000000600052601160045260246000fd5b600061264682611d60565b915061265183611d60565b9250828210156126645761266361260c565b5b828203905092915050565b60006020820190506126846000830184612457565b92915050565b600061269582611d60565b91507fffffffffffffffffffffffffffffffffffffffffffffffffffffffffffffffff82036126c7576126c661260c565b5b600182019050919050565b7f596f7520646f6e277420686176652074686520617574686f7269747920746f2060008201527f63616e63656c20746869732063616d706169676e000000000000000000000000602082015250565b600061272e603483612290565b9150612739826126d2565b604082019050919050565b6000602082019050818103600083015261275d81612721565b9050919050565b7f546865726520617265207374696c6c20736f6d6520746f6b656e7320706c656460008201527f67656420666f7220746869732063616d706169676e0000000000000000000000602082015250565b60006127c0603583612290565b91506127cb82612764565b604082019050919050565b600060208201905081810360008301526127ef816127b3565b9050919050565b7f43616d706169676e206e6f742073746172746564207965742100000000000000600082015250565b600061282c601983612290565b9150612837826127f6565b602082019050919050565b6000602082019050818103600083015261285b8161281f565b9050919050565b7f43616d706169676e2068617320656e6465640000000000000000000000000000600082015250565b6000612898601283612290565b91506128a382612862565b602082019050919050565b600060208201905081810360008301526128c78161288b565b9050919050565b7f43616d706169676e2068617320616c726561647920726561636865642074686560008201527f20676f616c000000000000000000000000000000000000000000000000000000602082015250565b600061292a602583612290565b9150612935826128ce565b604082019050919050565b600060208201905081810360008301526129598161291d565b9050919050565b7f43616d706169676e206f7065726174696f6e732061726520646561637469766160008201527f7465640000000000000000000000000000000000000000000000000000000000602082015250565b60006129bc602383612290565b91506129c782612960565b604082019050919050565b600060208201905081810360008301526129eb816129af565b9050919050565b7f496e73756666696369656e742046756e64730000000000000000000000000000600082015250565b6000612a28601283612290565b9150612a33826129f2565b602082019050919050565b60006020820190508181036000830152612a5781612a1b565b9050919050565b7f496e76616c6964206461746520746f2073746172740000000000000000000000600082015250565b6000612a94601583612290565b9150612a9f82612a5e565b602082019050919050565b60006020820190508181036000830152612ac381612a87565b9050919050565b7f43616d7061696e6720656e642064617465206d757374206265206c617465722060008201527f7468616e20737461727420646174650000000000000000000000000000000000602082015250565b6000612b26602f83612290565b9150612b3182612aca565b604082019050919050565b60006020820190508181036000830152612b5581612b19565b9050919050565b6000612b6782611ea9565b9150612b7283611ea9565b92508263ffffffff03821115612b8b57612b8a61260c565b5b828201905092915050565b7f43616d706169676e73206d757374206e6f74206c617374206d6f72652074686160008201527f6e20393020646179730000000000000000000000000000000000000000000000602082015250565b6000612bf2602983612290565b9150612bfd82612b96565b604082019050919050565b60006020820190508181036000830152612c2181612be5565b9050919050565b6000612c43612c3e612c3984611ea9565b6121e7565b611d60565b9050919050565b612c5381612c28565b82525050565b6000608082019050612c6e6000830187612457565b612c7b6020830186612457565b612c886040830185612c4a565b612c956060830184612c4a565b95945050505050565b7f4f776e61626c653a206e6577206f776e657220697320746865207a65726f206160008201527f6464726573730000000000000000000000000000000000000000000000000000602082015250565b6000612cfa602683612290565b9150612d0582612c9e565b604082019050919050565b60006020820190508181036000830152612d2981612ced565b9050919050565b6000606082019050612d456000830186611e35565b612d526020830185611e35565b612d5f6040830184612457565b949350505050565b6000612d7282611d60565b9150612d7d83611d60565b9250827fffffffffffffffffffffffffffffffffffffffffffffffffffffffffffffffff03821115612db257612db161260c565b5b828201905092915050565b7f4f776e61626c653a2063616c6c6572206973206e6f7420746865206f776e6572600082015250565b6000612df3602083612290565b9150612dfe82612dbd565b602082019050919050565b60006020820190508181036000830152612e2281612de6565b905091905056fea2646970667358221220cf3b9b9604171213dbee98bbf538ead9efbfe0179080e2da650bff578e73ff2664736f6c634300080d0033",
			"opcodes": "PUSH1 0xA0 PUSH1 0x40 MSTORE CALLVALUE DUP1 ISZERO PUSH3 0x11 JUMPI PUSH1 0x0 DUP1 REVERT JUMPDEST POP PUSH1 0x40 MLOAD PUSH3 0x3091 CODESIZE SUB DUP1 PUSH3 0x3091 DUP4 CODECOPY DUP2 DUP2 ADD PUSH1 0x40 MSTORE DUP2 ADD SWAP1 PUSH3 0x37 SWAP2 SWAP1 PUSH3 0x1C8 JUMP JUMPDEST PUSH3 0x57 PUSH3 0x4B PUSH3 0x92 PUSH1 0x20 SHL PUSH1 0x20 SHR JUMP JUMPDEST PUSH3 0x9A PUSH1 0x20 SHL PUSH1 0x20 SHR JUMP JUMPDEST DUP1 PUSH20 0xFFFFFFFFFFFFFFFFFFFFFFFFFFFFFFFFFFFFFFFF AND PUSH1 0x80 DUP2 PUSH20 0xFFFFFFFFFFFFFFFFFFFFFFFFFFFFFFFFFFFFFFFF AND DUP2 MSTORE POP POP POP PUSH3 0x1FA JUMP JUMPDEST PUSH1 0x0 CALLER SWAP1 POP SWAP1 JUMP JUMPDEST PUSH1 0x0 DUP1 PUSH1 0x0 SWAP1 SLOAD SWAP1 PUSH2 0x100 EXP SWAP1 DIV PUSH20 0xFFFFFFFFFFFFFFFFFFFFFFFFFFFFFFFFFFFFFFFF AND SWAP1 POP DUP2 PUSH1 0x0 DUP1 PUSH2 0x100 EXP DUP2 SLOAD DUP2 PUSH20 0xFFFFFFFFFFFFFFFFFFFFFFFFFFFFFFFFFFFFFFFF MUL NOT AND SWAP1 DUP4 PUSH20 0xFFFFFFFFFFFFFFFFFFFFFFFFFFFFFFFFFFFFFFFF AND MUL OR SWAP1 SSTORE POP DUP2 PUSH20 0xFFFFFFFFFFFFFFFFFFFFFFFFFFFFFFFFFFFFFFFF AND DUP2 PUSH20 0xFFFFFFFFFFFFFFFFFFFFFFFFFFFFFFFFFFFFFFFF AND PUSH32 0x8BE0079C531659141344CD1FD0A4F28419497F9722A3DAAFE3B4186F6B6457E0 PUSH1 0x40 MLOAD PUSH1 0x40 MLOAD DUP1 SWAP2 SUB SWAP1 LOG3 POP POP JUMP JUMPDEST PUSH1 0x0 DUP1 REVERT JUMPDEST PUSH1 0x0 PUSH20 0xFFFFFFFFFFFFFFFFFFFFFFFFFFFFFFFFFFFFFFFF DUP3 AND SWAP1 POP SWAP2 SWAP1 POP JUMP JUMPDEST PUSH1 0x0 PUSH3 0x190 DUP3 PUSH3 0x163 JUMP JUMPDEST SWAP1 POP SWAP2 SWAP1 POP JUMP JUMPDEST PUSH3 0x1A2 DUP2 PUSH3 0x183 JUMP JUMPDEST DUP2 EQ PUSH3 0x1AE JUMPI PUSH1 0x0 DUP1 REVERT JUMPDEST POP JUMP JUMPDEST PUSH1 0x0 DUP2 MLOAD SWAP1 POP PUSH3 0x1C2 DUP2 PUSH3 0x197 JUMP JUMPDEST SWAP3 SWAP2 POP POP JUMP JUMPDEST PUSH1 0x0 PUSH1 0x20 DUP3 DUP5 SUB SLT ISZERO PUSH3 0x1E1 JUMPI PUSH3 0x1E0 PUSH3 0x15E JUMP JUMPDEST JUMPDEST PUSH1 0x0 PUSH3 0x1F1 DUP5 DUP3 DUP6 ADD PUSH3 0x1B1 JUMP JUMPDEST SWAP2 POP POP SWAP3 SWAP2 POP POP JUMP JUMPDEST PUSH1 0x80 MLOAD PUSH2 0x2E5F PUSH3 0x232 PUSH1 0x0 CODECOPY PUSH1 0x0 DUP2 DUP2 PUSH2 0x399 ADD MSTORE DUP2 DUP2 PUSH2 0x78B ADD MSTORE DUP2 DUP2 PUSH2 0xF14 ADD MSTORE DUP2 DUP2 PUSH2 0x1703 ADD MSTORE PUSH2 0x18D2 ADD MSTORE PUSH2 0x2E5F PUSH1 0x0 RETURN INVALID PUSH1 0x80 PUSH1 0x40 MSTORE CALLVALUE DUP1 ISZERO PUSH2 0x10 JUMPI PUSH1 0x0 DUP1 REVERT JUMPDEST POP PUSH1 0x4 CALLDATASIZE LT PUSH2 0xCF JUMPI PUSH1 0x0 CALLDATALOAD PUSH1 0xE0 SHR DUP1 PUSH4 0x8DA5CB5B GT PUSH2 0x8C JUMPI DUP1 PUSH4 0xE4913224 GT PUSH2 0x66 JUMPI DUP1 PUSH4 0xE4913224 EQ PUSH2 0x1C2 JUMPI DUP1 PUSH4 0xF2FDE38B EQ PUSH2 0x1DE JUMPI DUP1 PUSH4 0xFC0C546A EQ PUSH2 0x1FA JUMPI DUP1 PUSH4 0xFDE327BE EQ PUSH2 0x218 JUMPI PUSH2 0xCF JUMP JUMPDEST DUP1 PUSH4 0x8DA5CB5B EQ PUSH2 0x16A JUMPI DUP1 PUSH4 0xA6B03633 EQ PUSH2 0x188 JUMPI DUP1 PUSH4 0xAD94A7D7 EQ PUSH2 0x1A6 JUMPI PUSH2 0xCF JUMP JUMPDEST DUP1 PUSH4 0x26B0739C EQ PUSH2 0xD4 JUMPI DUP1 PUSH4 0x278ECDE1 EQ PUSH2 0xF0 JUMPI DUP1 PUSH4 0x40E58EE5 EQ PUSH2 0x10C JUMPI DUP1 PUSH4 0x4854424E EQ PUSH2 0x128 JUMPI DUP1 PUSH4 0x711853AB EQ PUSH2 0x144 JUMPI DUP1 PUSH4 0x715018A6 EQ PUSH2 0x160 JUMPI JUMPDEST PUSH1 0x0 DUP1 REVERT JUMPDEST PUSH2 0xEE PUSH1 0x4 DUP1 CALLDATASIZE SUB DUP2 ADD SWAP1 PUSH2 0xE9 SWAP2 SWAP1 PUSH2 0x1D96 JUMP JUMPDEST PUSH2 0x234 JUMP JUMPDEST STOP JUMPDEST PUSH2 0x10A PUSH1 0x4 DUP1 CALLDATASIZE SUB DUP2 ADD SWAP1 PUSH2 0x105 SWAP2 SWAP1 PUSH2 0x1D96 JUMP JUMPDEST PUSH2 0x4F8 JUMP JUMPDEST STOP JUMPDEST PUSH2 0x126 PUSH1 0x4 DUP1 CALLDATASIZE SUB DUP2 ADD SWAP1 PUSH2 0x121 SWAP2 SWAP1 PUSH2 0x1D96 JUMP JUMPDEST PUSH2 0x934 JUMP JUMPDEST STOP JUMPDEST PUSH2 0x142 PUSH1 0x4 DUP1 CALLDATASIZE SUB DUP2 ADD SWAP1 PUSH2 0x13D SWAP2 SWAP1 PUSH2 0x1DC3 JUMP JUMPDEST PUSH2 0xCF6 JUMP JUMPDEST STOP JUMPDEST PUSH2 0x15E PUSH1 0x4 DUP1 CALLDATASIZE SUB DUP2 ADD SWAP1 PUSH2 0x159 SWAP2 SWAP1 PUSH2 0x1DC3 JUMP JUMPDEST PUSH2 0xCFA JUMP JUMPDEST STOP JUMPDEST PUSH2 0x168 PUSH2 0x10EB JUMP JUMPDEST STOP JUMPDEST PUSH2 0x172 PUSH2 0x10FF JUMP JUMPDEST PUSH1 0x40 MLOAD PUSH2 0x17F SWAP2 SWAP1 PUSH2 0x1E44 JUMP JUMPDEST PUSH1 0x40 MLOAD DUP1 SWAP2 SUB SWAP1 RETURN JUMPDEST PUSH2 0x190 PUSH2 0x1128 JUMP JUMPDEST PUSH1 0x40 MLOAD PUSH2 0x19D SWAP2 SWAP1 PUSH2 0x20ED JUMP JUMPDEST PUSH1 0x40 MLOAD DUP1 SWAP2 SUB SWAP1 RETURN JUMPDEST PUSH2 0x1C0 PUSH1 0x4 DUP1 CALLDATASIZE SUB DUP2 ADD SWAP1 PUSH2 0x1BB SWAP2 SWAP1 PUSH2 0x1D96 JUMP JUMPDEST PUSH2 0x130C JUMP JUMPDEST STOP JUMPDEST PUSH2 0x1DC PUSH1 0x4 DUP1 CALLDATASIZE SUB DUP2 ADD SWAP1 PUSH2 0x1D7 SWAP2 SWAP1 PUSH2 0x213B JUMP JUMPDEST PUSH2 0x136C JUMP JUMPDEST STOP JUMPDEST PUSH2 0x1F8 PUSH1 0x4 DUP1 CALLDATASIZE SUB DUP2 ADD SWAP1 PUSH2 0x1F3 SWAP2 SWAP1 PUSH2 0x21BA JUMP JUMPDEST PUSH2 0x167E JUMP JUMPDEST STOP JUMPDEST PUSH2 0x202 PUSH2 0x1701 JUMP JUMPDEST PUSH1 0x40 MLOAD PUSH2 0x20F SWAP2 SWAP1 PUSH2 0x2246 JUMP JUMPDEST PUSH1 0x40 MLOAD DUP1 SWAP2 SUB SWAP1 RETURN JUMPDEST PUSH2 0x232 PUSH1 0x4 DUP1 CALLDATASIZE SUB DUP2 ADD SWAP1 PUSH2 0x22D SWAP2 SWAP1 PUSH2 0x1DC3 JUMP JUMPDEST PUSH2 0x1725 JUMP JUMPDEST STOP JUMPDEST PUSH1 0x0 PUSH1 0x2 DUP3 DUP2 SLOAD DUP2 LT PUSH2 0x24A JUMPI PUSH2 0x249 PUSH2 0x2261 JUMP JUMPDEST JUMPDEST SWAP1 PUSH1 0x0 MSTORE PUSH1 0x20 PUSH1 0x0 KECCAK256 SWAP1 PUSH1 0x7 MUL ADD SWAP1 POP CALLER PUSH20 0xFFFFFFFFFFFFFFFFFFFFFFFFFFFFFFFFFFFFFFFF AND DUP2 PUSH1 0x1 ADD PUSH1 0x0 SWAP1 SLOAD SWAP1 PUSH2 0x100 EXP SWAP1 DIV PUSH20 0xFFFFFFFFFFFFFFFFFFFFFFFFFFFFFFFFFFFFFFFF AND PUSH20 0xFFFFFFFFFFFFFFFFFFFFFFFFFFFFFFFFFFFFFFFF AND EQ PUSH2 0x2EC JUMPI PUSH1 0x40 MLOAD PUSH32 0x8C379A000000000000000000000000000000000000000000000000000000000 DUP2 MSTORE PUSH1 0x4 ADD PUSH2 0x2E3 SWAP1 PUSH2 0x2313 JUMP JUMPDEST PUSH1 0x40 MLOAD DUP1 SWAP2 SUB SWAP1 REVERT JUMPDEST DUP1 PUSH1 0x6 ADD PUSH1 0x1 SWAP1 SLOAD SWAP1 PUSH2 0x100 EXP SWAP1 DIV PUSH1 0xFF AND PUSH2 0x33D JUMPI PUSH1 0x40 MLOAD PUSH32 0x8C379A000000000000000000000000000000000000000000000000000000000 DUP2 MSTORE PUSH1 0x4 ADD PUSH2 0x334 SWAP1 PUSH2 0x23A5 JUMP JUMPDEST PUSH1 0x40 MLOAD DUP1 SWAP2 SUB SWAP1 REVERT JUMPDEST PUSH1 0x0 ISZERO ISZERO DUP2 PUSH1 0x6 ADD PUSH1 0x0 SWAP1 SLOAD SWAP1 PUSH2 0x100 EXP SWAP1 DIV PUSH1 0xFF AND ISZERO ISZERO EQ PUSH2 0x395 JUMPI PUSH1 0x40 MLOAD PUSH32 0x8C379A000000000000000000000000000000000000000000000000000000000 DUP2 MSTORE PUSH1 0x4 ADD PUSH2 0x38C SWAP1 PUSH2 0x2437 JUMP JUMPDEST PUSH1 0x40 MLOAD DUP1 SWAP2 SUB SWAP1 REVERT JUMPDEST PUSH1 0x0 PUSH32 0x0 PUSH20 0xFFFFFFFFFFFFFFFFFFFFFFFFFFFFFFFFFFFFFFFF AND PUSH4 0xA9059CBB CALLER DUP5 PUSH1 0x3 ADD SLOAD PUSH1 0x40 MLOAD DUP4 PUSH4 0xFFFFFFFF AND PUSH1 0xE0 SHL DUP2 MSTORE PUSH1 0x4 ADD PUSH2 0x3F6 SWAP3 SWAP2 SWAP1 PUSH2 0x2466 JUMP JUMPDEST PUSH1 0x20 PUSH1 0x40 MLOAD DUP1 DUP4 SUB DUP2 PUSH1 0x0 DUP8 GAS CALL ISZERO DUP1 ISZERO PUSH2 0x415 JUMPI RETURNDATASIZE PUSH1 0x0 DUP1 RETURNDATACOPY RETURNDATASIZE PUSH1 0x0 REVERT JUMPDEST POP POP POP POP PUSH1 0x40 MLOAD RETURNDATASIZE PUSH1 0x1F NOT PUSH1 0x1F DUP3 ADD AND DUP3 ADD DUP1 PUSH1 0x40 MSTORE POP DUP2 ADD SWAP1 PUSH2 0x439 SWAP2 SWAP1 PUSH2 0x24BB JUMP JUMPDEST SWAP1 POP DUP1 PUSH2 0x47B JUMPI PUSH1 0x40 MLOAD PUSH32 0x8C379A000000000000000000000000000000000000000000000000000000000 DUP2 MSTORE PUSH1 0x4 ADD PUSH2 0x472 SWAP1 PUSH2 0x255A JUMP JUMPDEST PUSH1 0x40 MLOAD DUP1 SWAP2 SUB SWAP1 REVERT JUMPDEST PUSH1 0x0 DUP3 PUSH1 0x6 ADD PUSH1 0x1 PUSH2 0x100 EXP DUP2 SLOAD DUP2 PUSH1 0xFF MUL NOT AND SWAP1 DUP4 ISZERO ISZERO MUL OR SWAP1 SSTORE POP PUSH1 0x1 DUP3 PUSH1 0x6 ADD PUSH1 0x0 PUSH2 0x100 EXP DUP2 SLOAD DUP2 PUSH1 0xFF MUL NOT AND SWAP1 DUP4 ISZERO ISZERO MUL OR SWAP1 SSTORE POP DUP3 PUSH32 0x3ED1528B0FDC7C5207C1BF935E34A667E13656B9ED165260C522BE0BC544F303 CALLER DUP5 PUSH1 0x3 ADD SLOAD PUSH1 0x40 MLOAD PUSH2 0x4EB SWAP3 SWAP2 SWAP1 PUSH2 0x2466 JUMP JUMPDEST PUSH1 0x40 MLOAD DUP1 SWAP2 SUB SWAP1 LOG2 POP POP POP JUMP JUMPDEST PUSH2 0x500 PUSH2 0x1B49 JUMP JUMPDEST PUSH1 0x0 PUSH1 0x2 DUP3 DUP2 SLOAD DUP2 LT PUSH2 0x516 JUMPI PUSH2 0x515 PUSH2 0x2261 JUMP JUMPDEST JUMPDEST SWAP1 PUSH1 0x0 MSTORE PUSH1 0x20 PUSH1 0x0 KECCAK256 SWAP1 PUSH1 0x7 MUL ADD PUSH1 0x40 MLOAD DUP1 PUSH2 0x120 ADD PUSH1 0x40 MSTORE SWAP1 DUP2 PUSH1 0x0 DUP3 ADD SLOAD DUP2 MSTORE PUSH1 0x20 ADD PUSH1 0x1 DUP3 ADD PUSH1 0x0 SWAP1 SLOAD SWAP1 PUSH2 0x100 EXP SWAP1 DIV PUSH20 0xFFFFFFFFFFFFFFFFFFFFFFFFFFFFFFFFFFFFFFFF AND PUSH20 0xFFFFFFFFFFFFFFFFFFFFFFFFFFFFFFFFFFFFFFFF AND PUSH20 0xFFFFFFFFFFFFFFFFFFFFFFFFFFFFFFFFFFFFFFFF AND DUP2 MSTORE PUSH1 0x20 ADD PUSH1 0x2 DUP3 ADD SLOAD DUP2 MSTORE PUSH1 0x20 ADD PUSH1 0x3 DUP3 ADD SLOAD DUP2 MSTORE PUSH1 0x20 ADD PUSH1 0x4 DUP3 ADD PUSH1 0x0 SWAP1 SLOAD SWAP1 PUSH2 0x100 EXP SWAP1 DIV PUSH4 0xFFFFFFFF AND PUSH4 0xFFFFFFFF AND PUSH4 0xFFFFFFFF AND DUP2 MSTORE PUSH1 0x20 ADD PUSH1 0x4 DUP3 ADD PUSH1 0x4 SWAP1 SLOAD SWAP1 PUSH2 0x100 EXP SWAP1 DIV PUSH4 0xFFFFFFFF AND PUSH4 0xFFFFFFFF AND PUSH4 0xFFFFFFFF AND DUP2 MSTORE PUSH1 0x20 ADD PUSH1 0x5 DUP3 ADD DUP1 SLOAD DUP1 PUSH1 0x20 MUL PUSH1 0x20 ADD PUSH1 0x40 MLOAD SWAP1 DUP2 ADD PUSH1 0x40 MSTORE DUP1 SWAP3 SWAP2 SWAP1 DUP2 DUP2 MSTORE PUSH1 0x20 ADD DUP3 DUP1 SLOAD DUP1 ISZERO PUSH2 0x675 JUMPI PUSH1 0x20 MUL DUP3 ADD SWAP2 SWAP1 PUSH1 0x0 MSTORE PUSH1 0x20 PUSH1 0x0 KECCAK256 SWAP1 JUMPDEST DUP2 PUSH1 0x0 SWAP1 SLOAD SWAP1 PUSH2 0x100 EXP SWAP1 DIV PUSH20 0xFFFFFFFFFFFFFFFFFFFFFFFFFFFFFFFFFFFFFFFF AND PUSH20 0xFFFFFFFFFFFFFFFFFFFFFFFFFFFFFFFFFFFFFFFF AND DUP2 MSTORE PUSH1 0x20 ADD SWAP1 PUSH1 0x1 ADD SWAP1 DUP1 DUP4 GT PUSH2 0x62B JUMPI JUMPDEST POP POP POP POP POP DUP2 MSTORE PUSH1 0x20 ADD PUSH1 0x6 DUP3 ADD PUSH1 0x0 SWAP1 SLOAD SWAP1 PUSH2 0x100 EXP SWAP1 DIV PUSH1 0xFF AND ISZERO ISZERO ISZERO ISZERO DUP2 MSTORE PUSH1 0x20 ADD PUSH1 0x6 DUP3 ADD PUSH1 0x1 SWAP1 SLOAD SWAP1 PUSH2 0x100 EXP SWAP1 DIV PUSH1 0xFF AND ISZERO ISZERO ISZERO ISZERO DUP2 MSTORE POP POP SWAP1 POP PUSH1 0x0 ISZERO ISZERO DUP2 PUSH1 0xE0 ADD MLOAD ISZERO ISZERO EQ PUSH2 0x701 JUMPI PUSH1 0x40 MLOAD PUSH32 0x8C379A000000000000000000000000000000000000000000000000000000000 DUP2 MSTORE PUSH1 0x4 ADD PUSH2 0x6F8 SWAP1 PUSH2 0x25EC JUMP JUMPDEST PUSH1 0x40 MLOAD DUP1 SWAP2 SUB SWAP1 REVERT JUMPDEST PUSH1 0x0 JUMPDEST DUP2 PUSH1 0xC0 ADD MLOAD MLOAD DUP2 LT ISZERO PUSH2 0x92F JUMPI PUSH1 0x0 DUP3 PUSH1 0xC0 ADD MLOAD DUP3 DUP2 MLOAD DUP2 LT PUSH2 0x72A JUMPI PUSH2 0x729 PUSH2 0x2261 JUMP JUMPDEST JUMPDEST PUSH1 0x20 MUL PUSH1 0x20 ADD ADD MLOAD SWAP1 POP PUSH1 0x0 PUSH1 0x3 PUSH1 0x0 DUP7 DUP2 MSTORE PUSH1 0x20 ADD SWAP1 DUP2 MSTORE PUSH1 0x20 ADD PUSH1 0x0 KECCAK256 PUSH1 0x0 DUP4 PUSH20 0xFFFFFFFFFFFFFFFFFFFFFFFFFFFFFFFFFFFFFFFF AND PUSH20 0xFFFFFFFFFFFFFFFFFFFFFFFFFFFFFFFFFFFFFFFF AND DUP2 MSTORE PUSH1 0x20 ADD SWAP1 DUP2 MSTORE PUSH1 0x20 ADD PUSH1 0x0 KECCAK256 SLOAD SWAP1 POP PUSH32 0x0 PUSH20 0xFFFFFFFFFFFFFFFFFFFFFFFFFFFFFFFFFFFFFFFF AND PUSH4 0xA9059CBB DUP4 DUP4 PUSH1 0x40 MLOAD DUP4 PUSH4 0xFFFFFFFF AND PUSH1 0xE0 SHL DUP2 MSTORE PUSH1 0x4 ADD PUSH2 0x7E4 SWAP3 SWAP2 SWAP1 PUSH2 0x2466 JUMP JUMPDEST PUSH1 0x20 PUSH1 0x40 MLOAD DUP1 DUP4 SUB DUP2 PUSH1 0x0 DUP8 GAS CALL ISZERO DUP1 ISZERO PUSH2 0x803 JUMPI RETURNDATASIZE PUSH1 0x0 DUP1 RETURNDATACOPY RETURNDATASIZE PUSH1 0x0 REVERT JUMPDEST POP POP POP POP PUSH1 0x40 MLOAD RETURNDATASIZE PUSH1 0x1F NOT PUSH1 0x1F DUP3 ADD AND DUP3 ADD DUP1 PUSH1 0x40 MSTORE POP DUP2 ADD SWAP1 PUSH2 0x827 SWAP2 SWAP1 PUSH2 0x24BB JUMP JUMPDEST POP DUP1 PUSH1 0x2 DUP7 DUP2 SLOAD DUP2 LT PUSH2 0x83D JUMPI PUSH2 0x83C PUSH2 0x2261 JUMP JUMPDEST JUMPDEST SWAP1 PUSH1 0x0 MSTORE PUSH1 0x20 PUSH1 0x0 KECCAK256 SWAP1 PUSH1 0x7 MUL ADD PUSH1 0x3 ADD PUSH1 0x0 DUP3 DUP3 SLOAD PUSH2 0x85D SWAP2 SWAP1 PUSH2 0x263B JUMP JUMPDEST SWAP3 POP POP DUP2 SWAP1 SSTORE POP DUP1 PUSH1 0x3 PUSH1 0x0 DUP8 DUP2 MSTORE PUSH1 0x20 ADD SWAP1 DUP2 MSTORE PUSH1 0x20 ADD PUSH1 0x0 KECCAK256 PUSH1 0x0 DUP5 PUSH20 0xFFFFFFFFFFFFFFFFFFFFFFFFFFFFFFFFFFFFFFFF AND PUSH20 0xFFFFFFFFFFFFFFFFFFFFFFFFFFFFFFFFFFFFFFFF AND DUP2 MSTORE PUSH1 0x20 ADD SWAP1 DUP2 MSTORE PUSH1 0x20 ADD PUSH1 0x0 KECCAK256 PUSH1 0x0 DUP3 DUP3 SLOAD PUSH2 0x8C4 SWAP2 SWAP1 PUSH2 0x263B JUMP JUMPDEST SWAP3 POP POP DUP2 SWAP1 SSTORE POP DUP2 PUSH20 0xFFFFFFFFFFFFFFFFFFFFFFFFFFFFFFFFFFFFFFFF AND DUP6 PUSH32 0xFCD29B1632C6748A9A4BB9B4CD5C6486C3C84A8550DCE2368F83FEF3969D9685 DUP4 PUSH1 0x40 MLOAD PUSH2 0x912 SWAP2 SWAP1 PUSH2 0x266F JUMP JUMPDEST PUSH1 0x40 MLOAD DUP1 SWAP2 SUB SWAP1 LOG3 POP POP DUP1 DUP1 PUSH2 0x927 SWAP1 PUSH2 0x268A JUMP JUMPDEST SWAP2 POP POP PUSH2 0x704 JUMP JUMPDEST POP POP POP JUMP JUMPDEST PUSH1 0x0 PUSH1 0x2 DUP3 DUP2 SLOAD DUP2 LT PUSH2 0x94A JUMPI PUSH2 0x949 PUSH2 0x2261 JUMP JUMPDEST JUMPDEST SWAP1 PUSH1 0x0 MSTORE PUSH1 0x20 PUSH1 0x0 KECCAK256 SWAP1 PUSH1 0x7 MUL ADD PUSH1 0x40 MLOAD DUP1 PUSH2 0x120 ADD PUSH1 0x40 MSTORE SWAP1 DUP2 PUSH1 0x0 DUP3 ADD SLOAD DUP2 MSTORE PUSH1 0x20 ADD PUSH1 0x1 DUP3 ADD PUSH1 0x0 SWAP1 SLOAD SWAP1 PUSH2 0x100 EXP SWAP1 DIV PUSH20 0xFFFFFFFFFFFFFFFFFFFFFFFFFFFFFFFFFFFFFFFF AND PUSH20 0xFFFFFFFFFFFFFFFFFFFFFFFFFFFFFFFFFFFFFFFF AND PUSH20 0xFFFFFFFFFFFFFFFFFFFFFFFFFFFFFFFFFFFFFFFF AND DUP2 MSTORE PUSH1 0x20 ADD PUSH1 0x2 DUP3 ADD SLOAD DUP2 MSTORE PUSH1 0x20 ADD PUSH1 0x3 DUP3 ADD SLOAD DUP2 MSTORE PUSH1 0x20 ADD PUSH1 0x4 DUP3 ADD PUSH1 0x0 SWAP1 SLOAD SWAP1 PUSH2 0x100 EXP SWAP1 DIV PUSH4 0xFFFFFFFF AND PUSH4 0xFFFFFFFF AND PUSH4 0xFFFFFFFF AND DUP2 MSTORE PUSH1 0x20 ADD PUSH1 0x4 DUP3 ADD PUSH1 0x4 SWAP1 SLOAD SWAP1 PUSH2 0x100 EXP SWAP1 DIV PUSH4 0xFFFFFFFF AND PUSH4 0xFFFFFFFF AND PUSH4 0xFFFFFFFF AND DUP2 MSTORE PUSH1 0x20 ADD PUSH1 0x5 DUP3 ADD DUP1 SLOAD DUP1 PUSH1 0x20 MUL PUSH1 0x20 ADD PUSH1 0x40 MLOAD SWAP1 DUP2 ADD PUSH1 0x40 MSTORE DUP1 SWAP3 SWAP2 SWAP1 DUP2 DUP2 MSTORE PUSH1 0x20 ADD DUP3 DUP1 SLOAD DUP1 ISZERO PUSH2 0xAA9 JUMPI PUSH1 0x20 MUL DUP3 ADD SWAP2 SWAP1 PUSH1 0x0 MSTORE PUSH1 0x20 PUSH1 0x0 KECCAK256 SWAP1 JUMPDEST DUP2 PUSH1 0x0 SWAP1 SLOAD SWAP1 PUSH2 0x100 EXP SWAP1 DIV PUSH20 0xFFFFFFFFFFFFFFFFFFFFFFFFFFFFFFFFFFFFFFFF AND PUSH20 0xFFFFFFFFFFFFFFFFFFFFFFFFFFFFFFFFFFFFFFFF AND DUP2 MSTORE PUSH1 0x20 ADD SWAP1 PUSH1 0x1 ADD SWAP1 DUP1 DUP4 GT PUSH2 0xA5F JUMPI JUMPDEST POP POP POP POP POP DUP2 MSTORE PUSH1 0x20 ADD PUSH1 0x6 DUP3 ADD PUSH1 0x0 SWAP1 SLOAD SWAP1 PUSH2 0x100 EXP SWAP1 DIV PUSH1 0xFF AND ISZERO ISZERO ISZERO ISZERO DUP2 MSTORE PUSH1 0x20 ADD PUSH1 0x6 DUP3 ADD PUSH1 0x1 SWAP1 SLOAD SWAP1 PUSH2 0x100 EXP SWAP1 DIV PUSH1 0xFF AND ISZERO ISZERO ISZERO ISZERO DUP2 MSTORE POP POP SWAP1 POP CALLER PUSH20 0xFFFFFFFFFFFFFFFFFFFFFFFFFFFFFFFFFFFFFFFF AND DUP2 PUSH1 0x20 ADD MLOAD PUSH20 0xFFFFFFFFFFFFFFFFFFFFFFFFFFFFFFFFFFFFFFFF AND EQ ISZERO DUP1 ISZERO PUSH2 0xB5D JUMPI POP CALLER PUSH20 0xFFFFFFFFFFFFFFFFFFFFFFFFFFFFFFFFFFFFFFFF AND PUSH2 0xB44 PUSH2 0x10FF JUMP JUMPDEST PUSH20 0xFFFFFFFFFFFFFFFFFFFFFFFFFFFFFFFFFFFFFFFF AND EQ ISZERO JUMPDEST ISZERO PUSH2 0xB9D JUMPI PUSH1 0x40 MLOAD PUSH32 0x8C379A000000000000000000000000000000000000000000000000000000000 DUP2 MSTORE PUSH1 0x4 ADD PUSH2 0xB94 SWAP1 PUSH2 0x2744 JUMP JUMPDEST PUSH1 0x40 MLOAD DUP1 SWAP2 SUB SWAP1 REVERT JUMPDEST DUP1 PUSH1 0xE0 ADD MLOAD DUP1 PUSH2 0xBB2 JUMPI POP PUSH1 0x0 DUP2 PUSH1 0x60 ADD MLOAD GT ISZERO JUMPDEST PUSH2 0xBF1 JUMPI PUSH1 0x40 MLOAD PUSH32 0x8C379A000000000000000000000000000000000000000000000000000000000 DUP2 MSTORE PUSH1 0x4 ADD PUSH2 0xBE8 SWAP1 PUSH2 0x27D6 JUMP JUMPDEST PUSH1 0x40 MLOAD DUP1 SWAP2 SUB SWAP1 REVERT JUMPDEST PUSH1 0x2 DUP3 DUP2 SLOAD DUP2 LT PUSH2 0xC05 JUMPI PUSH2 0xC04 PUSH2 0x2261 JUMP JUMPDEST JUMPDEST SWAP1 PUSH1 0x0 MSTORE PUSH1 0x20 PUSH1 0x0 KECCAK256 SWAP1 PUSH1 0x7 MUL ADD PUSH1 0x0 DUP1 DUP3 ADD PUSH1 0x0 SWAP1 SSTORE PUSH1 0x1 DUP3 ADD PUSH1 0x0 PUSH2 0x100 EXP DUP2 SLOAD SWAP1 PUSH20 0xFFFFFFFFFFFFFFFFFFFFFFFFFFFFFFFFFFFFFFFF MUL NOT AND SWAP1 SSTORE PUSH1 0x2 DUP3 ADD PUSH1 0x0 SWAP1 SSTORE PUSH1 0x3 DUP3 ADD PUSH1 0x0 SWAP1 SSTORE PUSH1 0x4 DUP3 ADD PUSH1 0x0 PUSH2 0x100 EXP DUP2 SLOAD SWAP1 PUSH4 0xFFFFFFFF MUL NOT AND SWAP1 SSTORE PUSH1 0x4 DUP3 ADD PUSH1 0x4 PUSH2 0x100 EXP DUP2 SLOAD SWAP1 PUSH4 0xFFFFFFFF MUL NOT AND SWAP1 SSTORE PUSH1 0x5 DUP3 ADD PUSH1 0x0 PUSH2 0xC91 SWAP2 SWAP1 PUSH2 0x1C93 JUMP JUMPDEST PUSH1 0x6 DUP3 ADD PUSH1 0x0 PUSH2 0x100 EXP DUP2 SLOAD SWAP1 PUSH1 0xFF MUL NOT AND SWAP1 SSTORE PUSH1 0x6 DUP3 ADD PUSH1 0x1 PUSH2 0x100 EXP DUP2 SLOAD SWAP1 PUSH1 0xFF MUL NOT AND SWAP1 SSTORE POP POP PUSH32 0x8BF30E7FF26833413BE5F69E1D373744864D600B664204B4A2F9844A8EEDB9ED DUP3 PUSH1 0x40 MLOAD PUSH2 0xCEA SWAP2 SWAP1 PUSH2 0x266F JUMP JUMPDEST PUSH1 0x40 MLOAD DUP1 SWAP2 SUB SWAP1 LOG1 POP POP JUMP JUMPDEST POP POP JUMP JUMPDEST DUP2 PUSH1 0x0 PUSH1 0x2 DUP3 DUP2 SLOAD DUP2 LT PUSH2 0xD11 JUMPI PUSH2 0xD10 PUSH2 0x2261 JUMP JUMPDEST JUMPDEST SWAP1 PUSH1 0x0 MSTORE PUSH1 0x20 PUSH1 0x0 KECCAK256 SWAP1 PUSH1 0x7 MUL ADD SWAP1 POP TIMESTAMP DUP2 PUSH1 0x4 ADD PUSH1 0x0 SWAP1 SLOAD SWAP1 PUSH2 0x100 EXP SWAP1 DIV PUSH4 0xFFFFFFFF AND PUSH4 0xFFFFFFFF AND GT ISZERO PUSH2 0xD7E JUMPI PUSH1 0x40 MLOAD PUSH32 0x8C379A000000000000000000000000000000000000000000000000000000000 DUP2 MSTORE PUSH1 0x4 ADD PUSH2 0xD75 SWAP1 PUSH2 0x2842 JUMP JUMPDEST PUSH1 0x40 MLOAD DUP1 SWAP2 SUB SWAP1 REVERT JUMPDEST TIMESTAMP DUP2 PUSH1 0x4 ADD PUSH1 0x4 SWAP1 SLOAD SWAP1 PUSH2 0x100 EXP SWAP1 DIV PUSH4 0xFFFFFFFF AND PUSH4 0xFFFFFFFF AND LT ISZERO PUSH2 0xDDB JUMPI PUSH1 0x40 MLOAD PUSH32 0x8C379A000000000000000000000000000000000000000000000000000000000 DUP2 MSTORE PUSH1 0x4 ADD PUSH2 0xDD2 SWAP1 PUSH2 0x28AE JUMP JUMPDEST PUSH1 0x40 MLOAD DUP1 SWAP2 SUB SWAP1 REVERT JUMPDEST DUP1 PUSH1 0x2 ADD SLOAD DUP2 PUSH1 0x3 ADD SLOAD LT PUSH2 0xE25 JUMPI PUSH1 0x40 MLOAD PUSH32 0x8C379A000000000000000000000000000000000000000000000000000000000 DUP2 MSTORE PUSH1 0x4 ADD PUSH2 0xE1C SWAP1 PUSH2 0x2940 JUMP JUMPDEST PUSH1 0x40 MLOAD DUP1 SWAP2 SUB SWAP1 REVERT JUMPDEST PUSH1 0x1 ISZERO ISZERO DUP2 PUSH1 0x6 ADD PUSH1 0x1 SWAP1 SLOAD SWAP1 PUSH2 0x100 EXP SWAP1 DIV PUSH1 0xFF AND ISZERO ISZERO EQ PUSH2 0xE7D JUMPI PUSH1 0x40 MLOAD PUSH32 0x8C379A000000000000000000000000000000000000000000000000000000000 DUP2 MSTORE PUSH1 0x4 ADD PUSH2 0xE74 SWAP1 PUSH2 0x29D2 JUMP JUMPDEST PUSH1 0x40 MLOAD DUP1 SWAP2 SUB SWAP1 REVERT JUMPDEST DUP3 PUSH1 0x3 PUSH1 0x0 DUP7 DUP2 MSTORE PUSH1 0x20 ADD SWAP1 DUP2 MSTORE PUSH1 0x20 ADD PUSH1 0x0 KECCAK256 PUSH1 0x0 CALLER PUSH20 0xFFFFFFFFFFFFFFFFFFFFFFFFFFFFFFFFFFFFFFFF AND PUSH20 0xFFFFFFFFFFFFFFFFFFFFFFFFFFFFFFFFFFFFFFFF AND DUP2 MSTORE PUSH1 0x20 ADD SWAP1 DUP2 MSTORE PUSH1 0x20 ADD PUSH1 0x0 KECCAK256 SLOAD LT ISZERO PUSH2 0xF10 JUMPI PUSH1 0x40 MLOAD PUSH32 0x8C379A000000000000000000000000000000000000000000000000000000000 DUP2 MSTORE PUSH1 0x4 ADD PUSH2 0xF07 SWAP1 PUSH2 0x2A3E JUMP JUMPDEST PUSH1 0x40 MLOAD DUP1 SWAP2 SUB SWAP1 REVERT JUMPDEST PUSH1 0x0 PUSH32 0x0 PUSH20 0xFFFFFFFFFFFFFFFFFFFFFFFFFFFFFFFFFFFFFFFF AND PUSH4 0xA9059CBB CALLER DUP7 PUSH1 0x40 MLOAD DUP4 PUSH4 0xFFFFFFFF AND PUSH1 0xE0 SHL DUP2 MSTORE PUSH1 0x4 ADD PUSH2 0xF6D SWAP3 SWAP2 SWAP1 PUSH2 0x2466 JUMP JUMPDEST PUSH1 0x20 PUSH1 0x40 MLOAD DUP1 DUP4 SUB DUP2 PUSH1 0x0 DUP8 GAS CALL ISZERO DUP1 ISZERO PUSH2 0xF8C JUMPI RETURNDATASIZE PUSH1 0x0 DUP1 RETURNDATACOPY RETURNDATASIZE PUSH1 0x0 REVERT JUMPDEST POP POP POP POP PUSH1 0x40 MLOAD RETURNDATASIZE PUSH1 0x1F NOT PUSH1 0x1F DUP3 ADD AND DUP3 ADD DUP1 PUSH1 0x40 MSTORE POP DUP2 ADD SWAP1 PUSH2 0xFB0 SWAP2 SWAP1 PUSH2 0x24BB JUMP JUMPDEST SWAP1 POP DUP1 PUSH2 0xFF2 JUMPI PUSH1 0x40 MLOAD PUSH32 0x8C379A000000000000000000000000000000000000000000000000000000000 DUP2 MSTORE PUSH1 0x4 ADD PUSH2 0xFE9 SWAP1 PUSH2 0x255A JUMP JUMPDEST PUSH1 0x40 MLOAD DUP1 SWAP2 SUB SWAP1 REVERT JUMPDEST DUP4 PUSH1 0x2 DUP7 DUP2 SLOAD DUP2 LT PUSH2 0x1007 JUMPI PUSH2 0x1006 PUSH2 0x2261 JUMP JUMPDEST JUMPDEST SWAP1 PUSH1 0x0 MSTORE PUSH1 0x20 PUSH1 0x0 KECCAK256 SWAP1 PUSH1 0x7 MUL ADD PUSH1 0x3 ADD PUSH1 0x0 DUP3 DUP3 SLOAD PUSH2 0x1027 SWAP2 SWAP1 PUSH2 0x263B JUMP JUMPDEST SWAP3 POP POP DUP2 SWAP1 SSTORE POP DUP4 PUSH1 0x3 PUSH1 0x0 DUP8 DUP2 MSTORE PUSH1 0x20 ADD SWAP1 DUP2 MSTORE PUSH1 0x20 ADD PUSH1 0x0 KECCAK256 PUSH1 0x0 CALLER PUSH20 0xFFFFFFFFFFFFFFFFFFFFFFFFFFFFFFFFFFFFFFFF AND PUSH20 0xFFFFFFFFFFFFFFFFFFFFFFFFFFFFFFFFFFFFFFFF AND DUP2 MSTORE PUSH1 0x20 ADD SWAP1 DUP2 MSTORE PUSH1 0x20 ADD PUSH1 0x0 KECCAK256 PUSH1 0x0 DUP3 DUP3 SLOAD PUSH2 0x108E SWAP2 SWAP1 PUSH2 0x263B JUMP JUMPDEST SWAP3 POP POP DUP2 SWAP1 SSTORE POP CALLER PUSH20 0xFFFFFFFFFFFFFFFFFFFFFFFFFFFFFFFFFFFFFFFF AND DUP6 PUSH32 0xFCD29B1632C6748A9A4BB9B4CD5C6486C3C84A8550DCE2368F83FEF3969D9685 DUP7 PUSH1 0x40 MLOAD PUSH2 0x10DC SWAP2 SWAP1 PUSH2 0x266F JUMP JUMPDEST PUSH1 0x40 MLOAD DUP1 SWAP2 SUB SWAP1 LOG3 POP POP POP POP POP JUMP JUMPDEST PUSH2 0x10F3 PUSH2 0x1B49 JUMP JUMPDEST PUSH2 0x10FD PUSH1 0x0 PUSH2 0x1BC7 JUMP JUMPDEST JUMP JUMPDEST PUSH1 0x0 DUP1 PUSH1 0x0 SWAP1 SLOAD SWAP1 PUSH2 0x100 EXP SWAP1 DIV PUSH20 0xFFFFFFFFFFFFFFFFFFFFFFFFFFFFFFFFFFFFFFFF AND SWAP1 POP SWAP1 JUMP JUMPDEST PUSH1 0x60 PUSH1 0x2 DUP1 SLOAD DUP1 PUSH1 0x20 MUL PUSH1 0x20 ADD PUSH1 0x40 MLOAD SWAP1 DUP2 ADD PUSH1 0x40 MSTORE DUP1 SWAP3 SWAP2 SWAP1 DUP2 DUP2 MSTORE PUSH1 0x20 ADD PUSH1 0x0 SWAP1 JUMPDEST DUP3 DUP3 LT ISZERO PUSH2 0x1303 JUMPI DUP4 DUP3 SWAP1 PUSH1 0x0 MSTORE PUSH1 0x20 PUSH1 0x0 KECCAK256 SWAP1 PUSH1 0x7 MUL ADD PUSH1 0x40 MLOAD DUP1 PUSH2 0x120 ADD PUSH1 0x40 MSTORE SWAP1 DUP2 PUSH1 0x0 DUP3 ADD SLOAD DUP2 MSTORE PUSH1 0x20 ADD PUSH1 0x1 DUP3 ADD PUSH1 0x0 SWAP1 SLOAD SWAP1 PUSH2 0x100 EXP SWAP1 DIV PUSH20 0xFFFFFFFFFFFFFFFFFFFFFFFFFFFFFFFFFFFFFFFF AND PUSH20 0xFFFFFFFFFFFFFFFFFFFFFFFFFFFFFFFFFFFFFFFF AND PUSH20 0xFFFFFFFFFFFFFFFFFFFFFFFFFFFFFFFFFFFFFFFF AND DUP2 MSTORE PUSH1 0x20 ADD PUSH1 0x2 DUP3 ADD SLOAD DUP2 MSTORE PUSH1 0x20 ADD PUSH1 0x3 DUP3 ADD SLOAD DUP2 MSTORE PUSH1 0x20 ADD PUSH1 0x4 DUP3 ADD PUSH1 0x0 SWAP1 SLOAD SWAP1 PUSH2 0x100 EXP SWAP1 DIV PUSH4 0xFFFFFFFF AND PUSH4 0xFFFFFFFF AND PUSH4 0xFFFFFFFF AND DUP2 MSTORE PUSH1 0x20 ADD PUSH1 0x4 DUP3 ADD PUSH1 0x4 SWAP1 SLOAD SWAP1 PUSH2 0x100 EXP SWAP1 DIV PUSH4 0xFFFFFFFF AND PUSH4 0xFFFFFFFF AND PUSH4 0xFFFFFFFF AND DUP2 MSTORE PUSH1 0x20 ADD PUSH1 0x5 DUP3 ADD DUP1 SLOAD DUP1 PUSH1 0x20 MUL PUSH1 0x20 ADD PUSH1 0x40 MLOAD SWAP1 DUP2 ADD PUSH1 0x40 MSTORE DUP1 SWAP3 SWAP2 SWAP1 DUP2 DUP2 MSTORE PUSH1 0x20 ADD DUP3 DUP1 SLOAD DUP1 ISZERO PUSH2 0x12B5 JUMPI PUSH1 0x20 MUL DUP3 ADD SWAP2 SWAP1 PUSH1 0x0 MSTORE PUSH1 0x20 PUSH1 0x0 KECCAK256 SWAP1 JUMPDEST DUP2 PUSH1 0x0 SWAP1 SLOAD SWAP1 PUSH2 0x100 EXP SWAP1 DIV PUSH20 0xFFFFFFFFFFFFFFFFFFFFFFFFFFFFFFFFFFFFFFFF AND PUSH20 0xFFFFFFFFFFFFFFFFFFFFFFFFFFFFFFFFFFFFFFFF AND DUP2 MSTORE PUSH1 0x20 ADD SWAP1 PUSH1 0x1 ADD SWAP1 DUP1 DUP4 GT PUSH2 0x126B JUMPI JUMPDEST POP POP POP POP POP DUP2 MSTORE PUSH1 0x20 ADD PUSH1 0x6 DUP3 ADD PUSH1 0x0 SWAP1 SLOAD SWAP1 PUSH2 0x100 EXP SWAP1 DIV PUSH1 0xFF AND ISZERO ISZERO ISZERO ISZERO DUP2 MSTORE PUSH1 0x20 ADD PUSH1 0x6 DUP3 ADD PUSH1 0x1 SWAP1 SLOAD SWAP1 PUSH2 0x100 EXP SWAP1 DIV PUSH1 0xFF AND ISZERO ISZERO ISZERO ISZERO DUP2 MSTORE POP POP DUP2 MSTORE PUSH1 0x20 ADD SWAP1 PUSH1 0x1 ADD SWAP1 PUSH2 0x114C JUMP JUMPDEST POP POP POP POP SWAP1 POP SWAP1 JUMP JUMPDEST PUSH2 0x1314 PUSH2 0x1B49 JUMP JUMPDEST PUSH1 0x0 PUSH1 0x2 DUP3 DUP2 SLOAD DUP2 LT PUSH2 0x132A JUMPI PUSH2 0x1329 PUSH2 0x2261 JUMP JUMPDEST JUMPDEST SWAP1 PUSH1 0x0 MSTORE PUSH1 0x20 PUSH1 0x0 KECCAK256 SWAP1 PUSH1 0x7 MUL ADD SWAP1 POP DUP1 PUSH1 0x6 ADD PUSH1 0x1 SWAP1 SLOAD SWAP1 PUSH2 0x100 EXP SWAP1 DIV PUSH1 0xFF AND ISZERO DUP2 PUSH1 0x6 ADD PUSH1 0x1 PUSH2 0x100 EXP DUP2 SLOAD DUP2 PUSH1 0xFF MUL NOT AND SWAP1 DUP4 ISZERO ISZERO MUL OR SWAP1 SSTORE POP POP POP JUMP JUMPDEST TIMESTAMP DUP3 PUSH4 0xFFFFFFFF AND GT PUSH2 0x13B4 JUMPI PUSH1 0x40 MLOAD PUSH32 0x8C379A000000000000000000000000000000000000000000000000000000000 DUP2 MSTORE PUSH1 0x4 ADD PUSH2 0x13AB SWAP1 PUSH2 0x2AAA JUMP JUMPDEST PUSH1 0x40 MLOAD DUP1 SWAP2 SUB SWAP1 REVERT JUMPDEST DUP2 PUSH4 0xFFFFFFFF AND DUP2 PUSH4 0xFFFFFFFF AND GT PUSH2 0x1402 JUMPI PUSH1 0x40 MLOAD PUSH32 0x8C379A000000000000000000000000000000000000000000000000000000000 DUP2 MSTORE PUSH1 0x4 ADD PUSH2 0x13F9 SWAP1 PUSH2 0x2B3C JUMP JUMPDEST PUSH1 0x40 MLOAD DUP1 SWAP2 SUB SWAP1 REVERT JUMPDEST PUSH3 0x76A700 DUP3 PUSH2 0x1411 SWAP2 SWAP1 PUSH2 0x2B5C JUMP JUMPDEST PUSH4 0xFFFFFFFF AND DUP2 PUSH4 0xFFFFFFFF AND GT ISZERO PUSH2 0x145F JUMPI PUSH1 0x40 MLOAD PUSH32 0x8C379A000000000000000000000000000000000000000000000000000000000 DUP2 MSTORE PUSH1 0x4 ADD PUSH2 0x1456 SWAP1 PUSH2 0x2C08 JUMP JUMPDEST PUSH1 0x40 MLOAD DUP1 SWAP2 SUB SWAP1 REVERT JUMPDEST PUSH1 0x60 PUSH1 0x2 PUSH1 0x40 MLOAD DUP1 PUSH2 0x120 ADD PUSH1 0x40 MSTORE DUP1 PUSH1 0x1 SLOAD DUP2 MSTORE PUSH1 0x20 ADD CALLER PUSH20 0xFFFFFFFFFFFFFFFFFFFFFFFFFFFFFFFFFFFFFFFF AND DUP2 MSTORE PUSH1 0x20 ADD DUP7 DUP2 MSTORE PUSH1 0x20 ADD PUSH1 0x0 DUP2 MSTORE PUSH1 0x20 ADD DUP6 PUSH4 0xFFFFFFFF AND DUP2 MSTORE PUSH1 0x20 ADD DUP5 PUSH4 0xFFFFFFFF AND DUP2 MSTORE PUSH1 0x20 ADD DUP4 DUP2 MSTORE PUSH1 0x20 ADD PUSH1 0x0 ISZERO ISZERO DUP2 MSTORE PUSH1 0x20 ADD PUSH1 0x1 ISZERO ISZERO DUP2 MSTORE POP SWAP1 DUP1 PUSH1 0x1 DUP2 SLOAD ADD DUP1 DUP3 SSTORE DUP1 SWAP2 POP POP PUSH1 0x1 SWAP1 SUB SWAP1 PUSH1 0x0 MSTORE PUSH1 0x20 PUSH1 0x0 KECCAK256 SWAP1 PUSH1 0x7 MUL ADD PUSH1 0x0 SWAP1 SWAP2 SWAP1 SWAP2 SWAP1 SWAP2 POP PUSH1 0x0 DUP3 ADD MLOAD DUP2 PUSH1 0x0 ADD SSTORE PUSH1 0x20 DUP3 ADD MLOAD DUP2 PUSH1 0x1 ADD PUSH1 0x0 PUSH2 0x100 EXP DUP2 SLOAD DUP2 PUSH20 0xFFFFFFFFFFFFFFFFFFFFFFFFFFFFFFFFFFFFFFFF MUL NOT AND SWAP1 DUP4 PUSH20 0xFFFFFFFFFFFFFFFFFFFFFFFFFFFFFFFFFFFFFFFF AND MUL OR SWAP1 SSTORE POP PUSH1 0x40 DUP3 ADD MLOAD DUP2 PUSH1 0x2 ADD SSTORE PUSH1 0x60 DUP3 ADD MLOAD DUP2 PUSH1 0x3 ADD SSTORE PUSH1 0x80 DUP3 ADD MLOAD DUP2 PUSH1 0x4 ADD PUSH1 0x0 PUSH2 0x100 EXP DUP2 SLOAD DUP2 PUSH4 0xFFFFFFFF MUL NOT AND SWAP1 DUP4 PUSH4 0xFFFFFFFF AND MUL OR SWAP1 SSTORE POP PUSH1 0xA0 DUP3 ADD MLOAD DUP2 PUSH1 0x4 ADD PUSH1 0x4 PUSH2 0x100 EXP DUP2 SLOAD DUP2 PUSH4 0xFFFFFFFF MUL NOT AND SWAP1 DUP4 PUSH4 0xFFFFFFFF AND MUL OR SWAP1 SSTORE POP PUSH1 0xC0 DUP3 ADD MLOAD DUP2 PUSH1 0x5 ADD SWAP1 DUP1 MLOAD SWAP1 PUSH1 0x20 ADD SWAP1 PUSH2 0x15C6 SWAP3 SWAP2 SWAP1 PUSH2 0x1CB4 JUMP JUMPDEST POP PUSH1 0xE0 DUP3 ADD MLOAD DUP2 PUSH1 0x6 ADD PUSH1 0x0 PUSH2 0x100 EXP DUP2 SLOAD DUP2 PUSH1 0xFF MUL NOT AND SWAP1 DUP4 ISZERO ISZERO MUL OR SWAP1 SSTORE POP PUSH2 0x100 DUP3 ADD MLOAD DUP2 PUSH1 0x6 ADD PUSH1 0x1 PUSH2 0x100 EXP DUP2 SLOAD DUP2 PUSH1 0xFF MUL NOT AND SWAP1 DUP4 ISZERO ISZERO MUL OR SWAP1 SSTORE POP POP POP PUSH1 0x1 PUSH1 0x0 DUP2 SLOAD DUP1 SWAP3 SWAP2 SWAP1 PUSH2 0x161D SWAP1 PUSH2 0x268A JUMP JUMPDEST SWAP2 SWAP1 POP SSTORE POP CALLER PUSH20 0xFFFFFFFFFFFFFFFFFFFFFFFFFFFFFFFFFFFFFFFF AND PUSH32 0xF048C66111C8055B679AC16AC1F45C209334C7EB9BAE25A2230D8299827A1FE PUSH1 0x1 SLOAD DUP7 DUP7 DUP7 PUSH1 0x40 MLOAD PUSH2 0x1670 SWAP5 SWAP4 SWAP3 SWAP2 SWAP1 PUSH2 0x2C59 JUMP JUMPDEST PUSH1 0x40 MLOAD DUP1 SWAP2 SUB SWAP1 LOG2 POP POP POP POP JUMP JUMPDEST PUSH2 0x1686 PUSH2 0x1B49 JUMP JUMPDEST PUSH1 0x0 PUSH20 0xFFFFFFFFFFFFFFFFFFFFFFFFFFFFFFFFFFFFFFFF AND DUP2 PUSH20 0xFFFFFFFFFFFFFFFFFFFFFFFFFFFFFFFFFFFFFFFF AND SUB PUSH2 0x16F5 JUMPI PUSH1 0x40 MLOAD PUSH32 0x8C379A000000000000000000000000000000000000000000000000000000000 DUP2 MSTORE PUSH1 0x4 ADD PUSH2 0x16EC SWAP1 PUSH2 0x2D10 JUMP JUMPDEST PUSH1 0x40 MLOAD DUP1 SWAP2 SUB SWAP1 REVERT JUMPDEST PUSH2 0x16FE DUP2 PUSH2 0x1BC7 JUMP JUMPDEST POP JUMP JUMPDEST PUSH32 0x0 DUP2 JUMP JUMPDEST DUP2 PUSH1 0x0 PUSH1 0x2 DUP3 DUP2 SLOAD DUP2 LT PUSH2 0x173C JUMPI PUSH2 0x173B PUSH2 0x2261 JUMP JUMPDEST JUMPDEST SWAP1 PUSH1 0x0 MSTORE PUSH1 0x20 PUSH1 0x0 KECCAK256 SWAP1 PUSH1 0x7 MUL ADD SWAP1 POP TIMESTAMP DUP2 PUSH1 0x4 ADD PUSH1 0x0 SWAP1 SLOAD SWAP1 PUSH2 0x100 EXP SWAP1 DIV PUSH4 0xFFFFFFFF AND PUSH4 0xFFFFFFFF AND GT ISZERO PUSH2 0x17A9 JUMPI PUSH1 0x40 MLOAD PUSH32 0x8C379A000000000000000000000000000000000000000000000000000000000 DUP2 MSTORE PUSH1 0x4 ADD PUSH2 0x17A0 SWAP1 PUSH2 0x2842 JUMP JUMPDEST PUSH1 0x40 MLOAD DUP1 SWAP2 SUB SWAP1 REVERT JUMPDEST TIMESTAMP DUP2 PUSH1 0x4 ADD PUSH1 0x4 SWAP1 SLOAD SWAP1 PUSH2 0x100 EXP SWAP1 DIV PUSH4 0xFFFFFFFF AND PUSH4 0xFFFFFFFF AND LT ISZERO PUSH2 0x1806 JUMPI PUSH1 0x40 MLOAD PUSH32 0x8C379A000000000000000000000000000000000000000000000000000000000 DUP2 MSTORE PUSH1 0x4 ADD PUSH2 0x17FD SWAP1 PUSH2 0x28AE JUMP JUMPDEST PUSH1 0x40 MLOAD DUP1 SWAP2 SUB SWAP1 REVERT JUMPDEST DUP1 PUSH1 0x2 ADD SLOAD DUP2 PUSH1 0x3 ADD SLOAD LT PUSH2 0x1850 JUMPI PUSH1 0x40 MLOAD PUSH32 0x8C379A000000000000000000000000000000000000000000000000000000000 DUP2 MSTORE PUSH1 0x4 ADD PUSH2 0x1847 SWAP1 PUSH2 0x2940 JUMP JUMPDEST PUSH1 0x40 MLOAD DUP1 SWAP2 SUB SWAP1 REVERT JUMPDEST PUSH1 0x1 ISZERO ISZERO DUP2 PUSH1 0x6 ADD PUSH1 0x1 SWAP1 SLOAD SWAP1 PUSH2 0x100 EXP SWAP1 DIV PUSH1 0xFF AND ISZERO ISZERO EQ PUSH2 0x18A8 JUMPI PUSH1 0x40 MLOAD PUSH32 0x8C379A000000000000000000000000000000000000000000000000000000000 DUP2 MSTORE PUSH1 0x4 ADD PUSH2 0x189F SWAP1 PUSH2 0x29D2 JUMP JUMPDEST PUSH1 0x40 MLOAD DUP1 SWAP2 SUB SWAP1 REVERT JUMPDEST PUSH1 0x0 PUSH1 0x2 DUP6 DUP2 SLOAD DUP2 LT PUSH2 0x18BE JUMPI PUSH2 0x18BD PUSH2 0x2261 JUMP JUMPDEST JUMPDEST SWAP1 PUSH1 0x0 MSTORE PUSH1 0x20 PUSH1 0x0 KECCAK256 SWAP1 PUSH1 0x7 MUL ADD SWAP1 POP PUSH1 0x0 PUSH32 0x0 PUSH20 0xFFFFFFFFFFFFFFFFFFFFFFFFFFFFFFFFFFFFFFFF AND PUSH4 0x23B872DD CALLER ADDRESS DUP9 PUSH1 0x40 MLOAD DUP5 PUSH4 0xFFFFFFFF AND PUSH1 0xE0 SHL DUP2 MSTORE PUSH1 0x4 ADD PUSH2 0x192D SWAP4 SWAP3 SWAP2 SWAP1 PUSH2 0x2D30 JUMP JUMPDEST PUSH1 0x20 PUSH1 0x40 MLOAD DUP1 DUP4 SUB DUP2 PUSH1 0x0 DUP8 GAS CALL ISZERO DUP1 ISZERO PUSH2 0x194C JUMPI RETURNDATASIZE PUSH1 0x0 DUP1 RETURNDATACOPY RETURNDATASIZE PUSH1 0x0 REVERT JUMPDEST POP POP POP POP PUSH1 0x40 MLOAD RETURNDATASIZE PUSH1 0x1F NOT PUSH1 0x1F DUP3 ADD AND DUP3 ADD DUP1 PUSH1 0x40 MSTORE POP DUP2 ADD SWAP1 PUSH2 0x1970 SWAP2 SWAP1 PUSH2 0x24BB JUMP JUMPDEST SWAP1 POP DUP1 PUSH2 0x19B2 JUMPI PUSH1 0x40 MLOAD PUSH32 0x8C379A000000000000000000000000000000000000000000000000000000000 DUP2 MSTORE PUSH1 0x4 ADD PUSH2 0x19A9 SWAP1 PUSH2 0x255A JUMP JUMPDEST PUSH1 0x40 MLOAD DUP1 SWAP2 SUB SWAP1 REVERT JUMPDEST PUSH1 0x0 PUSH1 0x3 PUSH1 0x0 DUP9 DUP2 MSTORE PUSH1 0x20 ADD SWAP1 DUP2 MSTORE PUSH1 0x20 ADD PUSH1 0x0 KECCAK256 PUSH1 0x0 CALLER PUSH20 0xFFFFFFFFFFFFFFFFFFFFFFFFFFFFFFFFFFFFFFFF AND PUSH20 0xFFFFFFFFFFFFFFFFFFFFFFFFFFFFFFFFFFFFFFFF AND DUP2 MSTORE PUSH1 0x20 ADD SWAP1 DUP2 MSTORE PUSH1 0x20 ADD PUSH1 0x0 KECCAK256 SLOAD SUB PUSH2 0x1A70 JUMPI DUP2 PUSH1 0x5 ADD CALLER SWAP1 DUP1 PUSH1 0x1 DUP2 SLOAD ADD DUP1 DUP3 SSTORE DUP1 SWAP2 POP POP PUSH1 0x1 SWAP1 SUB SWAP1 PUSH1 0x0 MSTORE PUSH1 0x20 PUSH1 0x0 KECCAK256 ADD PUSH1 0x0 SWAP1 SWAP2 SWAP1 SWAP2 SWAP1 SWAP2 PUSH2 0x100 EXP DUP2 SLOAD DUP2 PUSH20 0xFFFFFFFFFFFFFFFFFFFFFFFFFFFFFFFFFFFFFFFF MUL NOT AND SWAP1 DUP4 PUSH20 0xFFFFFFFFFFFFFFFFFFFFFFFFFFFFFFFFFFFFFFFF AND MUL OR SWAP1 SSTORE POP JUMPDEST DUP5 DUP3 PUSH1 0x3 ADD PUSH1 0x0 DUP3 DUP3 SLOAD PUSH2 0x1A84 SWAP2 SWAP1 PUSH2 0x2D67 JUMP JUMPDEST SWAP3 POP POP DUP2 SWAP1 SSTORE POP DUP5 PUSH1 0x3 PUSH1 0x0 DUP9 DUP2 MSTORE PUSH1 0x20 ADD SWAP1 DUP2 MSTORE PUSH1 0x20 ADD PUSH1 0x0 KECCAK256 PUSH1 0x0 CALLER PUSH20 0xFFFFFFFFFFFFFFFFFFFFFFFFFFFFFFFFFFFFFFFF AND PUSH20 0xFFFFFFFFFFFFFFFFFFFFFFFFFFFFFFFFFFFFFFFF AND DUP2 MSTORE PUSH1 0x20 ADD SWAP1 DUP2 MSTORE PUSH1 0x20 ADD PUSH1 0x0 KECCAK256 PUSH1 0x0 DUP3 DUP3 SLOAD PUSH2 0x1AEB SWAP2 SWAP1 PUSH2 0x2D67 JUMP JUMPDEST SWAP3 POP POP DUP2 SWAP1 SSTORE POP CALLER PUSH20 0xFFFFFFFFFFFFFFFFFFFFFFFFFFFFFFFFFFFFFFFF AND DUP7 PUSH32 0x2757AC6A40883F4491CC56930AE964DF9034E343E660D5179EB01E198336756B DUP8 PUSH1 0x40 MLOAD PUSH2 0x1B39 SWAP2 SWAP1 PUSH2 0x266F JUMP JUMPDEST PUSH1 0x40 MLOAD DUP1 SWAP2 SUB SWAP1 LOG3 POP POP POP POP POP POP JUMP JUMPDEST PUSH2 0x1B51 PUSH2 0x1C8B JUMP JUMPDEST PUSH20 0xFFFFFFFFFFFFFFFFFFFFFFFFFFFFFFFFFFFFFFFF AND PUSH2 0x1B6F PUSH2 0x10FF JUMP JUMPDEST PUSH20 0xFFFFFFFFFFFFFFFFFFFFFFFFFFFFFFFFFFFFFFFF AND EQ PUSH2 0x1BC5 JUMPI PUSH1 0x40 MLOAD PUSH32 0x8C379A000000000000000000000000000000000000000000000000000000000 DUP2 MSTORE PUSH1 0x4 ADD PUSH2 0x1BBC SWAP1 PUSH2 0x2E09 JUMP JUMPDEST PUSH1 0x40 MLOAD DUP1 SWAP2 SUB SWAP1 REVERT JUMPDEST JUMP JUMPDEST PUSH1 0x0 DUP1 PUSH1 0x0 SWAP1 SLOAD SWAP1 PUSH2 0x100 EXP SWAP1 DIV PUSH20 0xFFFFFFFFFFFFFFFFFFFFFFFFFFFFFFFFFFFFFFFF AND SWAP1 POP DUP2 PUSH1 0x0 DUP1 PUSH2 0x100 EXP DUP2 SLOAD DUP2 PUSH20 0xFFFFFFFFFFFFFFFFFFFFFFFFFFFFFFFFFFFFFFFF MUL NOT AND SWAP1 DUP4 PUSH20 0xFFFFFFFFFFFFFFFFFFFFFFFFFFFFFFFFFFFFFFFF AND MUL OR SWAP1 SSTORE POP DUP2 PUSH20 0xFFFFFFFFFFFFFFFFFFFFFFFFFFFFFFFFFFFFFFFF AND DUP2 PUSH20 0xFFFFFFFFFFFFFFFFFFFFFFFFFFFFFFFFFFFFFFFF AND PUSH32 0x8BE0079C531659141344CD1FD0A4F28419497F9722A3DAAFE3B4186F6B6457E0 PUSH1 0x40 MLOAD PUSH1 0x40 MLOAD DUP1 SWAP2 SUB SWAP1 LOG3 POP POP JUMP JUMPDEST PUSH1 0x0 CALLER SWAP1 POP SWAP1 JUMP JUMPDEST POP DUP1 SLOAD PUSH1 0x0 DUP3 SSTORE SWAP1 PUSH1 0x0 MSTORE PUSH1 0x20 PUSH1 0x0 KECCAK256 SWAP1 DUP2 ADD SWAP1 PUSH2 0x1CB1 SWAP2 SWAP1 PUSH2 0x1D3E JUMP JUMPDEST POP JUMP JUMPDEST DUP3 DUP1 SLOAD DUP3 DUP3 SSTORE SWAP1 PUSH1 0x0 MSTORE PUSH1 0x20 PUSH1 0x0 KECCAK256 SWAP1 DUP2 ADD SWAP3 DUP3 ISZERO PUSH2 0x1D2D JUMPI SWAP2 PUSH1 0x20 MUL DUP3 ADD JUMPDEST DUP3 DUP2 GT ISZERO PUSH2 0x1D2C JUMPI DUP3 MLOAD DUP3 PUSH1 0x0 PUSH2 0x100 EXP DUP2 SLOAD DUP2 PUSH20 0xFFFFFFFFFFFFFFFFFFFFFFFFFFFFFFFFFFFFFFFF MUL NOT AND SWAP1 DUP4 PUSH20 0xFFFFFFFFFFFFFFFFFFFFFFFFFFFFFFFFFFFFFFFF AND MUL OR SWAP1 SSTORE POP SWAP2 PUSH1 0x20 ADD SWAP2 SWAP1 PUSH1 0x1 ADD SWAP1 PUSH2 0x1CD4 JUMP JUMPDEST JUMPDEST POP SWAP1 POP PUSH2 0x1D3A SWAP2 SWAP1 PUSH2 0x1D3E JUMP JUMPDEST POP SWAP1 JUMP JUMPDEST JUMPDEST DUP1 DUP3 GT ISZERO PUSH2 0x1D57 JUMPI PUSH1 0x0 DUP2 PUSH1 0x0 SWAP1 SSTORE POP PUSH1 0x1 ADD PUSH2 0x1D3F JUMP JUMPDEST POP SWAP1 JUMP JUMPDEST PUSH1 0x0 DUP1 REVERT JUMPDEST PUSH1 0x0 DUP2 SWAP1 POP SWAP2 SWAP1 POP JUMP JUMPDEST PUSH2 0x1D73 DUP2 PUSH2 0x1D60 JUMP JUMPDEST DUP2 EQ PUSH2 0x1D7E JUMPI PUSH1 0x0 DUP1 REVERT JUMPDEST POP JUMP JUMPDEST PUSH1 0x0 DUP2 CALLDATALOAD SWAP1 POP PUSH2 0x1D90 DUP2 PUSH2 0x1D6A JUMP JUMPDEST SWAP3 SWAP2 POP POP JUMP JUMPDEST PUSH1 0x0 PUSH1 0x20 DUP3 DUP5 SUB SLT ISZERO PUSH2 0x1DAC JUMPI PUSH2 0x1DAB PUSH2 0x1D5B JUMP JUMPDEST JUMPDEST PUSH1 0x0 PUSH2 0x1DBA DUP5 DUP3 DUP6 ADD PUSH2 0x1D81 JUMP JUMPDEST SWAP2 POP POP SWAP3 SWAP2 POP POP JUMP JUMPDEST PUSH1 0x0 DUP1 PUSH1 0x40 DUP4 DUP6 SUB SLT ISZERO PUSH2 0x1DDA JUMPI PUSH2 0x1DD9 PUSH2 0x1D5B JUMP JUMPDEST JUMPDEST PUSH1 0x0 PUSH2 0x1DE8 DUP6 DUP3 DUP7 ADD PUSH2 0x1D81 JUMP JUMPDEST SWAP3 POP POP PUSH1 0x20 PUSH2 0x1DF9 DUP6 DUP3 DUP7 ADD PUSH2 0x1D81 JUMP JUMPDEST SWAP2 POP POP SWAP3 POP SWAP3 SWAP1 POP JUMP JUMPDEST PUSH1 0x0 PUSH20 0xFFFFFFFFFFFFFFFFFFFFFFFFFFFFFFFFFFFFFFFF DUP3 AND SWAP1 POP SWAP2 SWAP1 POP JUMP JUMPDEST PUSH1 0x0 PUSH2 0x1E2E DUP3 PUSH2 0x1E03 JUMP JUMPDEST SWAP1 POP SWAP2 SWAP1 POP JUMP JUMPDEST PUSH2 0x1E3E DUP2 PUSH2 0x1E23 JUMP JUMPDEST DUP3 MSTORE POP POP JUMP JUMPDEST PUSH1 0x0 PUSH1 0x20 DUP3 ADD SWAP1 POP PUSH2 0x1E59 PUSH1 0x0 DUP4 ADD DUP5 PUSH2 0x1E35 JUMP JUMPDEST SWAP3 SWAP2 POP POP JUMP JUMPDEST PUSH1 0x0 DUP2 MLOAD SWAP1 POP SWAP2 SWAP1 POP JUMP JUMPDEST PUSH1 0x0 DUP3 DUP3 MSTORE PUSH1 0x20 DUP3 ADD SWAP1 POP SWAP3 SWAP2 POP POP JUMP JUMPDEST PUSH1 0x0 DUP2 SWAP1 POP PUSH1 0x20 DUP3 ADD SWAP1 POP SWAP2 SWAP1 POP JUMP JUMPDEST PUSH2 0x1E94 DUP2 PUSH2 0x1D60 JUMP JUMPDEST DUP3 MSTORE POP POP JUMP JUMPDEST PUSH2 0x1EA3 DUP2 PUSH2 0x1E23 JUMP JUMPDEST DUP3 MSTORE POP POP JUMP JUMPDEST PUSH1 0x0 PUSH4 0xFFFFFFFF DUP3 AND SWAP1 POP SWAP2 SWAP1 POP JUMP JUMPDEST PUSH2 0x1EC2 DUP2 PUSH2 0x1EA9 JUMP JUMPDEST DUP3 MSTORE POP POP JUMP JUMPDEST PUSH1 0x0 DUP2 MLOAD SWAP1 POP SWAP2 SWAP1 POP JUMP JUMPDEST PUSH1 0x0 DUP3 DUP3 MSTORE PUSH1 0x20 DUP3 ADD SWAP1 POP SWAP3 SWAP2 POP POP JUMP JUMPDEST PUSH1 0x0 DUP2 SWAP1 POP PUSH1 0x20 DUP3 ADD SWAP1 POP SWAP2 SWAP1 POP JUMP JUMPDEST PUSH1 0x0 PUSH2 0x1F00 DUP4 DUP4 PUSH2 0x1E9A JUMP JUMPDEST PUSH1 0x20 DUP4 ADD SWAP1 POP SWAP3 SWAP2 POP POP JUMP JUMPDEST PUSH1 0x0 PUSH1 0x20 DUP3 ADD SWAP1 POP SWAP2 SWAP1 POP JUMP JUMPDEST PUSH1 0x0 PUSH2 0x1F24 DUP3 PUSH2 0x1EC8 JUMP JUMPDEST PUSH2 0x1F2E DUP2 DUP6 PUSH2 0x1ED3 JUMP JUMPDEST SWAP4 POP PUSH2 0x1F39 DUP4 PUSH2 0x1EE4 JUMP JUMPDEST DUP1 PUSH1 0x0 JUMPDEST DUP4 DUP2 LT ISZERO PUSH2 0x1F6A JUMPI DUP2 MLOAD PUSH2 0x1F51 DUP9 DUP3 PUSH2 0x1EF4 JUMP JUMPDEST SWAP8 POP PUSH2 0x1F5C DUP4 PUSH2 0x1F0C JUMP JUMPDEST SWAP3 POP POP PUSH1 0x1 DUP2 ADD SWAP1 POP PUSH2 0x1F3D JUMP JUMPDEST POP DUP6 SWAP4 POP POP POP POP SWAP3 SWAP2 POP POP JUMP JUMPDEST PUSH1 0x0 DUP2 ISZERO ISZERO SWAP1 POP SWAP2 SWAP1 POP JUMP JUMPDEST PUSH2 0x1F8C DUP2 PUSH2 0x1F77 JUMP JUMPDEST DUP3 MSTORE POP POP JUMP JUMPDEST PUSH1 0x0 PUSH2 0x120 DUP4 ADD PUSH1 0x0 DUP4 ADD MLOAD PUSH2 0x1FAB PUSH1 0x0 DUP7 ADD DUP3 PUSH2 0x1E8B JUMP JUMPDEST POP PUSH1 0x20 DUP4 ADD MLOAD PUSH2 0x1FBE PUSH1 0x20 DUP7 ADD DUP3 PUSH2 0x1E9A JUMP JUMPDEST POP PUSH1 0x40 DUP4 ADD MLOAD PUSH2 0x1FD1 PUSH1 0x40 DUP7 ADD DUP3 PUSH2 0x1E8B JUMP JUMPDEST POP PUSH1 0x60 DUP4 ADD MLOAD PUSH2 0x1FE4 PUSH1 0x60 DUP7 ADD DUP3 PUSH2 0x1E8B JUMP JUMPDEST POP PUSH1 0x80 DUP4 ADD MLOAD PUSH2 0x1FF7 PUSH1 0x80 DUP7 ADD DUP3 PUSH2 0x1EB9 JUMP JUMPDEST POP PUSH1 0xA0 DUP4 ADD MLOAD PUSH2 0x200A PUSH1 0xA0 DUP7 ADD DUP3 PUSH2 0x1EB9 JUMP JUMPDEST POP PUSH1 0xC0 DUP4 ADD MLOAD DUP5 DUP3 SUB PUSH1 0xC0 DUP7 ADD MSTORE PUSH2 0x2022 DUP3 DUP3 PUSH2 0x1F19 JUMP JUMPDEST SWAP2 POP POP PUSH1 0xE0 DUP4 ADD MLOAD PUSH2 0x2037 PUSH1 0xE0 DUP7 ADD DUP3 PUSH2 0x1F83 JUMP JUMPDEST POP PUSH2 0x100 DUP4 ADD MLOAD PUSH2 0x204C PUSH2 0x100 DUP7 ADD DUP3 PUSH2 0x1F83 JUMP JUMPDEST POP DUP1 SWAP2 POP POP SWAP3 SWAP2 POP POP JUMP JUMPDEST PUSH1 0x0 PUSH2 0x2063 DUP4 DUP4 PUSH2 0x1F92 JUMP JUMPDEST SWAP1 POP SWAP3 SWAP2 POP POP JUMP JUMPDEST PUSH1 0x0 PUSH1 0x20 DUP3 ADD SWAP1 POP SWAP2 SWAP1 POP JUMP JUMPDEST PUSH1 0x0 PUSH2 0x2083 DUP3 PUSH2 0x1E5F JUMP JUMPDEST PUSH2 0x208D DUP2 DUP6 PUSH2 0x1E6A JUMP JUMPDEST SWAP4 POP DUP4 PUSH1 0x20 DUP3 MUL DUP6 ADD PUSH2 0x209F DUP6 PUSH2 0x1E7B JUMP JUMPDEST DUP1 PUSH1 0x0 JUMPDEST DUP6 DUP2 LT ISZERO PUSH2 0x20DB JUMPI DUP5 DUP5 SUB DUP10 MSTORE DUP2 MLOAD PUSH2 0x20BC DUP6 DUP3 PUSH2 0x2057 JUMP JUMPDEST SWAP5 POP PUSH2 0x20C7 DUP4 PUSH2 0x206B JUMP JUMPDEST SWAP3 POP PUSH1 0x20 DUP11 ADD SWAP10 POP POP PUSH1 0x1 DUP2 ADD SWAP1 POP PUSH2 0x20A3 JUMP JUMPDEST POP DUP3 SWAP8 POP DUP8 SWAP6 POP POP POP POP POP POP SWAP3 SWAP2 POP POP JUMP JUMPDEST PUSH1 0x0 PUSH1 0x20 DUP3 ADD SWAP1 POP DUP2 DUP2 SUB PUSH1 0x0 DUP4 ADD MSTORE PUSH2 0x2107 DUP2 DUP5 PUSH2 0x2078 JUMP JUMPDEST SWAP1 POP SWAP3 SWAP2 POP POP JUMP JUMPDEST PUSH2 0x2118 DUP2 PUSH2 0x1EA9 JUMP JUMPDEST DUP2 EQ PUSH2 0x2123 JUMPI PUSH1 0x0 DUP1 REVERT JUMPDEST POP JUMP JUMPDEST PUSH1 0x0 DUP2 CALLDATALOAD SWAP1 POP PUSH2 0x2135 DUP2 PUSH2 0x210F JUMP JUMPDEST SWAP3 SWAP2 POP POP JUMP JUMPDEST PUSH1 0x0 DUP1 PUSH1 0x0 PUSH1 0x60 DUP5 DUP7 SUB SLT ISZERO PUSH2 0x2154 JUMPI PUSH2 0x2153 PUSH2 0x1D5B JUMP JUMPDEST JUMPDEST PUSH1 0x0 PUSH2 0x2162 DUP7 DUP3 DUP8 ADD PUSH2 0x1D81 JUMP JUMPDEST SWAP4 POP POP PUSH1 0x20 PUSH2 0x2173 DUP7 DUP3 DUP8 ADD PUSH2 0x2126 JUMP JUMPDEST SWAP3 POP POP PUSH1 0x40 PUSH2 0x2184 DUP7 DUP3 DUP8 ADD PUSH2 0x2126 JUMP JUMPDEST SWAP2 POP POP SWAP3 POP SWAP3 POP SWAP3 JUMP JUMPDEST PUSH2 0x2197 DUP2 PUSH2 0x1E23 JUMP JUMPDEST DUP2 EQ PUSH2 0x21A2 JUMPI PUSH1 0x0 DUP1 REVERT JUMPDEST POP JUMP JUMPDEST PUSH1 0x0 DUP2 CALLDATALOAD SWAP1 POP PUSH2 0x21B4 DUP2 PUSH2 0x218E JUMP JUMPDEST SWAP3 SWAP2 POP POP JUMP JUMPDEST PUSH1 0x0 PUSH1 0x20 DUP3 DUP5 SUB SLT ISZERO PUSH2 0x21D0 JUMPI PUSH2 0x21CF PUSH2 0x1D5B JUMP JUMPDEST JUMPDEST PUSH1 0x0 PUSH2 0x21DE DUP5 DUP3 DUP6 ADD PUSH2 0x21A5 JUMP JUMPDEST SWAP2 POP POP SWAP3 SWAP2 POP POP JUMP JUMPDEST PUSH1 0x0 DUP2 SWAP1 POP SWAP2 SWAP1 POP JUMP JUMPDEST PUSH1 0x0 PUSH2 0x220C PUSH2 0x2207 PUSH2 0x2202 DUP5 PUSH2 0x1E03 JUMP JUMPDEST PUSH2 0x21E7 JUMP JUMPDEST PUSH2 0x1E03 JUMP JUMPDEST SWAP1 POP SWAP2 SWAP1 POP JUMP JUMPDEST PUSH1 0x0 PUSH2 0x221E DUP3 PUSH2 0x21F1 JUMP JUMPDEST SWAP1 POP SWAP2 SWAP1 POP JUMP JUMPDEST PUSH1 0x0 PUSH2 0x2230 DUP3 PUSH2 0x2213 JUMP JUMPDEST SWAP1 POP SWAP2 SWAP1 POP JUMP JUMPDEST PUSH2 0x2240 DUP2 PUSH2 0x2225 JUMP JUMPDEST DUP3 MSTORE POP POP JUMP JUMPDEST PUSH1 0x0 PUSH1 0x20 DUP3 ADD SWAP1 POP PUSH2 0x225B PUSH1 0x0 DUP4 ADD DUP5 PUSH2 0x2237 JUMP JUMPDEST SWAP3 SWAP2 POP POP JUMP JUMPDEST PUSH32 0x4E487B7100000000000000000000000000000000000000000000000000000000 PUSH1 0x0 MSTORE PUSH1 0x32 PUSH1 0x4 MSTORE PUSH1 0x24 PUSH1 0x0 REVERT JUMPDEST PUSH1 0x0 DUP3 DUP3 MSTORE PUSH1 0x20 DUP3 ADD SWAP1 POP SWAP3 SWAP2 POP POP JUMP JUMPDEST PUSH32 0x596F7520617265206E6F74207468652063726561746F72206F66207468697320 PUSH1 0x0 DUP3 ADD MSTORE PUSH32 0x63616D706169676E000000000000000000000000000000000000000000000000 PUSH1 0x20 DUP3 ADD MSTORE POP JUMP JUMPDEST PUSH1 0x0 PUSH2 0x22FD PUSH1 0x28 DUP4 PUSH2 0x2290 JUMP JUMPDEST SWAP2 POP PUSH2 0x2308 DUP3 PUSH2 0x22A1 JUMP JUMPDEST PUSH1 0x40 DUP3 ADD SWAP1 POP SWAP2 SWAP1 POP JUMP JUMPDEST PUSH1 0x0 PUSH1 0x20 DUP3 ADD SWAP1 POP DUP2 DUP2 SUB PUSH1 0x0 DUP4 ADD MSTORE PUSH2 0x232C DUP2 PUSH2 0x22F0 JUMP JUMPDEST SWAP1 POP SWAP2 SWAP1 POP JUMP JUMPDEST PUSH32 0x546869732063616D706169676E2773206F7065726174696F6E73206861732062 PUSH1 0x0 DUP3 ADD MSTORE PUSH32 0x65656E2073746F70706564000000000000000000000000000000000000000000 PUSH1 0x20 DUP3 ADD MSTORE POP JUMP JUMPDEST PUSH1 0x0 PUSH2 0x238F PUSH1 0x2B DUP4 PUSH2 0x2290 JUMP JUMPDEST SWAP2 POP PUSH2 0x239A DUP3 PUSH2 0x2333 JUMP JUMPDEST PUSH1 0x40 DUP3 ADD SWAP1 POP SWAP2 SWAP1 POP JUMP JUMPDEST PUSH1 0x0 PUSH1 0x20 DUP3 ADD SWAP1 POP DUP2 DUP2 SUB PUSH1 0x0 DUP4 ADD MSTORE PUSH2 0x23BE DUP2 PUSH2 0x2382 JUMP JUMPDEST SWAP1 POP SWAP2 SWAP1 POP JUMP JUMPDEST PUSH32 0x546F6B656E73206F6620746869732063616D706169676E20686173206265656E PUSH1 0x0 DUP3 ADD MSTORE PUSH32 0x20616C726561647920636C61696D656400000000000000000000000000000000 PUSH1 0x20 DUP3 ADD MSTORE POP JUMP JUMPDEST PUSH1 0x0 PUSH2 0x2421 PUSH1 0x30 DUP4 PUSH2 0x2290 JUMP JUMPDEST SWAP2 POP PUSH2 0x242C DUP3 PUSH2 0x23C5 JUMP JUMPDEST PUSH1 0x40 DUP3 ADD SWAP1 POP SWAP2 SWAP1 POP JUMP JUMPDEST PUSH1 0x0 PUSH1 0x20 DUP3 ADD SWAP1 POP DUP2 DUP2 SUB PUSH1 0x0 DUP4 ADD MSTORE PUSH2 0x2450 DUP2 PUSH2 0x2414 JUMP JUMPDEST SWAP1 POP SWAP2 SWAP1 POP JUMP JUMPDEST PUSH2 0x2460 DUP2 PUSH2 0x1D60 JUMP JUMPDEST DUP3 MSTORE POP POP JUMP JUMPDEST PUSH1 0x0 PUSH1 0x40 DUP3 ADD SWAP1 POP PUSH2 0x247B PUSH1 0x0 DUP4 ADD DUP6 PUSH2 0x1E35 JUMP JUMPDEST PUSH2 0x2488 PUSH1 0x20 DUP4 ADD DUP5 PUSH2 0x2457 JUMP JUMPDEST SWAP4 SWAP3 POP POP POP JUMP JUMPDEST PUSH2 0x2498 DUP2 PUSH2 0x1F77 JUMP JUMPDEST DUP2 EQ PUSH2 0x24A3 JUMPI PUSH1 0x0 DUP1 REVERT JUMPDEST POP JUMP JUMPDEST PUSH1 0x0 DUP2 MLOAD SWAP1 POP PUSH2 0x24B5 DUP2 PUSH2 0x248F JUMP JUMPDEST SWAP3 SWAP2 POP POP JUMP JUMPDEST PUSH1 0x0 PUSH1 0x20 DUP3 DUP5 SUB SLT ISZERO PUSH2 0x24D1 JUMPI PUSH2 0x24D0 PUSH2 0x1D5B JUMP JUMPDEST JUMPDEST PUSH1 0x0 PUSH2 0x24DF DUP5 DUP3 DUP6 ADD PUSH2 0x24A6 JUMP JUMPDEST SWAP2 POP POP SWAP3 SWAP2 POP POP JUMP JUMPDEST PUSH32 0x54686572652077617320612070726F626C656D2073656E64696E6720746F6B65 PUSH1 0x0 DUP3 ADD MSTORE PUSH32 0x6E73000000000000000000000000000000000000000000000000000000000000 PUSH1 0x20 DUP3 ADD MSTORE POP JUMP JUMPDEST PUSH1 0x0 PUSH2 0x2544 PUSH1 0x22 DUP4 PUSH2 0x2290 JUMP JUMPDEST SWAP2 POP PUSH2 0x254F DUP3 PUSH2 0x24E8 JUMP JUMPDEST PUSH1 0x40 DUP3 ADD SWAP1 POP SWAP2 SWAP1 POP JUMP JUMPDEST PUSH1 0x0 PUSH1 0x20 DUP3 ADD SWAP1 POP DUP2 DUP2 SUB PUSH1 0x0 DUP4 ADD MSTORE PUSH2 0x2573 DUP2 PUSH2 0x2537 JUMP JUMPDEST SWAP1 POP SWAP2 SWAP1 POP JUMP JUMPDEST PUSH32 0x546F6B656E7320666F7220746869732063616D706169676E2068617320626565 PUSH1 0x0 DUP3 ADD MSTORE PUSH32 0x6E20616C726561647920636C61696D6564000000000000000000000000000000 PUSH1 0x20 DUP3 ADD MSTORE POP JUMP JUMPDEST PUSH1 0x0 PUSH2 0x25D6 PUSH1 0x31 DUP4 PUSH2 0x2290 JUMP JUMPDEST SWAP2 POP PUSH2 0x25E1 DUP3 PUSH2 0x257A JUMP JUMPDEST PUSH1 0x40 DUP3 ADD SWAP1 POP SWAP2 SWAP1 POP JUMP JUMPDEST PUSH1 0x0 PUSH1 0x20 DUP3 ADD SWAP1 POP DUP2 DUP2 SUB PUSH1 0x0 DUP4 ADD MSTORE PUSH2 0x2605 DUP2 PUSH2 0x25C9 JUMP JUMPDEST SWAP1 POP SWAP2 SWAP1 POP JUMP JUMPDEST PUSH32 0x4E487B7100000000000000000000000000000000000000000000000000000000 PUSH1 0x0 MSTORE PUSH1 0x11 PUSH1 0x4 MSTORE PUSH1 0x24 PUSH1 0x0 REVERT JUMPDEST PUSH1 0x0 PUSH2 0x2646 DUP3 PUSH2 0x1D60 JUMP JUMPDEST SWAP2 POP PUSH2 0x2651 DUP4 PUSH2 0x1D60 JUMP JUMPDEST SWAP3 POP DUP3 DUP3 LT ISZERO PUSH2 0x2664 JUMPI PUSH2 0x2663 PUSH2 0x260C JUMP JUMPDEST JUMPDEST DUP3 DUP3 SUB SWAP1 POP SWAP3 SWAP2 POP POP JUMP JUMPDEST PUSH1 0x0 PUSH1 0x20 DUP3 ADD SWAP1 POP PUSH2 0x2684 PUSH1 0x0 DUP4 ADD DUP5 PUSH2 0x2457 JUMP JUMPDEST SWAP3 SWAP2 POP POP JUMP JUMPDEST PUSH1 0x0 PUSH2 0x2695 DUP3 PUSH2 0x1D60 JUMP JUMPDEST SWAP2 POP PUSH32 0xFFFFFFFFFFFFFFFFFFFFFFFFFFFFFFFFFFFFFFFFFFFFFFFFFFFFFFFFFFFFFFFF DUP3 SUB PUSH2 0x26C7 JUMPI PUSH2 0x26C6 PUSH2 0x260C JUMP JUMPDEST JUMPDEST PUSH1 0x1 DUP3 ADD SWAP1 POP SWAP2 SWAP1 POP JUMP JUMPDEST PUSH32 0x596F7520646F6E277420686176652074686520617574686F7269747920746F20 PUSH1 0x0 DUP3 ADD MSTORE PUSH32 0x63616E63656C20746869732063616D706169676E000000000000000000000000 PUSH1 0x20 DUP3 ADD MSTORE POP JUMP JUMPDEST PUSH1 0x0 PUSH2 0x272E PUSH1 0x34 DUP4 PUSH2 0x2290 JUMP JUMPDEST SWAP2 POP PUSH2 0x2739 DUP3 PUSH2 0x26D2 JUMP JUMPDEST PUSH1 0x40 DUP3 ADD SWAP1 POP SWAP2 SWAP1 POP JUMP JUMPDEST PUSH1 0x0 PUSH1 0x20 DUP3 ADD SWAP1 POP DUP2 DUP2 SUB PUSH1 0x0 DUP4 ADD MSTORE PUSH2 0x275D DUP2 PUSH2 0x2721 JUMP JUMPDEST SWAP1 POP SWAP2 SWAP1 POP JUMP JUMPDEST PUSH32 0x546865726520617265207374696C6C20736F6D6520746F6B656E7320706C6564 PUSH1 0x0 DUP3 ADD MSTORE PUSH32 0x67656420666F7220746869732063616D706169676E0000000000000000000000 PUSH1 0x20 DUP3 ADD MSTORE POP JUMP JUMPDEST PUSH1 0x0 PUSH2 0x27C0 PUSH1 0x35 DUP4 PUSH2 0x2290 JUMP JUMPDEST SWAP2 POP PUSH2 0x27CB DUP3 PUSH2 0x2764 JUMP JUMPDEST PUSH1 0x40 DUP3 ADD SWAP1 POP SWAP2 SWAP1 POP JUMP JUMPDEST PUSH1 0x0 PUSH1 0x20 DUP3 ADD SWAP1 POP DUP2 DUP2 SUB PUSH1 0x0 DUP4 ADD MSTORE PUSH2 0x27EF DUP2 PUSH2 0x27B3 JUMP JUMPDEST SWAP1 POP SWAP2 SWAP1 POP JUMP JUMPDEST PUSH32 0x43616D706169676E206E6F742073746172746564207965742100000000000000 PUSH1 0x0 DUP3 ADD MSTORE POP JUMP JUMPDEST PUSH1 0x0 PUSH2 0x282C PUSH1 0x19 DUP4 PUSH2 0x2290 JUMP JUMPDEST SWAP2 POP PUSH2 0x2837 DUP3 PUSH2 0x27F6 JUMP JUMPDEST PUSH1 0x20 DUP3 ADD SWAP1 POP SWAP2 SWAP1 POP JUMP JUMPDEST PUSH1 0x0 PUSH1 0x20 DUP3 ADD SWAP1 POP DUP2 DUP2 SUB PUSH1 0x0 DUP4 ADD MSTORE PUSH2 0x285B DUP2 PUSH2 0x281F JUMP JUMPDEST SWAP1 POP SWAP2 SWAP1 POP JUMP JUMPDEST PUSH32 0x43616D706169676E2068617320656E6465640000000000000000000000000000 PUSH1 0x0 DUP3 ADD MSTORE POP JUMP JUMPDEST PUSH1 0x0 PUSH2 0x2898 PUSH1 0x12 DUP4 PUSH2 0x2290 JUMP JUMPDEST SWAP2 POP PUSH2 0x28A3 DUP3 PUSH2 0x2862 JUMP JUMPDEST PUSH1 0x20 DUP3 ADD SWAP1 POP SWAP2 SWAP1 POP JUMP JUMPDEST PUSH1 0x0 PUSH1 0x20 DUP3 ADD SWAP1 POP DUP2 DUP2 SUB PUSH1 0x0 DUP4 ADD MSTORE PUSH2 0x28C7 DUP2 PUSH2 0x288B JUMP JUMPDEST SWAP1 POP SWAP2 SWAP1 POP JUMP JUMPDEST PUSH32 0x43616D706169676E2068617320616C7265616479207265616368656420746865 PUSH1 0x0 DUP3 ADD MSTORE PUSH32 0x20676F616C000000000000000000000000000000000000000000000000000000 PUSH1 0x20 DUP3 ADD MSTORE POP JUMP JUMPDEST PUSH1 0x0 PUSH2 0x292A PUSH1 0x25 DUP4 PUSH2 0x2290 JUMP JUMPDEST SWAP2 POP PUSH2 0x2935 DUP3 PUSH2 0x28CE JUMP JUMPDEST PUSH1 0x40 DUP3 ADD SWAP1 POP SWAP2 SWAP1 POP JUMP JUMPDEST PUSH1 0x0 PUSH1 0x20 DUP3 ADD SWAP1 POP DUP2 DUP2 SUB PUSH1 0x0 DUP4 ADD MSTORE PUSH2 0x2959 DUP2 PUSH2 0x291D JUMP JUMPDEST SWAP1 POP SWAP2 SWAP1 POP JUMP JUMPDEST PUSH32 0x43616D706169676E206F7065726174696F6E7320617265206465616374697661 PUSH1 0x0 DUP3 ADD MSTORE PUSH32 0x7465640000000000000000000000000000000000000000000000000000000000 PUSH1 0x20 DUP3 ADD MSTORE POP JUMP JUMPDEST PUSH1 0x0 PUSH2 0x29BC PUSH1 0x23 DUP4 PUSH2 0x2290 JUMP JUMPDEST SWAP2 POP PUSH2 0x29C7 DUP3 PUSH2 0x2960 JUMP JUMPDEST PUSH1 0x40 DUP3 ADD SWAP1 POP SWAP2 SWAP1 POP JUMP JUMPDEST PUSH1 0x0 PUSH1 0x20 DUP3 ADD SWAP1 POP DUP2 DUP2 SUB PUSH1 0x0 DUP4 ADD MSTORE PUSH2 0x29EB DUP2 PUSH2 0x29AF JUMP JUMPDEST SWAP1 POP SWAP2 SWAP1 POP JUMP JUMPDEST PUSH32 0x496E73756666696369656E742046756E64730000000000000000000000000000 PUSH1 0x0 DUP3 ADD MSTORE POP JUMP JUMPDEST PUSH1 0x0 PUSH2 0x2A28 PUSH1 0x12 DUP4 PUSH2 0x2290 JUMP JUMPDEST SWAP2 POP PUSH2 0x2A33 DUP3 PUSH2 0x29F2 JUMP JUMPDEST PUSH1 0x20 DUP3 ADD SWAP1 POP SWAP2 SWAP1 POP JUMP JUMPDEST PUSH1 0x0 PUSH1 0x20 DUP3 ADD SWAP1 POP DUP2 DUP2 SUB PUSH1 0x0 DUP4 ADD MSTORE PUSH2 0x2A57 DUP2 PUSH2 0x2A1B JUMP JUMPDEST SWAP1 POP SWAP2 SWAP1 POP JUMP JUMPDEST PUSH32 0x496E76616C6964206461746520746F2073746172740000000000000000000000 PUSH1 0x0 DUP3 ADD MSTORE POP JUMP JUMPDEST PUSH1 0x0 PUSH2 0x2A94 PUSH1 0x15 DUP4 PUSH2 0x2290 JUMP JUMPDEST SWAP2 POP PUSH2 0x2A9F DUP3 PUSH2 0x2A5E JUMP JUMPDEST PUSH1 0x20 DUP3 ADD SWAP1 POP SWAP2 SWAP1 POP JUMP JUMPDEST PUSH1 0x0 PUSH1 0x20 DUP3 ADD SWAP1 POP DUP2 DUP2 SUB PUSH1 0x0 DUP4 ADD MSTORE PUSH2 0x2AC3 DUP2 PUSH2 0x2A87 JUMP JUMPDEST SWAP1 POP SWAP2 SWAP1 POP JUMP JUMPDEST PUSH32 0x43616D7061696E6720656E642064617465206D757374206265206C6174657220 PUSH1 0x0 DUP3 ADD MSTORE PUSH32 0x7468616E20737461727420646174650000000000000000000000000000000000 PUSH1 0x20 DUP3 ADD MSTORE POP JUMP JUMPDEST PUSH1 0x0 PUSH2 0x2B26 PUSH1 0x2F DUP4 PUSH2 0x2290 JUMP JUMPDEST SWAP2 POP PUSH2 0x2B31 DUP3 PUSH2 0x2ACA JUMP JUMPDEST PUSH1 0x40 DUP3 ADD SWAP1 POP SWAP2 SWAP1 POP JUMP JUMPDEST PUSH1 0x0 PUSH1 0x20 DUP3 ADD SWAP1 POP DUP2 DUP2 SUB PUSH1 0x0 DUP4 ADD MSTORE PUSH2 0x2B55 DUP2 PUSH2 0x2B19 JUMP JUMPDEST SWAP1 POP SWAP2 SWAP1 POP JUMP JUMPDEST PUSH1 0x0 PUSH2 0x2B67 DUP3 PUSH2 0x1EA9 JUMP JUMPDEST SWAP2 POP PUSH2 0x2B72 DUP4 PUSH2 0x1EA9 JUMP JUMPDEST SWAP3 POP DUP3 PUSH4 0xFFFFFFFF SUB DUP3 GT ISZERO PUSH2 0x2B8B JUMPI PUSH2 0x2B8A PUSH2 0x260C JUMP JUMPDEST JUMPDEST DUP3 DUP3 ADD SWAP1 POP SWAP3 SWAP2 POP POP JUMP JUMPDEST PUSH32 0x43616D706169676E73206D757374206E6F74206C617374206D6F726520746861 PUSH1 0x0 DUP3 ADD MSTORE PUSH32 0x6E20393020646179730000000000000000000000000000000000000000000000 PUSH1 0x20 DUP3 ADD MSTORE POP JUMP JUMPDEST PUSH1 0x0 PUSH2 0x2BF2 PUSH1 0x29 DUP4 PUSH2 0x2290 JUMP JUMPDEST SWAP2 POP PUSH2 0x2BFD DUP3 PUSH2 0x2B96 JUMP JUMPDEST PUSH1 0x40 DUP3 ADD SWAP1 POP SWAP2 SWAP1 POP JUMP JUMPDEST PUSH1 0x0 PUSH1 0x20 DUP3 ADD SWAP1 POP DUP2 DUP2 SUB PUSH1 0x0 DUP4 ADD MSTORE PUSH2 0x2C21 DUP2 PUSH2 0x2BE5 JUMP JUMPDEST SWAP1 POP SWAP2 SWAP1 POP JUMP JUMPDEST PUSH1 0x0 PUSH2 0x2C43 PUSH2 0x2C3E PUSH2 0x2C39 DUP5 PUSH2 0x1EA9 JUMP JUMPDEST PUSH2 0x21E7 JUMP JUMPDEST PUSH2 0x1D60 JUMP JUMPDEST SWAP1 POP SWAP2 SWAP1 POP JUMP JUMPDEST PUSH2 0x2C53 DUP2 PUSH2 0x2C28 JUMP JUMPDEST DUP3 MSTORE POP POP JUMP JUMPDEST PUSH1 0x0 PUSH1 0x80 DUP3 ADD SWAP1 POP PUSH2 0x2C6E PUSH1 0x0 DUP4 ADD DUP8 PUSH2 0x2457 JUMP JUMPDEST PUSH2 0x2C7B PUSH1 0x20 DUP4 ADD DUP7 PUSH2 0x2457 JUMP JUMPDEST PUSH2 0x2C88 PUSH1 0x40 DUP4 ADD DUP6 PUSH2 0x2C4A JUMP JUMPDEST PUSH2 0x2C95 PUSH1 0x60 DUP4 ADD DUP5 PUSH2 0x2C4A JUMP JUMPDEST SWAP6 SWAP5 POP POP POP POP POP JUMP JUMPDEST PUSH32 0x4F776E61626C653A206E6577206F776E657220697320746865207A65726F2061 PUSH1 0x0 DUP3 ADD MSTORE PUSH32 0x6464726573730000000000000000000000000000000000000000000000000000 PUSH1 0x20 DUP3 ADD MSTORE POP JUMP JUMPDEST PUSH1 0x0 PUSH2 0x2CFA PUSH1 0x26 DUP4 PUSH2 0x2290 JUMP JUMPDEST SWAP2 POP PUSH2 0x2D05 DUP3 PUSH2 0x2C9E JUMP JUMPDEST PUSH1 0x40 DUP3 ADD SWAP1 POP SWAP2 SWAP1 POP JUMP JUMPDEST PUSH1 0x0 PUSH1 0x20 DUP3 ADD SWAP1 POP DUP2 DUP2 SUB PUSH1 0x0 DUP4 ADD MSTORE PUSH2 0x2D29 DUP2 PUSH2 0x2CED JUMP JUMPDEST SWAP1 POP SWAP2 SWAP1 POP JUMP JUMPDEST PUSH1 0x0 PUSH1 0x60 DUP3 ADD SWAP1 POP PUSH2 0x2D45 PUSH1 0x0 DUP4 ADD DUP7 PUSH2 0x1E35 JUMP JUMPDEST PUSH2 0x2D52 PUSH1 0x20 DUP4 ADD DUP6 PUSH2 0x1E35 JUMP JUMPDEST PUSH2 0x2D5F PUSH1 0x40 DUP4 ADD DUP5 PUSH2 0x2457 JUMP JUMPDEST SWAP5 SWAP4 POP POP POP POP JUMP JUMPDEST PUSH1 0x0 PUSH2 0x2D72 DUP3 PUSH2 0x1D60 JUMP JUMPDEST SWAP2 POP PUSH2 0x2D7D DUP4 PUSH2 0x1D60 JUMP JUMPDEST SWAP3 POP DUP3 PUSH32 0xFFFFFFFFFFFFFFFFFFFFFFFFFFFFFFFFFFFFFFFFFFFFFFFFFFFFFFFFFFFFFFFF SUB DUP3 GT ISZERO PUSH2 0x2DB2 JUMPI PUSH2 0x2DB1 PUSH2 0x260C JUMP JUMPDEST JUMPDEST DUP3 DUP3 ADD SWAP1 POP SWAP3 SWAP2 POP POP JUMP JUMPDEST PUSH32 0x4F776E61626C653A2063616C6C6572206973206E6F7420746865206F776E6572 PUSH1 0x0 DUP3 ADD MSTORE POP JUMP JUMPDEST PUSH1 0x0 PUSH2 0x2DF3 PUSH1 0x20 DUP4 PUSH2 0x2290 JUMP JUMPDEST SWAP2 POP PUSH2 0x2DFE DUP3 PUSH2 0x2DBD JUMP JUMPDEST PUSH1 0x20 DUP3 ADD SWAP1 POP SWAP2 SWAP1 POP JUMP JUMPDEST PUSH1 0x0 PUSH1 0x20 DUP3 ADD SWAP1 POP DUP2 DUP2 SUB PUSH1 0x0 DUP4 ADD MSTORE PUSH2 0x2E22 DUP2 PUSH2 0x2DE6 JUMP JUMPDEST SWAP1 POP SWAP2 SWAP1 POP JUMP INVALID LOG2 PUSH5 0x6970667358 0x22 SLT KECCAK256 0xCF EXTCODESIZE SWAP12 SWAP7 DIV OR SLT SGT 0xDB 0xEE SWAP9 0xBB CREATE2 CODESIZE 0xEA 0xD9 0xEF 0xBF 0xE0 OR SWAP1 DUP1 0xE2 0xDA PUSH6 0xBFF578E73FF 0x26 PUSH5 0x736F6C6343 STOP ADDMOD 0xD STOP CALLER "
		},
		"gasEstimates": {
			"creation": {
				"codeDepositCost": "2374200",
				"executionCost": "infinite",
				"totalCost": "infinite"
			},
			"external": {
				"cancel(uint256)": "infinite",
				"claimAllAndEnd(uint256)": "infinite",
				"claimPartial(uint256,uint256)": "infinite",
				"createCampaign(uint256,uint32,uint32)": "infinite",
				"getCampaigns()": "infinite",
				"owner()": "2545",
				"pledge(uint256,uint256)": "infinite",
				"refund(uint256)": "infinite",
				"renounceOwnership()": "30509",
				"toggleCanOperate(uint256)": "31459",
				"token()": "infinite",
				"transferOwnership(address)": "30788",
				"unpledge(uint256,uint256)": "infinite"
			}
		},
		"methodIdentifiers": {
			"cancel(uint256)": "40e58ee5",
			"claimAllAndEnd(uint256)": "26b0739c",
			"claimPartial(uint256,uint256)": "4854424e",
			"createCampaign(uint256,uint32,uint32)": "e4913224",
			"getCampaigns()": "a6b03633",
			"owner()": "8da5cb5b",
			"pledge(uint256,uint256)": "fde327be",
			"refund(uint256)": "278ecde1",
			"renounceOwnership()": "715018a6",
			"toggleCanOperate(uint256)": "ad94a7d7",
			"token()": "fc0c546a",
			"transferOwnership(address)": "f2fde38b",
			"unpledge(uint256,uint256)": "711853ab"
		}
	},
	"abi": [
		{
			"inputs": [
				{
					"internalType": "address",
					"name": "_token",
					"type": "address"
				}
			],
			"stateMutability": "nonpayable",
			"type": "constructor"
		},
		{
			"anonymous": false,
			"inputs": [
				{
					"indexed": false,
					"internalType": "uint256",
					"name": "id",
					"type": "uint256"
				}
			],
			"name": "Cancel",
			"type": "event"
		},
		{
			"anonymous": false,
			"inputs": [
				{
					"indexed": true,
					"internalType": "uint256",
					"name": "id",
					"type": "uint256"
				},
				{
					"indexed": false,
					"internalType": "address",
					"name": "creator",
					"type": "address"
				},
				{
					"indexed": false,
					"internalType": "uint256",
					"name": "amount",
					"type": "uint256"
				}
			],
			"name": "Claim",
			"type": "event"
		},
		{
			"anonymous": false,
			"inputs": [
				{
					"indexed": false,
					"internalType": "uint256",
					"name": "id",
					"type": "uint256"
				},
				{
					"indexed": true,
					"internalType": "address",
					"name": "creator",
					"type": "address"
				},
				{
					"indexed": false,
					"internalType": "uint256",
					"name": "goal",
					"type": "uint256"
				},
				{
					"indexed": false,
					"internalType": "uint256",
					"name": "start",
					"type": "uint256"
				},
				{
					"indexed": false,
					"internalType": "uint256",
					"name": "end",
					"type": "uint256"
				}
			],
			"name": "Created",
			"type": "event"
		},
		{
			"anonymous": false,
			"inputs": [
				{
					"indexed": true,
					"internalType": "address",
					"name": "previousOwner",
					"type": "address"
				},
				{
					"indexed": true,
					"internalType": "address",
					"name": "newOwner",
					"type": "address"
				}
			],
			"name": "OwnershipTransferred",
			"type": "event"
		},
		{
			"anonymous": false,
			"inputs": [
				{
					"indexed": true,
					"internalType": "uint256",
					"name": "id",
					"type": "uint256"
				},
				{
					"indexed": true,
					"internalType": "address",
					"name": "pledger",
					"type": "address"
				},
				{
					"indexed": false,
					"internalType": "uint256",
					"name": "amount",
					"type": "uint256"
				}
			],
			"name": "Pledged",
			"type": "event"
		},
		{
			"anonymous": false,
			"inputs": [
				{
					"indexed": false,
					"internalType": "uint256",
					"name": "id",
					"type": "uint256"
				},
				{
					"indexed": true,
					"internalType": "address",
					"name": "caller",
					"type": "address"
				},
				{
					"indexed": false,
					"internalType": "uint256",
					"name": "amount",
					"type": "uint256"
				}
			],
			"name": "Refund",
			"type": "event"
		},
		{
			"anonymous": false,
			"inputs": [
				{
					"indexed": true,
					"internalType": "uint256",
					"name": "id",
					"type": "uint256"
				},
				{
					"indexed": true,
					"internalType": "address",
					"name": "unpledger",
					"type": "address"
				},
				{
					"indexed": false,
					"internalType": "uint256",
					"name": "amount",
					"type": "uint256"
				}
			],
			"name": "Unpledged",
			"type": "event"
		},
		{
			"inputs": [
				{
					"internalType": "uint256",
					"name": "id",
					"type": "uint256"
				}
			],
			"name": "cancel",
			"outputs": [],
			"stateMutability": "nonpayable",
			"type": "function"
		},
		{
			"inputs": [
				{
					"internalType": "uint256",
					"name": "id",
					"type": "uint256"
				}
			],
			"name": "claimAllAndEnd",
			"outputs": [],
			"stateMutability": "nonpayable",
			"type": "function"
		},
		{
			"inputs": [
				{
					"internalType": "uint256",
					"name": "id",
					"type": "uint256"
				},
				{
					"internalType": "uint256",
					"name": "amount",
					"type": "uint256"
				}
			],
			"name": "claimPartial",
			"outputs": [],
			"stateMutability": "nonpayable",
			"type": "function"
		},
		{
			"inputs": [
				{
					"internalType": "uint256",
					"name": "_goal",
					"type": "uint256"
				},
				{
					"internalType": "uint32",
					"name": "_start",
					"type": "uint32"
				},
				{
					"internalType": "uint32",
					"name": "_end",
					"type": "uint32"
				}
			],
			"name": "createCampaign",
			"outputs": [],
			"stateMutability": "nonpayable",
			"type": "function"
		},
		{
			"inputs": [],
			"name": "getCampaigns",
			"outputs": [
				{
					"components": [
						{
							"internalType": "uint256",
							"name": "id",
							"type": "uint256"
						},
						{
							"internalType": "address",
							"name": "creator",
							"type": "address"
						},
						{
							"internalType": "uint256",
							"name": "goal",
							"type": "uint256"
						},
						{
							"internalType": "uint256",
							"name": "pledged",
							"type": "uint256"
						},
						{
							"internalType": "uint32",
							"name": "start",
							"type": "uint32"
						},
						{
							"internalType": "uint32",
							"name": "end",
							"type": "uint32"
						},
						{
							"internalType": "address[]",
							"name": "donors",
							"type": "address[]"
						},
						{
							"internalType": "bool",
							"name": "claimed",
							"type": "bool"
						},
						{
							"internalType": "bool",
							"name": "canOperate",
							"type": "bool"
						}
					],
					"internalType": "struct CrowdFund.Campaign[]",
					"name": "",
					"type": "tuple[]"
				}
			],
			"stateMutability": "view",
			"type": "function"
		},
		{
			"inputs": [],
			"name": "owner",
			"outputs": [
				{
					"internalType": "address",
					"name": "",
					"type": "address"
				}
			],
			"stateMutability": "view",
			"type": "function"
		},
		{
			"inputs": [
				{
					"internalType": "uint256",
					"name": "id",
					"type": "uint256"
				},
				{
					"internalType": "uint256",
					"name": "amount",
					"type": "uint256"
				}
			],
			"name": "pledge",
			"outputs": [],
			"stateMutability": "nonpayable",
			"type": "function"
		},
		{
			"inputs": [
				{
					"internalType": "uint256",
					"name": "id",
					"type": "uint256"
				}
			],
			"name": "refund",
			"outputs": [],
			"stateMutability": "nonpayable",
			"type": "function"
		},
		{
			"inputs": [],
			"name": "renounceOwnership",
			"outputs": [],
			"stateMutability": "nonpayable",
			"type": "function"
		},
		{
			"inputs": [
				{
					"internalType": "uint256",
					"name": "id",
					"type": "uint256"
				}
			],
			"name": "toggleCanOperate",
			"outputs": [],
			"stateMutability": "nonpayable",
			"type": "function"
		},
		{
			"inputs": [],
			"name": "token",
			"outputs": [
				{
					"internalType": "contract IERC20",
					"name": "",
					"type": "address"
				}
			],
			"stateMutability": "view",
			"type": "function"
		},
		{
			"inputs": [
				{
					"internalType": "address",
					"name": "newOwner",
					"type": "address"
				}
			],
			"name": "transferOwnership",
			"outputs": [],
			"stateMutability": "nonpayable",
			"type": "function"
		},
		{
			"inputs": [
				{
					"internalType": "uint256",
					"name": "id",
					"type": "uint256"
				},
				{
					"internalType": "uint256",
					"name": "amount",
					"type": "uint256"
				}
			],
			"name": "unpledge",
			"outputs": [],
			"stateMutability": "nonpayable",
			"type": "function"
		}
	]
}